:020000040800F2
:1000000000040020DF0D0008ED0D0008EF0D0008D2
:10001000F10D0008F30D0008F50D000800000000C8
:10002000000000000000000000000000F70D0008C4
:10003000F90D000800000000FB0D0008FD0D000890
:10004000410E0008430E0008450E0008470E000848
:10005000490E00084B0E00084D0E00084F0E000818
:10006000510E0008530E0008550E0008570E0008E8
:10007000590E00085B0E00085D0E00085F0E0008B8
:10008000610E0008630E0008650E0008FF0D0008F1
:10009000FF0D0008FF0D0008FF0D00086F0E00089F
:1000A000710E0008730E0008750E0008770E000828
:1000B000790E00087B0E00087D0E00087F0E0008F8
:1000C000810E0008830E0008850E0008870E0008C8
:1000D000890E00088B0E00088D0E00088F0E000898
:1000E000910E0008930E0008950E0008970E000868
:1000F000990E00089B0E00089D0E00089F0E000838
:10010000A10E0008A30E0008A50E0008A70E000807
:10011000A90E0008AB0E0008AD0E0008AF0E0008D7
:10012000B10E0008B30E0008B50E0008B70E0008A7
:1001300000F002F800F03AF80AA090E8000C8244BF
:100140008344AAF10107DA4501D100F02FF8AFF29C
:10015000090EBAE80F0013F0010F18BFFB1A43F0A5
:1001600001031847E458000004590000103A24BF66
:1001700078C878C1FAD8520724BF30C830C144BF0C
:1001800004680C607047000000230024002500264E
:10019000103A28BF78C1FBD8520728BF30C148BFEA
:1001A0000B6070471FB51FBD10B510BD01F017FAE9
:1001B0001146FFF7F7FF00F007FF01F035FA03B42F
:1001C000FFF7F2FF03BC01F039FA000010B5044656
:1001D000C248844208D10121042000F017FB00210D
:1001E000042000F013FB46E0BD48844208D1012101
:1001F000082000F00BFB0021082000F007FB3AE08C
:10020000B848844208D10121102000F0FFFA0021F3
:10021000102000F0FBFA2EE0B348844208D10121FF
:10022000202000F0F3FA0021202000F0EFFA22E075
:10023000AE48844208D10121402000F0E7FA0021B5
:10024000402000F0E3FA16E0A948844208D10121D9
:10025000802000F0DBFA0021802000F0D7FA0AE0CD
:10026000A448844207D10121801500F0CFFA002173
:10027000A01500F0CBFA10BD10B50121084600F022
:10028000C5FA0021012000F0C1FA10BD2DE9F041AE
:10029000024600250026002000230024002791F8B4
:1002A00003C00CF00F0591F803C01CF0100F03D031
:1002B00091F802C04CEA050591F800C0BCF1000FAE
:1002C00031D0146800202BE04FF0010C0CFA00F341
:1002D000B1F800C00CEA03069E4220D183004FF023
:1002E0000F0C0CFA03F7BC4305FA03FC4CEA0404B8
:1002F00091F803C0BCF1280F06D14FF0010C0CFAA5
:1003000000FCC2F814C00AE091F803C0BCF1480F29
:1003100005D14FF0010C0CFA00FCC2F810C0401CD3
:100320000828D1D31460B1F800C0BCF1FF0F34DD50
:10033000546800202EE000F1080C4FF0010808FA84
:100340000CF3B1F800C00CEA03069E4221D18300F1
:100350004FF00F0C0CFA03F7BC4305FA03FC4CEA10
:10036000040491F803C0BCF1280F05D100F1080C7A
:1003700008FA0CF8C2F8148091F803C0BCF1480FD9
:1003800007D100F1080C4FF0010808FA0CF8C2F888
:100390001080401C0828CED35460BDE8F0814FF691
:1003A000FF710180022181700421C17070470246F3
:1003B000002093680B4201D0012000E0002070472C
:1003C0000146886880B2704702460020D3680B421D
:1003D00001D0012000E0002070470146C86880B2CB
:1003E000704701617047416170470AB1016100E0E7
:1003F00041617047C16070474FF480320A438261A7
:1004000081618261826982697047024600203A4BAD
:1004100018684FF68073184040EA02100843364BC4
:10042000186070473549C8617047F0B50A46002327
:10043000002400210025304E7168C0F3034583B2CB
:1004400000F44016B6F5401F08D121F070612A4E25
:10045000766826F07066284F7E6012E000F4801601
:10046000B6F5801F06D1032606FA05F4A14341F034
:10047000706106E0460D360103FA06F6B14341F01D
:10048000706122B1460D360103FA06F631431A4E69
:100490007160F0BD30B500228B071C0F0F2303FAEB
:1004A00004F2154B08338C1053F824309343124C4C
:1004B00008348D1044F8253023468C1053F824302E
:1004C0008C07240F00FA04F423430B4C08348D10DE
:1004D00044F8253030BD0A490860704700080140E3
:1004E000000C0140001001400014014000180140C0
:1004F000001C01400020014000000140000020429B
:10050000DC002042DD48006840F00100DB49086063
:1005100008464068DA490840D849486008460068FB
:10052000D8490840D54908600846006820F4802072
:1005300008600846406820F4FE0048604FF41F0041
:1005400088607047CD49096821F48031CB4A116039
:100550001146096821F480211160B0F5803F03D075
:10056000B0F5802F0ED106E0C449096841F480310E
:10057000C24A116007E0C149096841F4A021BF4A9D
:10058000116000E000BF00BF704710B501460022B7
:10059000002300204A11012A02D1B84C236806E04A
:1005A000022A02D1B54C236A01E0B44C636A01F01F
:1005B0001F02012494401C4201D0012000E00020D1
:1005C00010BD38B5002000900024002500BF312068
:1005D000FFF7DBFF05460098401C00900098B0F53F
:1005E000A06F01D0002DF2D03120FFF7CEFF08B16F
:1005F000012400E00024204638BD014600209F4A27
:10060000106820F0F80040EAC100106070479E4971
:100610000860704702460020984B586820F47C1010
:1006200042EA01031843954B5860704796490866A3
:10063000704701460020914A506820F003000843AB
:10064000506070478D48406800F00C0070470146CC
:1006500000208A4A506820F0F0000843506070473C
:1006600001460020854A506820F4E060084350604D
:10067000704701460020814A506820F4605040EAEB
:10068000C1005060704729B17C4A527A02437B4BCB
:100690005A7204E0794A527A8243784B5A72704710
:1006A0007A490860704701460020744A506820F477
:1006B00040400843506070470021754A11706F4AEE
:1006C00082F82010012802D0042808D103E001217B
:1006D0006F4A117004E005216D4A117000E000BFFF
:1006E00000BF70476B49086070476449096A01435D
:1006F000624A11627047674944390860704730B5F3
:1007000000210022002400235C4D6D6805F00C01DF
:1007100021B1042905D0082923D105E05E4D0560EB
:1007200022E05D4D05601FE0544D6D6805F47012C8
:10073000524D6D6805F48034022505EB92421CB9D8
:10074000564D554305600BE04C4D6D6815F4003F68
:1007500003D0524D5543056002E04F4D55430560AF
:1007600002E04D4D056000BF00BF444D6D6805F0CF
:10077000F00109094A4D6B5C0568DD4045603F4D5D
:100780006D6805F4E061090A454D6B5C4568DD4024
:1007900085603A4D6D6805F46051C90A404D6B5C47
:1007A0004568DD40C560354D6D6805F44041890BF5
:1007B0003C4D6B5CC568B5FBF3F5056130BD29B1F7
:1007C0002E4A526902432D4B5A6104E02B4A52696A
:1007D00082432A4B5A61704729B1284A92690243E1
:1007E000264B9A6104E0254A92698243234B9A6121
:1007F000704729B1214AD2690243204BDA6104E0F3
:100800001E4AD26982431D4BDA61704729B11B4AE7
:10081000D2680243194BDA6004E0184AD268824376
:10082000164BDA60704729B1144A12690243134B20
:100830001A6104E0114A12698243104B1A61704731
:1008400014494039086070470F49C86470470B4924
:10085000C87170470948406A40F080700749486293
:10086000704701460020054A92680A4201D00120E3
:1008700000E0002070470149887270470010024074
:100880000000FFF8FFFFF6FE00004242D80042429F
:10089000201002408004424200127A0000093D000C
:1008A000000000201000002001460020FD4A1068D2
:1008B00000F03800084310607047FA49096821F0D9
:1008C0000801F84A11601146096801431160704738
:1008D000F449096821F01001F24A116011460968D3
:1008E000014311607047F048EE494860EF484860A6
:1008F0007047EC48006940F08000EA4908617047A1
:100900000420E849C96811F0010F01D001200EE070
:10091000E449C96811F0040F01D0022007E0E14961
:10092000C96811F0100F01D0032000E004207047C7
:1009300008B500200090FF20009002E00098401EC3
:10094000009000980028F9D108BD70B50446042530
:10095000FFF7D6FF054605E0FFF7EAFFFFF7D0FFF8
:100960000546641E012D01D1002CF5D104B90525E1
:10097000284670BD70B50546042440F6FF70FFF7A9
:10098000E4FF0446042C19D1C648006940F0020077
:10099000C449086108464561006940F040000861AB
:1009A00040F6FF70FFF7D1FF0446052C06D0BD4886
:1009B000006941F6FD710840BA490861204670BDE2
:1009C00010B5042440F6FF70FFF7BFFF0446042C67
:1009D00018D1B448006940F00400B24908610846E3
:1009E000006940F04000086140F6FF70FFF7ADFF7E
:1009F0000446052C06D0AB48006941F6FB7108405F
:100A0000A8490861204610BD10B5042440F6FF70C7
:100A1000FFF79BFF0446042C3BD1A348A149886003
:100A2000A24888600846006940F020000861084636
:100A3000006940F04000086140F6FF70FFF785FF55
:100A40000446042C1CD19748006941F6DF71084028
:100A5000944908610846006940F010000861A5202B
:100A6000934908800F20FFF770FF0446052C10D033
:100A70008C48006941F6EF7108408A49086108E036
:100A8000052C06D08748006941F6EF71084085497A
:100A90000861204610BDF8B506460D460424002026
:100AA00000900F20FFF751FF0446042C28D17D4809
:100AB000006940F001007B49086135800F20FFF795
:100AC00044FF0446042C12D1B01C0090280C00995D
:100AD00008800F20FFF739FF0446052C10D071481D
:100AE000006941F6FE7108406E49086108E0052C76
:100AF00006D06C48006941F6FE71084069490861FA
:100B00002046F8BD70B505460E4604240F20FFF7B9
:100B10001CFF0446042C13D16248006940F0010018
:100B2000604908612E800F20FFF70FFF0446052C57
:100B300006D05C48006941F6FE71084059490861D9
:100B4000204670BD70B505460E4604240F20FFF701
:100B5000FCFE0446042C17D1534852498860534880
:100B600088600846006940F0100008612E800F2060
:100B7000FFF7EBFE0446052C06D04A48006941F613
:100B8000EF71084047490861204670BD2DE9F047E4
:100B900004464FF6FF763746B046B1460425E44397
:100BA000E6B2C4F30727C4F307484FEA14690F20DD
:100BB000FFF7CBFE0546042D40D13B4839498860FC
:100BC0003A4888600846006940F010000861FF2E2E
:100BD00006D03748083006800F20FFF7B6FE0546DE
:100BE000042D08D1FF2F06D031480A3007800F208E
:100BF000FFF7ABFE0546042D0AD1B8F1FF0F07D071
:100C00002B480C30A0F800800F20FFF79EFE054611
:100C1000042D0AD1B9F1FF0F07D025480E30A0F8F6
:100C200000900F20FFF791FE0546052D06D01D48C8
:100C3000006941F6EF7108401A4908612846BDE88D
:100C4000F08770B50546042440F6FF70FFF77DFE7F
:100C50000446042C49D1144812498860134888601E
:100C60000846006940F0200008610846006940F02D
:100C70004000086140F6FF70FFF767FE0446042C51
:100C80002AD10848006941F6DF710840054908612A
:100C90000846006940F0100008615DB10020044979
:100CA00008800AE00020024023016745AB89EFCDB0
:100CB00000F8FF1FA5204549088040F6FF70FFF7A8
:100CC00044FE0446052C10D04148006941F6EF71FE
:100CD00008403F49086108E0052C06D03C480069FF
:100CE00041F6DF7108403A490861204670BD2DE9A0
:100CF000F04105460E4617460424364834498860BC
:100D0000354888600F20FFF720FE0446042C19D1D7
:100D10002F48006940F010002D49086147F0F800A5
:100D2000304328432949891C08800F20FFF70DFE16
:100D30000446052C06D02648006941F6EF710840AC
:100D4000234908612046BDE8F0812148C069800838
:100D500070471F48006A704700201D49C96911F09B
:100D6000020F01D0012000E0002070470020184948
:100D7000096811F0200F01D0012000E00020704729
:100D800029B1134A12690243114B1A6104E0104A57
:100D9000126982430E4B1A617047014600200129F7
:100DA00008D10B4AD26912F0010F01D0012008E0EE
:100DB000002006E0064AD2680A4201D0012000E085
:100DC000002070470249C8607047000000F8FF1F0C
:100DD0000020024023016745AB89EFCD70470B48E7
:100DE00080470B4981F308880A480047FEE7FEE781
:100DF000FEE7FEE7FEE7FEE7FEE7FEE7FEE7FEE7CB
:100E000005480649064A074B70470000DD0D0008FB
:100E100078060020310100087800002078060020C4
:100E200078020020780200207047704700BFFEE77C
:100E300000BFFEE700BFFEE770477047704770478E
:100E400070477047704770477047704770477047EA
:100E500070477047704770477047704770477047DA
:100E600070477047704770477047704770477047CA
:100E700070477047704770477047704770477047BA
:100E800070477047704770477047704770477047AA
:100E9000704770477047704770477047704770479A
:100EA000704770477047704770477047704770478A
:100EB000704770477047704708B501216020FFF701
:100EC0008BFC4FF4E060ADF8000010208DF80300BB
:100ED00002208DF802006946C448FFF7D7F94FF4A5
:100EE0004040ADF8000010208DF8030002208DF87E
:100EF00002006946BE48FFF7C9F94FF40050ADF84B
:100F0000000028208DF8030002208DF802006946B9
:100F1000B748FFF7BBF94FF48050ADF80000102040
:100F20008DF8030002208DF802006946B048FFF7F3
:100F3000ADF908BD10B5FFF7E5FA4FF48030FFF7C3
:100F400001FBFFF73EFBAB4908700846007801281B
:100F500005D14FF4E0110004FFF75CFB0DE0012028
:100F6000FFF755FB00BF2120FFF70FFB0028FAD049
:100F70004FF460110020FFF74DFB1020FFF7A8FC95
:100F80000220FFF791FC0020FFF761FB0020FFF734
:100F900070FB4FF48060FFF763FB0120FFF746FB17
:100FA00000BF3920FFF7F1FA0028FAD00220FFF73E
:100FB00040FB00BFFFF746FB0828FBD1012144F2AC
:100FC0000500FFF709FC10BD1CB5FFF7B3FFFFF7E5
:100FD00073FF08E100F0A1F9874800F02AFA00F059
:100FE000C8FA40F2DC5000F021F900F096F983488D
:100FF00000F032FA00F0BDFA4FF4FA7000F016F982
:1010000000F08BF90220202111237D4ACDE9001048
:101010003821062000F043FA032020211123794AC9
:10102000CDE900103821B22000F039FA0120582112
:101030002E23754ACDE9001038211F2000F02FFA29
:10104000012058212E23714ACDE90010382150206B
:1010500000F025FA012008210B466D4ACDE9001069
:101060008821812000F01BFA012038211D23694AC4
:10107000CDE9001058218C2000F011FA0120182130
:101080001A23654ACDE9001038218E2000F007FAB6
:1010900000F0C2F900F06DFA40F2DC5000F0C6F842
:1010A00000F09BF9032020211123554ACDE90010BF
:1010B0003821062000F0F3F9022020211123514AA3
:1010C000CDE900103821B22000F0E9F901205821C3
:1010D0002E23524ACDE9001038211F2000F0DFF9FD
:1010E000012058212E234E4ACDE9001038215020EE
:1010F00000F0D5F9032008210B46454ACDE9001040
:101100008821812000F0CBF9032038211D23414A9A
:10111000CDE9001058218C2000F0C1F903201821DE
:101120001A233D4ACDE9001038218E2000F0B7F98E
:10113000012008210B46364ACDE9001068218120A4
:1011400000F0ADF9012038211D23364ACDE9001009
:101150008C2000F0A4F9012018211F23324ACDE988
:10116000001078218B2000F09AF900F055F900F07A
:1011700000FA40F2DC5000F059F800F0CEF800F030
:1011800003FA00F0F6F900F0C8F80120C8210B4678
:10119000194ACDE900100021084600F080F900F05E
:1011A0003BF900F0E6F94FF47A7000F03FF800F0F8
:1011B00014F90120C8210B46104ACDE90010002186
:1011C000084600F06CF900F027F900F0D2F940F27F
:1011D000DC5000F02BF800F0A0F800F0D5F900F09A
:1011E000C8F900BFFEE7F5E67047000000140140B3
:1011F0000018014014000020BF46000837330008E3
:1012000004320008483200082C2000084418000866
:10121000FC310008313100088C3200082622000819
:101220004A160008A42B0008DA3200080022002128
:1012300000BF06E0002200E0521CB2F5205FFBD3A5
:10124000491C8142F6D3704770B5044625464FF4D9
:101250000071DF48FFF7C7F800261BE015F0800F8C
:1012600005D04FF48061DA48FFF7BBF804E04FF493
:101270008061D748FFF7B7F84FF40071D448FFF703
:10128000B0F84FF40071D248FFF7ADF86806050ECC
:10129000701CC6B2082EE1DB70BD10B506E04FF43D
:1012A0000051CC48FFF783F800B900E0F7E700BF32
:1012B00010BD10B504464FF48071C548FFF791F892
:1012C0004FF48071C248FFF78EF84FF40041C148D7
:1012D000FFF789F82046FFF7B7FF4FF48071BC484D
:1012E000FFF77FF810BD10B504464FF48071B84881
:1012F000FFF777F84FF48071B548FFF774F84FF4B3
:101300000041B448FFF76DF82046FFF79DFF4FF40A
:101310008071AF48FFF765F810BD10B54FF48041FC
:10132000AC48FFF760F86420FFF780FF4FF480417E
:10133000A848FFF756F86420FFF778FFFFF7ADFFE6
:101340001220FFF7B6FFFFF7A8FF0120FFF7B1FF5C
:10135000C720FFF7C8FF0020FFF7C5FF0020FFF7F9
:10136000C2FF1120FFF7A5FF0120FFF7BCFF4420BB
:10137000FFF79FFF0020FFF7B6FF1820FFF7B3FF2E
:101380004520FFF796FFC720FFF7ADFF0020FFF7CE
:10139000AAFF0020FFF7A7FF0020FFF7A4FF3C20D3
:1013A000FFF787FF0520FFF79EFF1820FFF781FF5B
:1013B0008020FFF798FF4E20FFF77BFF0020FFF70C
:1013C00092FF4F20FFF775FFC720FFF78CFF00202B
:1013D000FFF789FFFFF761FF10BD10B54FF48041A3
:1013E0007C48FFF700F86420FFF720FF4FF48041AE
:1013F0007848FEF7F6FF6420FFF718FF10BD10B520
:101400002220FFF756FFF720FFF76DFF2020FFF7A0
:1014100050FFFFF742FF10BD10B52220FFF749FF34
:10142000FF20FFF760FF2020FFF743FFFFF735FFA6
:1014300010BD70B504462420FFF73BFF002504E0F3
:101440002078FFF750FF641C6D1C41F28830854204
:10145000F6D3FFF7D4FF70BD70B5044626462420AE
:10146000FFF727FF002504E02078FFF73CFF641C0E
:101470006D1C41F288308542F6D334462620FFF7B2
:1014800018FF002504E02078FFF72DFF641C6D1C79
:1014900041F288308542F6D3FFF7B1FF70BD2DE9E8
:1014A000FF5F82460E4615469846DDE90EB9F608FE
:1014B00006EBDB00401E0290CAF1C804200A01902E
:1014C000E4B2A4EB0807380A0090FFB24420FFF70B
:1014D000F0FEF0B2FFF707FF0299C8B2FFF703FF73
:1014E0004520FFF7E6FE2046FFF7FDFE0199C8B252
:1014F000FFF7F9FE3846FFF7F6FE0099C8B2FFF78E
:10150000F2FE4E20FFF7D5FEF0B2FFF7ECFE4F20C3
:10151000FFF7CFFE2046FFF7E6FE0199C8B2FFF7BE
:10152000E2FE2420FFF7C5FE0020039019E0B9F188
:10153000010F03D12878FFF7D6FE6D1CB9F1020F19
:1015400005D12978C943C8B2FFF7CDFE6D1CB9F1AA
:10155000030F03D1FF20FFF7C6FE6D1C0398401C4C
:10156000039008FB0BF00399B1EBD00FDFD3BDE87C
:10157000FF9F10B51020FFF79CFE0120FFF7B3FE80
:101580006420FFF753FE10BD70B52420FFF791FED5
:10159000002408E0002503E0FF20FFF7A4FE6D1CF7
:1015A000192DF9D3641CC82CF4D32620FFF781FE33
:1015B000002408E0002503E0FF20FFF794FE6D1CE7
:1015C000192DF9D3641CC82CF4D3FFF718FF70BD94
:1015D000001401400018014070477047704775467D
:1015E00000F028F8AE4605006946534620F0070093
:1015F000854618B020B5FFF703FCBDE820404FF04A
:1016000000064FF000074FF000084FF0000B21F0EC
:101610000701AC46ACE8C009ACE8C009ACE8C009B9
:10162000ACE8C0098D4670470446AFF30080204601
:10163000FEF7C5FD0048704718000020014918203A
:10164000ABBEFEE7260002007047FFFFFFFFFFFF73
:10165000FFFFFFFFFFFF000000007E000000007F93
:10166000FE000000003C000000003FFC0000000005
:1016700018000000001FFC0000000008000000002F
:101680001FE600000000080000000033C300000057
:101690000008000000006181800000001C000000C4
:1016A00000C180C00000003E000000018180600099
:1016B00000007F00000003018030000000FF800078
:1016C0000006018018000001FFC000000C01800C22
:1016D000000003FFE0000018018007FFFFFFFFFF8D
:1016E000FFFFF0018003FFFFFFFFFFFFFFE001802E
:1016F00003FFFFFFFFFFFFFFE0018003FFFFFFFF8E
:10170000FFFFFFE0018003FFFFFFFFFFFFFFE0019E
:101710008003FFFFFFFFFFFFFFE0018003FFFFFFEC
:10172000FFFFFFFFE0018003FFFFFFFFFFFFFFE080
:10173000018003FFFFFFFFFFFFFFE0018003FFFFCA
:10174000FFFFFFFFFFE0018003FFFFFFFFFFFFFF41
:10175000E0018003FFFFFFFFFFFFFFE0018003FFC9
:10176000FFFFFFFFFFFFE0018003FFFFFFFFFFFF21
:10177000FFE0018003FFFFFFFFFFFFFFE0018003A9
:10178000FFFFFFFFFFFFFFE0018003FFFFFFFFFF01
:10179000FFFFE0018003FFFFFFFFFFFFFFE001808D
:1017A00003FFFFFFFFFFFFFFE0018007FFFFFFFFD9
:1017B000FFFFFFF001800C000003FFE000001801B4
:1017C0008018000001FFC000000C01803000000004
:1017D000FF800000060180600000007F0000000321
:1017E0000180C00000003E000000018181800000F7
:1017F000001C00000000C1C3000000000800000041
:101800000061E600000000080000000033FC00005A
:10181000000008000000001FF80000000018000091
:1018200000000FFC000000003C000000001FFE0054
:101830000000007E000000003FFFFFFFFFFFFFFFF2
:10184000FFFFFFFFFFFFFFFFFFFFFFFFFFFFFFFFA8
:10185000FFFFFFFFFFFFFFFFFFFFFFFFFFFFFFFF98
:10186000FFFFFFFFFFFFFFFFFFFFFFFFFFFFFFFF88
:10187000FFFFFFFFFFFFFFFFFFFFFFFFFFFFFFFF78
:10188000FFFFFFFFFFFFFFFFFFFFFFFFFFFFFFFF68
:10189000FFFFFFFFFFFFFFFFFFFFFFFFFFFFFFFF58
:1018A000FFFFFFFFFFFFFFFFFFFFFFFFFFFFFFFF48
:1018B000FFFFFFFFFFFFFFFFFFFFFFFFFFFFFFFF38
:1018C000FFFFFFFFFFFFFFFFFFFFFFFFFFFFFFFF28
:1018D000FFFFFFFFFFFFFFFFFFFFFFFFFFFFFFFF18
:1018E000FFFFFFFFFFFFFFFFFFFFFFFFFFFFFFFF08
:1018F000FFFFFFFFFFFFFFFFFFFFFFFFFFFFFFFFF8
:10190000FFFFFFFFFFFFFFFFFFFFFFFFFFFFFFFFE7
:10191000FFFFFFFFFFFFFFFFFFFFFFFFFFFFFFFFD7
:10192000FFFFFFFFFFFFFFFFFFFFFFFFFFFFFFFFC7
:10193000FFFFFFFFFFFFFFFFFFFFFFFFFFFFFFFFB7
:10194000FFFFFFFFFFFFFFFFFFFFFFFFFFFFFFFFA7
:10195000FFFFFFFFFFFFFFFFFFFFFFFFFFFFFFFF97
:10196000FFFFFFFFFFFFFFFFFFFFFFFFFFFFFFFF87
:10197000FFFFFFFFFFFFFFFFFFFFFFFFFFFFFFFF77
:10198000FFFFFFFFFFFFFFFFFFFFFFFFFFFFFFFF67
:10199000FFFFFFFFFFFFFFFFFFFFFFFFFFFFFFFF57
:1019A000FFFFFFFFFFFFFFFFFFFFFFFFFFFFFFFF47
:1019B000FC000003FFE000001FFFFFF8000001FF34
:1019C000C000000FFFFFF0000000FF80000007FFD5
:1019D000FFE00000007F00000003FFFFC0000000E8
:1019E0003E00000001FFFF800000001C000000001E
:1019F000FFFF0000000008000000007FFE00000064
:101A00000008000000003FFC00000000080000008B
:101A1000001FF80000000018000000000FFC00008C
:101A200000003C000000001FFE000000007E0000DF
:101A300000003FFFFFFFFFFFFFFFFFFFFFFFFFFF74
:101A4000FFFFFFFFFFFFFFFFFFFFFFFFFFFFFE00A6
:101A50000000007FFFFFFFFFFFFC000000003FFFD2
:101A6000FFFFFFFFF8000000001FFFFFFFFFFFF870
:101A7000000000001FE7FFFFFFFFF8000000003339
:101A8000C3FFFFFFFFF8000000006181FFFFFFFFC1
:101A9000FC00000000C180FFFFFFFFF60000000116
:101AA00081807FFFFFFFE30000000301803FFFFF15
:101AB000FFC18000000601801FFFFFFF80C0000003
:101AC0000C01800FFFFFFF0060000018018007FF7E
:101AD000FFFE003FFFFFF0018003FFFFFE003FFF1E
:101AE000FFE0018003FFFFFE003FFFFFE0018003F6
:101AF000FFFFFE003FFFFFE0018003FFFFFE003F0E
:101B0000FFFFE0018003FFFFFE003FFFFFE00180D9
:101B100003FFFFFE003FFFFFE0018003FFFFFE0029
:101B20003FFFFFE0018003FFFFFE003FFFFFE001FA
:101B30008003FFFFFE003FFFFFE0018003FFFFFE89
:101B4000003FFFFFE0018003FFFFFE003FFFFFE0DB
:101B5000018003FFFFFE003FFFFFE0018003FFFF66
:101B6000FE003FFFFFE0018003FFFFFE003FFFFF9D
:101B7000E0018003FFFFFE003FFFFFE0018003FF65
:101B8000FFFE003FFFFFE0018003FFFFFE003FFF7D
:101B9000FFE0018003FFFFFE003FFFFFE001800741
:101BA000FFFFFE003FFFFFF001800C000003007FFD
:101BB000FFFFF801801800000180FFFFFFFC01809B
:101BC00030000000C1FFFFFFFE01806000000063E5
:101BD000FFFFFFFF0180C000000037FFFFFFFF8114
:101BE00081800000001FFFFFFFFFC1C30000000055
:101BF0000FFFFFFFFFE1E6000000000FFFFFFFFF08
:101C0000F3FC000000000FFFFFFFFFFFF8000000E3
:101C1000001FFFFFFFFFFFFC000000003FFFFFFF72
:101C2000FFFFFE000000007FFFFFFFFFFFFFFFFF41
:101C3000FFFFFFFFFFFFFFFFFFFFFFFFFFFFFFFFB4
:101C4000FFFFFFFFFFFFFFFFFFFFFFFFFFFFFFFFA4
:101C5000FFFFFFFFFFFFFFFFFFFFFFFFFFFFFFFF94
:101C6000FFFFFFFFFFFFFFFFFFFFFFFFFFFFFFE79C
:101C7000FFFFFFFFFFFFFFFFFFF3C3FFFFFFFFFFBC
:101C8000FFFFFFFFE181FFFFFFFFFFFFFFFFFFC13E
:101C900080FFFFFFFFF7FFFFFFFF81807FFFFFFF58
:101CA000E3FFFFFFFF01803FFFFFFFC1FFFFFFFEDC
:101CB00001801FFFFFFF80FFFFFFFC01800FFFFF80
:101CC000FF007FFFFFF8018007FFFFFE003FFFFFDF
:101CD000F0018003FFFFFE003FFFFFE0018003FFF4
:101CE000FFFE003FFFFFE0018003FFFFFE003FFF1C
:101CF000FFE0018003FFFFFE003FFFFFE0018003E4
:101D0000FFFFFE003FFFFFE0018003FFFFFE003FFB
:101D1000FFFFE0018003FFFFFE003FFFFFE00180C7
:101D200003FFFFFE003FFFFFE0018003FFFFFE0017
:101D30003FFFFFE0018003FFFFFE003FFFFFE001E8
:101D40008003FFFFFE003FFFFFE0018003FFFFFE77
:101D5000003FFFFFE0018003FFFFFE003FFFFFE0C9
:101D6000018003FFFFFE003FFFFFE0018003FFFF54
:101D7000FE003FFFFFE0018003FFFFFE003FFFFF8B
:101D8000E0018003FFFFFE003FFFFFE0018003FF53
:101D9000FFFE003FFFFFE0018007FFFFFE003FFF67
:101DA000FFF001800C0000030060000018018018A3
:101DB00000000180C000000C018030000000C180E4
:101DC0000000060180600000006300000003018045
:101DD000C000000036000000018181800000001C6E
:101DE00000000000C1C30000000008000000006106
:101DF000E600000000080000000033FC00000000C6
:101E000008000000001FF80000000018000000009B
:101E10000FFC000000003C000000001FFE0000005E
:101E2000007E000000003FFFFFFFFFFFFFFFFFFFFE
:101E3000FFFFFFFFFFFFFFFFFFFFFFFFFFFF0000B0
:101E400000007FFFFFFFFFFFFE000000003FFFFFDD
:101E5000FFFFFFFC000000001FFFFFFFFFFFFC0073
:101E60000000000FFFFFFFFFFFFE000000000FFF5C
:101E7000FFFFFFFFFF000000000FFFFFFFFFFFFF5E
:101E8000800000001FFFFFFFFFFFFFC000000037C2
:101E9000FFFFFFFFFFFFE000000063FFFFFFFFFF0A
:101EA000FFF0000000C1FFFFFFFFFFFFF80000018F
:101EB00080FFFFFFFFFFFFFC000003007FFFFFFF2D
:101EC000FFFFFFFFFFFE003FFFFFFFFFFFFFFFFFE2
:101ED000FE003FFFFFFFFFFFFFFFFFFE003FFFFF92
:101EE000FFFFFFFFFFFFFE003FFFFFFFFFFFFFFFC2
:101EF000FFFE003FFFFFFFFFFFFFFFFFFE003FFF72
:101F0000FFFFFFFFFFFFFFFE003FFFFFFFFFFFFFA1
:101F1000FFFFFE003FFFFFFFFFFFFFFFFFFE003F51
:101F2000FFFFFFFFFFFFFFFFFE003FFFFFFFFFFF81
:101F3000FFFFFFFE003FFFFFFFFFFFFFFFFFFE0071
:101F40003FFFFFFFFFFFFFFFFFFE003FFFFFFFFF21
:101F5000FFFFFFFFFE003FFFFFFFFFFFFFFFFFFE52
:101F6000003FFFFFFFFFFFFFFFFFFE003FFFFFFF00
:101F7000FFFFFFFFFFFE003FFFFFFFFFFFFFFFFF31
:101F8000FE003FFFFFFFFFFFFFFFFFFE003FFFFFE1
:101F9000FFFFFFFFFFFFFE003FFFFFFFFFFFFC0013
:101FA0000003006000001FFFFFF800000180C00078
:101FB000000FFFFFF0000000C180000007FFFFE0FE
:101FC0000000006300000003FFFFC00000003600B7
:101FD000000001FFFF800000001C00000000FFFF68
:101FE0000000000008000000007FFE000000000864
:101FF000000000003FFC0000000008000000001F7F
:10200000F80000000018000000000FFC00000000B5
:102010003C000000001FFE000000007E00000000E9
:102020003FFFFFFFFFFFFFFFFFFFFFFFFFFFFFFF80
:10203000FFFFFFFFFFFFFFFF000000007FFFFFFF2C
:10204000FFFFFE000000003FFFFFFFFFFFFC00005E
:1020500000001FFFFFFFFFFFFC000000000FFFFF5D
:10206000FFFFFFE6000000000FFFFFFFFFF3C300CC
:102070000000000FFFFFFFFFE181800000001FFF55
:10208000FFFFFFC180C000000037FFFFFFFF81801E
:102090006000000063FFFFFFFF018030000000C10F
:1020A000FFFFFFFE01801800000180FFFFFFFC0121
:1020B000800C000003007FFFFFF8018007FFFFFE98
:1020C000003FFFFFF0018003FFFFFE003FFFFFE046
:1020D000018003FFFFFE003FFFFFE0018003FFFFE1
:1020E000FE003FFFFFE0018003FFFFFE003FFFFF18
:1020F000E0018003FFFFFE003FFFFFE0018003FFE0
:10210000FFFE003FFFFFE0018003FFFFFE003FFFF7
:10211000FFE0018003FFFFFE003FFFFFE0018003BF
:10212000FFFFFE003FFFFFE0018003FFFFFE003FD7
:10213000FFFFE0018003FFFFFE003FFFFFE00180A3
:1021400003FFFFFE003FFFFFE0018003FFFFFE00F3
:102150003FFFFFE0018003FFFFFE003FFFFFE001C4
:102160008003FFFFFE003FFFFFE0018003FFFFFE53
:10217000003FFFFFE0018003FFFFFE003FFFFFE0A5
:10218000018003FFFFFE003FFFFFE0018007FFFF2C
:10219000FE003FFFFFF001800FFFFFFF0060000027
:1021A0001801801FFFFFFF80C000000C01803FFF6F
:1021B000FFFFC18000000601807FFFFFFFE30000FA
:1021C00000030180FFFFFFFFF6000000018181FF97
:1021D000FFFFFFFC00000000C1C3FFFFFFFFF8008E
:1021E00000000061E7FFFFFFFFF80000000033FF81
:1021F000FFFFFFFFF8000000001FFFFFFFFFFFF8D9
:10220000000000000FFFFFFFFFFFFC000000001FA9
:10221000FFFFFFFFFFFE000000003FFFFFFFFFFF8B
:10222000FFFFFFFFFFFFFFFFFFFFFFFFFFFFFFFFBE
:10223000FFFF000000007E000000007FFE000000A5
:10224000003C000000003FFC0000000018000000FF
:10225000001FFC0000000008000000001FE6000056
:102260000000080000000033C30000000008000068
:1022700000006181800000001C00000000C180C0DF
:102280000000003600000001818060000000630053
:10229000000003018030000000C1800000060180C2
:1022A0001800000180C000000C01800C0000030039
:1022B00060000018018007FFFFFE003FFFFFF001F4
:1022C0008003FFFFFE003FFFFFE0018003FFFFFEF2
:1022D000003FFFFFE0018003FFFFFE003FFFFFE044
:1022E000018003FFFFFE003FFFFFE0018003FFFFCF
:1022F000FE003FFFFFE0018003FFFFFE003FFFFF06
:10230000E0018003FFFFFE003FFFFFE0018003FFCD
:10231000FFFE003FFFFFE0018003FFFFFE003FFFE5
:10232000FFE0018003FFFFFE003FFFFFE0018003AD
:10233000FFFFFE003FFFFFE0018003FFFFFE003FC5
:10234000FFFFE0018003FFFFFE003FFFFFE0018091
:1023500003FFFFFE003FFFFFE0018003FFFFFE00E1
:102360003FFFFFE0018003FFFFFE003FFFFFE001B2
:102370008003FFFFFE003FFFFFE0018003FFFFFE41
:10238000003FFFFFE0018007FFFFFE003FFFFFF07F
:1023900001800FFFFFFF006000001801801FFFFF9A
:1023A000FF80C000000C01803FFFFFFFC1800000E4
:1023B0000601807FFFFFFFE3000000030180FFFFB5
:1023C000FFFFF6000000018181FFFFFFFFFC00001E
:1023D0000000C1C3FFFFFFFFF80000000061E7FF3E
:1023E000FFFFFFF80000000033FFFFFFFFFFF800D2
:1023F0000000001FFFFFFFFFFFF8000000000FFFBD
:10240000FFFFFFFFFC000000001FFFFFFFFFFFFEBC
:10241000000000003FFFFFFFFFFFFFFFFFFFFFFF88
:10242000FFFFFFFFFFFFFFFFFFFFFFFFFFFFFFFFBC
:10243000FFFFFFFFFFFFFFFFFFFFFFFFFFFFFFFFAC
:10244000FFFFFFFFFFFFFFFFFFFFFFFFFFFFFFFF9C
:10245000FFFFFFFFFFFFFFE7FFFFFFFFFFFFFFFFA4
:10246000FFFFC3FFFFFFFFFFFFFFFFFFFF81FFFF36
:10247000FFFFFFFFFFFFFFFF80FFFFFFFFFFFFFFEB
:10248000FFFFFF807FFFFFFFFFFFFFFFFFFF803F9A
:10249000FFFFFFFFFFFFFFFFFF801FFFFFFFFFFFAB
:1024A000FFFFFFFF800FFFFFFFFFFFFFFFFFFF802A
:1024B00007FFFFFFFFFFFFFFFFFF8003FFFFFFFF9F
:1024C000FFFFFFFFFF8003FFFFFFFFFFFFFFFFFF97
:1024D0008003FFFFFFFFFFFFFFFFFF8003FFFFFF02
:1024E000FFFFFFFFFFFF8003FFFFFFFFFFFFFFFF77
:1024F000FF8003FFFFFFFFFFFFFFFFFF8003FFFFE2
:10250000FFFFFFFFFFFFFF8003FFFFFFFFFFFFFF56
:10251000FFFF8003FFFFFFFFFFFFFFFFFF8003FFC1
:10252000FFFFFFFFFFFFFFFF8003FFFFFFFFFFFF36
:10253000FFFFFF8003FFFFFFFFFFFFFFFFFF8003A1
:10254000FFFFFFFFFFFFFFFFFF8003FFFFFFFFFF16
:10255000FFFFFFFF8003FFFFFFFFFFFFFFFFFF8085
:1025600003FFFFFFFFFFFFFFFFFF8003FFFFFFFFF2
:10257000FFFFFFFFFF8003FFFFFFFFFFFFFFFFFFE6
:102580008007FFFFFFFFFFFFFFFFFF800C0000033E
:10259000FFE000001FFF8018000001FFC000000FD7
:1025A000FF8030000000FF80000007FF8060000017
:1025B000007F00000003FF80C00000003E0000001C
:1025C00001FF81800000001C00000000FFC300002C
:1025D000000008000000007FE60000000008000086
:1025E00000003FFC0000000008000000001FF80091
:1025F00000000018000000000FFC000000003C007C
:102600000000001FFE000000007E000000003FFFF1
:10261000FFFFFFFFFFFFFFFFFFFFFFFFFFFFFFFFCA
:10262000FFFFFFFFFFFF000000007E000000007FB3
:10263000FE000000003C000000003FFC0000000025
:1026400018000000001FFC0000000008000000004F
:102650001FE600000000080000000033C300000077
:102660000008000000006181800000001C000000E4
:1026700000C180C0000000360000000181806000C1
:1026800000006300000003018030000000C18000F2
:10269000000601801800000180C000000C01800CC1
:1026A0000000030060000018018007FFFFFE003FEC
:1026B000FFFFF0018003FFFFFE003FFFFFE001800E
:1026C00003FFFFFE003FFFFFE0018003FFFFFE006E
:1026D0003FFFFFE0018003FFFFFE003FFFFFE0013F
:1026E0008003FFFFFE003FFFFFE0018003FFFFFECE
:1026F000003FFFFFE0018003FFFFFE003FFFFFE020
:10270000018003FFFFFE003FFFFFE0018003FFFFAA
:10271000FE003FFFFFE0018003FFFFFE003FFFFFE1
:10272000E0018003FFFFFE003FFFFFE0018003FFA9
:10273000FFFE003FFFFFE0018003FFFFFE003FFFC1
:10274000FFE0018003FFFFFE003FFFFFE001800389
:10275000FFFFFE003FFFFFE0018003FFFFFE003FA1
:10276000FFFFE0018003FFFFFE003FFFFFE001806D
:1027700003FFFFFE003FFFFFE0018007FFFFFE00B9
:102780003FFFFFF001800C00000300600000180113
:10279000801800000180C000000C018030000000A3
:1027A000C18000000601806000000063000000039B
:1027B0000180C0000000360000000181818000001F
:1027C000001C00000000C1C3000000000800000061
:1027D0000061E600000000080000000033FC00007B
:1027E000000008000000001FF800000000180000B2
:1027F00000000FFC000000003C000000001FFE0075
:102800000000007E000000003FFFFFFFFFFFFFFF12
:10281000FFFFFFFFFFFFFFFFFFFFFFFFFFFFFFFFC8
:10282000000000007FFFFFFFFFFFFE000000003FF1
:10283000FFFFFFFFFFFC000000001FFFFFFFFFFF87
:10284000FC000000000FFFFFFFFFFFE6000000009C
:102850000FFFFFFFFFF3C3000000000FFFFFFFFFAC
:10286000E181800000001FFFFFFFFFC180C000006A
:102870000037FFFFFFFF81806000000063FFFFFF64
:10288000FF018030000000C1FFFFFFFE0180180043
:10289000000180FFFFFFFC01800C000003007FFFB0
:1028A000FFF8018007FFFFFE003FFFFFF0018003FC
:1028B000FFFFFE003FFFFFE0018003FFFFFE003F40
:1028C000FFFFE0018003FFFFFE003FFFFFE001800C
:1028D00003FFFFFE003FFFFFE0018003FFFFFE005C
:1028E0003FFFFFE0018003FFFFFE003FFFFFE0012D
:1028F0008003FFFFFE003FFFFFE0018003FFFFFEBC
:10290000003FFFFFE0018003FFFFFE003FFFFFE00D
:10291000018003FFFFFE003FFFFFE0018003FFFF98
:10292000FE003FFFFFE0018003FFFFFE003FFFFFCF
:10293000E0018003FFFFFE003FFFFFE0018003FF97
:10294000FFFE003FFFFFE0018003FFFFFE003FFFAF
:10295000FFE0018003FFFFFE003FFFFFE001800377
:10296000FFFFFE003FFFFFE0018003FFFFFE003F8F
:10297000FFFFE0018007FFFFFE003FFFFFF0018047
:102980000C000003006000001801801800000180A6
:10299000C000000C018030000000C1800000060172
:1029A000806000000063000000030180C0000000A0
:1029B00036000000018181800000001C0000000042
:1029C000C1C300000000080000000061E600000034
:1029D00000080000000033FC0000000008000000B8
:1029E000001FF80000000018000000000FFC0000AD
:1029F00000003C000000001FFE000000007E000000
:102A000000003FFFFFFFFFFFFFFFFFFFFFFFFFFF94
:102A1000FFFFFFFFFFF800001C00001FF000000890
:102A200000000FD800000800001B8C00001C0000F4
:102A3000318600003E0000618300007F0000C181FC
:102A40008000FF80018180FFFFFFFFFF0180FFFF0B
:102A5000FFFFFF0180FFFFFFFFFF0180FFFFFFFF80
:102A6000FF0180FFFFFFFFFF0180FFFFFFFFFF016E
:102A700080FFFFFFFFFF0180FFFFFFFFFF0180FFDF
:102A8000FFFFFFFF0180FFFFFFFFFF0180FFFFFF50
:102A9000FFFF0180FFFFFFFFFF0180FFFFFFFFFF40
:102AA00001818000FF8001818300007F0000C186DA
:102AB00000003E0000618C00001C000031D80000C6
:102AC0000800001BF000000800000FF800001C00C8
:102AD000001FFFFFFFFFFFFFFFFFFFFFFFFFFFFFE5
:102AE000FFFFFFFFFFFFFFFFFFFFFFFFFFFFFFFFF6
:102AF000FFFFFFFFFFFFFFFFFFFFFFFFFFFFFFFFE6
:102B0000FFFFFFFFFFFFFFFFFFFFFFFFFFFFFFFFD5
:102B1000FFFFFFFFFFFFFFFFFFFFFFFFFFFFFFFFC5
:102B2000FFFFFFFFFFFFFFFFFFFFFFFFFFFFFFFFB5
:102B3000FFFFFFFFFFFFFFFFFFFFFFFFFFFFFFFFA5
:102B4000FFFFFFFFFFFFFFFFFFFFFFFFFFFFFFFF95
:102B5000FFFFFFFFFFFFFFFFFFFFFFFFFFFFFFFF85
:102B6000FFFFFFFFFFFFFFFFFFFFFFFFFF8000FFF3
:102B70008001FFFF00007F0000FFFE00003E00001C
:102B80007FFC00001C00003FF800000800001FF060
:102B900000000800000FF800001C00001FFFFFFFEE
:102BA000FFFFFFFFFFFFFFFFFFFFFFFFFFFFFC0037
:102BB000001FFFFFFFF800000FDFFFFFF800001B02
:102BC0008FFFFFFC00003187FFFFF600006183FFED
:102BD000FFE30000C181FFFFC180018180FFFF8012
:102BE000FFFF0180FFFF80FFFF0180FFFF80FFFFED
:102BF0000180FFFF80FFFF0180FFFF80FFFF01805A
:102C0000FFFF80FFFF0180FFFF80FFFF0180FFFFCC
:102C100080FFFF0180FFFF80FFFF0180FFFF80FF3B
:102C2000FF0180FFFF80FFFF0180FFFF80FFFF01AA
:102C300080FFFF80FFFF01818000C1FFFF818300D3
:102C40000063FFFFC186000037FFFFE18C00001F1B
:102C5000FFFFF1D800000FFFFFFBF000000FFFFFA8
:102C6000FFF800001FFFFFFFFFFFFFFFFFFFFFFF59
:102C7000FFFFFFFFFFFFFFFFFFFFFFFFFFFFFFFF64
:102C8000FFFFFFFFDFFFFFFFFFFFFB8FFFFFFFFFE8
:102C9000FFF187FFFFF7FFFFE183FFFFE3FFFFC1C6
:102CA00081FFFFC1FFFF8180FFFF80FFFF0180FFE9
:102CB000FF80FFFF0180FFFF80FFFF0180FFFF809B
:102CC000FFFF0180FFFF80FFFF0180FFFF80FFFF0C
:102CD0000180FFFF80FFFF0180FFFF80FFFF018079
:102CE000FFFF80FFFF0180FFFF80FFFF0180FFFFEC
:102CF00080FFFF0180FFFF80FFFF0180FFFF80FF5B
:102D0000FF01818000C1800181830000630000C158
:102D1000860000360000618C00001C000031D800E5
:102D2000000800001BF000000800000FF800001C65
:102D300000001FFFFFFFFFFFFFFFFFFFFFFFFFFF81
:102D4000FFF800001FFFFFFFF000000FFFFFFFF87C
:102D500000000FFFFFFFFC00001FFFFFFFFE000051
:102D600037FFFFFFFF000063FFFFFFFF8000C1FF91
:102D7000FFFFFFFFFF80FFFFFFFFFFFF80FFFFFF61
:102D8000FFFFFF80FFFFFFFFFFFF80FFFFFFFFFF51
:102D9000FF80FFFFFFFFFFFF80FFFFFFFFFFFF80C0
:102DA000FFFFFFFFFFFF80FFFFFFFFFFFF80FFFF31
:102DB000FFFFFFFF80FFFFFFFFFFFF80FFFFFFFF21
:102DC000FFFF80FFFFFFFFFFFF80FFFFFFFF80008F
:102DD000C18001FFFF0000630000FFFE000036001D
:102DE000007FFC00001C00003FF800000800001FEE
:102DF000F000000800000FF800001C00001FFFFF9B
:102E0000FFFFFFFFFFFFFFFFFFFFFFFFF800001FB7
:102E1000FFFFFFF000000FFFFFFFD800000FFFFFD4
:102E2000FB8C00001FFFFFF186000037FFFFE183EE
:102E3000000063FFFFC1818000C1FFFF8180FFFFB1
:102E400080FFFF0180FFFF80FFFF0180FFFF80FF09
:102E5000FF0180FFFF80FFFF0180FFFF80FFFF0178
:102E600080FFFF80FFFF0180FFFF80FFFF0180FFE9
:102E7000FF80FFFF0180FFFF80FFFF0180FFFF80D9
:102E8000FFFF0180FFFF80FFFF0180FFFF80FFFF4A
:102E90000180FFFF80FFFF0181FFFFC1800181836F
:102EA000FFFFE30000C187FFFFF60000618FFFFF17
:102EB000FC000031DFFFFFF800001BFFFFFFF80000
:102EC000000FFFFFFFFC00001FFFFFFFFFFFFFFFE2
:102ED000FFFFFFFFFFFFFFF800001C00001FF000D6
:102EE000000800000FD800000800001B8C00001C28
:102EF000000031860000360000618300006300009E
:102F0000C1818000C180018180FFFF80FFFF0180BF
:102F1000FFFF80FFFF0180FFFF80FFFF0180FFFFB9
:102F200080FFFF0180FFFF80FFFF0180FFFF80FF28
:102F3000FF0180FFFF80FFFF0180FFFF80FFFF0197
:102F400080FFFF80FFFF0180FFFF80FFFF0180FF08
:102F5000FF80FFFF0180FFFF80FFFF0180FFFF80F8
:102F6000FFFF0181FFFFC180018183FFFFE30000BC
:102F7000C187FFFFF60000618FFFFFFC000031DF1B
:102F8000FFFFF800001BFFFFFFF800000FFFFFFF2F
:102F9000FC00001FFFFFFFFFFFFFFFFFFFFFFFFF22
:102FA000FFFFFFFFFFFFFFFFFFFFFFFFFFFFFFFF31
:102FB000DFFFFFFFFFFFFF8FFFFFFFFFFFFF87FF29
:102FC000FFFFFFFFFF83FFFFFFFFFFFF81FFFFFF0B
:102FD000FFFFFF80FFFFFFFFFFFF80FFFFFFFFFFFF
:102FE000FF80FFFFFFFFFFFF80FFFFFFFFFFFF806E
:102FF000FFFFFFFFFFFF80FFFFFFFFFFFF80FFFFDF
:10300000FFFFFFFF80FFFFFFFFFFFF80FFFFFFFFCE
:10301000FFFF80FFFFFFFFFFFF80FFFFFFFFFFFFBE
:1030200080FFFFFFFFFFFF80FFFFFFFFFFFF8180AB
:1030300000FF8001FF8300007F0000FF8600003E4C
:1030400000007F8C00001C00003FD800000800003A
:103050001FF000000800000FF800001C00001FFF18
:10306000FFFFFFFFFFFFFFFFFFFFFFFFFFF8000075
:103070001C00001FF000000800000FD8000008002E
:10308000001B8C00001C000031860000360000612F
:10309000830000630000C1818000C180018180FF46
:1030A000FF80FFFF0180FFFF80FFFF0180FFFF80A7
:1030B000FFFF0180FFFF80FFFF0180FFFF80FFFF18
:1030C0000180FFFF80FFFF0180FFFF80FFFF018085
:1030D000FFFF80FFFF0180FFFF80FFFF0180FFFFF8
:1030E00080FFFF0180FFFF80FFFF0180FFFF80FF67
:1030F000FF0180FFFF80FFFF01818000C18001810F
:10310000830000630000C1860000360000618C006F
:10311000001C000031D800000800001BF00000086F
:1031200000000FF800001C00001FFFFFFFFFFFFF63
:10313000FFFFFFFFFFFFFFFFF800001FFFFFFFF093
:1031400000000FFFFFFFD800000FFFFFFB8C000007
:103150001FFFFFF186000037FFFFE183000063FFE0
:10316000FFC1818000C1FFFF8180FFFF80FFFF0161
:1031700080FFFF80FFFF0180FFFF80FFFF0180FFD6
:10318000FF80FFFF0180FFFF80FFFF0180FFFF80C6
:10319000FFFF0180FFFF80FFFF0180FFFF80FFFF37
:1031A0000180FFFF80FFFF0180FFFF80FFFF0180A4
:1031B000FFFF80FFFF0180FFFF80FFFF0180FFFF17
:1031C00080FFFF01818000C18001818300006300D6
:1031D00000C1860000360000618C00001C00003138
:1031E000D800000800001BF000000800000FF800E5
:1031F000001C00001FFFFFFFFFFFFFFFFFC38181D7
:103200008181C3FF000000007FFFFFFE7FFFFFFE04
:103210006EF7FFFA776FE0067FDBEBFE7F03EBBA1A
:10322000417BE09A5503EAAA557BCAB65503EAB634
:10323000417BE0AA7F03EB9A7FFBEBFA7FFFFFFE67
:103240007FFFFFFE00000000000000007FFFFFFE88
:103250007FFFFFFE5DF7FFFA6EEFE0067FBBEBFE40
:1032600060DBEBBA6AFBE09A6A03EAAA6AFBCAB6B9
:103270006A03EAB66AFBE0AA60DBEB9A7FBBEBFA73
:103280007FFFFFFE7FFFFFFE00000000FFFFFFE16A
:10329000FFFF80FFFF1EFFFF3CFFFF71FFFF03FFEB
:1032A000FF0FFFFFFFF87FFF800FFE0007F800030E
:1032B000F00301E03FC1C1FFE187FFF19FFFF33F52
:1032C000FFF33FFFF71FFFE71FFFEF0FFFDF87FF52
:1032D000FF87FFFFCFFFFFFFFFFFFFFFFFF81FFF8D
:1032E000E00FFFC007FFC7C3FF9FF3FF9FF3FF9FE0
:1032F000F3FF9FE3FF87C7F9C007E1E00F81F03ECE
:103300000FFFF83FFFF0FFFFC3FFFF0FFFFC1FFFA2
:10331000F07C0F81F00707E0031FE3E1FFCFF9FF27
:10332000CFF9FFCFF9FFCFF1FFC3E3FFE003FFF0D9
:1033300007FFF81FFFFFFFFFFFFFFFFFFFFFFFFF7C
:10334000FFFFFFFFFFFFFFFFFFFFFFFFFFFFFFFF8D
:10335000FFFFFFFFFFFFFFFFFFFFFFFFFFFFFFFF7D
:10336000FFFFFFFFFFFFFFFFFFFFFFFFFFFFFFFF6D
:10337000FFFFFFFFFFFFFFFFFFFFFFFFFFFFFFFF5D
:10338000FFFFFFFFFFFFFFFFFFFFFFFFFFFFFFFF4D
:10339000FFFFFFFFFFFFFFFFFFFFFFFFFFFFFFFF3D
:1033A000FFFFFFFFFFFFFFFFFFFFFFFFFFFFFFFF2D
:1033B000FFFFFFFFFFFFFFFFFFFFFFFFFFFFFFFF1D
:1033C000FFFFFFFFFFFFFFFFFFFFFFFFFFFFFFFF0D
:1033D000FFFFFFFF00000000FFFFFFFFFFFFFFFFF9
:1033E000FFFFFFFFFFFFFFFFFFFFFFFFFF7FFFFF6D
:1033F000FEFFFFFFFFFFFFFFFFFFFFFFFFFFFFFFDE
:10340000FFFFFFFE7FFF6EF7FFFAFFFFFFFFFFFFEB
:10341000FFFFFFCFFFFFFFFFFFFFFFFFFE7FFF77F5
:103420006FE006FFFFFFFFFFFFFFFFFFCFFFFFFF84
:10343000FFFFFFFFFFFE7FFF7FDBEBFEFFFFFFFFD6
:10344000FFFFFFFFFFCFFFFFFFFFFFFFFFFFFE7F3D
:10345000FF7F03EBBAFFFFFFFFFFFFFFFFFFCFFF81
:10346000FFFFFFFFFFFFFFFE7FFF417BE09AFFFFB3
:10347000FFFFFFFFFFFFFFCFFFFFFFFFFFFFFFFF8C
:10348000FE7FFF5503EAAAFFFFFFFFFFFFFFFFFFDD
:10349000CFFFFFFFFFFFFFFFFFFE7FFF557BCAB699
:1034A000FFFFFFFFFFFFFFFFFFCFFFFFFFFFFFFF5C
:1034B000FFFFFE7FFF5503EAB6FFFFFFFFFFFFFFA1
:1034C000FFFFCFFFFFFFFFFFFFFFFFFE7FFF417BFF
:1034D000E0AAFFFFFFFFFFFFFFFFFFCFFFFFFFFFA0
:1034E000FFFFFFFFFE7FFF7F03EB9AFFFFFFFFFF62
:1034F000FFFFFFFFCFFF7FFFFFFFFFFFFFFE7FFF0D
:103500007FFBEBFAFFFFFFFFFFFFFFFFFFCFFF0F88
:10351000FFFFFFFFFFFFFE7FFF7FFFFFFEFFFFFFBD
:10352000FFFFFFFFFFFFCFFF01FFFFFFFFFFFFFEDA
:103530007FFF00000000FFFFFFFFFFFFFFFFFFCF47
:10354000FF70FFFFFFFFFFFFFE7FFFFFFFFFFFFF9B
:10355000FFFFFFFFFFFFFFFFCFFF03FFFFFFFFFFA7
:10356000FFFE7FFFFFFFFFFFFFFFFFFFFFFFFFFFEC
:10357000FFCFFF3FFFFFFFFFFFFFFE7FFFFFFFFFCC
:10358000FFFFFFFFFFFFFFFFFFFFCFFF0FFFFFFF6B
:10359000FFFFFFFE7FFFFFFFFFFFFFFFFFFFFFFFBC
:1035A000FFFFFFCFFF01FFFFFFFFFFFFFE7FFFFFDA
:1035B000FFFFFFFFFFFFFFFFFFFFFFFFCFFF70FFDA
:1035C000FFFFFFFFFFFE7FFFFFFFFFFFFFFFFFFF8C
:1035D000FFFFFFFFFFCFFF07FFFFFFFFFFFFFE7FA4
:1035E000FFFFFFFFFFFFFFFFFFFFFFFFFFFFCFFF1B
:1035F0003FFFFFFFFFFFFFFE7FFFFFFFFFFFFFFF1C
:10360000FFFFFFFFFFFFFFCFFF7FFFFFFFFFFFFF7A
:10361000FE7FFFFFFFFFFFFFFFFFFFFFFFFFFFFF3B
:10362000CFFF7FFFFFFFFFFFFFFE7FFFFFFFFFFFDB
:10363000FFFFFFFFFFFFFFFFFFCFFF0FFFFFFFFFBA
:10364000FFFFFE7FFFFFFFFFFFFFFFFFFFFFFFFF0B
:10365000FFFFCFFF01FFFFFFFFFFFFFE7FFFFF0028
:103660000000007E000000007FFFFFCFFF70FFFF23
:10367000FFFFFFFFFE7FFFFE000000003C00000098
:10368000003FFFFFCFFF03FFFFFFFFFFFFFE7FFFB6
:10369000FC0000000018000000001FFFFFCFFF3FEC
:1036A000FFFFFFFFFFFFFE7FFFFC000000000800A0
:1036B0000000001FFFFFCFFF0FFFFFFFFFFFFFFE18
:1036C0007FFFE600000000080000000033FFFFCF8E
:1036D000FF01FFFFFFFFFFFFFE7FFFC300000000B1
:1036E000080000000061FFFFCFFF70FFFFFFFFFF3A
:1036F000FFFE7FFF81800000001C00000000C1FF72
:10370000FFCFFF07FFFFFFFFFFFBFE7FFF80C00033
:103710000000360000000181FFFFCFFF3FFFFFFFE9
:10372000FFFFFBFE7FFF80600000006300000003DE
:1037300001FFFFCFFF7FFFFFFFFFFCF3FE7FFF8056
:1037400030000000C18000000601FFFFCFFF7FFFB7
:10375000FFFFFFFCF7FE7FFF801800000180C00024
:10376000000C01FFFFCFFF0FFFFFFFFFF8CFFE7F31
:10377000FF800C000003006000001801FFFFCFFF76
:1037800001FFFFFFFFF81FFE7FFF8007FFFFFE0026
:103790003FFFFFF001FFFFCFFF70FFFFFFFC003F87
:1037A000FE7FFF8003FFFFFE003FFFFFE001FFFF02
:1037B000CFFF03FFFFFFFC003FFE7FFF8003FFFF03
:1037C000FE003FFFFFE001FFFFCFFF3FFFFFFFFFD6
:1037D000F11FFE7FFF8003FFFFFE003FFFFFE001C0
:1037E000FFFFCFFF0FFFFFFFFFF39FFE7FFF800371
:1037F000FFFFFE003FFFFFE001FFFFCFFF01FFFFE4
:10380000FFFFE7CFFE7FFF8003FFFFFE003FFFFFCC
:10381000E001FFFFCFFF70FFFFFFFFFFE3FE7FFF31
:103820008003FFFFFE003FFFFFE001FFFFCFFF0728
:10383000FFFFFFFFFFF3FE7FFF8003FFFFFE003F60
:10384000FFFFE001FFFFCFFF3FFFFFFFFFFFF1FEA4
:103850007FFF8003FFFFFE003FFFFFE001FFFFCF80
:10386000FF7FFFFFFFFFFFF1FE7FFF8003FFFFFEF3
:10387000003FFFFFE001FFFFCFFFFFFFFFFFFFFF64
:10388000F9FE7FFF8003FFFFFE003FFFFFE001FF27
:10389000FFCFFFFCFFFFFFFFFFF9FE7FFF8003FF6D
:1038A000FFFE003FFFFFE001FFFFCFFFFCFFFFFF38
:1038B000FFFFFFFE7FFF8003FFFFFE003FFFFFE0F3
:1038C00001FFFFCFFFFFFFFFFFFFFFFFFE7FFF8036
:1038D00003FFFFFE003FFFFFE001FFFFCFFFFFFF01
:1038E000FFFFFFFFFFFE7FFF8003FFFFFE003FFFA4
:1038F000FFE001FFFFCFFFC3FFFFFFFFFFFFFE7FE2
:10390000FF8003FFFFFE003FFFFFE001FFFFCFFF4F
:1039100081FFFFFFFFFFFFFE7FFF8003FFFFFE0031
:103920003FFFFFE001FFFFCFFF3CFFFFFFFFFFF383
:10393000FE7FFF8003FFFFFE003FFFFFE001FFFF70
:10394000CFFF7EFFFFFFFFCE07FE7FFF8003FFFF5D
:10395000FE003FFFFFE001FFFFCFFF7EFFFFFFFF05
:10396000E6C7FE7FFF8007FFFFFE003FFFFFF0017D
:10397000FFFFCFFFBDEFFFFFFFFFE7FE7FFF800CE4
:10398000000003006000001801FFFFCFFF800FFF61
:10399000FFFFFFA7FE7FFF801800000180C000002E
:1039A0000C01FFFFCFFE000FFFFFFF8D37FE7FFFF3
:1039B0008030000000C18000000601FFFFCFFFFF44
:1039C000EFFFFFFF9137FE7FFF8060000000630084
:1039D00000000301FFFFCFFFFFFFFFFFFF8177FE26
:1039E0007FFF80C0000000360000000181FFFFCF94
:1039F000FFBEFFFFFFFC1973FE7FFF818000000008
:103A00001C00000000C1FFFFCFE700FFFFFFFD80AB
:103A100003FE7FFFC300000000080000000061FFFC
:103A2000FFCFE700FFFFFFFFB27BFE7FFFE6000056
:103A30000000080000000033FFFFCFFFFEFFFFFF84
:103A4000FF3678FE7FFFFC00000000080000000049
:103A50001FFFFFCFFFFFFFFFFFFFFE7CFE7FFFF892
:103A60000000000018000000000FFFFFCFFF7FFFE5
:103A7000FFFFFFFFFCFE7FFFFC000000003C00009A
:103A800000001FFFFFCFFF1FEFFFFFFFFFFCFE7FC8
:103A9000FFFE000000007E000000003FFFFFCFFFA0
:103AA00007EFFFFFFFFFFCFE7FFFFFFFFFFFFFFFB2
:103AB000FFFFFFFFFFFFFFCFFF619FFFFFFFFFFF44
:103AC000FE7FFFFFFFFFFFFFFFFFFFFFFFFFFFFF87
:103AD000CFFFF87FFFFFFFFFFFFE7FFFFFFFFFFF2E
:103AE000FFFFFFFFFFFFFFFFFFCFFFF9FFFFFFFF1C
:103AF000FFFFFE7FFFFFFFFFFFFFFFFFFFFFFFFF57
:103B0000FFFFCFFF67FFFFFFFFFEFFFE7FFFFFFF0F
:103B1000FFFFFFFFFFFFFFFFFFFFFFCFFF1FFFFFC5
:103B2000FFFFFEFFFE7FFFFF000000007E000000A1
:103B3000007FFFFFCFFF7FFFFFFFFFFEFFFE7FFF46
:103B4000FE000000003C000000003FFFFFCFFF012F
:103B5000FFFFFFFFFEFFFE7FFFFC000000001800DC
:103B60000000001FFFFFCFFF00FFFFFFFFFC9FFED5
:103B70007FFFFC0000000008000000001FFFFFCFD7
:103B8000FFFEFFFFFFFF9D8FFE7FFFE600000000AE
:103B9000080000000033FFFFCFFFFEFFFFFFFFB56F
:103BA0004DFE7FFFC300000000080000000061FF21
:103BB000FFCFFFFEFFFFFFFF851DFE7FFF8180001F
:103BC00000001C00000000C1FFFFCFFF7DFFFFFFD2
:103BD000FE191DFE7FFF80C00000003600000001BE
:103BE00081FFFFCFFF00FFFFFFF8197CFE7FFF8002
:103BF00060000000630000000301FFFFCFFF00FF33
:103C0000FFFFFE29FCFE7FFF8030000000C1800026
:103C1000000601FFFFCFFFFEFFFFFFFE6000FE7FFB
:103C2000FF801800000180C000000C01FFFFCFFFE3
:103C3000BEFFFFFFFF79FFFE7FFF800C0000030047
:103C40006000001801FFFFCFFF00FFFFFFFFF9FF3B
:103C5000FE7FFF8007FFFFFE003FFFFFF001FFFF39
:103C6000CFFF00FFFFFFFFF9FFFE7FFF8003FFFF95
:103C7000FE003FFFFFE001FFFFCFFFBEFFFFFFFFA2
:103C8000F9FFFE7FFF8003FFFFFE003FFFFFE00123
:103C9000FFFFCFFFBFFFFFFFFFF9FFFE7FFF8003A6
:103CA000FFFFFE003FFFFFE001FFFFCFFF7FFFFFB1
:103CB000FFFFFDFFFE7FFF8003FFFFFE003FFFFFD2
:103CC000E001FFFFCFFF7EFFFFFFFFFFFFFE7FFF53
:103CD0008003FFFFFE003FFFFFE001FFFFCFFF007B
:103CE000FFFFFFFFFFFFFE7FFF8003FFFFFE003FA0
:103CF000FFFFE001FFFFCFFF80FFFFFFFFFFFFFEA1
:103D00007FFF8003FFFFFE003FFFFFE001FFFFCFCB
:103D1000FFFEFFFFFFFFFF77FE7FFF8003FFFFFE39
:103D2000003FFFFFE001FFFFCFFFEFFFFFFFFFFFBF
:103D300067FE7FFF8003FFFFFE003FFFFFE001FF04
:103D4000FFCFFFEFFFFFFFFFE14FFE7FFF8003FF8D
:103D5000FFFE003FFFFFE001FFFFCFFFEFFFFFFF90
:103D6000FFE01FFE7FFF8003FFFFFE003FFFFFE03D
:103D700001FFFFCFFFEFFFFFFFFFC001FE7FFF80CE
:103D800003FFFFFE003FFFFFE001FFFFCFFFFFFF4C
:103D9000FFFFFE0001FE7FFF8003FFFFFE003FFFED
:103DA000FFE001FFFFCFFFFFFFFFFFFFD0BFFE7F60
:103DB000FF8003FFFFFE003FFFFFE001FFFFCFFF9B
:103DC000C3FFFFFFFFDCEFFE7FFF8003FFFFFE006E
:103DD0003FFFFFE001FFFFCFFF81FFFFFFFFFE6717
:103DE000FE7FFF8003FFFFFE003FFFFFE001FFFFBC
:103DF000CFFF3CFFFFFFFFF20FFE7FFF8003FFFFBF
:103E0000FE003FFFFFE001FFFFCFFF7EFFFFFFFF50
:103E1000F20FFE7FFF8003FFFFFE003FFFFFE00188
:103E2000FFFFCFF77EFFFFFFFFE04FFE7FFF800722
:103E3000FFFFFE003FFFFFF001FFFFCFF7BDFFFFD9
:103E4000FFFFE48FFE7FFF800C0000030060000096
:103E50001801FFFFCFE000FFFFFFFFE4AFFE7FFF91
:103E6000801800000180C000000C01FFFFCFE000BF
:103E7000FFFFFFFFF8AFFE7FFF8030000000C18032
:103E800000000601FFFFCFFFFEFFFFFFFFFCC7FEA4
:103E90007FFF8060000000630000000301FFFFCF90
:103EA000FFBEFFFFFFFFFFFFFE7FFF80C00000009F
:103EB000360000000181FFFFCFE700FFFFFFFFFF9B
:103EC000FFFE7FFF81800000001C00000000C1FF9A
:103ED000FFCFE700FFFFFFFFFFFFFE7FFFC30000F4
:103EE0000000080000000061FFFFCFFFFEFFFFFFA2
:103EF000FFFFFFFE7FFFE60000000008000000005B
:103F000033FFFFCFFFFFFFFFFFFFFFFFFE7FFFFC41
:103F10000000000008000000001FFFFFCFFFFFFFB0
:103F2000FFFFFFFFFFFE7FFFF8000000001800000A
:103F300000000FFFFFCFFF8CFFFFFFFFFFFFFE7FA3
:103F4000FFFC000000003C000000001FFFFFCFFF4F
:103F50006EFFFFFFFFFFFFFE7FFFFE000000007E01
:103F6000000000003FFFFFCFFF66FFFFFFFFE1FF04
:103F7000FE7FFFFFFFFFFFFFFFFFFFFFFFFFFFFFD2
:103F8000CFFF30FFFFFFFFE07FFE7FFFFFFFFFFF60
:103F9000FFFFFFFFFFFFFFFFFFCFFFF1FFFFFFFF6F
:103FA000E73FFE7FFFFFFFFFFFFFFFFFFFFFFFFF7A
:103FB000FFFFCFFFFFFFFFFFFFCCBFFE7FFFFFFF35
:103FC000FFFFFFFFFFFFFFFFFFFFFFCFFF7FEFFFC1
:103FD000FFFE001FFE7FFFFFFFFFFFFFFFFFFFFF52
:103FE000FFFFFFFFCFFE000FFFFFFE000FFE7FFF72
:103FF000FFFFFFFFFFFFFFFFFFFFC3FFFFCFFE003D
:104000000FFFFFFFC973FE7FFFFFFFFFFFFFFFFFF3
:10401000FFFFFF81FFFFCFFFBDEFFFFFFFCB73FE71
:104020007FFFFFFFFFFFFFFFFFFFFFFF81FFFFCFCE
:10403000FF7EFFFFFFFFCF33FE7FFFFFFFFFFFFF8E
:10404000FFFFFFFFFF81FFFFCFFF7EFFFFFFFFC0EE
:10405000F3FE7FFFFFFFFFFFFFFFFFFFFFFF81FF7B
:10406000FFCFFF3CFFFFFFFFC7F3FE7FFFFFFFFF18
:10407000FFFFFFFFFFFFFFC3FFFFCFFF81FFFFFF3A
:10408000FFFFF3FE7FFFFFFFFFFFFFFFFFFFFFFFCD
:10409000FFFFFFCFFFC3FFFFFFFFFFE3FE7FFFFF39
:1040A000FFFFFFFFFFFFFFFFFFFFFFFFCFFFFFFF50
:1040B000FFFFFFFF07FE7FFFFFFFFFFFFFFFFFFF89
:1040C000FFFFFFFFFFCFF7FEFFFFFFFFFFE7FE7FD2
:1040D000FFFFFFFFFFFFFFFFFFFFFFFFFFFFCFE03F
:1040E00000FFFFFFFFFFFFFE7FFFFFFFFFFFFFFF60
:1040F000FFFFFFFFFFFFFFCFE000FFFFFFFFFFFF1E
:10410000FE7FFFFFFFFFFFF800001C00001FFFFF06
:10411000CFFFFEFFFFFFFFFFFFFE7FFFFFFFFFFF61
:10412000F000000800000FFFFFCFFFFFFFFFFFFFC1
:10413000FFFFFE7FFFE1FFFFFFD800000800001B2C
:10414000FFFFCFFFB9FFFFFFFFFEFFFE7FFF80FFF6
:10415000FFFF8C00001C000031FFFFCFFF70FFFF4E
:10416000FFFFFCFFFE7FFF1EFFFFFF860000360003
:104170000061FFFFCFFF76FFFFFFFFFDFFFE7FFF28
:104180003CFFFFFF830000630000C1FFFFCFFF760D
:10419000FFFFFFFF9DFFFE7FFF71FFFFFF8180009C
:1041A000C1800181FFFFCFFF6DFFFFFFFF3DFFFEDD
:1041B0007FFF03FFFFFF80FFFF80FFFF01FFFFCFB7
:1041C000FF01FFFFFFFF79FBFE7FFF0FFFFFFF8077
:1041D000FFFF80FFFF01FFFFCFFF80FFFFFFFE79A2
:1041E000FBFE7FFFFFF87FFF80FFFF80FFFF01FFE7
:1041F000FFCFFFFEFFFFFFFEE3F9FE7FFFFF800F13
:10420000FF80FFFF80FFFF01FFFFCFFF7FFFFFFF6A
:10421000FE8001FE7FFFFE0007FF80FFFF80FFFFA3
:1042200001FFFFCFFF1FEFFFFFFE33FFFE7FFFF811
:104230000003FF80FFFF80FFFF01FFFFCFFF07EFBD
:10424000FFFFFE73FFFE7FFFF00301FF80FFFF8093
:10425000FFFF01FFFFCFFF619FFFFFFFF3FFFE7F27
:10426000FFE03FC1FF80FFFF80FFFF01FFFFCFFFA7
:10427000F87FFFFFFFF3FFFE7FFFC1FFE1FF80FF3D
:10428000FF80FFFF01FFFFCFFFF9FFFFFFFFF3FFFD
:10429000FE7FFF87FFF1FF80FFFF80FFFF01FFFF31
:1042A000CFFF67FFFFFFFFFDFFFE7FFF9FFFF3FFD5
:1042B00080FFFF80FFFF01FFFFCFFF1FFFFFFFFF1A
:1042C000FFFFFE7FFF3FFFF3FF80FFFF80FFFF0147
:1042D000FFFFCFFF7FFFFFFFFFFFFFFE7FFF3FFFDF
:1042E000F7FF80FFFF80FFFF01FFFFCFFFFCFFFF15
:1042F000FFFFFFFFFE7FFF1FFFE7FF818000C18000
:104300000181FFFFCFFFFCFFFFFFFFFFFFFE7FFFED
:104310001FFFEFFF830000630000C1FFFFCFFFFF1F
:10432000FFFFFFFFFFFFFE7FFF0FFFDFFF860000A5
:1043300036000061FFFFCFFFFFFFFFFFFFFFFFFE23
:104340007FFF87FFFFFF8C00001C000031FFFFCFC5
:10435000FFC3FFFFFFFFFFFFFE7FFF87FFFFFFD8C9
:1043600000000800001BFFFFCFFF81FFFFFFFFFFE2
:10437000FFFE7FFFCFFFFFFFF000000800000FFFF0
:10438000FFCFFF3CFFFFFFFFFFFFFE7FFFFFFFFFB1
:10439000FFF800001C00001FFFFFCFFF7EFFFFFFA4
:1043A000FFFFFFFE7FFFFFFFFFFFFFFFFFFFFFFF9E
:1043B000FFFFFFCFFF7EFFFFFFFFFFFFFE7FFFFF3F
:1043C000FFFFFFFFFFFFFFFFFFFFFFFFCFFF3EFFEE
:1043D000FFFFFFFFFFFE7FFFFFFFFFFFFFFFFFFF6E
:1043E000FFFFFFFFFFCFFFBDFFFFFFFFFFFFFE7FD0
:1043F000FFFFFFFFFFFFFFFFFFFFFFFFFFFFCFFFFD
:10440000FFFFFFFFFFFFFFFE7FFFFFFFFFFFFFFF3D
:10441000FFFFFFFFFFFFFFCFFFBEFFFFFFFFFFFF1D
:10442000FE7FFFFFFFFFFFFFFFFFFFFFFFFFFFFF1D
:10443000CFFF00FFFFFFFFFFFFFE7FFFFFFFFFFF3C
:10444000FFFFFFFFFFFFFFFFFFCFFF00FFFFFFFFAB
:10445000FFFFFE7FFFFFFFFFFFFFFFFFFFFFFFFFED
:10446000FFFFCFFFBEFFFFFFFFFFFFFE7FFFFFFF4E
:10447000FFFFFFFFFFFFFFFFFFFFFFCFFFBFFFFFBC
:10448000FFFFFFFFFE7FFFFFFFFFFFFFFFFFFFFFBD
:10449000FFFFFFFFCFFF7FFFFFFFFFFFFFFE7FFF5D
:1044A000FFFFFFFFFFFFFFFFFFFFFFFFFFCFFF7ECD
:1044B000FFFFFFFFFFFFFE7FFF00000000FFFFFF89
:1044C000FFFFFFFFFFFFCFFF00FFFFFFFFFFFFFE2C
:1044D0007FFF7FFFFFFEFFFFFFFFFFFFFFFFFFCF1D
:1044E000FF80FFFFFFFFFFFFFE7FFF5DF7FFFAFF8B
:1044F000FFFFFFFFFFFFFFFFCFFFFEFFFFFFFFFFFD
:10450000FFFE7FFF6EEFE006FFFFFFFFFFFFFFFFF5
:10451000FFCFFFFFFFFFFFFFFFFFFE7FFF7FBBEB34
:10452000FEFFFFFFFFFFFFFFFFFFCFFFFFFFFFFFCC
:10453000FFFFFFFE7FFF60DBEBBAFFFFFFFFFFFF28
:10454000FFFFFFCFFFFFFFFFFFFFFFFFFE7FFF6AC1
:10455000FBE09AFFFFFFFFFFFFFFFFFFCFFFFFFF23
:10456000FFFFFFFFFFFE7FFF6A03EAAAFFFFFFFFD7
:10457000FFFFFFFFFFCFFFFFFFFFFFFFFFFFFE7FFC
:10458000FF6AFBCAB6FFFFFFFFFFFFFFFFFFCFFF82
:10459000FFFFFFFFFFFFFFFE7FFF6A03EAB6FFFF9B
:1045A000FFFFFFFFFFFFFFCFFFFFFFFFFFFFFFFF4B
:1045B000FE7FFF6AFBE0AAFFFFFFFFFFFFFFFFFF99
:1045C000CFFFFFFFFFFFFFFFFFFE7FFF60DBEB9AE8
:1045D000FFFFFFFFFFFFFFFFFFCFFFFFFFFFFFFF1B
:1045E000FFFFFE7FFF7FBBEBFAFFFFFFFFFFFFFF39
:1045F000FFFFCFFFFFFFFFFFFFFFFFFFFFFF7FFF7B
:10460000FFFEFFFFFFFFFFFFFFFFFFFFFFFFFFFFBB
:10461000FFFFFFFFFFFFFF00000000FFFFFFFFFFA6
:10462000FFFFFFFFFFFFFFFFFFFFFFFFFFFFFFFF9A
:10463000FFFFFFFFFFFFFFFFFFFFFFFFFFFFFFFF8A
:10464000FFFFFFFFFFFFFFFFFFFFFFFFFFFFFFFF7A
:10465000FFFFFFFFFFFFFFFFFFFFFFFFFFFFFFFF6A
:10466000FFFFFFFFFFFFFFFFFFFFFFFFFFFFFFFF5A
:10467000FFFFFFFFFFFFFFFFFFFFFFFFFFFFFFFF4A
:10468000FFFFFFFFFFFFFFFFFFFFFFFFFFFFFFFF3A
:10469000FFFFFFFFFFFFFFFFFFFFFFFFFFFFFFFF2A
:1046A000FFFFFFFFFFFFFFFFFFFFFFFFFFFFFFFF1A
:1046B000FFFFFFFFFFFFFFFFFFFFFFFFFFFFFFFF0A
:1046C000FFFFFFFFFFFFFFFFFFFFFFFFFFFFFFFFFA
:1046D000FFFFFFFF8000007FFFFFFFFFFFFFFFFFE7
:1046E000FFFFFFFFFFFFFFFFFFFFFFFFFF80000057
:1046F0007FFFFFFFFFFFFFFFFFFFFFFFFFFFFFFF4A
:10470000FFFFFFFFFFFF8000007FFFFFFFFFFFFFB6
:10471000FFFFFFFFFFFFFFFFFFFFFFFFFFFFFF8028
:1047200000007FFFFFFFFFFFFFFFFFFFFFFFFFFF17
:10473000FFFFFFFFFFFFFFFF8000007FFFFFFFFF86
:10474000FFFFFFFFFFFFFFFFFFFFFFFFFFFFFFFF79
:10475000FF8000007FFFFFFFFFFFFFFFFFFFFFFF66
:10476000FFFFFFFFFFFFFFFFFFFF8000007FFFFF56
:10477000FFFFFFFFFFFFFFFFFFFFFFFFFFFFFFFF49
:10478000FFFFFF8000007FFFFFFFFFFFFFFFFFFF36
:10479000FFFFFFFFFFFFFFFFFFFFFFFF8000007F26
:1047A000FFFFFFFFFFFFFFFFFFFFFFFFFFFFFFFF19
:1047B000FFFFFFFFFF8000007FFFFFFFFFFFFFFF06
:1047C000FFFFFFFFF7FFF7DF7FFFFFFFFFFF800027
:1047D000007FFFFFFFFFFFFFFFFFFFFFFFEFFFF780
:1047E000BF7FFFFFFFFFFF8000007FFFFFFFFFFF96
:1047F000FFFFFFFFFFFE000780007FF3B7FFFFFF13
:104800008000007FFFFFFFFFFFFFFFFFFFFFF9FFBB
:10481000FFF7BFFFFCB7FFFFFF8000007FFFFFFF38
:10482000FFFFFFFFFFFFFFFFBDAFFFDF7FFF01FFC8
:10483000FFFF8000007FFFFFFFFFFFFFFFFFFFFF85
:10484000FE0D6FEEDF7FFE37FFFFFF8000007FFF72
:10485000FFFE3FFFFFFFFFFFFFFDAB4FE6C2FFF98B
:10486000B7FFFFFF8000007FFFFFFE3FFFFFFFFF5E
:10487000FFFFF9A6B7E81AFFE7B7FFFFFF800000C8
:104880007FFFFFFE7FFFFFFFFFFFFFFD8977AEDDAC
:10489000FFFFFFFFFFFF8000007FFFFFFC000FFF17
:1048A000FFFFFFFFFD2C0FCED9FFFFFFFFFFFF80B3
:1048B00000007FFFFFFC000FFFFFFFFFFFFCACFFCE
:1048C000ECD6FFFFFFFFFFFF8000007FFFFFFC0033
:1048D0000FFFFFFFFFFFFFAB3FE2CEFFFFFFFFFF3A
:1048E000FF8000007FFFFFFFFFFFFFFFFFFFFFFFD5
:1048F00087DFEEDF7FFFFFFF83FF8000007FFFFF8A
:10490000FFFFFFFFFFFFFFFFFFFFFFFEDFFFFF8750
:10491000FF83FF8000007FFFFFFFFFFFFFFFFFFF20
:10492000FFFFFFEFFFFFFFFF07FFC1FF8000007FDA
:10493000FFFFFFFFFFFFFFFFFFFFFFEFEFFFFFFFA7
:10494000FE079FE1FF8000007FFFFFFFFF8FFFFF5B
:10495000FFFFFFFEAB5FE000FFFE7F9FF1FF80786F
:10496000007FFFFFFFFF8FFFFFFFFFFFFEAA5FEF4C
:10497000FDFFFE7F1FF1FF807F807FFFFFFFFF8F26
:10498000FFFFFFFFFFFEA277EFFDFFFE7E0FF3FFAD
:104990008003807FFFFFFFFFFFFFFFFFFFFFFEA100
:1049A00077EFFDFFFE3C0FE3FF801E007FFFFFFF60
:1049B000FFFFFFFFFFFFFFFEA977EFFDFFFE0003F4
:1049C00083FF8078007FFFFFFFFFFFFFFFFFFFFFF8
:1049D000FC0B0FEFFDFFFE00C007FF807F807FFF15
:1049E000FFFC031FFFFFFFFFFFFEAB7FEFFDFFFF9D
:1049F00001C00FFF8003807FFFFFFC038FFFFFFFDD
:104A0000FFFFFEA93FEFFDFFFFFFF03FFF800F001C
:104A10007FFFFFFC038FFFFFFFFFFFFEA65FEFFDA1
:104A2000FFFFFFFFFFFF803C007FFFFFFC638FFF66
:104A3000FFFFFFFFFEAF5FE000FFFFFFFFFFFF8014
:104A400070007FFFFFFC630FFFFFFFFFFFFFEFAF73
:104A5000FFFFFFFE03FFFFFF8040007FFFFFFC60C2
:104A60001FFFFFFFFFFFFFFFFFFFFFFFFE03FFFF33
:104A7000FF8078007FFFFFFC701FFFFFFFFFFFFF3D
:104A8000FFFFFFFFFFFE1FFFF1FF807F807FFFFF23
:104A9000FFF87FFFFFFFFFFFFFDFDFFDFDFFFE1FD2
:104AA000FF81FF8003807FFFFFFFFFFFFFFFFFFF0E
:104AB000FFFFFFFFFFFFFFFE3FFE01FF801E007FA5
:104AC000FFFFFFFC7FFFFFFFFFFFFFFFFFFFFFFF79
:104AD000FE3FF007FF8078007FFFFFFFF87FFFFFBA
:104AE000FFFFFFFFFFFFFFFFFFFE3FC03FFF807F95
:104AF000807FFFFFFFF07FFFFFFFFFFFFFFFFFFF54
:104B0000FFFFFE3F01FFFF8003807FFFFFFFC27FAB
:104B1000FFFFFFFFFFFFFFFFFFFFFFFE380FFFFF5D
:104B2000800F007FFFFFFF8E7FFFFFFFFFFFFFFF74
:104B3000FFFFFFFFFE207FFFFF803C007FFFFFFEA7
:104B40001E7FFFFFFFFFFFFFFFFFFFFFFFFE01FFD5
:104B5000FFFF8070007FFFFFFC000FFFFFFFFFFFE4
:104B6000FEFF1FE1FDFFFE0FFFFFFF8040007FFF04
:104B7000FFFC000FFFFFFFFFFFFDFCDFDEFDFFFE80
:104B80003FFFFFFF8078007FFFFFFC000FFFFFFF6C
:104B9000FFFFFDFDDFDF7DFFFFFFFFFFFF807F8069
:104BA0007FFFFFFFFE7FFFFFFFFFFFFDFBDFDFBD9E
:104BB000FFFFFFFFFFFF8003807FFFFFFFFE7FFF00
:104BC000FFFFFFFFFCE7DFDF99FFFFFFE1FFFF8053
:104BD0001E007FFFFFFFFFFFFFFFFFFFFFFF1FDF45
:104BE000FFE7FFFFFFE1FFFF8078007FFFFFFFFF90
:104BF000FFFFFFFF3FFFFFFFFFFFFFFFFFFFE1FFA3
:104C0000FF807F807FFFFFFFFFFFFFFFE03FFFFF91
:104C1000003FC001FFFFFFF3FFFF8003807FFFFF26
:104C2000FFFFFFFFFE003FFFFCFFDFDFBFFFFFFFD7
:104C3000FFFFFF800F007FFFFFFFFFFFFFC0003F70
:104C4000FFFDFFDFDFBFFFFFFFFFFFFF803C007FB7
:104C5000FFFFFFFFFFFC00003FFFFDFFDFDFBFFFA7
:104C6000FFF01FFFFF8070007FFFFFFFFFFFF000DE
:104C70000C3FFFFCFF9FDF7FFFFFC007FFFF80406F
:104C8000007FFFFFFC000FF000FC3FFFFF007FE014
:104C9000FFFFFF0003FFFF8001807FFFFFFC000F8D
:104CA000F010FC3FFFFFFFFFFFFFFFFE0701FFFFCC
:104CB0008001807FFFFFFC000FF0F0FC3FFFFFFF53
:104CC000FFFFFFFFFE3FE1FFFF8000007FFFFFFFD0
:104CD000FFFFF0F0FC3FFFFF003FC001FFFE7FF051
:104CE000FFFF8000007FFFFFFFFFFFF0F0FC3FFFB2
:104CF000FCFFDFFFFFFFFE7FF8FFFF801F007FFF4D
:104D0000FFFFFFFFF0F0FC3FFFFDFFDFFFFFFFFEB7
:104D10007FF8FFFF803F807FFFFFFC000FF0F0FC7B
:104D20003FFFFDFFDFFFFFFFFE3FF1FFFF807180D0
:104D30007FFFFFFC000FF0F0FC3FFFFCFF9FFFFF39
:104D4000FFFE0FE1FFFF8061807FFFFFFC000FF09F
:104D5000F0FC3FFFFF007FFFFFFFFE0003FFFF802F
:104D600061707FFFFFFE0FFFF0F0FC3FFFFFFFFFD2
:104D7000FFFFFFFF0007FFFF803FF07FFFFFFF8780
:104D8000FFF0F0FC3FFFFFFFFFFFFFFFFFC01FFF33
:104D9000FF807F807FFFFFFFE1FFF0F0FCFFFFFF60
:104DA000FFFFFFFFFFFFFFFFFFFF8070007FFFFFA0
:104DB000FFF07FF0F3FFFFFFFFDF7FFFFFFFFFFF4D
:104DC000FFFFFF8000007FFFFFFFFC1FF0FFFFFFE2
:104DD000FFFFE6FFFFFFFFFFFFFFFFFF8003807F76
:104DE000FFFFFFFF0FF3FFCFFFFFFFF9FFFFFFFF05
:104DF000FFF01FFFFF807F807FFFFFFC000FFFFFA2
:104E00000FFFFFFFF5FFFFFFFFFFC007FFFF817CE4
:104E1000007FFFFFFC000FFFFF0FFFFFFFEEFFFF14
:104E2000FFFFFF0003FFFF8100307FFFFFFFFFFF59
:104E3000FFFF0FFFFFFFDF7FFFFFFFFE0701FFFF09
:104E40008078307FFFFFFFFFFFFFFF0FFFFFFFFFB7
:104E5000FFFFFFFFFE3FE1FFFF807FF07FFFFFFFCF
:104E6000FFFFFFFF0FFFFFFFFFFFFFFFFFFE7FF0D2
:104E7000FFFF8001E07FFFFFFFC0FFFFFF0FFFFF8D
:104E8000FFFFFFFFFFFFFE7FF8FFFF8007807FFF30
:104E9000FFFF803FFFFF0FFFFFFEFF1FFFFFFFFE33
:104EA0007FF8FFFF801E007FFFFFFF001FFFFF3F17
:104EB000FFFFFDFCDFFFFFFFFE3FF1FFFF807800FB
:104EC0007FFFFFFE1E1FFFFFFFFFFFFDFDDFFFFF58
:104ED000FFFE0FE1FFFF8060007FFFFFFE3F0FFF3F
:104EE000FFFF3FFFFDFBDFFFFFFFFE0003FFFF8033
:104EF00007007FFFFFFC7F8FFFFFE03FFFFCE7DF46
:104F0000FFFFFFFF0007FFFF807F807FFFFFFC7F29
:104F10008FFFFE003FFFFF1FDFFFFFFFFFC01FFFF0
:104F2000FF8079807FFFFFFC7F8FFFC0003FFFFF86
:104F3000FFFFFFFFFFFFFFFFFFFF8001807FFFFFFD
:104F4000FC7F8FFC0000FFFFFF003FFFFFFFFFFF24
:104F5000FFFFFF8001007FFFFFFC7F8FF0000FFF4E
:104F6000FFFCFFDFFFFFFFFFFFFFFFFF8007807FEA
:104F7000FFFFFC3F1FF0003FFFFFFDFFDFFFFFFFD4
:104F8000FFFFFFFFFF807F807FFFFFFFFFFFF01C21
:104F90003FFFFFFDFFDFFFFFFFFFFFFFFFFF807809
:104FA000007FFFFFFFFFFFF0FC3FFFFFFCFF9FFFC5
:104FB000FFFFFFFFFFFFFF8000007FFFFFFC000FF0
:104FC000F0FC3FFFFFFF007FFFFFFFFFFFFFFFFF42
:104FD0008003807FFFFFFC000FF0FC3FFFFFFFFF1F
:104FE000FFFFFFFFFFFFFFFFFF807F807FFFFFFCD2
:104FF000000FF0FC3FFFFFFFFFFFFFFFF9FFFFFF88
:10500000FFFF807C007FFFFFFFE3FFF0FC3FFFFF1F
:10501000FF003FFFFFFCFFFFFFFFFF8030007FFF2F
:10502000FFFFE3FFF0F83FFFFFFCFFDFFFFFFE3F66
:10503000FFFFFFFF8060007FFFFFFFE3FFF0F83F0F
:10504000FFFFFDFFDFFFFFFF0FFFFFFFFF8063801C
:105050007FFFFFFFE3FFF0707FFFFFFDFFDFFFFF3C
:10506000FF83FFFFFFFF807F807FFFFFFFE3FFF0F5
:10507000007FFFFFFCFF9FFFFFFFC1FFFFFFFF80DF
:105080003C007FFFFFFFE3FFF800FFFFFFFF007F13
:10509000FFFFFFC0FFFFFFFF8000007FFFFFFC005E
:1050A0000FFC01FFFFFFFFFFFFFFFFFFE07FFFFFA0
:1050B000FF800C007FFFFFFC000FFE07FF3FFFFF9C
:1050C000FFFFFFFFFFE03FFFFFFF800C007FFFFFC0
:1050D000FC000FFFFFFE3FFFFFFFFFFFFFFFF01F82
:1050E000FFFFFF800C007FFFFFFFFFFFFFFFF83F88
:1050F000FFFFFFFFFFFFFFF00FFFFFFF800C007FB0
:10510000FFFFFFFFFFFFFFE03FFFFFFFFFFFFFFF8E
:10511000F80FFFFFFF8000007FFFFFFFFFFFFFFF93
:10512000807FFFFFFFFFFFFFFFF807FFFFFF801FEC
:10513000007FFFFFFFFFFFFFFE01FFFFFFFFFFFFFD
:10514000FFFFF807FFFFFF803F807FFFFFFFFFFFAC
:10515000FFFC03FFFFFFFFFFF3FFFFF807FFFFFF69
:105160008071807FFFFFFFFFFFFFF007FFFFFFFF62
:10517000FFF8007FF807FFFFFF8061807FFFFFFFE0
:10518000FFFFFFC007FFFFFFFFFFFE000FF807FF55
:10519000FFFF8073807FFFFFFFFFFFFF0087FFFFA0
:1051A000FFFFFFFF0003F80FFFFFFF803F807FFF3F
:1051B000FFFFFFFFFC0387FFFFFFFFFFFF8000F003
:1051C0000FFFFFFF81FE007FFFFFFFFFFFF8078754
:1051D000FFFFFFFFFFFFC000701FFFFFFF81C00048
:1051E0007FFFFFFFFFFFF01F87FFFFFFFFFFFFE0D5
:1051F00000701FFFFFFF8003807FFFFFFFFFFFF0B6
:105200007F87FFFFFFFFFFFFF000303FFFFFFF80C2
:105210007F807FFFFFFFFFFFF00087FFFFFFFFFFA3
:10522000FFF800107FFFFFFF817C007FFFFFFFFF83
:10523000FFF00001FFFFFFFFFFFFFE0001FC03FF87
:10524000FF8101007FFFFFFFFFFFF000003FFFFF36
:10525000FFFFFFFF0003F0000FFF8039807FFFFF9B
:10526000FFFFFFFF80003FFFFE0FFFFFFFC007C0F3
:105270000003FF8079807FFFFFFFFFFFFFFF003FFC
:10528000FFFC00FFFFFFF807000000FF806D807F3C
:10529000FFFFFFFFFFFFFFFC3FFFFC003FFE3FFF64
:1052A0008600003E7F806D807FFFFFFFFFFFFFFFD6
:1052B000FFFFFFF800000E0FFFE38001FFFF806F8C
:1052C000807FFFFFFFFFFFFFFFFFFFFFF8000003EE
:1052D00083FFF1F01FFFFF8027007FFFFFFFFFFF2D
:1052E000FFFFFFFFFFF0000001C0FFF9FFFFFFFF1E
:1052F0008000707FFFFFFFFFFFFFFFFF3FFFE00029
:105300000000E07F98FFFFFFFF800FF07FFFFFFFAF
:10531000FFFFFFFFE03FFFC000001FF01F80FFFF07
:10532000FFFF807F807FFFFFFFFFFFFFFE003FFE4C
:10533000000007FFF807F07FFFFFFF8071007FFF8D
:10534000FFFFFFFFFFC0003FF800003FC03803FC35
:105350003EFFFFFF8061807FFFFFFFFFFFFC00003B
:10536000FFE00000FC001C00FF3CFFFFFF806380AB
:105370007FFFFFFFFFFFF0000FFFE00001E0001CD8
:10538000007F99FFFF3F807F007FFFFFFFFFFFF05F
:10539000003FFFF0000780000E001F83FFF07F80BA
:1053A0003E007FFFFFFFFFFFF01C3FFFF8000F8074
:1053B000000E000FC3FF80FF8000007FFFFFFFFF94
:1053C000FFF0FC3FFFF8001F01C00E0003C7FC0107
:1053D000FF8003807FFFFFFFFFFFF0FC3FFFFC002B
:1053E0003E0FE0078003E7F003FF807F807FFFFF31
:1053F000FFFFFFF0FC3FFFFC00E73E7807C003E73C
:10540000E003FF81FC007FFFFFFFFFFFF0FC3FFF99
:10541000FE01C3F81C06E003E7C007FF8180007FA0
:10542000FFFFFFFFFFF0FC3FFFFE03C3E01E0E7017
:1054300007F7800FFF8007007FFFFFFFFFFFF0F8F7
:105440003FFFFF0787803F0C300FF7800FFF802F53
:10545000807FFFFFFFFFFFF0F83FFFFF070780E3BC
:105460009C380FF3001FFF8069807FFFFFFFFFFF65
:10547000F0707FFFFF0C07C1C0FC181FF3007FFF17
:105480008069007FFFFFFFFFFFF0007FFFFF18072D
:10549000E3C0F81C1FF300FFFF806F807FFFFFFF5A
:1054A000FFFFF800FFFFFFB0067F00700C3FFB031B
:1054B000FFFF807F807FFFFFFFFFFFFC01FFFFFFFB
:1054C000E0063F00C00C3FFB0FFFFF8038007FFF6E
:1054D000FFFFFFFFFE07FFFFFFC0070381C00C7F38
:1054E000F83FFFFF8000307FFFFFFFFFFFFFFFFF60
:1054F0003FFF800701E7C00CFEF87FFFFF80783098
:105500007FFFFFFFFFFFFFFFE03FFF000700FFC03F
:1055100006FE19FFFFFF807FF07FFFFFFFFFFFFF09
:10552000FE003FFE000300018007FF01FFFFFF8038
:1055300001E07FFFFFFFFFFFFFC0003FFE00038091
:10554000038007FFC1FFFFFF8007807FFFFFFFFF92
:10555000FFFC00003FFC000180078003FFE1FFFF2C
:10556000FF801E007FFFFFFFFFFFF0000C3FFE00EB
:1055700001C00F00039FF0FFFFFF8078007FFFFF57
:10558000FFFFFFF000FC3FFF0000E07E000187F816
:10559000FFFFFF8060007FFFFFFFFFFFF010FC3F79
:1055A000FF80007FF00001E3F8FFFFFF8001807FB4
:1055B000FFFFFFFFFFF0F0FC3FFFC0003E000000D8
:1055C000F9FCFBFFFF8001807FFFFFFFFFFFF0F092
:1055D000FC3FFFE00018000001F8EE73FFFF8000C1
:1055E000007FFFFFFFFFFFF0F0FC3FFFF0000C002B
:1055F0000003E00E77FFFF8000007FFFFFFFFFFF4B
:10560000F0F0FC3FFFF80003000003800F27FFFFCE
:10561000801F007FFFFFFFFFFFF0F0FC3FFFF8005F
:1056200003E00007BF8F07FFFF803F807FFFFFFF82
:10563000FFFFF0F0FC3FFFFC00FFFC000FFF8F8F2F
:10564000FFFF8071807FFFFFFFFFFFF0F0FC3FFF57
:10565000FC038C0FC00FFFC78FFFFF8061807FFFAF
:10566000FFFFFFFFF0F0FC3FFFFE1E0001F81FFBF5
:10567000E78FFFFF8063807FFFFFFFFFFFF0F0FCFD
:105680003FFFFFFE00003FFFE3F3CFFFFF8073000B
:105690007FFFFFFFFFFFF0F0FCFFFFFFFF80003FF9
:1056A000FE07F9E7FFFF8030007FFFFFFFFFFFF0FD
:1056B000F3FFFFFFFFFFF0007FE00FF8E7FFFF8041
:1056C00000007FFFFFFFFFFFF0FFFFFFFFFFFFF87E
:1056D00000FF003FFE33FFFF8003807FFFFFFFFFDF
:1056E000FFF3FFFF3FFFFFFFFE01FE007FFC01FF16
:1056F000FF807F807FFFFFFFFFFFFFFFE03FFFFF97
:10570000FFFF81FC00FFE0007FFF807C007FFFFF48
:10571000FFFFFFFFFE003FFFFFFFFFC3FC0073839F
:10572000F83FFF8030007FFFFFFFFFFFFFC0003F1B
:10573000FFFFFFFFE7FC007807FF7FFF8060007F2F
:10574000FFFFFFFFFFFC0000FFFFFFFFFFFFFC006C
:105750007C0FFFFFFF8063807FFFFFFFFFFFF000F4
:105760000FFFFFFFFFFFFFFE0071CFFFFFFF807FF6
:10577000807FFFFFFFFFFFF0007FFFFFFFFFFFFFC6
:10578000FF0063CFFFFFFF803C007FFFFFFFFFFFB5
:10579000F0187FFFFFFFF81FFFFF800FCFFFFFFF15
:1057A0008000007FFFFFFFFFFFF0F87FFFFFFFFE9D
:1057B00007FFFFE01FEFFFFFFF8000007FFFFFFFFD
:1057C000FFFFF0F87FFFFFFFFF81FFFFF01FFFFFEC
:1057D000FFFF8000007FFFFFFFFFFFF0F87FFFFF6C
:1057E000FFFFE03FFFE003FFFFFFFF8000007FFFC0
:1057F000FFFFFFFFF0F83FFFFFFFFFF803FF008010
:10580000FFFFFFFF8000007FFFFFFFFFFFF0F80FAB
:10581000FFFFFFFFFC000000C01FFFFFFF80000034
:105820007FFFFFFFFFFFF0F803FFFFFFFFFE000019
:10583000018007FFFFFF8000007FFFFFFFFFFFF0F9
:10584000F8007FFFFFFFFF0000018003FFFFFF80E4
:1058500000007FFFFFFFFFFFF0F8003FFFFFFFFFAB
:105860008000038001FFFFFF8000007FFFFFFFFF3C
:10587000FFF0F0C03FFFFFFFFFC000038000FFFF0D
:10588000FF8000007FFFFFFFFFFFF060F03FFFFFA2
:10589000FFFFF00007C0007FFFFF8000007FFFFFD9
:1058A000FFFFFFF000FC3FFFFFFFFFFC000FC00009
:1058B0007FFFFF8000007FFFFFFFFFFFF801FFBFBA
:1058C000FFFFFFFFFF003FC0003FFFFF8000007FA2
:1058D000FFFFFFFFFFFC03FFFFFFFFFFFFFFFFFFD7
:1058E000E0003FFFFF8000007FFFFFFFFFFFFE0F94
:1058F000FFFFFFFFFFFFFFFFFFF0001FFFFF800024
:10590000007FFFFFFFFFFFFFFFFFFFFFFFFFFFFF26
:10591000FFFFFE001FFFFF8000007FFFFFFFFFFF74
:10592000FFFFFFFFFFFFFFFFFFFFFFFFF00FFFFF86
:105930008000007FFFFFFFFFFFFFFFFFFFFFFFFF74
:10594000FFFFFFFFFFFF0FFFFF8000007FFFFFFF54
:10595000FFFFFFFFFFFFFFFFFFFFFFFFFFFFFFC78F
:10596000FFFF8000007FFFFFFFFFFFFFFFFFFFFF44
:10597000FFFFFFFFFFFFFFFFF3FFFF8000007FFF40
:10598000FFFFFFFFFFFFFFFFFFFFFFFFFFFFFFFF27
:10599000FFF9FFFF8000007FFFFFFFFFFFFFFFFF1A
:1059A000FFFFFFFFFFFFFFFFFFFFFFFFFF80000084
:1059B0007FFFFFFFFFFFFFFFFFFFFFFFFFFFFFFF77
:1059C000FFFFFFFFFFFF8000007FFFFFFFFFFFFFE4
:1059D000FFFFFFFFFFFFFFFFFFFFFFFFFFFFFF8056
:1059E00000007FFFFFFFFFFFFFFFFFFFFFFFFFFF45
:1059F000FFFFFFFFFFFFFFFF8000007FFFFFFFFFB4
:105A0000FFFFFFFFFFFFFFFFFFFFFFFFFFFFFFFFA6
:105A1000FF8000007FFFFFFFFFFFFFFFFFFFFFFF93
:105A2000FFFFFFFFFFFFFFFFFFFF8000007FFFFF83
:105A3000FFFFFFFFFFFFFFFFFFFFFFFFFFFFFFFF76
:105A4000FFFFFF8000007F00685A00080000002070
:105A5000180000006C010008805A0008180000209F
:105A60006006000088010008000000000102030435
:105A700001020304060708090204060800000000EA
:0400000508000131BD
:00000001FF
