:020000040800F2
:1000000010040020D5000008AD0E00080D0E0008F9
:1000100000000000000000000000000000000000E0
:10002000000000000000000000000000B10E000809
:100030000000000000000000AF0E0008B30E000832
:10004000E7000008E7000008E7000008E7000008F4
:10005000E7000008E7000008E7000008E7000008E4
:1000600000000000E7000008E7000008E7000008C3
:10007000E7000008E700000800000000E7000008B3
:1000800000000000E7000008000000000000000081
:10009000E700000800000000E7000008E700000893
:1000A000E7000008E7000008E7000008E700000894
:1000B000E7000008E7000008000000000000000062
:1000C0000348854600F08EF800480047E50F000819
:1000D000100400200448804704480047FEE7FEE77C
:1000E000FEE7FEE7FEE7FEE7350F0008C100000867
:1000F00030B50B46014600202022012409E00D46C0
:10010000D5409D4205D31D469540491B2546954047
:1001100040191546521E002DF1DC30BDF0B51FB45C
:100120000646002082B005464024019100901BE065
:10013000019922460F46304600F042F8049A059B8A
:10014000801A994110D310461946224600F028F82B
:10015000361A8F410197224601200021009F00F0AE
:100160001FF838184D4100902046641E0028DFDC3F
:10017000019B00982946324607B0F0BDD2B201E09B
:100180000270401C491EFBD270470022F6E710B5F2
:1001900013460A4604461946FFF7F0FF204610BDF5
:1001A00010B5202A04DB0146203A9140002010BD02
:1001B000914020239C1A0346E3401943904010BD10
:1001C00010B5202A04DB0846203AD040002110BD9B
:1001D0000B46D340D0402024A21A91400843194630
:1001E00010BD0000064C0125064E05E0E36807CC73
:1001F0002B430C3C98471034B442F7D3FFF764FF0D
:10020000E84300080844000810B5102000F07EF90B
:10021000012000F099F9642000F0D7FE10BDFFB571
:1002200085B0CF080E990F9EC908C919491E0391C0
:10023000C821081A010AC5B208980091281A010AB3
:10024000C0B2019014460291442000F05FF9F8B268
:1002500000F07AF90399C8B200F076F9452000F071
:1002600055F9284600F070F90099C8B200F06CF911
:10027000019800F069F90299C8B200F065F94E20C2
:1002800000F044F9F8B200F05FF94F2000F03EF9B9
:10029000284600F059F90099C8B200F055F9242019
:1002A00000F034F90E99089800254843C7080FE07C
:1002B000012E04D0022E04D0032E0DD007E02078AA
:1002C00002E02078C043C0B200F03EF9641C6D1C0F
:1002D000AF42EDD809B0F0BDFF20F5E710B5052419
:1002E000240700224021204600F0FDF9642000F0A0
:1002F0006CFE01224021204600F0F5F9642000F058
:1003000064FE00F0D1F8122000F000F900F0CCF803
:10031000012000F0FBF8C72000F016F9002000F0E3
:1003200013F9002000F010F9112000F0EFF801207F
:1003300000F00AF9442000F0E9F8002000F004F988
:10034000182000F001F9452000F0E0F8C72000F087
:10035000FBF8002000F0F8F8002000F0F5F800208D
:1003600000F0F2F83C2000F0D1F8052000F0ECF8A5
:10037000182000F0CBF8802000F0E6F84E2000F0C6
:10038000C5F8002000F0E0F84F2000F0BFF8C720CB
:1003900000F0DAF8002000F0D7F800F085F810BD82
:1003A00010B5222000F0B2F8FF2000F0CDF8202098
:1003B00000F0ACF800F078F810BD0000F8B5044685
:1003C0000546242000F0A2F80B4F0026207800F00C
:1003D000BBF8641C761CBE42F8D3262000F096F8C9
:1003E0000024287800F0B0F8641C6D1CBC42F8D3DF
:1003F00000F004F8F8BD00008813000010B52220BA
:1004000000F084F8F72000F09FF8202000F07EF83C
:1004100000F04AF810BD10B5052424070022402141
:10042000204600F060F9642000F0CFFD0122402159
:10043000204600F058F9642000F0C7FD10BD000010
:1004400070B50546242000F061F8064E0024287897
:1004500000F07AF8641C6D1CB442F8D3FFF7CEFFAD
:1004600070BD00008813000070B5242000F04EF825
:1004700000250024FF2000F067F8641C192CF9D334
:100480006D1CC82DF5D3262000F040F8002500246F
:10049000FF2000F059F8641C192CF9D36D1CC82DED
:1004A000F5D3FFF7ABFF70BD10B50524240720215D
:1004B000204600F013F90028F9D110BDF8B5124E0E
:1004C000044600220221304600F00DF90025FF27E6
:1004D0000137200601D5012200E00022052039461F
:1004E000000700F000F901220221304600F0FBF87D
:1004F00000220221304600F0F6F860066D1C040E62
:10050000EDB2082DE5D3F8BD0004005070B50D4CD8
:10051000054601221146204600F0E5F8002201219F
:10052000204600F0E0F8052000228021000700F0BE
:10053000DAF82846FFF7C2FF01221146204600F0F4
:10054000D2F870BD0004005070B50D4C0546012274
:100550001146204600F0C7F800220121204600F095
:10056000C2F8052001228021000700F0BCF82846CF
:10057000FFF7A4FF01221146204600F0B4F870BD39
:1005800000040050F0B5002294E00126964033406C
:100590007ED04C68012C05D0022C03D0112C01D048
:1005A000122C10D1856854000327A740BD43CF68A3
:1005B000A7402F43876045680C79B543E406E40FF4
:1005C00094402C434460C66855000324AC408F68B7
:1005D000A643AF403743A646C7604C68022C01D003
:1005E000122C0ED1D408A4002418276AA44656075A
:1005F000F40E0F26A640B7430E69A6403E4364465C
:10060000266204687646B4430E79B607B60FAE404C
:10061000264306604C68E4004BD5294C656B0126E7
:10062000354365639508274CAD002F19BD689407C5
:10063000240F0F26A640B54305263607B04201D148
:10064000002614E0204EB04201D101260FE01F4EDB
:10065000B04201D102260AE01D4EB04201D103266C
:1006600005E01C4EB04201D1052600E00626A6405A
:100670002E43BE60184D2C684E689C43F60300D58F
:100680001C432C606C684E689C43B60302D500E0A6
:100690000FE01C436C60AC684E689C43F60200D5CA
:1006A0001C43AC60EC684E689C43B60200D51C430A
:1006B000EC60521C0B681C46D44000D065E7F0BDCE
:1006C00000100240000001400004005000080050EB
:1006D000000C0050001C005000040140006908405C
:1006E00000D001207047002A01D0816170478162EB
:1006F000704700000148806870470000000000203B
:1007000002488168027889188160704700000020E3
:1007100010B50848002401684022114301602046BA
:1007200000F00AF8002801D0012401E000F026F8CA
:10073000204610BD0020024070B504460D4D7D20BE
:100740002978C000FFF7D4FC01460B480068FFF78A
:10075000CFFC00F043FB002809D1042C07D2002273
:100760002146401E00F016F800206C6070BD01208C
:1007700070BD0000000000200C0000200448416B08
:10078000012211434163816B02041143816370476D
:100790000010024010B500F0E7FB10BDF8B50E46A2
:1007A000040038D05E480068C007C00FB04214D2C1
:1007B0005B4F38684008400030433860FFF79AFFCD
:1007C000054605E0FFF796FF411B564881427AD85F
:1007D0003868C007C00FB042F4D12078524F80076C
:1007E00005D5F868F0218843A1680843F8602078AF
:1007F000C00752D06068022806D0032807D03968A5
:1008000001280AD0890504E03968890301E03968C4
:100810008901002903DB0120F8BD4907F9E7F968E0
:10082000890889000143F960FFF764FF05466068A5
:1008300002280AD0032814D001281ED029E0FFF78F
:1008400059FF411B374881423DD8F8680007800FA7
:100850000228F4D121E0FFF74DFF411B31488142CE
:1008600031D8F8680007800F0328F4D115E0FFF7AE
:1008700041FF411B2B48814225D8F8680007800FB3
:100880000128F4D109E0FFF735FF411B25488142DB
:1008900019D8F8680007800FF5D121480168C90709
:1008A000C90FB14217D901684908490031430160B5
:1008B000FFF720FF054608E005E0FFF71BFF411B9F
:1008C0001848814201D90320F8BD15480068C007C7
:1008D000C00FB042F1D12078400706D5F868072153
:1008E00009028843E1680843F8602078000707D5CB
:1008F000F8680721C90288432169C9000843F860E4
:1009000000F01AF8F968094A0906090F515CC84055
:100910000749086007480068FFF70EFFF8BD0000B0
:10092000002002408813000000100240CD43000860
:100930000C0000200400002070B51B4EF2680C2152
:100940001046084019498B0004280CD04D00082897
:1009500010D00C2810D070680004410F0120C00393
:10096000491C884070BD3068C00601D5084670BD7E
:10097000184670BD284670BD90020D4C000F205CDB
:100980001202940FF268641CD20301D5294603E0D9
:100990003268D20600D4194600F0CDFA2246002370
:1009A000FFF7BCFB70BD00000010024000093D00D5
:1009B000DD430008FEB504007ED0FE4DEE680C203D
:1009C000EF6806400120000407402078C00747D0A8
:1009D000082E05D00C2E0AD101200004874206D132
:1009E000286880033CD560680028E5D038E0012005
:1009F00061680004814203D129680143296011E044
:100A0000052301221B0492049942296802D1114353
:100A10002960F1E781432960296801400091286835
:100A200090432860606800280DD0FFF763FE0090B7
:100A300005E0FFF75FFE0099401A64287BD828681C
:100A40008003F6D50CE0FFF755FE009005E0FFF7B8
:100A500051FE0099401A6428F0D828688003F6D423
:100A60002078800756D50921E068042E0DD00C2E81
:100A700001D1002F09D000283CD02A688A430243C4
:100A80002A60FFF737FE074628E02A68520701D59B
:100A9000002891D06A681F231B029A4323691B0216
:100AA0001A436A602A688A4302432A60FFF744FFB8
:100AB000E96809060A0F00E08CE1BF49895CC8407B
:100AC000BE490860BE480068FFF736FE002873D1B3
:100AD00020E0FFF70FFEC01B0228AFD828684007B0
:100AE000F7D568681F210902884321690902084374
:100AF00068600FE02868400840002860FFF7FAFDB2
:100B0000074604E0FFF7F6FDC01B022896D82868C8
:100B10004007F7D42078C00660D5002E0CD0A0691D
:100B200000284AD02868FF21013108432860FFF7D8
:100B3000E1FD07462EE0C2E02868800502D5A069E5
:100B40000028A6D06868072149038843216A084322
:100B500068606868217F0002000A0906084368602F
:100B6000206A410B0120C003491C8840E96809063E
:100B70000A0F9149895CC840904908609048006814
:100B8000FFF7DAFD002817D128E0FFF7B3FDC01BFF
:100B90000228A2D828688005F7D56868072149038C
:100BA0008843216A084368606868217F0002000A60
:100BB00009060843686011E0E3E02968FF2001307E
:100BC00081432960FFF796FD074604E0FFF792FD99
:100BD000C01B022873D828688005F7D42078794F85
:100BE000000724D560690028386910D00121084326
:100BF0003861FFF77FFD009005E0FFF77BFD00996E
:100C0000401A02285BD838698007F6D50FE0400803
:100C100040003861FFF76EFD009005E0FFF76AFDC8
:100C20000099401A02284AD838698007F6D42078FB
:100C3000400767D500200190A86BC00006D4A96BBF
:100C4000012000070143A963012001905E4801686B
:100C5000C90512D402461168801501431160FFF7DF
:100C600049FD009005E0FFF745FD0099401A642812
:100C700025D855480068C005F5D5FF20A268013089
:100C8000824203D139690143396111E001218902AE
:100C9000002A07D005231B029A4203D13A690A436E
:100CA0003A61EFE73A6982433A61386988433861CB
:100CB000A06800280FD0FFF71DFD009007E05FE05F
:100CC000FFF718FD0099411A4048814258D8386909
:100CD0008005F5D50EE0FFF70DFD009007E0FFF76A
:100CE00009FD01460098091A3848814248D83869F8
:100CF0008005F4D40198002804D0A86B01210907CD
:100D00008843A863606A002866D00C2E3ED0012775
:100D10003F060228286805D0B8432860FFF7EAFCA0
:100D200004462FE0B8432860FFF7E4FC064604E0E1
:100D3000FFF7E0FC801B022822D828688001F7D446
:100D4000E16AA06AEA680843216BFD231B049A4309
:100D500011430843E860286838432860FFF7CAFC5D
:100D6000044604E0FFF7C6FC001B022808D82868E8
:100D70008001F7D530E0FFF7BDFC001B022801D948
:100D80000320FEBD28688001F5D425E00128F8D0B5
:100D9000E86801210904A26A014091421AD10F2199
:100DA0008904E26A0140914214D103218905084077
:100DB000216B0DE000100240CD4300080C00002024
:100DC0000400002040100240007000408813000022
:100DD000884201D00120FEBD0020FEBD094910B5AA
:100DE000401E884201D9012010BD074C60610321DB
:100DF000081F00F0B9F80020A06107202061002042
:100E000010BD0000FFFFFF0000E000E0FEE7000073
:100E1000F0B587B014216846FFF7B7F92148C16AD9
:100E200001252943C162C16A29400591C26A022194
:100E30000A43C262C06AFF2408400526C53436074B
:100E40000590002221463046FFF74DFC164F002248
:100E500003213846FFF747FC0094002401950294D3
:100E6000694630460394FFF78DFB282000900194DB
:100E7000694602943046FFF785FB032602946946D3
:100E80003846009601950394FFF77CFBC020009044
:100E9000122001A961C1694638460495FFF772FB2B
:100EA00007B0F0BD0010024000040050FEE770479C
:100EB000704710B5FFF724FC10BD000010B592B0CC
:100EC00034216846FFF761F914210DA8FFF75DF999
:100ED000174801680322D2029143C21489180160A5
:100EE00001210220039110210090049109904004F7
:100EF0000B90000100240C900A946846FFF75AFDFD
:100F0000002801D072B6FEE70F200D9003200E904E
:100F10000120800210900F94012111940DA8FFF779
:100F20003DFC002801D072B6FEE712B010BD0000F3
:100F3000007000407047F8B5040C8BB2264682B2B0
:100F40005E430D0C1046370C5843360480190021BF
:100F5000794116466E43370C36048019794126468E
:100F60006E438919F8BD00008307FF22DB0E9A400B
:100F70008907090E9940002808DB830809489B006F
:100F80001818036893430B43036070470007000F72
:100F90000838830804489B001818C36993430B431F
:100FA000C361704700E400E000ED00E002E008C823
:100FB000121F08C1002AFAD170477047002001E0D3
:100FC00001C1121F002AFBD1704700220523DB025A
:100FD00004E00021491C9942FCD3521C8242F8D300
:100FE000704700001CB5FFF793FBFFF767FFFFF7A3
:100FF0000FFFFFF773F97A48FFF722FAFFF704F9BA
:101000007848FFF7E2FFFFF769F97748FFF7D6F96D
:10101000FFF7FAF8FF20F530FFF7D7FFFFF75EF98B
:101020000220202601901123704A382100960620C4
:10103000FFF7F5F86D4A0325112344323821B22019
:1010400000960195FFF7EBF8012458272E23684AF4
:1010500038211F2000970194FFF7E1F82E23654AFD
:101060003821502000970194FFF7D9F80820034653
:101070000090614A882101948120FFF7D0F8382040
:101080005A4A00901D23CB3A582101948C20FFF737
:10109000C6F81820554A00901A2388323821019446
:1010A0008E20FFF7BCF8FFF77BF9FFF7ADF84D484E
:1010B000FFF78BFFFFF7AFF911234C4A38210620C9
:1010C00000960195FFF7ABF80220484A01901123E2
:1010D000443238210096B220FFF7A1F82E23474A68
:1010E00038211F2000970194FFF799F8424A2E23D8
:1010F00008323821502000970194FFF790F808201B
:10110000034600903C4A882101958120FFF787F82B
:101110003820364A00901D23CB3A582101958C2067
:10112000FFF77DF81820314A00901A2388323821C1
:1011300001958E20FFF773F80820034600902E4A91
:10114000682101948120FFF76AF838200146009059
:101150001D232B4A01948C20FFF761F81820224AA6
:1011600000901F235D3A782101948B20FFF757F8F8
:10117000FFF716F9FFF748F81A48FFF726FFFFF7C1
:10118000ADF8FFF771F9FFF73FF8FFF7A7F8C825AB
:1011900000212B46124A084600950194FFF73FF8BC
:1011A000FFF7FEF8FFF730F87D20C000FFF70DFFD6
:1011B000FFF731F90021C8230B4A08460095019436
:1011C000FFF72DF8FFF7ECF8FFF71EF80548FFF7DB
:1011D000FCFEFFF783F8FFF747F9FFF715F8FEE786
:1011E00045300008DC050000BD1C00088A1B000813
:1011F000001600080614000804120008FA17000878
:10120000F4190008FFC381818181C3FFFFFFFFFF45
:10121000FFFFFFFFFFFFFFFF000000007E00000058
:10122000007FFE000000003C000000003FFC0000CA
:10123000000018000000001FFC0000000008000073
:1012400000001FE600000000080000000033C3009B
:1012500000000008000000006181800000001C0008
:10126000000000C180C00000003E0000000181803D
:10127000600000007F00000003018030000000FFDC
:1012800080000006018018000001FFC000000C0172
:10129000800C000003FFE0000018018007FFFFFF43
:1012A000FFFFFFFFF0018003FFFFFFFFFFFFFFE0F5
:1012B000018003FFFFFFFFFFFFFFE0018003FFFF4F
:1012C000FFFFFFFFFFE0018003FFFFFFFFFFFFFFC6
:1012D000E0018003FFFFFFFFFFFFFFE0018003FF4E
:1012E000FFFFFFFFFFFFE0018003FFFFFFFFFFFFA6
:1012F000FFE0018003FFFFFFFFFFFFFFE00180032E
:10130000FFFFFFFFFFFFFFE0018003FFFFFFFFFF85
:10131000FFFFE0018003FFFFFFFFFFFFFFE0018011
:1013200003FFFFFFFFFFFFFFE0018003FFFFFFFF61
:10133000FFFFFFE0018003FFFFFFFFFFFFFFE00172
:101340008003FFFFFFFFFFFFFFE0018003FFFFFFC0
:10135000FFFFFFFFE0018003FFFFFFFFFFFFFFE054
:10136000018003FFFFFFFFFFFFFFE0018007FFFF9A
:10137000FFFFFFFFFFF001800C000003FFE0000013
:1013800018018018000001FFC000000C018030002F
:101390000000FF800000060180600000007F000068
:1013A00000030180C00000003E0000000181818038
:1013B0000000001C00000000C1C300000000080085
:1013C00000000061E600000000080000000033FC9F
:1013D0000000000008000000001FF80000000018D6
:1013E000000000000FFC000000003C000000001F97
:1013F000FE000000007E000000003FFFFFFFFFFF37
:10140000FFFFFFFFFFFFFFFFFFFFFFFFFFFFFFFFEC
:10141000FFFFFFFFFFFFFFFFFFFFFFFFFFFFFFFFDC
:10142000FFFFFFFFFFFFFFFFFFFFFFFFFFFFFFFFCC
:10143000FFFFFFFFFFFFFFFFFFFFFFFFFFFFFFFFBC
:10144000FFFFFFFFFFFFFFFFFFFFFFFFFFFFFFFFAC
:10145000FFFFFFFFFFFFFFFFFFFFFFFFFFFFFFFF9C
:10146000FFFFFFFFFFFFFFFFFFFFFFFFFFFFFFFF8C
:10147000FFFFFFFFFFFFFFFFFFFFFFFFFFFFFFFF7C
:10148000FFFFFFFFFFFFFFFFFFFFFFFFFFFFFFFF6C
:10149000FFFFFFFFFFFFFFFFFFFFFFFFFFFFFFFF5C
:1014A000FFFFFFFFFFFFFFFFFFFFFFFFFFFFFFFF4C
:1014B000FFFFFFFFFFFFFFFFFFFFFFFFFFFFFFFF3C
:1014C000FFFFFFFFFFFFFFFFFFFFFFFFFFFFFFFF2C
:1014D000FFFFFFFFFFFFFFFFFFFFFFFFFFFFFFFF1C
:1014E000FFFFFFFFFFFFFFFFFFFFFFFFFFFFFFFF0C
:1014F000FFFFFFFFFFFFFFFFFFFFFFFFFFFFFFFFFC
:10150000FFFFFFFFFFFFFFFFFFFFFFFFFFFFFFFFEB
:10151000FFFFFFFFFFFFFFFFFFFFFFFFFFFFFFFFDB
:10152000FFFFFFFFFFFFFFFFFFFFFFFFFFFFFFFFCB
:10153000FFFFFFFFFFFFFFFFFFFFFFFFFFFFFFFFBB
:10154000FFFFFFFFFFFFFFFFFFFFFFFFFFFFFFFFAB
:10155000FFFFFFFFFFFFFFFFFFFFFFFFFFFFFFFF9B
:10156000FFFFFFFFFFFFFFFFFFFFFFFFFFFFFFFF8B
:10157000FFFFFC000003FFE000001FFFFFF800007A
:1015800001FFC000000FFFFFF0000000FF8000001F
:1015900007FFFFE00000007F00000003FFFFC00026
:1015A00000003E00000001FFFF800000001C000062
:1015B0000000FFFF0000000008000000007FFE00A8
:1015C00000000008000000003FFC000000000800D0
:1015D0000000001FF80000000018000000000FFCD1
:1015E000000000003C000000001FFE000000007E24
:1015F000000000003FFFFFFFFFFFFFFFFFFFFFFFB7
:10160000FFFFFFFFFFFFFFFFFFFFFFFF00000000E6
:101610007FFFFFFFFFFFFE000000003FFFFFFFFF17
:10162000FFFC000000001FFFFFFFFFFFFC000000A9
:10163000000FFFFFFFFFFFE6000000000FFFFFFFAE
:10164000FFF3C3000000000FFFFFFFFFE1818000F8
:1016500000001FFFFFFFFFC180C000000037FFFF39
:10166000FFFF81806000000063FFFFFFFF0180300B
:10167000000000C1FFFFFFFE01801800000180FF95
:10168000FFFFFC01800C000003007FFFFFF80180DA
:1016900007FFFFFE003FFFFFF0018003FFFFFE009A
:1016A0003FFFFFE0018003FFFFFE003FFFFFE0017F
:1016B0008003FFFFFE003FFFFFE0018003FFFFFE0E
:1016C000003FFFFFE0018003FFFFFE003FFFFFE060
:1016D000018003FFFFFE003FFFFFE0018003FFFFEB
:1016E000FE003FFFFFE0018003FFFFFE003FFFFF22
:1016F000E0018003FFFFFE003FFFFFE0018003FFEA
:10170000FFFE003FFFFFE0018003FFFFFE003FFF01
:10171000FFE0018003FFFFFE003FFFFFE0018003C9
:10172000FFFFFE003FFFFFE0018003FFFFFE003FE1
:10173000FFFFE0018003FFFFFE003FFFFFE00180AD
:1017400003FFFFFE003FFFFFE0018003FFFFFE00FD
:101750003FFFFFE0018003FFFFFE003FFFFFE001CE
:101760008007FFFFFE003FFFFFF001800FFFFFFF3C
:10177000006000001801801FFFFFFF80C000000C08
:1017800001803FFFFFFFC18000000601807FFFFF57
:10179000FFE3000000030180FFFFFFFFF6000000F1
:1017A000018181FFFFFFFFFC00000000C1C3FFFFBC
:1017B000FFFFF80000000061E7FFFFFFFFF80000F7
:1017C000000033FFFFFFFFFFF8000000001FFFFFD6
:1017D000FFFFFFF8000000000FFFFFFFFFFFFC000E
:1017E0000000001FFFFFFFFFFFFE000000003FFFA3
:1017F000FFFFFFFFFFFFFFFFFFFFFFFFFFFFFFFFF9
:10180000FFFFFFFFFFFF000000007E000000007FE1
:10181000FE000000003C000000003FFC0000000053
:1018200018000000001FFC0000000008000000007D
:101830001FE600000000080000000033C3000000A5
:101840000008000000006181800000001C00000012
:1018500000C180C0000000360000000181806000EF
:1018600000006300000003018030000000C1800020
:10187000000601801800000180C000000C01800CEF
:101880000000030060000018018007FFFFFE003F1A
:10189000FFFFF0018003FFFFFE003FFFFFE001803C
:1018A00003FFFFFE003FFFFFE0018003FFFFFE009C
:1018B0003FFFFFE0018003FFFFFE003FFFFFE0016D
:1018C0008003FFFFFE003FFFFFE0018003FFFFFEFC
:1018D000003FFFFFE0018003FFFFFE003FFFFFE04E
:1018E000018003FFFFFE003FFFFFE0018003FFFFD9
:1018F000FE003FFFFFE0018003FFFFFE003FFFFF10
:10190000E0018003FFFFFE003FFFFFE0018003FFD7
:10191000FFFE003FFFFFE0018003FFFFFE003FFFEF
:10192000FFE0018003FFFFFE003FFFFFE0018003B7
:10193000FFFFFE003FFFFFE0018003FFFFFE003FCF
:10194000FFFFE0018003FFFFFE003FFFFFE001809B
:1019500003FFFFFE003FFFFFE0018007FFFFFE00E7
:101960003FFFFFF001800FFFFFFF00600000180144
:10197000801FFFFFFF80C000000C01803FFFFFFFC2
:10198000C18000000601807FFFFFFFE3000000032D
:101990000180FFFFFFFFF6000000018181FFFFFFD4
:1019A000FFFC00000000C1C3FFFFFFFFF8000000C4
:1019B0000061E7FFFFFFFFF80000000033FFFFFFBB
:1019C000FFFFF8000000001FFFFFFFFFFFF800000F
:1019D00000000FFFFFFFFFFFFC000000001FFFFFE4
:1019E000FFFFFFFE000000003FFFFFFFFFFFFFFFC4
:1019F000FFFFFFFFFFFFFFFFFFFFFFFFFFFFFC00F9
:101A0000001FFFFFFFF800000FDFFFFFF800001BC3
:101A10008FFFFFFC00003187FFFFF600006183FFAE
:101A2000FFE30000C181FFFFC180018180FFFF80D3
:101A3000FFFF0180FFFF80FFFF0180FFFF80FFFFAE
:101A40000180FFFF80FFFF0180FFFF80FFFF01801B
:101A5000FFFF80FFFF0180FFFF80FFFF0180FFFF8E
:101A600080FFFF0180FFFF80FFFF0180FFFF80FFFD
:101A7000FF0180FFFF80FFFF0180FFFF80FFFF016C
:101A800080FFFF80FFFF01818000C1FFFF81830095
:101A90000063FFFFC186000037FFFFE18C00001FDD
:101AA000FFFFF1D800000FFFFFFBF000000FFFFF6A
:101AB000FFF800001FFFFFFFFFFFFFFFFFFFFFFF1B
:101AC000FFFFFFFFFFFFF800001FFFFFFFF0000018
:101AD0000FFFFFFFD800000FFFFFFB8C00001FFF70
:101AE000FFF186000037FFFFE183000063FFFFC1C5
:101AF000818000C1FFFF8180FFFF80FFFF0180FF29
:101B0000FF80FFFF0180FFFF80FFFF0180FFFF805C
:101B1000FFFF0180FFFF80FFFF0180FFFF80FFFFCD
:101B20000180FFFF80FFFF0180FFFF80FFFF01803A
:101B3000FFFF80FFFF0180FFFF80FFFF0180FFFFAD
:101B400080FFFF0180FFFF80FFFF0180FFFF80FF1C
:101B5000FF01818000C1800181830000630000C11A
:101B6000860000360000618C00001C000031D800A7
:101B7000000800001BF000000800000FF800001C27
:101B800000001FFFFFFFFFFFFFFF000000007FFFBF
:101B9000FFFE7FFFFFFE6EF7FFFA776FE0067FDB49
:101BA000EBFE7F03EBBA417BE09A5503EAAA557B33
:101BB000CAB65503EAB6417BE0AA7F03EB9A7FFBE6
:101BC000EBFA7FFFFFFE7FFFFFFE0000000000003A
:101BD00000007FFFFFFE7FFFFFFE5DF7FFFA6EEF65
:101BE000E0067FBBEBFE60DBEBBA6AFBE09A6A03C0
:101BF000EAAA6AFBCAB66A03EAB66AFBE0AA60DB35
:101C0000EB9A7FBBEBFA7FFFFFFE7FFFFFFE00003A
:101C10000000FFFFFFE1FFFF80FFFF1EFFFF3CFF13
:101C2000FF71FFFF03FFFF0FFFFFFFF87FFF800F34
:101C3000FE0007F80003F00301E03FC1C1FFE187A8
:101C4000FFF19FFFF33FFFF33FFFF71FFFE71FFF8A
:101C5000EF0FFFDF87FFFF87FFFFCFFFFFFFFFFFD4
:101C6000FFFFFFF81FFFE00FFFC007FFC7C3FF9F85
:101C7000F3FF9FF3FF9FF3FF9FE3FF87C7F9C007C1
:101C8000E1E00F81F03E0FFFF83FFFF0FFFFC3FFE1
:101C9000FF0FFFFC1FFFF07C0F81F00707E0031F21
:101CA000E3E1FFCFF9FFCFF9FFCFF9FFCFF1FFC39A
:101CB000E3FFE003FFF007FFF81FFFFFFFFFFFFF59
:101CC000FFFFFFFFFFFFFFFFFFFFFFFFFFFFFFFF24
:101CD000FFFFFFFFFFFFFFFFFFFFFFFFFFFFFFFF14
:101CE000FFFFFFFFFFFFFFFFFFFFFFFFFFFFFFFF04
:101CF000FFFFFFFFFFFFFFFFFFFFFFFFFFFFFFFFF4
:101D0000FFFFFFFFFFFFFFFFFFFFFFFFFFFFFFFFE3
:101D1000FFFFFFFFFFFFFFFFFFFFFFFFFFFFFFFFD3
:101D2000FFFFFFFFFFFFFFFFFFFFFFFFFFFFFFFFC3
:101D3000FFFFFFFFFFFFFFFFFFFFFFFFFFFFFFFFB3
:101D4000FFFFFFFFFFFFFFFFFFFFFFFFFFFFFFFFA3
:101D5000FFFFFFFFFFFFFFFFFFFF00000000FFFF8F
:101D6000FFFFFFFFFFFFFFFFFFFFFFFFFFFFFFFF83
:101D7000FFFFFF7FFFFFFEFFFFFFFFFFFFFFFFFFF4
:101D8000FFFFFFFFFFFFFFFFFFFE7FFF6EF7FFFA82
:101D9000FFFFFFFFFFFFFFFFFFCFFFFFFFFFFFFF83
:101DA000FFFFFE7FFF776FE006FFFFFFFFFFFFFFF4
:101DB000FFFFCFFFFFFFFFFFFFFFFFFE7FFF7FDB88
:101DC000EBFEFFFFFFFFFFFFFFFFFFCFFFFFFFFF68
:101DD000FFFFFFFFFE7FFF7F03EBBAFFFFFFFFFF69
:101DE000FFFFFFFFCFFFFFFFFFFFFFFFFFFE7FFFB4
:101DF000417BE09AFFFFFFFFFFFFFFFFFFCFFFFFE9
:101E0000FFFFFFFFFFFFFE7FFF5503EAAAFFFFFF73
:101E1000FFFFFFFFFFFFCFFFFFFFFFFFFFFFFFFE03
:101E20007FFF557BCAB6FFFFFFFFFFFFFFFFFFCF1E
:101E3000FFFFFFFFFFFFFFFFFE7FFF5503EAB6FF37
:101E4000FFFFFFFFFFFFFFFFCFFFFFFFFFFFFFFFD2
:101E5000FFFE7FFF417BE0AAFFFFFFFFFFFFFFFFC9
:101E6000FFCFFFFFFFFFFFFFFFFFFE7FFF7F03EBC3
:101E70009AFFFFFFFFFFFFFFFFFFCFFF7FFFFFFF87
:101E8000FFFFFFFE7FFF7FFBEBFAFFFFFFFFFFFF80
:101E9000FFFFFFCFFF0FFFFFFFFFFFFFFE7FFF7F73
:101EA000FFFFFEFFFFFFFFFFFFFFFFFFCFFF01FF71
:101EB000FFFFFFFFFFFE7FFF00000000FFFFFFFFAF
:101EC000FFFFFFFFFFCFFF70FFFFFFFFFFFFFE7F62
:101ED000FFFFFFFFFFFFFFFFFFFFFFFFFFFFCFFF42
:101EE00003FFFFFFFFFFFFFE7FFFFFFFFFFFFFFF7F
:101EF000FFFFFFFFFFFFFFCFFF3FFFFFFFFFFFFFE2
:101F0000FE7FFFFFFFFFFFFFFFFFFFFFFFFFFFFF62
:101F1000CFFF0FFFFFFFFFFFFFFE7FFFFFFFFFFF72
:101F2000FFFFFFFFFFFFFFFFFFCFFF01FFFFFFFFEF
:101F3000FFFFFE7FFFFFFFFFFFFFFFFFFFFFFFFF32
:101F4000FFFFCFFF70FFFFFFFFFFFFFE7FFFFFFFE1
:101F5000FFFFFFFFFFFFFFFFFFFFFFCFFF07FFFFB9
:101F6000FFFFFFFFFE7FFFFFFFFFFFFFFFFFFFFF02
:101F7000FFFFFFFFCFFF3FFFFFFFFFFFFFFE7FFFE2
:101F8000FFFFFFFFFFFFFFFFFFFFFFFFFFCFFF7F11
:101F9000FFFFFFFFFFFFFE7FFFFFFFFFFFFFFFFFD2
:101FA000FFFFFFFFFFFFCFFF7FFFFFFFFFFFFFFEF2
:101FB0007FFFFFFFFFFFFFFFFFFFFFFFFFFFFFCFE1
:101FC000FF0FFFFFFFFFFFFFFE7FFFFFFFFFFFFF92
:101FD000FFFFFFFFFFFFFFFFCFFF01FFFFFFFFFF3F
:101FE000FFFE7FFFFF000000007E000000007FFF7B
:101FF000FFCFFF70FFFFFFFFFFFFFE7FFFFE000030
:1020000000003C000000003FFFFFCFFF03FFFFFF89
:10201000FFFFFFFE7FFFFC00000000180000000033
:102020001FFFFFCFFF3FFFFFFFFFFFFFFE7FFFFC14
:102030000000000008000000001FFFFFCFFF0FFF9F
:10204000FFFFFFFFFFFE7FFFE6000000000800002B
:10205000000033FFFFCFFF01FFFFFFFFFFFFFE7F09
:10206000FFC300000000080000000061FFFFCFFF79
:1020700070FFFFFFFFFFFFFE7FFF81800000001C5D
:1020800000000000C1FFFFCFFF07FFFFFFFFFFFBC6
:10209000FE7FFF80C0000000360000000181FFFFCE
:1020A000CFFF3FFFFFFFFFFFFBFE7FFF80600000D1
:1020B00000630000000301FFFFCFFF7FFFFFFFFF72
:1020C000FCF3FE7FFF8030000000C18000000601AD
:1020D000FFFFCFFF7FFFFFFFFFFCF7FE7FFF8018B2
:1020E00000000180C000000C01FFFFCFFF0FFFFFC9
:1020F000FFFFF8CFFE7FFF800C00000300600000B0
:102100001801FFFFCFFF01FFFFFFFFF81FFE7FFF5A
:102110008007FFFFFE003FFFFFF001FFFFCFFF70D2
:10212000FFFFFFFC003FFE7FFF8003FFFFFE003F3D
:10213000FFFFE001FFFFCFFF03FFFFFFFC003FFEBB
:102140007FFF8003FFFFFE003FFFFFE001FFFFCFA7
:10215000FF3FFFFFFFFFF11FFE7FFF8003FFFFFE3A
:10216000003FFFFFE001FFFFCFFF0FFFFFFFFFF387
:102170009FFE7FFF8003FFFFFE003FFFFFE001FFA8
:10218000FFCFFF01FFFFFFFFE7CFFE7FFF8003FFD1
:10219000FFFE003FFFFFE001FFFFCFFF70FFFFFFEB
:1021A000FFFFE3FE7FFF8003FFFFFE003FFFFFE036
:1021B00001FFFFCFFF07FFFFFFFFFFF3FE7FFF8061
:1021C00003FFFFFE003FFFFFE001FFFFCFFF3FFFE8
:1021D000FFFFFFFFF1FE7FFF8003FFFFFE003FFFD9
:1021E000FFE001FFFFCFFF7FFFFFFFFFFFF1FE7F5B
:1021F000FF8003FFFFFE003FFFFFE001FFFFCFFF77
:10220000FFFFFFFFFFFFF9FE7FFF8003FFFFFE00E0
:102210003FFFFFE001FFFFCFFFFCFFFFFFFFFFF9E4
:10222000FE7FFF8003FFFFFE003FFFFFE001FFFF97
:10223000CFFFFCFFFFFFFFFFFFFE7FFF8003FFFFDD
:10224000FE003FFFFFE001FFFFCFFFFFFFFFFFFFAB
:10225000FFFFFE7FFF8003FFFFFE003FFFFFE00167
:10226000FFFFCFFFFFFFFFFFFFFFFFFE7FFF8003AA
:10227000FFFFFE003FFFFFE001FFFFCFFFC3FFFFB7
:10228000FFFFFFFFFE7FFF8003FFFFFE003FFFFF1A
:10229000E001FFFFCFFF81FFFFFFFFFFFFFE7FFF9A
:1022A0008003FFFFFE003FFFFFE001FFFFCFFF3C89
:1022B000FFFFFFFFFFF3FE7FFF8003FFFFFE003FF6
:1022C000FFFFE001FFFFCFFF7EFFFFFFFFCE07FE16
:1022D0007FFF8003FFFFFE003FFFFFE001FFFFCF16
:1022E000FF7EFFFFFFFFE6C7FE7FFF8007FFFFFEC9
:1022F000003FFFFFF001FFFFCFFFBDEFFFFFFFFF3C
:10230000E7FE7FFF800C000003006000001801FF63
:10231000FFCFFF800FFFFFFFFFA7FE7FFF801800AA
:10232000000180C000000C01FFFFCFFE000FFFFF87
:10233000FF8D37FE7FFF8030000000C18000000667
:1023400001FFFFCFFFFFEFFFFFFF9137FE7FFF8011
:1023500060000000630000000301FFFFCFFFFFFFEC
:10236000FFFFFF8177FE7FFF80C000000036000086
:10237000000181FFFFCFFFBEFFFFFFFC1973FE7F4F
:10238000FF81800000001C00000000C1FFFFCFE7BC
:1023900000FFFFFFFD8003FE7FFFC3000000000879
:1023A0000000000061FFFFCFE700FFFFFFFFB27BEF
:1023B000FE7FFFE600000000080000000033FFFF82
:1023C000CFFFFEFFFFFFFF3678FE7FFFFC0000001F
:1023D0000008000000001FFFFFCFFFFFFFFFFFFF0F
:1023E000FE7CFE7FFFF80000000018000000000FD8
:1023F000FFFFCFFF7FFFFFFFFFFFFCFE7FFFFC0023
:102400000000003C000000001FFFFFCFFF1FEFFF98
:10241000FFFFFFFCFE7FFFFE000000007E000000CB
:10242000003FFFFFCFFF07EFFFFFFFFFFCFE7FFF37
:10243000FFFFFFFFFFFFFFFFFFFFFFFFFFCFFF617A
:102440009FFFFFFFFFFFFE7FFFFFFFFFFFFFFFFF7D
:10245000FFFFFFFFFFFFCFFFF87FFFFFFFFFFFFE44
:102460007FFFFFFFFFFFFFFFFFFFFFFFFFFFFFCF2C
:10247000FFF9FFFFFFFFFFFFFE7FFFFFFFFFFFFFF3
:10248000FFFFFFFFFFFFFFFFCFFF67FFFFFFFFFE25
:10249000FFFE7FFFFFFFFFFFFFFFFFFFFFFFFFFFCD
:1024A000FFCFFF1FFFFFFFFFFEFFFE7FFFFF0000CC
:1024B00000007E000000007FFFFFCFFF7FFFFFFFD7
:1024C000FFFEFFFE7FFFFE000000003C000000005A
:1024D0003FFFFFCFFF01FFFFFFFFFEFFFE7FFFFC7F
:1024E0000000000018000000001FFFFFCFFF00FFEA
:1024F000FFFFFFFC9FFE7FFFFC00000000080000C4
:1025000000001FFFFFCFFFFEFFFFFFFF9D8FFE7F3D
:10251000FFE600000000080000000033FFFFCFFFCF
:10252000FEFFFFFFFFB54DFE7FFFC3000000000868
:102530000000000061FFFFCFFFFEFFFFFFFF851DD2
:10254000FE7FFF81800000001C00000000C1FFFF33
:10255000CFFF7DFFFFFFFE191DFE7FFF80C0000043
:1025600000360000000181FFFFCFFF00FFFFFFF8F2
:10257000197CFE7FFF806000000063000000030103
:10258000FFFFCFFF00FFFFFFFE29FCFE7FFF803033
:10259000000000C18000000601FFFFCFFFFEFFFF2B
:1025A000FFFE6000FE7FFF801800000180C0000079
:1025B0000C01FFFFCFFFBEFFFFFFFF79FFFE7FFF94
:1025C000800C000003006000001801FFFFCFFF0037
:1025D000FFFFFFFFF9FFFE7FFF8007FFFFFE003FC9
:1025E000FFFFF001FFFFCFFF00FFFFFFFFF9FFFE3E
:1025F0007FFF8003FFFFFE003FFFFFE001FFFFCFF3
:10260000FFBEFFFFFFFFF9FFFE7FFF8003FFFFFE1E
:10261000003FFFFFE001FFFFCFFFBFFFFFFFFFF91C
:10262000FFFE7FFF8003FFFFFE003FFFFFE001FF93
:10263000FFCFFF7FFFFFFFFFFDFFFE7FFF8003FF58
:10264000FFFE003FFFFFE001FFFFCFFF7EFFFFFF28
:10265000FFFFFFFE7FFF8003FFFFFE003FFFFFE065
:1026600001FFFFCFFF00FFFFFFFFFFFFFE7FFF80A7
:1026700003FFFFFE003FFFFFE001FFFFCFFF80FFF2
:10268000FFFFFFFFFFFE7FFF8003FFFFFE003FFF16
:10269000FFE001FFFFCFFFFEFFFFFFFFFF77FE7FA1
:1026A000FF8003FFFFFE003FFFFFE001FFFFCFFFC2
:1026B000EFFFFFFFFFFF67FE7FFF8003FFFFFE00CE
:1026C0003FFFFFE001FFFFCFFFEFFFFFFFFFE14F05
:1026D000FE7FFF8003FFFFFE003FFFFFE001FFFFE3
:1026E000CFFFEFFFFFFFFFE01FFE7FFF8003FFFF35
:1026F000FE003FFFFFE001FFFFCFFFEFFFFFFFFF07
:10270000C001FE7FFF8003FFFFFE003FFFFFE001EF
:10271000FFFFCFFFFFFFFFFFFE0001FE7FFF8003F3
:10272000FFFFFE003FFFFFE001FFFFCFFFFFFFFFC6
:10273000FFFFD0BFFE7FFF8003FFFFFE003FFFFFD4
:10274000E001FFFFCFFFC3FFFFFFFFDCEFFE7FFFD6
:102750008003FFFFFE003FFFFFE001FFFFCFFF818F
:10276000FFFFFFFFFE67FE7FFF8003FFFFFE003FCE
:10277000FFFFE001FFFFCFFF3CFFFFFFFFF20FFE77
:102780007FFF8003FFFFFE003FFFFFE001FFFFCF61
:10279000FF7EFFFFFFFFF20FFE7FFF8003FFFFFEC4
:1027A000003FFFFFE001FFFFCFF77EFFFFFFFFE0ED
:1027B0004FFE7FFF8007FFFFFE003FFFFFF001FF9E
:1027C000FFCFF7BDFFFFFFFFE48FFE7FFF800C0010
:1027D0000003006000001801FFFFCFE000FFFFFFD3
:1027E000FFE4AFFE7FFF801800000180C000000CF6
:1027F00001FFFFCFE000FFFFFFFFF8AFFE7FFF808C
:1028000030000000C18000000601FFFFCFFFFEFF87
:10281000FFFFFFFCC7FE7FFF806000000063000039
:10282000000301FFFFCFFFBEFFFFFFFFFFFFFE7FA3
:10283000FF80C0000000360000000181FFFFCFE7ED
:1028400000FFFFFFFFFFFFFE7FFF81800000001CF5
:1028500000000000C1FFFFCFE700FFFFFFFFFFFF09
:10286000FE7FFFC300000000080000000061FFFFC2
:10287000CFFFFEFFFFFFFFFFFFFE7FFFE600000030
:1028800000080000000033FFFFCFFFFFFFFFFFFF46
:10289000FFFFFE7FFFFC0000000008000000001F9B
:1028A000FFFFCFFFFFFFFFFFFFFFFFFE7FFFF800EF
:1028B00000000018000000000FFFFFCFFF8CFFFF9B
:1028C000FFFFFFFFFE7FFFFC000000003C00000058
:1028D000001FFFFFCFFF6EFFFFFFFFFFFFFE7FFF29
:1028E000FE000000007E000000003FFFFFCFFF66FB
:1028F000FFFFFFFFE1FFFE7FFFFFFFFFFFFFFFFF87
:10290000FFFFFFFFFFFFCFFF30FFFFFFFFE07FFE76
:102910007FFFFFFFFFFFFFFFFFFFFFFFFFFFFFCF77
:10292000FFF1FFFFFFFFE73FFE7FFFFFFFFFFFFF1E
:10293000FFFFFFFFFFFFFFFFCFFFFFFFFFFFFFCC0A
:10294000BFFE7FFFFFFFFFFFFFFFFFFFFFFFFFFF58
:10295000FFCFFF7FEFFFFFFE001FFE7FFFFFFFFFA8
:10296000FFFFFFFFFFFFFFFFFFFFCFFE000FFFFF97
:10297000FE000FFE7FFFFFFFFFFFFFFFFFFFFFFFD8
:10298000C3FFFFCFFE000FFFFFFFC973FE7FFFFFF6
:10299000FFFFFFFFFFFFFFFFFF81FFFFCFFFBDEF47
:1029A000FFFFFFCB73FE7FFFFFFFFFFFFFFFFFFF78
:1029B000FFFF81FFFFCFFF7EFFFFFFFFCF33FE7FD3
:1029C000FFFFFFFFFFFFFFFFFFFFFF81FFFFCFFFC5
:1029D0007EFFFFFFFFC0F3FE7FFFFFFFFFFFFFFF54
:1029E000FFFFFFFF81FFFFCFFF3CFFFFFFFFC7F3AC
:1029F000FE7FFFFFFFFFFFFFFFFFFFFFFFC3FFFFA4
:102A0000CFFF81FFFFFFFFFFF3FE7FFFFFFFFFFF11
:102A1000FFFFFFFFFFFFFFFFFFCFFFC3FFFFFFFF32
:102A2000FFE3FE7FFFFFFFFFFFFFFFFFFFFFFFFF53
:102A3000FFFFCFFFFFFFFFFFFFFF07FE7FFFFFFF4F
:102A4000FFFFFFFFFFFFFFFFFFFFFFCFF7FEFFFFCF
:102A5000FFFFFFE7FE7FFFFFFFFFFFFFFFFFFFFF1F
:102A6000FFFFFFFFCFE000FFFFFFFFFFFFFE7FFF45
:102A7000FFFFFFFFFFFFFFFFFFFFFFFFFFCFE000B4
:102A8000FFFFFFFFFFFFFE7FFFFFFFFFFFF80000DC
:102A90001C00001FFFFFCFFFFEFFFFFFFFFFFFFE39
:102AA0007FFFFFFFFFFFF000000800000FFFFFCFD8
:102AB000FFFFFFFFFFFFFFFFFE7FFFE1FFFFFFD8EC
:102AC00000000800001BFFFFCFFFB9FFFFFFFFFE64
:102AD000FFFE7FFF80FFFFFF8C00001C000031FF26
:102AE000FFCFFF70FFFFFFFFFCFFFE7FFF1EFFFF1A
:102AF000FF86000036000061FFFFCFFF76FFFFFF7B
:102B0000FFFDFFFE7FFF3CFFFFFF8300006300002F
:102B1000C1FFFFCFFF76FFFFFFFF9DFFFE7FFF712D
:102B2000FFFFFF818000C1800181FFFFCFFF6DFFAC
:102B3000FFFFFF3DFFFE7FFF03FFFFFF80FFFF80E2
:102B4000FFFF01FFFFCFFF01FFFFFFFF79FBFE7FCC
:102B5000FF0FFFFFFF80FFFF80FFFF01FFFFCFFFA1
:102B600080FFFFFFFE79FBFE7FFFFFF87FFF80FF06
:102B7000FF80FFFF01FFFFCFFFFEFFFFFFFEE3F936
:102B8000FE7FFFFF800FFF80FFFF80FFFF01FFFF41
:102B9000CFFF7FFFFFFFFE8001FE7FFFFE0007FFEC
:102BA00080FFFF80FFFF01FFFFCFFF1FEFFFFFFE52
:102BB00033FFFE7FFFF80003FF80FFFF80FFFF0170
:102BC000FFFFCFFF07EFFFFFFE73FFFE7FFFF00366
:102BD00001FF80FFFF80FFFF01FFFFCFFF619FFF2D
:102BE000FFFFF3FFFE7FFFE03FC1FF80FFFF80FF9D
:102BF000FF01FFFFCFFFF87FFFFFFFF3FFFE7FFF27
:102C0000C1FFE1FF80FFFF80FFFF01FFFFCFFFF962
:102C1000FFFFFFFFF3FFFE7FFF87FFF1FF80FFFF56
:102C200080FFFF01FFFFCFFF67FFFFFFFFFDFFFEFC
:102C30007FFF9FFFF3FF80FFFF80FFFF01FFFFCFBC
:102C4000FF1FFFFFFFFFFFFFFE7FFF3FFFF3FF8040
:102C5000FFFF80FFFF01FFFFCFFF7FFFFFFFFFFFB1
:102C6000FFFE7FFF3FFFF7FF80FFFF80FFFF01FFB9
:102C7000FFCFFFFCFFFFFFFFFFFFFE7FFF1FFFE710
:102C8000FF818000C1800181FFFFCFFFFCFFFFFFBC
:102C9000FFFFFFFE7FFF1FFFEFFF830000630000C9
:102CA000C1FFFFCFFFFFFFFFFFFFFFFFFE7FFF0F13
:102CB000FFDFFF86000036000061FFFFCFFFFFFF50
:102CC000FFFFFFFFFFFE7FFF87FFFFFF8C00001C61
:102CD000000031FFFFCFFFC3FFFFFFFFFFFFFE7FBD
:102CE000FF87FFFFFFD800000800001BFFFFCFFF9A
:102CF00081FFFFFFFFFFFFFE7FFFCFFFFFFFF00021
:102D0000000800000FFFFFCFFF3CFFFFFFFFFFFFAA
:102D1000FE7FFFFFFFFFFFF800001C00001FFFFF0A
:102D2000CFFF7EFFFFFFFFFFFFFE7FFFFFFFFFFFE5
:102D3000FFFFFFFFFFFFFFFFFFCFFF7EFFFFFFFF54
:102D4000FFFFFE7FFFFFFFFFFFFFFFFFFFFFFFFF14
:102D5000FFFFCFFF3EFFFFFFFFFFFFFE7FFFFFFFF5
:102D6000FFFFFFFFFFFFFFFFFFFFFFCFFFBDFFFFE5
:102D7000FFFFFFFFFE7FFFFFFFFFFFFFFFFFFFFFE4
:102D8000FFFFFFFFCFFFFFFFFFFFFFFFFFFE7FFF04
:102D9000FFFFFFFFFFFFFFFFFFFFFFFFFFCFFFBEB4
:102DA000FFFFFFFFFFFFFE7FFFFFFFFFFFFFFFFFB4
:102DB000FFFFFFFFFFFFCFFF00FFFFFFFFFFFFFE53
:102DC0007FFFFFFFFFFFFFFFFFFFFFFFFFFFFFCFC3
:102DD000FF00FFFFFFFFFFFFFE7FFFFFFFFFFFFF83
:102DE000FFFFFFFFFFFFFFFFCFFFBEFFFFFFFFFF64
:102DF000FFFE7FFFFFFFFFFFFFFFFFFFFFFFFFFF64
:102E0000FFCFFFBFFFFFFFFFFFFFFE7FFFFFFFFFC3
:102E1000FFFFFFFFFFFFFFFFFFFFCFFF7FFFFFFF72
:102E2000FFFFFFFE7FFFFFFFFFFFFFFFFFFFFFFF33
:102E3000FFFFFFCFFF7EFFFFFFFFFFFFFE7FFF00D3
:102E4000000000FFFFFFFFFFFFFFFFFFCFFF00FFBE
:102E5000FFFFFFFFFFFE7FFF7FFFFFFEFFFFFFFF84
:102E6000FFFFFFFFFFCFFF80FFFFFFFFFFFFFE7FA2
:102E7000FF5DF7FFFAFFFFFFFFFFFFFFFFFFCFFF41
:102E8000FEFFFFFFFFFFFFFE7FFF6EEFE006FFFF8D
:102E9000FFFFFFFFFFFFFFCFFFFFFFFFFFFFFFFF72
:102EA000FE7FFF7FBBEBFEFFFFFFFFFFFFFFFFFF8C
:102EB000CFFFFFFFFFFFFFFFFFFE7FFF60DBEBBAEF
:102EC000FFFFFFFFFFFFFFFFFFCFFFFFFFFFFFFF42
:102ED000FFFFFE7FFF6AFBE09AFFFFFFFFFFFFFFA0
:102EE000FFFFCFFFFFFFFFFFFFFFFFFE7FFF6A0334
:102EF000EAAAFFFFFFFFFFFFFFFFFFCFFFFFFFFF7C
:102F0000FFFFFFFFFE7FFF6AFBCAB6FFFFFFFFFF69
:102F1000FFFFFFFFCFFFFFFFFFFFFFFFFFFE7FFF72
:102F20006A03EAB6FFFFFFFFFFFFFFFFFFCFFFFFD0
:102F3000FFFFFFFFFFFFFE7FFF6AFBE0AAFFFFFF2F
:102F4000FFFFFFFFFFFFCFFFFFFFFFFFFFFFFFFEC2
:102F50007FFF60DBEB9AFFFFFFFFFFFFFFFFFFCF6D
:102F6000FFFFFFFFFFFFFFFFFE7FFF7FBBEBFAFFCF
:102F7000FFFFFFFFFFFFFFFFCFFFFFFFFFFFFFFF91
:102F8000FFFFFFFF7FFFFFFEFFFFFFFFFFFFFFFFD2
:102F9000FFFFFFFFFFFFFFFFFFFFFFFFFF0000003E
:102FA00000FFFFFFFFFFFFFFFFFFFFFFFFFFFFFF30
:102FB000FFFFFFFFFFFFFFFFFFFFFFFFFFFFFFFF21
:102FC000FFFFFFFFFFFFFFFFFFFFFFFFFFFFFFFF11
:102FD000FFFFFFFFFFFFFFFFFFFFFFFFFFFFFFFF01
:102FE000FFFFFFFFFFFFFFFFFFFFFFFFFFFFFFFFF1
:102FF000FFFFFFFFFFFFFFFFFFFFFFFFFFFFFFFFE1
:10300000FFFFFFFFFFFFFFFFFFFFFFFFFFFFFFFFD0
:10301000FFFFFFFFFFFFFFFFFFFFFFFFFFFFFFFFC0
:10302000FFFFFFFFFFFFFFFFFFFFFFFFFFFFFFFFB0
:10303000FFFFFFFFFFFFFFFFFFFFFFFFFFFFFFFFA0
:10304000FFFFFFFFFFFFFFFFFFFFFFFFFFFFFFFF90
:10305000FFFFFFFFFFFFFFFFFFFF8000007FFFFF7D
:10306000FFFFFFFFFFFFFFFFFFFFFFFFFFFFFFFF70
:10307000FFFFFF8000007FFFFFFFFFFFFFFFFFFF5D
:10308000FFFFFFFFFFFFFFFFFFFFFFFF8000007F4D
:10309000FFFFFFFFFFFFFFFFFFFFFFFFFFFFFFFF40
:1030A000FFFFFFFFFF8000007FFFFFFFFFFFFFFF2D
:1030B000FFFFFFFFFFFFFFFFFFFFFFFFFFFF80009E
:1030C000007FFFFFFFFFFFFFFFFFFFFFFFFFFFFF8F
:1030D000FFFFFFFFFFFFFF8000007FFFFFFFFFFFFD
:1030E000FFFFFFFFFFFFFFFFFFFFFFFFFFFFFFFFF0
:1030F0008000007FFFFFFFFFFFFFFFFFFFFFFFFFDD
:10310000FFFFFFFFFFFFFFFFFF8000007FFFFFFFCC
:10311000FFFFFFFFFFFFFFFFFFFFFFFFFFFFFFFFBF
:10312000FFFF8000007FFFFFFFFFFFFFFFFFFFFFAC
:10313000FFFFFFFFFFFFFFFFFFFFFF8000007FFF9C
:10314000FFFFFFFFFFFFFFFFFFFFF7FFF7DF7FFF3F
:10315000FFFFFFFF8000007FFFFFFFFFFFFFFFFF7C
:10316000FFFFFFEFFFF7BF7FFFFFFFFFFF800000C4
:103170007FFFFFFFFFFFFFFFFFFFFFFE0007800055
:103180007FF3B7FFFFFF8000007FFFFFFFFFFFFF20
:10319000FFFFFFFFF9FFFFF7BFFFFCB7FFFFFF8057
:1031A00000007FFFFFFFFFFFFFFFFFFFFFFFBDAF3F
:1031B000FFDF7FFF01FFFFFF8000007FFFFFFFFFBA
:1031C000FFFFFFFFFFFFFE0D6FEEDF7FFE37FFFF0C
:1031D000FF8000007FFFFFFE3FFFFFFFFFFFFFFDBF
:1031E000AB4FE6C2FFF9B7FFFFFF8000007FFFFF94
:1031F000FE3FFFFFFFFFFFFFF9A6B7E81AFFE7B7A3
:10320000FFFFFF8000007FFFFFFE7FFFFFFFFFFF4C
:10321000FFFD8977AEDDFFFFFFFFFFFF8000007F2E
:10322000FFFFFC000FFFFFFFFFFFFD2C0FCED9FFBC
:10323000FFFFFFFFFF8000007FFFFFFC000FFFFF8D
:10324000FFFFFFFCACFFECD6FFFFFFFFFFFF80009E
:10325000007FFFFFFC000FFFFFFFFFFFFFAB3FE220
:10326000CEFFFFFFFFFFFF8000007FFFFFFFFFFF9C
:10327000FFFFFFFFFFFF87DFEEDF7FFFFFFF83FF23
:103280008000007FFFFFFFFFFFFFFFFFFFFFFFFF4B
:10329000FFFEDFFFFF87FF83FF8000007FFFFFFF50
:1032A000FFFFFFFFFFFFFFFFFFEFFFFFFFFF07FF36
:1032B000C1FF8000007FFFFFFFFFFFFFFFFFFFFF59
:1032C000FFEFEFFFFFFFFE079FE1FF8000007FFFA2
:1032D000FFFFFF8FFFFFFFFFFFFEAB5FE000FFFE82
:1032E0007F9FF1FF8078007FFFFFFFFF8FFFFFFFD1
:1032F000FFFFFEAA5FEFFDFFFE7F1FF1FF807F80D3
:103300007FFFFFFFFF8FFFFFFFFFFFFEA277EFFDB5
:10331000FFFE7E0FF3FF8003807FFFFFFFFFFFFFB5
:10332000FFFFFFFFFEA177EFFDFFFE3C0FE3FF80F5
:103330001E007FFFFFFFFFFFFFFFFFFFFFFEA977DC
:10334000EFFDFFFE000383FF8078007FFFFFFFFF9C
:10335000FFFFFFFFFFFFFC0B0FEFFDFFFE00C007AD
:10336000FF807F807FFFFFFC031FFFFFFFFFFFFE4B
:10337000AB7FEFFDFFFF01C00FFF8003807FFFFFEA
:10338000FC038FFFFFFFFFFFFEA93FEFFDFFFFFFE5
:10339000F03FFF800F007FFFFFFC038FFFFFFFFF69
:1033A000FFFEA65FEFFDFFFFFFFFFFFF803C007FFA
:1033B000FFFFFC638FFFFFFFFFFFFEAF5FE000FF3B
:1033C000FFFFFFFFFF8070007FFFFFFC630FFFFF29
:1033D000FFFFFFFFEFAFFFFFFFFE03FFFFFF804098
:1033E000007FFFFFFC601FFFFFFFFFFFFFFFFFFFEE
:1033F000FFFFFE03FFFFFF8078007FFFFFFC701FD1
:10340000FFFFFFFFFFFFFFFFFFFFFFFE1FFFF1FFBB
:10341000807F807FFFFFFFF87FFFFFFFFFFFFFDF61
:10342000DFFDFDFFFE1FFF81FF8003807FFFFFFFA9
:10343000FFFFFFFFFFFFFFFFFFFFFFFFFFFE3FFE5E
:1034400001FF801E007FFFFFFFFC7FFFFFFFFFFFEC
:10345000FFFFFFFFFFFFFE3FF007FF8078007FFFC9
:10346000FFFFF87FFFFFFFFFFFFFFFFFFFFFFFFEF4
:103470003FC03FFF807F807FFFFFFFF07FFFFFFFA8
:10348000FFFFFFFFFFFFFFFFFE3F01FFFF80038005
:103490007FFFFFFFC27FFFFFFFFFFFFFFFFFFFFF79
:1034A000FFFE380FFFFF800F007FFFFFFF8E7FFFC3
:1034B000FFFFFFFFFFFFFFFFFFFFFE207FFFFF80FB
:1034C0003C007FFFFFFE1E7FFFFFFFFFFFFFFFFFB0
:1034D000FFFFFFFE01FFFFFF8070007FFFFFFC008A
:1034E0000FFFFFFFFFFFFEFF1FE1FDFFFE0FFFFFCE
:1034F000FF8040007FFFFFFC000FFFFFFFFFFFFD8D
:10350000FCDFDEFDFFFE3FFFFFFF8078007FFFFF57
:10351000FC000FFFFFFFFFFFFDFDDFDF7DFFFFFF73
:10352000FFFFFF807F807FFFFFFFFE7FFFFFFFFF2A
:10353000FFFDFBDFDFBDFFFFFFFFFFFF8003807F9D
:10354000FFFFFFFE7FFFFFFFFFFFFCE7DFDF99FFCD
:10355000FFFFE1FFFF801E007FFFFFFFFFFFFFFF78
:10356000FFFFFFFF1FDFFFE7FFFFFFE1FFFF8078A7
:10357000007FFFFFFFFFFFFFFFFF3FFFFFFFFFFF9A
:10358000FFFFFFFFE1FFFF807F807FFFFFFFFFFF67
:10359000FFFFE03FFFFF003FC001FFFFFFF3FFFF22
:1035A0008003807FFFFFFFFFFFFFFE003FFFFCFF68
:1035B000DFDFBFFFFFFFFFFFFF800F007FFFFFFF89
:1035C000FFFFFFC0003FFFFDFFDFDFBFFFFFFFFF8B
:1035D000FFFF803C007FFFFFFFFFFFFC00003FFF7D
:1035E000FDFFDFDFBFFFFFF01FFFFF8070007FFFE9
:1035F000FFFFFFFFF0000C3FFFFCFF9FDF7FFFFF9F
:10360000C007FFFF8040007FFFFFFC000FF000FCC1
:103610003FFFFF007FE0FFFFFF0003FFFF8001800F
:103620007FFFFFFC000FF010FC3FFFFFFFFFFFFFDD
:10363000FFFE0701FFFF8001807FFFFFFC000FF00E
:10364000F0FC3FFFFFFFFFFFFFFFFE3FE1FFFF80BA
:1036500000007FFFFFFFFFFFF0F0FC3FFFFF003F98
:10366000C001FFFE7FF0FFFF8000007FFFFFFFFF34
:10367000FFF0F0FC3FFFFCFFDFFFFFFFFE7FF8FFE6
:10368000FF801F007FFFFFFFFFFFF0F0FC3FFFFD0B
:10369000FFDFFFFFFFFE7FF8FFFF803F807FFFFF20
:1036A000FC000FF0F0FC3FFFFDFFDFFFFFFFFE3FE0
:1036B000F1FFFF8071807FFFFFFC000FF0F0FC3F07
:1036C000FFFCFF9FFFFFFFFE0FE1FFFF8061807F98
:1036D000FFFFFC000FF0F0FC3FFFFF007FFFFFFF4C
:1036E000FE0003FFFF8061707FFFFFFE0FFFF0F021
:1036F000FC3FFFFFFFFFFFFFFFFF0007FFFF803FD3
:10370000F07FFFFFFF87FFF0F0FC3FFFFFFFFFFFB1
:10371000FFFFFFC01FFFFF807F807FFFFFFFE1FFF4
:10372000F0F0FCFFFFFFFFFFFFFFFFFFFFFFFFFFCA
:103730008070007FFFFFFFF07FF0F3FFFFFFFFDFF0
:103740007FFFFFFFFFFFFFFFFF8000007FFFFFFF06
:10375000FC1FF0FFFFFFFFFFE6FFFFFFFFFFFFFF84
:10376000FFFF8003807FFFFFFFFF0FF3FFCFFFFF0F
:10377000FFF9FFFFFFFFFFF01FFFFF807F807FFF4C
:10378000FFFC000FFFFF0FFFFFFFF5FFFFFFFFFF35
:10379000C007FFFF817C007FFFFFFC000FFFFF0FD2
:1037A000FFFFFFEEFFFFFFFFFF0003FFFF81003081
:1037B0007FFFFFFFFFFFFFFF0FFFFFFFDF7FFFFF29
:1037C000FFFE0701FFFF8078307FFFFFFFFFFFFF55
:1037D000FF0FFFFFFFFFFFFFFFFFFE3FE1FFFF8047
:1037E0007FF07FFFFFFFFFFFFFFF0FFFFFFFFFFFE8
:1037F000FFFFFFFE7FF0FFFF8001E07FFFFFFFC0C4
:10380000FFFFFF0FFFFFFFFFFFFFFFFFFE7FF8FF40
:10381000FF8007807FFFFFFF803FFFFF0FFFFFFE5E
:10382000FF1FFFFFFFFE7FF8FFFF801E007FFFFFEF
:10383000FF001FFFFF3FFFFFFDFCDFFFFFFFFE3F1D
:10384000F1FFFF8078007FFFFFFE1E1FFFFFFFFFDD
:10385000FFFDFDDFFFFFFFFE0FE1FFFF8060007F48
:10386000FFFFFE3F0FFFFFFF3FFFFDFBDFFFFFFFFF
:10387000FE0003FFFF8007007FFFFFFC7F8FFFFF3D
:10388000E03FFFFCE7DFFFFFFFFF0007FFFF807F58
:10389000807FFFFFFC7F8FFFFE003FFFFF1FDFFFEA
:1038A000FFFFFFC01FFFFF8079807FFFFFFC7F8F3E
:1038B000FFC0003FFFFFFFFFFFFFFFFFFFFFFFFF16
:1038C0008001807FFFFFFC7F8FFC0000FFFFFF0077
:1038D0003FFFFFFFFFFFFFFFFF8001007FFFFFFCB7
:1038E0007F8FF0000FFFFFFCFFDFFFFFFFFFFFFFF9
:1038F000FFFF8007807FFFFFFC3F1FF0003FFFFFBF
:10390000FDFFDFFFFFFFFFFFFFFFFF807F807FFFE7
:10391000FFFFFFFFF01C3FFFFFFDFFDFFFFFFFFF8B
:10392000FFFFFFFF8078007FFFFFFFFFFFF0FC3FFE
:10393000FFFFFCFF9FFFFFFFFFFFFFFFFF80000077
:103940007FFFFFFC000FF0FC3FFFFFFF007FFFFF4A
:10395000FFFFFFFFFFFF8003807FFFFFFC000FF0F2
:10396000FC3FFFFFFFFFFFFFFFFFFFFFFFFFFF80A9
:103970007F807FFFFFFC000FF0FC3FFFFFFFFFFF9A
:10398000FFFFF9FFFFFFFFFF807C007FFFFFFFE3EA
:10399000FFF0FC3FFFFFFF003FFFFFFCFFFFFFFFCB
:1039A000FF8030007FFFFFFFE3FFF0F83FFFFFFCE9
:1039B000FFDFFFFFFE3FFFFFFFFF8060007FFFFF95
:1039C000FFE3FFF0F83FFFFFFDFFDFFFFFFF0FFF0B
:1039D000FFFFFF8063807FFFFFFFE3FFF0707FFF4B
:1039E000FFFDFFDFFFFFFF83FFFFFFFF807F807F83
:1039F000FFFFFFE3FFF0007FFFFFFCFF9FFFFFFFE4
:103A0000C1FFFFFFFF803C007FFFFFFFE3FFF800E7
:103A1000FFFFFFFF007FFFFFFFC0FFFFFFFF8000F2
:103A2000007FFFFFFC000FFC01FFFFFFFFFFFFFF18
:103A3000FFFFE07FFFFFFF800C007FFFFFFC000F18
:103A4000FE07FF3FFFFFFFFFFFFFFFE03FFFFFFF1E
:103A5000800C007FFFFFFC000FFFFFFE3FFFFFFF1A
:103A6000FFFFFFFFF01FFFFFFF800C007FFFFFFF46
:103A7000FFFFFFFFF83FFFFFFFFFFFFFFFF00FFF1C
:103A8000FFFF800C007FFFFFFFFFFFFFFFE03FFF16
:103A9000FFFFFFFFFFFFF80FFFFFFF8000007FFF2A
:103AA000FFFFFFFFFFFF807FFFFFFFFFFFFFFFF82C
:103AB00007FFFFFF801F007FFFFFFFFFFFFFFE01EB
:103AC000FFFFFFFFFFFFFFFFF807FFFFFF803F80C3
:103AD0007FFFFFFFFFFFFFFC03FFFFFFFFFFF3FF81
:103AE000FFF807FFFFFF8071807FFFFFFFFFFFFFF1
:103AF000F007FFFFFFFFFFF8007FF807FFFFFF80E1
:103B000061807FFFFFFFFFFFFFC007FFFFFFFFFF99
:103B1000FE000FF807FFFFFF8073807FFFFFFFFFAE
:103B2000FFFF0087FFFFFFFFFFFF0003F80FFFFF0E
:103B3000FF803F807FFFFFFFFFFFFC0387FFFFFF4A
:103B4000FFFFFF8000F00FFFFFFF81FE007FFFFF00
:103B5000FFFFFFF80787FFFFFFFFFFFFC000701F99
:103B6000FFFFFF81C0007FFFFFFFFFFFF01F87FF08
:103B7000FFFFFFFFFFE000701FFFFFFF8003807F5C
:103B8000FFFFFFFFFFF07F87FFFFFFFFFFFFF0005A
:103B9000303FFFFFFF807F807FFFFFFFFFFFF000D0
:103BA00087FFFFFFFFFFFFF800107FFFFFFF817C13
:103BB000007FFFFFFFFFFFF00001FFFFFFFFFFFFA0
:103BC000FE0001FC03FFFF8101007FFFFFFFFFFFFD
:103BD000F000003FFFFFFFFFFFFF0003F0000FFFBB
:103BE0008039807FFFFFFFFFFFFF80003FFFFE0F58
:103BF000FFFFFFC007C00003FF8079807FFFFFFF4A
:103C0000FFFFFFFF003FFFFC00FFFFFFF807000082
:103C100000FF806D807FFFFFFFFFFFFFFFFC3FFF86
:103C2000FC003FFE3FFF8600003E7F806D807FFFEF
:103C3000FFFFFFFFFFFFFFFFFFF800000E0FFFE396
:103C40008001FFFF806F807FFFFFFFFFFFFFFFFF0F
:103C5000FFFFF800000383FFF1F01FFFFF80270044
:103C60007FFFFFFFFFFFFFFFFFFFFFF0000001C02E
:103C7000FFF9FFFFFFFF8000707FFFFFFFFFFFFFE7
:103C8000FFFF3FFFE0000000E07F98FFFFFFFF80A5
:103C90000FF07FFFFFFFFFFFFFFFE03FFFC00000CF
:103CA0001FF01F80FFFFFFFF807F807FFFFFFFFF70
:103CB000FFFFFE003FFE000007FFF807F07FFFFF59
:103CC000FF8071007FFFFFFFFFFFFFC0003FF80094
:103CD000003FC03803FC3EFFFFFF8061807FFFFF95
:103CE000FFFFFFFC0000FFE00000FC001C00FF3CA9
:103CF000FFFFFF8063807FFFFFFFFFFFF0000FFFEC
:103D0000E00001E0001C007F99FFFF3F807F007F03
:103D1000FFFFFFFFFFF0003FFFF0000780000E00F5
:103D20001F83FFF07F803E007FFFFFFFFFFFF01C3F
:103D30003FFFF8000F80000E000FC3FF80FF8000E0
:103D4000007FFFFFFFFFFFF0FC3FFFF8001F01C0F7
:103D50000E0003C7FC01FF8003807FFFFFFFFFFF12
:103D6000F0FC3FFFFC003E0FE0078003E7F003FF9D
:103D7000807F807FFFFFFFFFFFF0FC3FFFFC00E73D
:103D80003E7807C003E7E003FF81FC007FFFFFFFF1
:103D9000FFFFF0FC3FFFFE01C3F81C06E003E7C095
:103DA00007FF8180007FFFFFFFFFFFF0FC3FFFFE6A
:103DB00003C3E01E0E7007F7800FFF8007007FFF30
:103DC000FFFFFFFFF0F83FFFFF0787803F0C300F3A
:103DD000F7800FFF802F807FFFFFFFFFFFF0F83F8E
:103DE000FFFF070780E39C380FF3001FFF80698007
:103DF0007FFFFFFFFFFFF0707FFFFF0C07C1C0FCDC
:103E0000181FF3007FFF8069007FFFFFFFFFFFF0B7
:103E1000007FFFFF1807E3C0F81C1FF300FFFF80BF
:103E20006F807FFFFFFFFFFFF800FFFFFFB0067FFF
:103E300000700C3FFB03FFFF807F807FFFFFFFFFD1
:103E4000FFFC01FFFFFFE0063F00C00C3FFB0FFF40
:103E5000FF8038007FFFFFFFFFFFFE07FFFFFFC06F
:103E6000070381C00C7FF83FFFFF8000307FFFFF1A
:103E7000FFFFFFFFFFFF3FFF800701E7C00CFEF8D9
:103E80007FFFFF8078307FFFFFFFFFFFFFFFE03FF6
:103E9000FF000700FFC006FE19FFFFFF807FF07FD5
:103EA000FFFFFFFFFFFFFE003FFE00030001800752
:103EB000FF01FFFFFF8001E07FFFFFFFFFFFFFC06B
:103EC000003FFE000380038007FFC1FFFFFF800764
:103ED000807FFFFFFFFFFFFC00003FFC0001800729
:103EE0008003FFE1FFFFFF801E007FFFFFFFFFFF5A
:103EF000F0000C3FFE0001C00F00039FF0FFFFFF2A
:103F00008078007FFFFFFFFFFFF000FC3FFF000015
:103F1000E07E000187F8FFFFFF8060007FFFFFFF6A
:103F2000FFFFF010FC3FFF80007FF00001E3F8FF8F
:103F3000FFFF8001807FFFFFFFFFFFF0F0FC3FFFEE
:103F4000C0003E000000F9FCFBFFFF8001807FFF06
:103F5000FFFFFFFFF0F0FC3FFFE00018000001F85A
:103F6000EE73FFFF8000007FFFFFFFFFFFF0F0FC1C
:103F70003FFFF0000C000003E00E77FFFF80000021
:103F80007FFFFFFFFFFFF0F0FC3FFFF800030000A2
:103F900003800F27FFFF801F007FFFFFFFFFFFF061
:103FA000F0FC3FFFF80003E00007BF8F07FFFF8032
:103FB0003F807FFFFFFFFFFFF0F0FC3FFFFC00FFB3
:103FC000FC000FFF8F8FFFFF8071807FFFFFFFFFDF
:103FD000FFF0F0FC3FFFFC038C0FC00FFFC78FFF0B
:103FE000FF8061807FFFFFFFFFFFF0F0FC3FFFFEDF
:103FF0001E0001F81FFBE78FFFFF8063807FFFFF3C
:10400000FFFFFFF0F0FC3FFFFFFE00003FFFE3F388
:10401000CFFFFF8073007FFFFFFFFFFFF0F0FCFF8B
:10402000FFFFFF80003FFE07F9E7FFFF8030007FC2
:10403000FFFFFFFFFFF0F3FFFFFFFFFFF0007FE058
:104040000FF8E7FFFF8000007FFFFFFFFFFFF0FF9B
:10405000FFFFFFFFFFF800FF003FFE33FFFF80037D
:10406000807FFFFFFFFFFFF3FFFF3FFFFFFFFE012A
:10407000FE007FFC01FFFF807F807FFFFFFFFFFFCF
:10408000FFFFE03FFFFFFFFF81FC00FFE0007FFF3D
:10409000807C007FFFFFFFFFFFFFFE003FFFFFFF71
:1040A000FFC3FC007383F83FFF8030007FFFFFFFFA
:1040B000FFFFFFC0003FFFFFFFFFE7FC007807FFA7
:1040C0007FFF8060007FFFFFFFFFFFFC0000FFFF1E
:1040D000FFFFFFFFFC007C0FFFFFFF8063807FFF7F
:1040E000FFFFFFFFF0000FFFFFFFFFFFFFFE00716C
:1040F000CFFFFFFF807F807FFFFFFFFFFFF0007F8C
:10410000FFFFFFFFFFFFFF0063CFFFFFFF803C00CB
:104110007FFFFFFFFFFFF0187FFFFFFFF81FFFFF8C
:10412000800FCFFFFFFF8000007FFFFFFFFFFFF04A
:10413000F87FFFFFFFFE07FFFFE01FEFFFFFFF809D
:1041400000007FFFFFFFFFFFF0F87FFFFFFFFF8111
:10415000FFFFF01FFFFFFFFF8000007FFFFFFFFF5B
:10416000FFF0F87FFFFFFFFFE03FFFE003FFFFFFEF
:10417000FF8000007FFFFFFFFFFFF0F83FFFFFFF22
:10418000FFF803FF0080FFFFFFFF8000007FFFFFBD
:10419000FFFFFFF0F80FFFFFFFFFFC000000C01F54
:1041A000FFFFFF8000007FFFFFFFFFFFF0F803FF2E
:1041B000FFFFFFFE0000018007FFFFFF8000007F80
:1041C000FFFFFFFFFFF0F8007FFFFFFFFF00000190
:1041D0008003FFFFFF8000007FFFFFFFFFFFF0F87D
:1041E000003FFFFFFFFF8000038001FFFFFF800013
:1041F000007FFFFFFFFFFFF0F0C03FFFFFFFFFC0AA
:1042000000038000FFFFFF8000007FFFFFFFFFFF34
:10421000F060F03FFFFFFFFFF00007C0007FFFFFEF
:104220008000007FFFFFFFFFFFF000FC3FFFFFFF6C
:10423000FFFC000FC0007FFFFF8000007FFFFFFF3B
:10424000FFFFF801FFBFFFFFFFFFFF003FC0003F80
:10425000FFFF8000007FFFFFFFFFFFFC03FFFFFF6A
:10426000FFFFFFFFFFFFE0003FFFFF8000007FFF39
:10427000FFFFFFFFFE0FFFFFFFFFFFFFFFFFFFF04E
:10428000001FFFFF8000007FFFFFFFFFFFFFFFFF1A
:10429000FFFFFFFFFFFFFFFFFE001FFFFF8000008B
:1042A0007FFFFFFFFFFFFFFFFFFFFFFFFFFFFFFF9E
:1042B000FFFFF00FFFFF8000007FFFFFFFFFFFFF0A
:1042C000FFFFFFFFFFFFFFFFFFFFFFFF0FFFFF806D
:1042D00000007FFFFFFFFFFFFFFFFFFFFFFFFFFF6C
:1042E000FFFFFFFFFFC7FFFF8000007FFFFFFFFF13
:1042F000FFFFFFFFFFFFFFFFFFFFFFFFFFFFF3FFDA
:10430000FF8000007FFFFFFFFFFFFFFFFFFFFFFFBA
:10431000FFFFFFFFFFFFFFF9FFFF8000007FFFFFB0
:10432000FFFFFFFFFFFFFFFFFFFFFFFFFFFFFFFF9D
:10433000FFFFFF8000007FFFFFFFFFFFFFFFFFFF8A
:10434000FFFFFFFFFFFFFFFFFFFFFFFF8000007F7A
:10435000FFFFFFFFFFFFFFFFFFFFFFFFFFFFFFFF6D
:10436000FFFFFFFFFF8000007FFFFFFFFFFFFFFF5A
:10437000FFFFFFFFFFFFFFFFFFFFFFFFFFFF8000CB
:10438000007FFFFFFFFFFFFFFFFFFFFFFFFFFFFFBC
:10439000FFFFFFFFFFFFFF8000007FFFFFFFFFFF2A
:1043A000FFFFFFFFFFFFFFFFFFFFFFFFFFFFFFFF1D
:1043B0008000007FFFFFFFFFFFFFFFFFFFFFFFFF0A
:1043C000FFFFFFFFFFFFFFFFFF8000007F000000F7
:1043D00000000000000102030406070809030406A8
:1043E000080C1018203000000844000800000020CD
:1043F00010000000AC0F0008184400081000002056
:1044000000040000BC0F00080100000004000000D0
:08441000000000000000200084
:04000005080000C12E
:00000001FF
