:020000040800F2
:1000000000040020DF0D0008ED0D0008EF0D0008D2
:10001000F10D0008F30D0008F50D000800000000C8
:10002000000000000000000000000000F70D0008C4
:10003000F90D000800000000FB0D0008FD0D000890
:10004000410E0008430E0008450E0008470E000848
:10005000490E00084B0E00084D0E00084F0E000818
:10006000510E0008530E0008550E0008570E0008E8
:10007000590E00085B0E00085D0E00085F0E0008B8
:10008000610E0008630E0008650E0008FF0D0008F1
:10009000FF0D0008FF0D0008FF0D00086F0E00089F
:1000A000710E0008730E0008750E0008770E000828
:1000B000790E00087B0E00087D0E00087F0E0008F8
:1000C000810E0008830E0008850E0008870E0008C8
:1000D000890E00088B0E00088D0E00088F0E000898
:1000E000910E0008930E0008950E0008970E000868
:1000F000990E00089B0E00089D0E00089F0E000838
:10010000A10E0008A30E0008A50E0008A70E000807
:10011000A90E0008AB0E0008AD0E0008AF0E0008D7
:10012000B10E0008B30E0008B50E0008B70E0008A7
:1001300000F002F800F03AF80AA090E8000C8244BF
:100140008344AAF10107DA4501D100F02FF8AFF29C
:10015000090EBAE80F0013F0010F18BFFB1A43F0A5
:10016000010318472447000044470000103A24BF09
:1001700078C878C1FAD8520724BF30C830C144BF0C
:1001800004680C607047000000230024002500264E
:10019000103A28BF78C1FBD8520728BF30C148BFEA
:1001A0000B6070471FB51FBD10B510BD01F0F5F80D
:1001B0001146FFF7F7FF00F007FF01F013F903B452
:1001C000FFF7F2FF03BC01F017F9000010B5044679
:1001D000C248844208D10121042000F017FB00210D
:1001E000042000F013FB46E0BD48844208D1012101
:1001F000082000F00BFB0021082000F007FB3AE08C
:10020000B848844208D10121102000F0FFFA0021F3
:10021000102000F0FBFA2EE0B348844208D10121FF
:10022000202000F0F3FA0021202000F0EFFA22E075
:10023000AE48844208D10121402000F0E7FA0021B5
:10024000402000F0E3FA16E0A948844208D10121D9
:10025000802000F0DBFA0021802000F0D7FA0AE0CD
:10026000A448844207D10121801500F0CFFA002173
:10027000A01500F0CBFA10BD10B50121084600F022
:10028000C5FA0021012000F0C1FA10BD2DE9F041AE
:10029000024600250026002000230024002791F8B4
:1002A00003C00CF00F0591F803C01CF0100F03D031
:1002B00091F802C04CEA050591F800C0BCF1000FAE
:1002C00031D0146800202BE04FF0010C0CFA00F341
:1002D000B1F800C00CEA03069E4220D183004FF023
:1002E0000F0C0CFA03F7BC4305FA03FC4CEA0404B8
:1002F00091F803C0BCF1280F06D14FF0010C0CFAA5
:1003000000FCC2F814C00AE091F803C0BCF1480F29
:1003100005D14FF0010C0CFA00FCC2F810C0401CD3
:100320000828D1D31460B1F800C0BCF1FF0F34DD50
:10033000546800202EE000F1080C4FF0010808FA84
:100340000CF3B1F800C00CEA03069E4221D18300F1
:100350004FF00F0C0CFA03F7BC4305FA03FC4CEA10
:10036000040491F803C0BCF1280F05D100F1080C7A
:1003700008FA0CF8C2F8148091F803C0BCF1480FD9
:1003800007D100F1080C4FF0010808FA0CF8C2F888
:100390001080401C0828CED35460BDE8F0814FF691
:1003A000FF710180022181700421C17070470246F3
:1003B000002093680B4201D0012000E0002070472C
:1003C0000146886880B2704702460020D3680B421D
:1003D00001D0012000E0002070470146C86880B2CB
:1003E000704701617047416170470AB1016100E0E7
:1003F00041617047C16070474FF480320A438261A7
:1004000081618261826982697047024600203A4BAD
:1004100018684FF68073184040EA02100843364BC4
:10042000186070473549C8617047F0B50A46002327
:10043000002400210025304E7168C0F3034583B2CB
:1004400000F44016B6F5401F08D121F070612A4E25
:10045000766826F07066284F7E6012E000F4801601
:10046000B6F5801F06D1032606FA05F4A14341F034
:10047000706106E0460D360103FA06F6B14341F01D
:10048000706122B1460D360103FA06F631431A4E69
:100490007160F0BD30B500228B071C0F0F2303FAEB
:1004A00004F2154B08338C1053F824309343124C4C
:1004B00008348D1044F8253023468C1053F824302E
:1004C0008C07240F00FA04F423430B4C08348D10DE
:1004D00044F8253030BD0A490860704700080140E3
:1004E000000C0140001001400014014000180140C0
:1004F000001C01400020014000000140000020429B
:10050000DC002042DD48006840F00100DB49086063
:1005100008464068DA490840D849486008460068FB
:10052000D8490840D54908600846006820F4802072
:1005300008600846406820F4FE0048604FF41F0041
:1005400088607047CD49096821F48031CB4A116039
:100550001146096821F480211160B0F5803F03D075
:10056000B0F5802F0ED106E0C449096841F480310E
:10057000C24A116007E0C149096841F4A021BF4A9D
:10058000116000E000BF00BF704710B501460022B7
:10059000002300204A11012A02D1B84C236806E04A
:1005A000022A02D1B54C236A01E0B44C636A01F01F
:1005B0001F02012494401C4201D0012000E00020D1
:1005C00010BD38B5002000900024002500BF312068
:1005D000FFF7DBFF05460098401C00900098B0F53F
:1005E000A06F01D0002DF2D03120FFF7CEFF08B16F
:1005F000012400E00024204638BD014600209F4A27
:10060000106820F0F80040EAC100106070479E4971
:100610000860704702460020984B586820F47C1010
:1006200042EA01031843954B5860704796490866A3
:10063000704701460020914A506820F003000843AB
:10064000506070478D48406800F00C0070470146CC
:1006500000208A4A506820F0F0000843506070473C
:1006600001460020854A506820F4E060084350604D
:10067000704701460020814A506820F4605040EAEB
:10068000C1005060704729B17C4A527A02437B4BCB
:100690005A7204E0794A527A8243784B5A72704710
:1006A0007A490860704701460020744A506820F477
:1006B00040400843506070470021754A11706F4AEE
:1006C00082F82010012802D0042808D103E001217B
:1006D0006F4A117004E005216D4A117000E000BFFF
:1006E00000BF70476B49086070476449096A01435D
:1006F000624A11627047674944390860704730B5F3
:1007000000210022002400235C4D6D6805F00C01DF
:1007100021B1042905D0082923D105E05E4D0560EB
:1007200022E05D4D05601FE0544D6D6805F47012C8
:10073000524D6D6805F48034022505EB92421CB9D8
:10074000564D554305600BE04C4D6D6815F4003F68
:1007500003D0524D5543056002E04F4D55430560AF
:1007600002E04D4D056000BF00BF444D6D6805F0CF
:10077000F00109094A4D6B5C0568DD4045603F4D5D
:100780006D6805F4E061090A454D6B5C4568DD4024
:1007900085603A4D6D6805F46051C90A404D6B5C47
:1007A0004568DD40C560354D6D6805F44041890BF5
:1007B0003C4D6B5CC568B5FBF3F5056130BD29B1F7
:1007C0002E4A526902432D4B5A6104E02B4A52696A
:1007D00082432A4B5A61704729B1284A92690243E1
:1007E000264B9A6104E0254A92698243234B9A6121
:1007F000704729B1214AD2690243204BDA6104E0F3
:100800001E4AD26982431D4BDA61704729B11B4AE7
:10081000D2680243194BDA6004E0184AD268824376
:10082000164BDA60704729B1144A12690243134B20
:100830001A6104E0114A12698243104B1A61704731
:1008400014494039086070470F49C86470470B4924
:10085000C87170470948406A40F080700749486293
:10086000704701460020054A92680A4201D00120E3
:1008700000E0002070470149887270470010024074
:100880000000FFF8FFFFF6FE00004242D80042429F
:10089000201002408004424200127A0000093D000C
:1008A000000000201000002001460020FD4A1068D2
:1008B00000F03800084310607047FA49096821F0D9
:1008C0000801F84A11601146096801431160704738
:1008D000F449096821F01001F24A116011460968D3
:1008E000014311607047F048EE494860EF484860A6
:1008F0007047EC48006940F08000EA4908617047A1
:100900000420E849C96811F0010F01D001200EE070
:10091000E449C96811F0040F01D0022007E0E14961
:10092000C96811F0100F01D0032000E004207047C7
:1009300008B500200090FF20009002E00098401EC3
:10094000009000980028F9D108BD70B50446042530
:10095000FFF7D6FF054605E0FFF7EAFFFFF7D0FFF8
:100960000546641E012D01D1002CF5D104B90525E1
:10097000284670BD70B50546042440F6FF70FFF7A9
:10098000E4FF0446042C19D1C648006940F0020077
:10099000C449086108464561006940F040000861AB
:1009A00040F6FF70FFF7D1FF0446052C06D0BD4886
:1009B000006941F6FD710840BA490861204670BDE2
:1009C00010B5042440F6FF70FFF7BFFF0446042C67
:1009D00018D1B448006940F00400B24908610846E3
:1009E000006940F04000086140F6FF70FFF7ADFF7E
:1009F0000446052C06D0AB48006941F6FB7108405F
:100A0000A8490861204610BD10B5042440F6FF70C7
:100A1000FFF79BFF0446042C3BD1A348A149886003
:100A2000A24888600846006940F020000861084636
:100A3000006940F04000086140F6FF70FFF785FF55
:100A40000446042C1CD19748006941F6DF71084028
:100A5000944908610846006940F010000861A5202B
:100A6000934908800F20FFF770FF0446052C10D033
:100A70008C48006941F6EF7108408A49086108E036
:100A8000052C06D08748006941F6EF71084085497A
:100A90000861204610BDF8B506460D460424002026
:100AA00000900F20FFF751FF0446042C28D17D4809
:100AB000006940F001007B49086135800F20FFF795
:100AC00044FF0446042C12D1B01C0090280C00995D
:100AD00008800F20FFF739FF0446052C10D071481D
:100AE000006941F6FE7108406E49086108E0052C76
:100AF00006D06C48006941F6FE71084069490861FA
:100B00002046F8BD70B505460E4604240F20FFF7B9
:100B10001CFF0446042C13D16248006940F0010018
:100B2000604908612E800F20FFF70FFF0446052C57
:100B300006D05C48006941F6FE71084059490861D9
:100B4000204670BD70B505460E4604240F20FFF701
:100B5000FCFE0446042C17D1534852498860534880
:100B600088600846006940F0100008612E800F2060
:100B7000FFF7EBFE0446052C06D04A48006941F613
:100B8000EF71084047490861204670BD2DE9F047E4
:100B900004464FF6FF763746B046B1460425E44397
:100BA000E6B2C4F30727C4F307484FEA14690F20DD
:100BB000FFF7CBFE0546042D40D13B4839498860FC
:100BC0003A4888600846006940F010000861FF2E2E
:100BD00006D03748083006800F20FFF7B6FE0546DE
:100BE000042D08D1FF2F06D031480A3007800F208E
:100BF000FFF7ABFE0546042D0AD1B8F1FF0F07D071
:100C00002B480C30A0F800800F20FFF79EFE054611
:100C1000042D0AD1B9F1FF0F07D025480E30A0F8F6
:100C200000900F20FFF791FE0546052D06D01D48C8
:100C3000006941F6EF7108401A4908612846BDE88D
:100C4000F08770B50546042440F6FF70FFF77DFE7F
:100C50000446042C49D1144812498860134888601E
:100C60000846006940F0200008610846006940F02D
:100C70004000086140F6FF70FFF767FE0446042C51
:100C80002AD10848006941F6DF710840054908612A
:100C90000846006940F0100008615DB10020044979
:100CA00008800AE00020024023016745AB89EFCDB0
:100CB00000F8FF1FA5204549088040F6FF70FFF7A8
:100CC00044FE0446052C10D04148006941F6EF71FE
:100CD00008403F49086108E0052C06D03C480069FF
:100CE00041F6DF7108403A490861204670BD2DE9A0
:100CF000F04105460E4617460424364834498860BC
:100D0000354888600F20FFF720FE0446042C19D1D7
:100D10002F48006940F010002D49086147F0F800A5
:100D2000304328432949891C08800F20FFF70DFE16
:100D30000446052C06D02648006941F6EF710840AC
:100D4000234908612046BDE8F0812148C069800838
:100D500070471F48006A704700201D49C96911F09B
:100D6000020F01D0012000E0002070470020184948
:100D7000096811F0200F01D0012000E00020704729
:100D800029B1134A12690243114B1A6104E0104A57
:100D9000126982430E4B1A617047014600200129F7
:100DA00008D10B4AD26912F0010F01D0012008E0EE
:100DB000002006E0064AD2680A4201D0012000E085
:100DC000002070470249C8607047000000F8FF1F0C
:100DD0000020024023016745AB89EFCD70470B48E7
:100DE00080470B4981F308880A480047FEE7FEE781
:100DF000FEE7FEE7FEE7FEE7FEE7FEE7FEE7FEE7CB
:100E000005480649064A074B70470000DD0D0008FB
:100E100078060020310100087800002078060020C4
:100E200078020020780200207047704700BFFEE77C
:100E300000BFFEE700BFFEE770477047704770478E
:100E400070477047704770477047704770477047EA
:100E500070477047704770477047704770477047DA
:100E600070477047704770477047704770477047CA
:100E700070477047704770477047704770477047BA
:100E800070477047704770477047704770477047AA
:100E9000704770477047704770477047704770479A
:100EA000704770477047704770477047704770478A
:100EB000704770477047704708B501216020FFF701
:100EC0008BFC4FF4E060ADF8000010208DF80300BB
:100ED00002208DF8020069464748FFF7D7F94FF422
:100EE0004040ADF8000010208DF8030002208DF87E
:100EF000020069464148FFF7C9F94FF40050ADF8C8
:100F0000000004208DF8030002208DF802006946DD
:100F10003A48FFF7BBF94FF48050ADF800001020BD
:100F20008DF8030002208DF8020069463348FFF770
:100F3000ADF908BD10B5FFF7E5FA4FF48030FFF7C3
:100F400001FBFFF73EFB2E49087008460078012898
:100F500005D14FF4E0110004FFF75CFB0DE0012028
:100F6000FFF755FB00BF2120FFF70FFB0028FAD049
:100F70004FF460110020FFF74DFB1020FFF7A8FC95
:100F80000220FFF791FC0020FFF761FB0020FFF734
:100F900070FB4FF48060FFF763FB0120FFF746FB17
:100FA00000BF3920FFF7F1FA0028FAD00220FFF73E
:100FB00040FB00BFFFF746FB0828FBD1012144F2AC
:100FC0000500FFF709FC10BDFFF7B4FFFFF774FF42
:100FD00000F0A3F80B4800F00BF900F01BF940F605
:100FE000B83000F011F800F098F800F0B3F900F014
:100FF00011F900BFFEE770470014014000180140DE
:1010000014000020332900080022002100BF06E060
:10101000002200E0521CB2F5205FFBD3491C814244
:10102000F6D3704770B5044625464FF40071D74893
:10103000FFF7D9F900261BE015F0800F05D04FF41B
:101040008061D248FFF7CDF904E04FF48061CF48CA
:10105000FFF7C9F94FF40071CC48FFF7C2F94FF41C
:101060000071CA48FFF7BFF96806050E701CC6B2CA
:10107000082EE1DB70BD10B506E04FF40051C44806
:10108000FFF795F900B900E0F7E700BF10BD10B514
:1010900004464FF48071BD48FFF7A3F94FF4807107
:1010A000BA48FFF7A0F94FF40041B948FFF79BF9A0
:1010B0002046FFF7B7FF4FF48071B448FFF791F96E
:1010C00010BD10B504464FF48071B048FFF789F9A0
:1010D0004FF48071AD48FFF786F94FF40041AC48FA
:1010E000FFF77FF92046FFF79DFF4FF48071A74877
:1010F000FFF777F910BD10B54FF48041A448FFF712
:1011000072F96420FFF780FF4FF48041A048FFF799
:1011100068F96420FFF778FF10BD10B5FFF7EBFF0B
:10112000FFF7A9FF1220FFF7B2FFFFF7A4FF74201B
:10113000FFF7ADFF5420FFF7C4FF7E20FFF7A7FFA6
:101140003B20FFF7BEFF0120FFF7A1FFF920FFF7CB
:10115000B8FF0020FFF7B5FF0020FFF7B2FF112016
:10116000FFF795FF0120FFF7ACFF4420FFF78FFF4B
:101170000120FFF7A6FF1020FFF7A3FF4520FFF790
:1011800086FFF920FFF79DFF0020FFF79AFF002060
:10119000FFF797FF0020FFF794FF3C20FFF777FF52
:1011A0000120FFF78EFF1820FFF771FF8020FFF767
:1011B00088FF4E20FFF76BFF0120FFF782FF4F20D3
:1011C000FFF765FFF920FFF77CFF0020FFF779FFAD
:1011D000FFF751FF10BD10B52220FFF758FFF72091
:1011E000FFF76FFF2020FFF752FFFFF744FF10BD0E
:1011F00070B504462420FFF74AFF002504E020785C
:10120000FFF75FFF641C6D1CB5F57A6FF7D3FFF72E
:10121000E2FF70BD10B51020FFF739FF0120FFF786
:1012200050FF6420FFF7F0FE10BD70B5044626465F
:101230002420FFF72CFF002504E02078FFF741FF72
:10124000641C6D1CB5F57A6FF7D334462620FFF782
:101250001EFF002504E02078FFF733FF641C6D1C9F
:10126000B5F57A6FF7D3FFF7B6FF70BD2DE9F04FF4
:1012700085B004460D4617469846DDE90E9A0120D2
:1012800000EBD50505EBD900401E0490C4F1F9042C
:10129000200A0390E6B2A4EB0800401C02900298DA
:1012A000000A01900298C0B200904420FFF7EFFEC0
:1012B000E8B2FFF706FF0499C8B2FFF702FF452026
:1012C000FFF7E5FE3046FFF7FCFE0399C8B2FFF7D3
:1012D000F8FE0098FFF7F5FE0199C8B2FFF7F1FE9E
:1012E0004E20FFF7D4FEE8B2FFF7EBFE4F20FFF7EA
:1012F000CEFE3046FFF7E5FE0399C8B2FFF7E1FEE8
:101300002420FFF7C4FE4FF0000B0EE0BAF1010FEE
:1013100003D13878FFF7D5FE7F1CBAF1020F02D156
:10132000FF20FFF7CEFE0BF1010B08FB09F0BBEB32
:10133000D00FEBD305B0BDE8F08F10B52220FFF73A
:10134000A6FEFF20FFF7BDFE2020FFF7A0FEFFF75F
:1013500092FE10BD10B52420FFF799FE002403E093
:10136000FF20FFF7AEFE641CB4F57A6FF8D3262099
:10137000FFF78DFE002403E0FF20FFF7A2FE641CB0
:10138000B4F57A6FF8D3FFF726FF10BD00140140C3
:1013900000180140704770477047754600F028F804
:1013A000AE4605006946534620F00700854618B052
:1013B00020B5FFF725FDBDE820404FF000064FF0B7
:1013C00000074FF000084FF0000B21F00701AC467A
:1013D000ACE8C009ACE8C009ACE8C009ACE8C00999
:1013E0008D4670470446AFF300802046FEF7E7FEC7
:1013F000004870471800002001491820ABBEFEE7E6
:10140000260002007047FFFFFFFFFFFFFFFFFFFF07
:10141000FFFFFFFFFFFFFFFFFFFFFFFFFFFFFFFFDC
:10142000FFFFFFFFFFFFFFFFFFFFFFFFFFFFFFFFCC
:10143000FFFFFFFFFFFFFFFFFFFFFFFFFFFFFFFFBC
:10144000FFFFFFFFFFFFFFFFFFFFFFFFFFFFFFFFAC
:10145000FFFFFFFFFFFFFFFFFFFFFFFFFFFFFFFF9C
:10146000FFFFFFFFFFFFFFFFFFFFFFFFFFFFFFFF8C
:10147000FFFFFFFFFFFFFFFFFFFFFFFFFFFFFFFF7C
:10148000FFFFFFFFFFFFFFFFFFFFFFFFFFFFFFFF6C
:10149000FFFFFFFFFFFFFFFFFFFFFFFFFFFFFFFF5C
:1014A000FFFFFFFFFFFFFFFFFFFFFFFFFFFFFFFF4C
:1014B000FFFFFFFFFFFFFFFFFFFFFFFFFFFFFFFF3C
:1014C000FFFFFFFFFFFFFFFFFFFFFFFFFFFFFFFF2C
:1014D000FFFFFFFFFFFFFFFFFFFFFFFFFFFFFFFF1C
:1014E000FFFFFFFFFFFFFFFFFFFFFFFFFFFFFFFF0C
:1014F000FFFFFFFFFFFFFFFFFFFFFFFFFFFFFFFFFC
:10150000FFFFFFFFFFFFFFFFFFFFFFFFFFFFFFFFEB
:10151000FFFFFFFFFFFFFFFFFFFFFFFFFFFFFFFFDB
:10152000FFFFFFFFFFFFFFFFFFFFFFFFFFFFFFFFCB
:10153000FFFFFFFFFFFFFFFFFFFFFFFFFFFFFFFFBB
:10154000FFFFFFFFFFFFFFFFFFFFFFFFFFFFFFFFAB
:10155000FFFFFFFFFFFFFFFFFFFFFFFFFFFFFFFF9B
:10156000FFFFFFFFFFFFFFFFFFFFFFFFFFFFFFFF8B
:10157000FFFFFC000003FFE000001FFFFFF800007A
:1015800001FFC000000FFFFFF0000000FF8000001F
:1015900007FFFFE00000007F00000003FFFFC00026
:1015A00000003E00000001FFFF800000001C000062
:1015B0000000FFFF0000000008000000007FFE00A8
:1015C00000000008000000003FFC000000000800D0
:1015D0000000001FF80000000018000000000FFCD1
:1015E000000000003C000000001FFE000000007E24
:1015F000000000003FFFFFFFFFFFFFFFFFFFFFFFB7
:10160000FFFFFFFFFFFFFFFFFFFFFFFFFFFFFFFFEA
:10161000FE000000007FFFFFFFFFFFFC0000000056
:101620003FFFFFFFFFFFF8000000001FFFFFFFFF6D
:10163000FFF8000000001FE7FFFFFFFFF8000000B9
:101640000033C3FFFFFFFFF8000000006181FFFFD0
:10165000FFFFFC00000000C180FFFFFFFFF600005D
:10166000000181807FFFFFFFE30000000301803F56
:10167000FFFFFFC18000000601801FFFFFFF80C049
:1016800000000C01800FFFFFFF00600000180180C8
:1016900007FFFFFE003FFFFFF0018003FFFFFE009A
:1016A0003FFFFFE0018003FFFFFE003FFFFFE0017F
:1016B0008003FFFFFE003FFFFFE0018003FFFFFE0E
:1016C000003FFFFFE0018003FFFFFE003FFFFFE060
:1016D000018003FFFFFE003FFFFFE0018003FFFFEB
:1016E000FE003FFFFFE0018003FFFFFE003FFFFF22
:1016F000E0018003FFFFFE003FFFFFE0018003FFEA
:10170000FFFE003FFFFFE0018003FFFFFE003FFF01
:10171000FFE0018003FFFFFE003FFFFFE0018003C9
:10172000FFFFFE003FFFFFE0018003FFFFFE003FE1
:10173000FFFFE0018003FFFFFE003FFFFFE00180AD
:1017400003FFFFFE003FFFFFE0018003FFFFFE00FD
:101750003FFFFFE0018003FFFFFE003FFFFFE001CE
:101760008007FFFFFE003FFFFFF001800C00000339
:10177000007FFFFFF801801800000180FFFFFFFCE1
:10178000018030000000C1FFFFFFFE01806000000B
:101790000063FFFFFFFF0180C000000037FFFFFF75
:1017A000FF8181800000001FFFFFFFFFC1C3000019
:1017B00000000FFFFFFFFFE1E6000000000FFFFF4A
:1017C000FFFFF3FC000000000FFFFFFFFFFFF8002A
:1017D0000000001FFFFFFFFFFFFC000000003FFFB5
:1017E000FFFFFFFFFE000000007FFFFFFFFFFFFF86
:1017F000FFFFFFFFFFFFFFFFFFFFFFFFFFFFFFFFF9
:10180000FFFFFFFFFFFFFFFFFFFFFFFFFFFFFFFFE8
:10181000FFFFFFFFFFFFFFFFFFFFFFFFFFFFFFFFD8
:10182000FFFFFFFFFFFFFFFFFFFFFFFFFFFFFFFFC8
:10183000FFE7FFFFFFFFFFFFFFFFFFF3C3FFFFFF18
:10184000FFFFFFFFFFFFE181FFFFFFFFFFFFFFFF44
:10185000FFC180FFFFFFFFF7FFFFFFFF81807FFFDA
:10186000FFFFE3FFFFFFFF01803FFFFFFFC1FFFF1F
:10187000FFFE01801FFFFFFF80FFFFFFFC01800FC5
:10188000FFFFFF007FFFFFF8018007FFFFFE003F23
:10189000FFFFF0018003FFFFFE003FFFFFE001803C
:1018A00003FFFFFE003FFFFFE0018003FFFFFE009C
:1018B0003FFFFFE0018003FFFFFE003FFFFFE0016D
:1018C0008003FFFFFE003FFFFFE0018003FFFFFEFC
:1018D000003FFFFFE0018003FFFFFE003FFFFFE04E
:1018E000018003FFFFFE003FFFFFE0018003FFFFD9
:1018F000FE003FFFFFE0018003FFFFFE003FFFFF10
:10190000E0018003FFFFFE003FFFFFE0018003FFD7
:10191000FFFE003FFFFFE0018003FFFFFE003FFFEF
:10192000FFE0018003FFFFFE003FFFFFE0018003B7
:10193000FFFFFE003FFFFFE0018003FFFFFE003FCF
:10194000FFFFE0018003FFFFFE003FFFFFE001809B
:1019500003FFFFFE003FFFFFE0018007FFFFFE00E7
:101960003FFFFFF001800C00000300600000180141
:10197000801800000180C000000C018030000000D1
:10198000C1800000060180600000006300000003C9
:101990000180C0000000360000000181818000004D
:1019A000001C00000000C1C300000000080000008F
:1019B0000061E600000000080000000033FC0000A9
:1019C000000008000000001FF800000000180000E0
:1019D00000000FFC000000003C000000001FFE00A3
:1019E0000000007E000000003FFFFFFFFFFFFFFF41
:1019F000FFFFFFFFFFFFFFFFFFFFFFFFFFFFFFFFF7
:101A0000000000007FFFFFFFFFFFFE000000003F1F
:101A1000FFFFFFFFFFFC000000001FFFFFFFFFFFB5
:101A2000FC000000000FFFFFFFFFFFFE00000000B2
:101A30000FFFFFFFFFFFFF000000000FFFFFFFFF92
:101A4000FFFF800000001FFFFFFFFFFFFFC000003F
:101A50000037FFFFFFFFFFFFE000000063FFFFFF15
:101A6000FFFFFFF0000000C1FFFFFFFFFFFFF800D6
:101A7000000180FFFFFFFFFFFFFC000003007FFF6E
:101A8000FFFFFFFFFFFFFFFE003FFFFFFFFFFFFF26
:101A9000FFFFFE003FFFFFFFFFFFFFFFFFFE003FD6
:101AA000FFFFFFFFFFFFFFFFFE003FFFFFFFFFFF06
:101AB000FFFFFFFE003FFFFFFFFFFFFFFFFFFE00F6
:101AC0003FFFFFFFFFFFFFFFFFFE003FFFFFFFFFA6
:101AD000FFFFFFFFFE003FFFFFFFFFFFFFFFFFFED7
:101AE000003FFFFFFFFFFFFFFFFFFE003FFFFFFF85
:101AF000FFFFFFFFFFFE003FFFFFFFFFFFFFFFFFB6
:101B0000FE003FFFFFFFFFFFFFFFFFFE003FFFFF65
:101B1000FFFFFFFFFFFFFE003FFFFFFFFFFFFFFF95
:101B2000FFFE003FFFFFFFFFFFFFFFFFFE003FFF45
:101B3000FFFFFFFFFFFFFFFE003FFFFFFFFFFFFF75
:101B4000FFFFFE003FFFFFFFFFFFFFFFFFFE003F25
:101B5000FFFFFFFFFFFFFFFFFE003FFFFFFFFFFF55
:101B6000FC000003006000001FFFFFF80000018080
:101B7000C000000FFFFFF0000000C180000007FF61
:101B8000FFE00000006300000003FFFFC000000052
:101B90003600000001FFFF800000001C0000000074
:101BA000FFFF0000000008000000007FFE000000B2
:101BB0000008000000003FFC0000000008000000DA
:101BC000001FF80000000018000000000FFC0000DB
:101BD00000003C000000001FFE000000007E00002E
:101BE00000003FFFFFFFFFFFFFFFFFFFFFFFFFFFC3
:101BF000FFFFFFFFFFFFFFFFFFFF000000007FFF71
:101C0000FFFFFFFFFE000000003FFFFFFFFFFFFCA4
:101C1000000000001FFFFFFFFFFFFC000000000F9F
:101C2000FFFFFFFFFFE6000000000FFFFFFFFFF3D5
:101C3000C3000000000FFFFFFFFFE18180000000F4
:101C40001FFFFFFFFFC180C000000037FFFFFFFF45
:101C500081806000000063FFFFFFFF018030000013
:101C600000C1FFFFFFFE01801800000180FFFFFFA1
:101C7000FC01800C000003007FFFFFF8018007FFDC
:101C8000FFFE003FFFFFF0018003FFFFFE003FFF6C
:101C9000FFE0018003FFFFFE003FFFFFE001800344
:101CA000FFFFFE003FFFFFE0018003FFFFFE003F5C
:101CB000FFFFE0018003FFFFFE003FFFFFE0018028
:101CC00003FFFFFE003FFFFFE0018003FFFFFE0078
:101CD0003FFFFFE0018003FFFFFE003FFFFFE00149
:101CE0008003FFFFFE003FFFFFE0018003FFFFFED8
:101CF000003FFFFFE0018003FFFFFE003FFFFFE02A
:101D0000018003FFFFFE003FFFFFE0018003FFFFB4
:101D1000FE003FFFFFE0018003FFFFFE003FFFFFEB
:101D2000E0018003FFFFFE003FFFFFE0018003FFB3
:101D3000FFFE003FFFFFE0018003FFFFFE003FFFCB
:101D4000FFE0018003FFFFFE003FFFFFE00180078F
:101D5000FFFFFE003FFFFFF001800FFFFFFF00606D
:101D600000001801801FFFFFFF80C000000C0180F1
:101D70003FFFFFFFC18000000601807FFFFFFFE300
:101D8000000000030180FFFFFFFFF600000001815B
:101D900081FFFFFFFFFC00000000C1C3FFFFFFFF4A
:101DA000F80000000061E7FFFFFFFFF800000000FF
:101DB00033FFFFFFFFFFF8000000001FFFFFFFFFE2
:101DC000FFF8000000000FFFFFFFFFFFFC00000016
:101DD000001FFFFFFFFFFFFE000000003FFFFFFFAF
:101DE000FFFFFFFFFFFFFFFFFFFFFFFFFFFFFFFF03
:101DF000FFFFFFFF000000007E000000007FFE00EC
:101E00000000003C000000003FFC00000000180043
:101E10000000001FFC0000000008000000001FE69A
:101E200000000000080000000033C30000000008AC
:101E3000000000006181800000001C00000000C163
:101E400080C00000003600000001818060000000BA
:101E50006300000003018030000000C18000000624
:101E600001801800000180C000000C01800C0000FF
:101E7000030060000018018007FFFFFE003FFFFF26
:101E8000F0018003FFFFFE003FFFFFE0018003FF42
:101E9000FFFE003FFFFFE0018003FFFFFE003FFF6A
:101EA000FFE0018003FFFFFE003FFFFFE001800332
:101EB000FFFFFE003FFFFFE0018003FFFFFE003F4A
:101EC000FFFFE0018003FFFFFE003FFFFFE0018016
:101ED00003FFFFFE003FFFFFE0018003FFFFFE0066
:101EE0003FFFFFE0018003FFFFFE003FFFFFE00137
:101EF0008003FFFFFE003FFFFFE0018003FFFFFEC6
:101F0000003FFFFFE0018003FFFFFE003FFFFFE017
:101F1000018003FFFFFE003FFFFFE0018003FFFFA2
:101F2000FE003FFFFFE0018003FFFFFE003FFFFFD9
:101F3000E0018003FFFFFE003FFFFFE0018003FFA1
:101F4000FFFE003FFFFFE0018007FFFFFE003FFFB5
:101F5000FFF001800FFFFFFF006000001801801FED
:101F6000FFFFFF80C000000C01803FFFFFFFC1802A
:101F700000000601807FFFFFFFE3000000030180F7
:101F8000FFFFFFFFF6000000018181FFFFFFFFFC64
:101F900000000000C1C3FFFFFFFFF8000000006168
:101FA000E7FFFFFFFFF80000000033FFFFFFFFFF28
:101FB000F8000000001FFFFFFFFFFFF80000000017
:101FC0000FFFFFFFFFFFFC000000001FFFFFFFFFF0
:101FD000FFFE000000003FFFFFFFFFFFFFFFFFFFCE
:101FE000FFFFFFFFFFFFFFFFFFFFFFFFFFFFFFFF01
:101FF000FFFFFFFFFFFFFFFFFFFFFFFFFFFFFFFFF1
:10200000FFFFFFFFFFFFFFFFFFFFFFFFFFFFFFFFE0
:10201000FFFFFFFFFFFFFFFFFFE7FFFFFFFFFFFFE8
:10202000FFFFFFFFC3FFFFFFFFFFFFFFFFFFFF817A
:10203000FFFFFFFFFFFFFFFFFFFF80FFFFFFFFFF2F
:10204000FFFFFFFFFF807FFFFFFFFFFFFFFFFFFF9F
:10205000803FFFFFFFFFFFFFFFFFFF801FFFFFFF2E
:10206000FFFFFFFFFFFF800FFFFFFFFFFFFFFFFFEF
:10207000FF8007FFFFFFFFFFFFFFFFFF8003FFFF62
:10208000FFFFFFFFFFFFFF8003FFFFFFFFFFFFFFDB
:10209000FFFF8003FFFFFFFFFFFFFFFFFF8003FF46
:1020A000FFFFFFFFFFFFFFFF8003FFFFFFFFFFFFBB
:1020B000FFFFFF8003FFFFFFFFFFFFFFFFFF800326
:1020C000FFFFFFFFFFFFFFFFFF8003FFFFFFFFFF9B
:1020D000FFFFFFFF8003FFFFFFFFFFFFFFFFFF800A
:1020E00003FFFFFFFFFFFFFFFFFF8003FFFFFFFF77
:1020F000FFFFFFFFFF8003FFFFFFFFFFFFFFFFFF6B
:102100008003FFFFFFFFFFFFFFFFFF8003FFFFFFD5
:10211000FFFFFFFFFFFF8003FFFFFFFFFFFFFFFF4A
:10212000FF8003FFFFFFFFFFFFFFFFFF8003FFFFB5
:10213000FFFFFFFFFFFFFF8003FFFFFFFFFFFFFF2A
:10214000FFFF8007FFFFFFFFFFFFFFFFFF800C0087
:102150000003FFE000001FFF8018000001FFC00027
:10216000000FFF8030000000FF80000007FF80604C
:102170000000007F00000003FF80C00000003E0060
:10218000000001FF81800000001C00000000FFC370
:102190000000000008000000007FE60000000008CA
:1021A000000000003FFC0000000008000000001FCD
:1021B000F80000000018000000000FFC0000000004
:1021C0003C000000001FFE000000007E0000000038
:1021D0003FFFFFFFFFFFFFFFFFFFFFFFFFFFFFFFCF
:1021E000FFFFFFFFFFFFFFFF000000007E00000079
:1021F000007FFE000000003C000000003FFC0000EB
:10220000000018000000001FFC0000000008000093
:1022100000001FE600000000080000000033C300BB
:1022200000000008000000006181800000001C0028
:10223000000000C180C00000003600000001818065
:10224000600000006300000003018030000000C156
:102250008000000601801800000180C000000C0111
:10226000800C0000030060000018018007FFFFFEE3
:10227000003FFFFFF0018003FFFFFE003FFFFFE094
:10228000018003FFFFFE003FFFFFE0018003FFFF2F
:10229000FE003FFFFFE0018003FFFFFE003FFFFF66
:1022A000E0018003FFFFFE003FFFFFE0018003FF2E
:1022B000FFFE003FFFFFE0018003FFFFFE003FFF46
:1022C000FFE0018003FFFFFE003FFFFFE00180030E
:1022D000FFFFFE003FFFFFE0018003FFFFFE003F26
:1022E000FFFFE0018003FFFFFE003FFFFFE00180F2
:1022F00003FFFFFE003FFFFFE0018003FFFFFE0042
:102300003FFFFFE0018003FFFFFE003FFFFFE00112
:102310008003FFFFFE003FFFFFE0018003FFFFFEA1
:10232000003FFFFFE0018003FFFFFE003FFFFFE0F3
:10233000018003FFFFFE003FFFFFE0018007FFFF7A
:10234000FE003FFFFFF001800C0000030060000072
:102350001801801800000180C000000C01803000CE
:102360000000C180000006018060000000630000E2
:1023700000030180C0000000360000000181818060
:102380000000001C00000000C1C3000000000800A5
:1023900000000061E600000000080000000033FCBF
:1023A0000000000008000000001FF80000000018F6
:1023B000000000000FFC000000003C000000001FB7
:1023C000FE000000007E000000003FFFFFFFFFFF57
:1023D000FFFFFFFFFFFFFFFFFFFFFFFFFFFFFFFF0D
:1023E000FFFF000000007FFFFFFFFFFFFE00000077
:1023F000003FFFFFFFFFFFFC000000001FFFFFFF8B
:10240000FFFFFC000000000FFFFFFFFFFFE60000E2
:1024100000000FFFFFFFFFF3C3000000000FFFFFEE
:10242000FFFFE181800000001FFFFFFFFFC180C0B0
:1024300000000037FFFFFFFF81806000000063FFA6
:10244000FFFFFF018030000000C1FFFFFFFE0180A1
:102450001800000180FFFFFFFC01800C000003005A
:102460007FFFFFF8018007FFFFFE003FFFFFF00145
:102470008003FFFFFE003FFFFFE0018003FFFFFE40
:10248000003FFFFFE0018003FFFFFE003FFFFFE092
:10249000018003FFFFFE003FFFFFE0018003FFFF1D
:1024A000FE003FFFFFE0018003FFFFFE003FFFFF54
:1024B000E0018003FFFFFE003FFFFFE0018003FF1C
:1024C000FFFE003FFFFFE0018003FFFFFE003FFF34
:1024D000FFE0018003FFFFFE003FFFFFE0018003FC
:1024E000FFFFFE003FFFFFE0018003FFFFFE003F14
:1024F000FFFFE0018003FFFFFE003FFFFFE00180E0
:1025000003FFFFFE003FFFFFE0018003FFFFFE002F
:102510003FFFFFE0018003FFFFFE003FFFFFE00100
:102520008003FFFFFE003FFFFFE0018003FFFFFE8F
:10253000003FFFFFE0018007FFFFFE003FFFFFF0CD
:1025400001800C00000300600000180180180000EA
:102550000180C000000C018030000000C18000003C
:102560000601806000000063000000030180C000DD
:10257000000036000000018181800000001C000086
:102580000000C1C300000000080000000061E60078
:10259000000000080000000033FC000000000800FC
:1025A0000000001FF80000000018000000000FFCF1
:1025B000000000003C000000001FFE000000007E44
:1025C000000000003FFFFFFFFFFFFFFFFFFFFFFFD7
:1025D000FFFFFFFFFFFFFFFFFFFFFFFF0000000007
:1025E0007E000000007FFE000000003C00000000B4
:1025F0003FFC0000000018000000001FFC0000006D
:102600000008000000001FE60000000008000000B5
:102610000033C3000000000800000000618180005A
:1026200000001C00000000C180C00000003E00004F
:1026300000018180600000007F0000000301803005
:10264000000000FF80000006018018000001FFC0AC
:1026500000000C01800C000003FFE0000018018066
:1026600007FFFFFFFFFFFFFFF0018003FFFFFFFFFA
:10267000FFFFFFE0018003FFFFFFFFFFFFFFE0011F
:102680008003FFFFFFFFFFFFFFE0018003FFFFFF6D
:10269000FFFFFFFFE0018003FFFFFFFFFFFFFFE001
:1026A000018003FFFFFFFFFFFFFFE0018003FFFF4B
:1026B000FFFFFFFFFFE0018003FFFFFFFFFFFFFFC2
:1026C000E0018003FFFFFFFFFFFFFFE0018003FF4A
:1026D000FFFFFFFFFFFFE0018003FFFFFFFFFFFFA2
:1026E000FFE0018003FFFFFFFFFFFFFFE00180032A
:1026F000FFFFFFFFFFFFFFE0018003FFFFFFFFFF82
:10270000FFFFE0018003FFFFFFFFFFFFFFE001800D
:1027100003FFFFFFFFFFFFFFE0018003FFFFFFFF5D
:10272000FFFFFFE0018003FFFFFFFFFFFFFFE0016E
:102730008007FFFFFFFFFFFFFFF001800C00000399
:10274000FFE0000018018018000001FFC000000C2D
:10275000018030000000FF80000006018060000062
:10276000007F000000030180C00000003E00000068
:10277000018181800000001C00000000C1C3000036
:102780000000080000000061E600000000080000F2
:10279000000033FC0000000008000000001FF800EB
:1027A00000000018000000000FFC000000003C00CA
:1027B0000000001FFE000000007E000000003FFF40
:1027C000FFFFFFFFFFFFFFFFFFFFFFFFFFFF80FF98
:1027D000FF80FFFC003FFDFFBFFDFFBFFDFFBFFD12
:1027E000FFBFFDFFBFFDFFBFFDFFBFFDFFBFFDFF43
:1027F000BFFDFFBFFDFFBFFDFFBFFDFFBFFDFFBF73
:10280000FDFFBFFDFFBFFDFFBFFDFFBFFDFFBFFD24
:10281000FFBFFDFFBFFC003FFFFFFFFFFFFFFFFF0C
:1028200081FFFFFE007FFFFC003FFFF8FF1FFFFB63
:10283000FFDFFFFBFFDFFCFBFFDFF8F8FF1FF3FC10
:10284000003FC7FE007F8FFF81FF3FFFFFFC7FFF40
:10285000FFF8FFFFFFF3FFFFFFC7FFFFFF8FFFFF43
:10286000FF3FFFFFFC7FFFFFF8FFFFFFF3FFFFFFCE
:10287000C7FC0FFF8FF003FE3FE001FC7FC7F8F8B5
:10288000FFDFFEFBFFDFFEFFFFDFFEFFFFC7F8FFFE
:10289000FFE001FFFFF003FFFFFC0FFF03FFFFFE60
:1028A00001FFFFFCF8FFFFF8FC7FFFF9FE7FFFF957
:1028B000FE7FFFF9FE7FFFF9FE7FFFFCFCFFFFFCC0
:1028C00078FFFFFE01FFFFFF87FFFFFFFFFFFFFF16
:1028D000FFFFFFFFFC00FFFFF0003FFFC0001FFFF6
:1028E00080000FFF01FC07FE1FFF83FE7FFFE1FC5E
:1028F000FFFFF1FDFFFFF1F9FFFFF8FBFFFFF8FB22
:10290000FFFFFCFBFFFFFCFBFFFFFCFBFFFFFCFBF3
:10291000FFFFFCFBFFFFFDFDFFFFF9FCFFFFF9FEE2
:10292000FFFFF3FE3FFFF7FC0FFFEFFE03FFDFFFAC
:10293000FFFFBFFFFFFFFFFFFFFFFFFFFFFFFFFFE7
:10294000FFFFC0FFFFFFFFFFFFFFFFFFFFFFFFFFD6
:10295000FFFFC0FFFFFFFFFFFFFFFFFFFFFFFFFFC6
:10296000FFFFC0FFFFFFFFFFFFFFFFFFFFFFFFFFB6
:10297000FFFFC0FFFFFFFFFFFFFFFFFFFFFFFFFFA6
:10298000FFFFC0FFFFFFFFFFFFFFFFFFFFFFFFFF96
:10299000FFFFC0FFFFFFFFFFFFFFFFFFFFFFFFFF86
:1029A000FFFFC0FFFFFFFFFFFFFFFFFFFFFFFFFF76
:1029B000FFFFC0FFFFFFFFFFFFFFFFFFFFFFFFFF66
:1029C000FFFFC0FFFFFFFFFFFFFFFFFFFFFFFFFF56
:1029D000FFFFC0FFFFFFFFFFFFFFFFFFFFFFFFFF46
:1029E000FFFFC0FFFFFFFFFFFFFFFFFFFFFFFFFF36
:1029F000FFFFC0FFFFFFFFFFFFFFFFFFFFFFFFFF26
:102A0000FFFFC0FFFFFFFFFFFFFFFFFFFFFFFFFF15
:102A1000FFFFC0FFFFFFFFFFFFFFFFFFFFFFFFFF05
:102A2000FFFFC0FFFFFFFFFFFFFFFFFFFFFFFFFFF5
:102A3000FFFFC0FFFFFFFFFFFFFFFFFFFFFFE7FFFD
:102A4000FFFFC0FFFFFFFFFFFFFFFFFFFFFF83FF51
:102A5000FFFFC0FFFFFFFFFFFFFFFFFFFFFE03FFC2
:102A6000FFFFC0FFFFFFFFFFFFFFFFFFFFFC03FFB4
:102A7000FFFFC0FFFFFFFFFFFFFFFFFFFFFC01FFA6
:102A8000FFFFC0FFFFFFFFFFFFFFFFFFFFF841FF5A
:102A9000FFFFC0FFFFFFFFFFFFFFFFFFFFF0C1FFD2
:102AA000FFFFC0FFFFFFFFFFFFFFFFFFFFF0C1FFC2
:102AB000FFFFC0FFFFFFFFFFFFFFFFFFFFE0C1FFC2
:102AC000FFFFC0FFFFFFFFFFFFFFFFFFFFE0D9CFCA
:102AD000FFFFC0FFFFFFFFFFFFFFFFF7FFC09807EB
:102AE000FFFFC0FFFFFFFFFFF03BFFE3FFC19807C1
:102AF000FFFFC0FFFFFFFFFFF000FF83FFE0300399
:102B0000FFFFC0FFFFFFFFFF80007F07FFF83007D8
:102B1000FFFFC0FFFFFFFFFF80001E067FFE3207A2
:102B2000FFFFC0FFFFFFFFFFE0000308380333078C
:102B3000FFFFC0FFFFFFFFFFF000031810010607B3
:102B4000FFFFC0FFFFFFFFFFF00001100001861F25
:102B5000FFFFC0FFFFFFFFFFE00001900000C61F66
:102B6000CFFFC0FFFE7F3FFFE00000B00001C67F47
:102B7000CFFFC0FFFE7E3FFFC00000600003CCFF20
:102B800087FFC0FFFE7C3FFFE0000040001F0CFFFE
:102B900083FFC0FFFE303FFFF0000060001F00FF1A
:102BA00003FFC0FFFE003FFFF000F860000300FFDE
:102BB000003FC0FFFF013FFFFF8FFF60000180FF6C
:102BC000001FC0FFFF073FFFFFFC03E00000C07FC6
:102BD000801FC0FFFFFF3FFFF06000600000603D0E
:102BE000801FC0FFFFFFFFFFE04001F800007F1DD6
:102BF000800FC0FFFFFFFFFFC080071E0001F380B2
:102C0000C00FC0FFFFFFFFFF01800E0783E780C0FA
:102C1000600FC0FFFFFC3FFE03001801FFFF0060D4
:102C2000300FC0FFFFFC3FFC030030007DEB803C19
:102C3000100FC0FFFFFC3FF8070060000041C01EFE
:102C4000180FC0FFFFFC3FF8060060000060601F27
:102C50008C1FC0FFFFFFFFF8060060000030201F40
:102C6000C01FC0FFFF9FFFF8060040000030300F7C
:102C7000E01FC0FFFF1FFFF80600C100001018078B
:102C8000F01FC0FFFF1FFFF80E00C7000018180755
:102C9000F81FC0FFFE003FF80C00CF8000180C03A7
:102CA000FC1FC0FFFE003FF80C01FF800018060764
:102CB000FE0FC0FFFE003FF80C0730803E180607ED
:102CC000FE0FC0FFFFFFFFF81C0600803E30060726
:102CD000FF07C0FFFFFFFFFC180C008073F0060326
:102CE000FF87C0FFFFFFFFFE1858008071C0020180
:102CF000FFC7C0FFFFFFF3FE18F000C031800300E4
:102D0000FFC7C0FFFE73F3FF39E000C01B000300E4
:102D1000FFE7C0FFFE73F3FFFDC031E01E000300BC
:102D20007FE7C0FFFE73E3FFFD807FB00E0003006E
:102D30001FF7C0FFFE61E7FFFF81CF0C0F1E0300EE
:102D40003FF7C0FFFE21C7FFFF81801E0BFE03007F
:102D50007FF7C0FFFE0007FFFF81003BF9E2038021
:102D6000FFF7C0FFFE000FFFFF830079F00203C7EB
:102D7000FFF7C0FFFF0C1FFFFFC30063300603FF18
:102D8000FFF7C0FFFFFFFFFFFFC70043180403FF6B
:102D9000FFF7C0FFFFFFFFFFFFE700420F8407FFC1
:102DA000FFF7C0FFFFFFFFFFFFFF8062018407FF07
:102DB000FFF7C0FFFFBFFFFFFFFFC0C201060FFF0D
:102DC000FFF7C0FFF93FFFFFFFFFF0C603061FFF3D
:102DD000FFF7C0FFF8FFFFFFFFFFF98601043FFF89
:102DE000FFF7C0FFFFFFFFFFFFFFFF86010DFFFFA3
:102DF000FFF7C0FFFFBFFFFFFFFFFF0C07FFFFFF55
:102E0000FFF7C0FFF93FFFFFFFFFFF8C1FFFFFFF32
:102E1000FFF7C0FFF8FFFFFFFFFFFFC83FFFFFFF07
:102E2000FFF7C0FFFFFFFFFFFFFFFFFCFFFFFFFFFC
:102E3000FFF7C0FFFFFFFFFFFFFFFFFFFFFFFFFFE9
:102E4000FFF7C0FFFFFFFFFFFFFFFFFFFFFFFFFFD9
:102E5000FFF7C0FFFFFFFFFFFFFFFFFFFFFFFFFFC9
:102E6000FFF7C0FFFFFFFFFFFFFFFFFFFFFFFFFFB9
:102E7000FFF7C0FFFFFFFFFFFFFFFFFFFFFFFFFFA9
:102E8000FFF7C0FFFFFC3FFFFFFFFFFFFFFFFFFF5C
:102E9000FFF7C0FFFF003FF003FFFFFFFFFFFFFE54
:102EA0007FF7C0FFF8003FF77FFFFFFFFFFFFFFF47
:102EB0008FF7C0FFF8003FF77FFFFFFFFFFFFFFF27
:102EC000F3F7C0FFF8463FF77FFFFFFFFFFFFFFF6D
:102ED0008FF7C0FFF8C63FF77FFFFFFFFFFFFFFE42
:102EE0007FF7C0FFF8C63FF73FFFFFFFFFFFFFFF81
:102EF0008FF7C0FFF8C63FF75FFFFFFFFFFFFFFF41
:102F0000F3F7C0FFF8C63FF8E7FFFFFFFFFFFFFF43
:102F10008FF7C0FFF8C63FFFFBFFFFFFFFFFFFFE7D
:102F20007FF7C0FFF8FFFFFFFFFFFFFFFFFFFFFF7F
:102F3000FFF7C0FFF8FFFFFF07FFFFFFFFFFFFFEE8
:102F40007FF7C0FFFFFC3FFEDBFFFFFFFFFFFFFF40
:102F50008FF7C0FFFF003FFEDBFFFFFFFFFFFFFF1C
:102F6000F3F7C0FFF8003FFEDBFFFFFFFFFFFFFFAF
:102F70008FF7C0FFF801FFFEDBC00FFFFFFFFFFE72
:102F80007FF7C0FFF87FFFFF17FFFFFFFFFFFFFF87
:102F90008FF7C0FFFFFC3FFFFFFFFFFFFFFFFFFFBB
:102FA000F3F7C0FFFF003FFFFFFFFFFFFFFFFFFF43
:102FB0008FF7C0FFF8003FFF37F80FFFFFFFFFFE5E
:102FC0007FF7C0FFF801FFFEDBFDFFFFFFFFFFFF04
:102FD000FFF7C0FFF80FFFFEDBFBFFFFFFFFFFFE69
:102FE0007FF7C0FFFC01FFFEDBFBFFFFFFFFFFFFE2
:102FF0008FF7C0FFFF007FFF67FBFFFFFFFFFFFFB3
:10300000F3F7C0FFFFE03FFFFFFC0FFFFFFFFFFFF5
:103010008FF7C0FFFF003FFFFFFBFFFFFFFFFFFE3B
:103020007FF7C0FFF8003FFF07E01FFFFFFFFFFF34
:103030008FF7C0FFF801FFFEFBFBEFFFFFFFFFFF75
:10304000F3F7C0FFF87FFFFEFBFBEFFFFFFFFFFF83
:103050008FF7C0FFFFFFFFFEFBFFFFFFFFFFFFFE3D
:103060007FF7C0FFFFFFFFFEFBFC1FFFFFFFFFFF1F
:10307000FFF7C0FFFFFC3FFF07FB6FFFFFFFFFFFF6
:10308000FFF7C0FFFF003FFFFFFB6FFFFFFFFFFFEA
:10309000FBF7C0FFF8003FFFFFFB6FFFFFFFFFFFE5
:1030A000FFF7C0FFF801FFF003FB6FFFFFFFFFFF1B
:1030B000FFF7C0FFF843FFFFFFFC5FFFFFFFFFFFCD
:1030C00007F7C0FFFF87FFFFFFFFFFFFFFFFFFFEC8
:1030D000FBF7C0FFFF07FFFE07FFFFFFFFFFFFFE3D
:1030E000FBF7C0FFFE00FFFFFBF80FFFFFFFFFFE37
:1030F000FBF7C0FFFC003FFFFBFDFFFFFFFFFFFFF3
:1031000077F7C0FFF8203FFFFBFBFFFFFFFFFFFE4D
:103110000077C0FFF87C3FFFF7FBFFFFFFFFFFFFDB
:10312000FFF7C0FFF8FF3FFE03E00FFFFFFFFFFFC9
:10313000FFF7C0FFF9FFFFFFFFDBFFFFFFFFFFF619
:1031400003F7C0FFFFFFFFFEFFDBFFFFFFFFFFFFF7
:10315000FFF7C0FFFFFFFFF807FFFFFFFFFFFFFFC5
:10316000FFF7C0FFFFFFFFFEFBFD9FFFFFFFFFFE1E
:10317000FFF7C0FFFFFFFFFEFBFB6FFFFFFFFFFF3F
:103180003F77C0FFFFFFFFFFFFFB6FFFFFFFFFFF6A
:10319000CEF7C0FFFFFFFFF603FB6FFFFEF5FFFF5B
:1031A000F1F7C0FFFFFC3FFFFFFB5FFFFF35FFFFB5
:1031B000CFF7C0FFFF003FFFFFFC0FFFFFC5FFFF82
:1031C0003FF7C0FFF8003FFF07FFFFFFFFF07FFE64
:1031D000FFF7C0FFF8003FFEFBFFFFFFFFC5FFFF4B
:1031E000FFF7C0FFF87E3FFEFBFC1FFFFF35FFFE31
:1031F00007F7C0FFF8FE3FFEFBFBEFFFFEF5FFFF0A
:10320000FBF7C0FFF8FE3FFEFBFBEFFFFFFFFFFFFA
:10321000FBF7C0FFF8FC3FFF07FBEFFFFFFFFFFFDF
:10322000FBF7C0FFF8787FFFFFFDDFFFFFFFF87FB0
:10323000F7F7C0FFF8007FFFFFFFFFFFFFFFF07E03
:1032400003F7C0FFFC00FFFE03FC1FFFFFFFF07F42
:10325000FFF7C0FFFE03FFFF7FFB6FFFFFFFF03EA6
:1032600003F7C0FFFFFFFFFEFFFB6FFFF8FFFC3F10
:103270007FF7C0FFFFFC3FFEFFFB6FFFF0FFFE3E4E
:10328000FFF7C0FFFF003FFEFFFB6FFFE0F3FE3ED6
:10329000FFF7C0FFF8003FFF03FC5FFFC0F3FE3EF7
:1032A000FFF7C0FFF801FFFFFFFFFFFFC0E3FC7F58
:1032B00003F7C0FFF87FFFFFFFFFFFFFCFE1F87FBD
:1032C000FFF7C0FFFFF8FFFFFFFFFFFFCFC0F07F5A
:1032D000DFF7C0FFFE187FFFFFFFFFFFCF8000FF7B
:1032E000DFF7C0FFFC083FFFFFFFFFFFC60000FF46
:1032F000DFF7C0FFF80C3FFFFFFFFFFFC01801FF23
:10330000DFF7C0FFF8863FFFFFFFFFFFC01803FF96
:10331000DFF7C0FFF8C63FFEFBFBEFFFC03C0FFF2F
:10332000FFF7C0FFF8C23FFFFFFFFFFFC07FFFFFB7
:1033300007F7C0FFF8403FFFFFFFFFFFF3FFFFFE6F
:10334000FBF7C0FFF8207FFFFFFFFFFFFFFFFFFE3F
:10335000FBF7C0FFFC30FFFFFFFFFFFFFFE07FFE3A
:10336000FBF7C0FFFE3FFFFFFFFFFFFFFF803FFFB8
:1033700077F7C0FFFFFFFFFFFFFFFFFFFF003FF0FA
:1033800003F7C0FFFFFC3FFFFFFFFFFE0E003FFF04
:10339000FFF7C0FFFF003FF9F3FFFFF802001FFF38
:1033A000FFF7C0FFF8003FF7EBE39FF0003E1FF68A
:1033B00003F7C0FFF801FFF7DBDDEFF0007F1FFF31
:1033C000FFF7C0FFF847FFF7BBDDEFE000FF1FFF8F
:1033D000FFF7C0FFF8C7FFF77BDDEFE3C0FF3FFF5C
:1033E00037F7C0FFF8C7FFF8FBDEEFE7E07E3FFEF0
:1033F000DBF7C0FFF8C7FFFFFFDEEFC7F03C3FFE83
:10340000DBF7C0FFF887FFFFFFE71FC7E0003FFEC5
:10341000DBF7C0FFF807FFFC67FFFFC7C0007FFFB7
:1034200067F7C0FFF80FFFF2FBFFFFC00400FFFFCC
:10343000FFF7C0FFFC1FFFF6FBC00FC00E01FFFF30
:10344000FFF7C0FFFFFFFFF6FBDEFFE00F03FFFE0D
:103450000077C0FFFFFC3FF6FBDEFFE03FFFFFFF12
:1034600077F7C0FFFF003FF707DEFFF07FFE3FFE6C
:10347000FBF7C0FFF8003FFFFFDEFFFFFFFC3FFE52
:10348000FBF7C0FFF8003FFFFFDEFFFFFFFC3FFE42
:10349000FBF7C0FFF87E3FF807E1FFFFFFFC3FFFAF
:1034A00007F7C0FFFFFE3FF7FBFFFFFFFFFFFFFF38
:1034B000FFF7C0FFFFFE3FF7FBFFFFFFFFFFFFFF30
:1034C000FFF7C0FFFFFE3FF7FBC00FFFFFFFFFF05E
:1034D00003F7C0FFFFFE3FF7FBFFFFFFFFFFFFFF0C
:1034E000FFF7C0FFFFFFFFF807FFFFFFFFC1FFFF70
:1034F000FFF7C0FFFFFF3FFFFFFFFFFFFE007FFF63
:1035000067F7C0FFFFFC3FFFFFFFFFFFFC003FFE30
:10351000DBF7C0FFFFF83FFDEFFFFFFFF8003FFEC6
:10352000DBF7C0FFFFE07FFEDFFFFFFFF07C3FFE29
:10353000DBF7C0FFFF80FFFF3FFFFFFFE1FE1FFE45
:10354000D7F7C0FFFF01FFFF3FFFFFFFE3FF1FFFB4
:1035500003F7C0FFFC01FFFEDFFFFFFFC7FF1FFFF8
:10356000FFF7C0FFF811FFFDEFFFFFFFC7FF3FFEB2
:10357000FFF7C0FFF801FFFFFFFFFFFFC7FE3FFFA0
:103580003F77C0FFF8003FFFFFFFFFFFC3FC3FFF97
:10359000CEF7C0FFFF003FFFFFFFFFFFC1E07FFF4F
:1035A000F1F7C0FFFFFC3FFDFFFFFFFFE000FFFF63
:1035B000CFF7C0FFFFFFFFFBFFFFFFFFE001FFFFB3
:1035C0003FF7C0FFFFFFFFF003FFFFFFF007FFFE25
:1035D000FFF7C0FFFFFFFFFFFFFFFFFFFE7FFFFFC3
:1035E000FFF7C0FFF9FFFFFFFFFFFFFFFFFFFFFF38
:1035F000FBF7C0FFF83FFFFFFFFFFFFFFFC1FFFF2B
:10360000FFF7C0FFF80C3FFFFFFFFFFFFE007FFF4B
:10361000FFF7C0FFFC003FF9F3FFFFFFFC003FFF97
:1036200007F7C0FFFF003FF7EBFFFFFFF8003FFE8B
:10363000FBF7C0FFFF01FFF7DBFFFFFFF07C3FFE62
:10364000FBF7C0FFFE07FFF7BBFFFFFFE1FE1FFE1A
:10365000FBF7C0FFFC1FFFF77BFFFFFFE3FF1FFF30
:1036600077F7C0FFF83FFFF8FBFFFFFFC7FF1FFF23
:10367000FFF7C0FFF87FFFFFFFFFFFFFC7FF3FFF20
:10368000FFF7C0FFF8FFFFFFFFFFFFFFC7FE3FFE92
:1036900003F7C0FFF9FFFFF9F3FFFFFFC3FC3FFF94
:1036A0007FF7C0FFFFFFFFF7EBFFFFFFC1E07FFEEB
:1036B000FFF7C0FFFFFFFFF7DBFFFFFFE000FFFEAC
:1036C000FFF7C0FFFFFFFFF7BBFFFFFFE001FFFEBB
:1036D000FFF7C0FFFFFFFFF77BFFFFFFF007FFFFD4
:1036E00003F7C0FFFFFFFFF8FBFFFFFFFE7FFFFFB9
:1036F000FFF7C0FFFFFFFFFFFFFFFFFFFFFFFFFF21
:10370000FFF7C0FFFFFFFFFFFFFFFFFFFFFFFFFF10
:10371000FFF7C0FFFFFFFFFFFFFFFFFFFFFFFFFF00
:10372000FFF7C0FFFFFFFFFFFFFFFFFFFFFFFFFFF0
:10373000FFF7C0FFFFFFFFFFFFFFFFFFFFFFFFFFE0
:10374000FFF7C0FFFFFFFFFFFFFFFFFFFFFFFFFFD0
:10375000FFF7C0FFFFFFFFFFFFFFFFFFFFFFFFFFC0
:10376000FFF7C0FFFFFFFFFFFFFFFFFFFFFFFFFFB0
:10377000FFF7C0FFFFFFFFFFFFFFFFFFFFFFFFFFA0
:10378000FFF7C0FFFFFFFFFFFFFFFFFFFFFFFFFF90
:10379000FFF7C0FFFFFFFFFFFFFFFFFFFFFFFFFF80
:1037A000FFF7C0FFFFFFFFFFFFFFFFFFFFFFFFFF70
:1037B000FFF7C0FFFFFFFFFFFFFFFFFFFFFFFFFF60
:1037C000FFF7C0FFFFFFFFFFFFFFFFFFFFFFFFFF50
:1037D000FFF7C0FFFFFFFFFFFFFFFFFFFFFFFFFF40
:1037E000FFF7C0FFFFFFFFFFFFFFFFFFFFFFFFFF30
:1037F000FFF7C0FFFFFFFFFFFFFFFFFFFFFFFFFF20
:10380000FFFFC0FFFFFFFFFFFFFFFFFFFFFFFFFF07
:10381000FFFFC0FFFFFFFFFFFFFFFFFFFFFFFFFFF7
:10382000FFFFC0FFFFFFFFFFFFFFFFFFFFFFFFFFE7
:10383000FFFFC0FFFFFFFFFFFFFFFFFFFFFFFFFFD7
:10384000FFFFC0FFFFFFFFFFFFFFFFFFFFFFFFFFC7
:10385000FFFFC0FFFFFFFFFFFFFFFFFFFFFFFFFFB7
:10386000FFFFC0FFFFFFFFFFFFFFFFFFFFFFFFFFA7
:10387000FFFFC0FFFFFFFFFFFFFFFFFFFFFFFFFF97
:10388000FFFFC0FFFFFFFFFFFFFFFFFFFFFFFFFF87
:10389000FFFFC0FFFFFFFFFFFFFFFFFFFFFFFFFF77
:1038A000FFFFC0FFFFFFFFFFFFFFFFFFFFFFFFFF67
:1038B000FFFFC0FFFFFFFFFFFFFFFFFFFFFFFFFF57
:1038C000FFFFC0FFFFFFFFFFFFFFFFFFFFFFFFFF47
:1038D000FFFFC0FFFFFFFFFFFFFFFFFFFFFFFFFF37
:1038E000FFFFC0FFFFFFFFFFFFFFFFFFFFFFFFFF27
:1038F000FFFFC0FFFFFFFFFFFFFFFFFFFFFFFFFF17
:10390000FFFFC0FFFFFFFFFFFFFFFFFFFFFFFFFF06
:10391000FFFFC0FFFFFFFFFFFFFFFFFFFFFFFFFFF6
:10392000FFFFC0FFFFFFFFFFFFFFFFFFFFFFFFFFE6
:10393000FFFFC0FFFFFFFFFFFFFFFFFFFFFFFFFFD6
:10394000FFFFC0FFFFFFFFFFFFFFFFFFFFFFFFFFC6
:10395000FFFFC0FFFFFFFFFFFFFFFFFFFFFFFFFFB6
:10396000FFFFC0FFFFFFFFFFFFFFFFFFFFFFFFFFA6
:10397000FFFFC0FFFFFFFFFFFFFFFFFFFFFFFFFF96
:10398000FFFFC0FFFFFFFFFFFFFFFFFFFFFFFFFF86
:10399000FFFFC0FFFFFF000000007E000000007F6F
:1039A000FFFFC0FFFFFE000000003C000000003FE2
:1039B000FFFFC0FFFFFC0000000018000000001F18
:1039C000FFFFC0FFFFFC0000000008000000001F18
:1039D000FFFFC0FFFFE6000000000800000000330A
:1039E000FFFFC0FFFFC300000000080000000061EF
:1039F000FFFFC0FFFF81800000001C00000000C12D
:103A0000FFFFC0FFFF80C000000036000000018102
:103A1000FFFFC0FFFF8060000000630000000301A3
:103A2000FFFFC0FFFF8030000000C18000000601E2
:103A3000FFFFC0FFFF801800000180C000000C01E4
:103A4000FFFFC0FFFF800C000003006000001801B2
:103A5000FFFFC0FFFF8007FFFFFE003FFFFFF001F9
:103A6000FFFFC0FFFF8003FFFFFE003FFFFFE001FD
:103A7000FFFFC0FFFF8003FFFFFE003FFFFFE001ED
:103A8000FFFFC0FFFF8003FFFFFE003FFFFFE001DD
:103A9000FFFFC0FFFF8003FFFFFE003FFFFFE001CD
:103AA000FFFFC0FFFF8003FFFFFE003FFFFFE001BD
:103AB000FFFFC0FFFF8003FFFFFE003FFFFFE001AD
:103AC000FFFFC0FFFF8003FFFFFE003FFFFFE0019D
:103AD000FFFFC0FFFF8003FFFFFE003FFFFFE0018D
:103AE000FFFFC0FFFF8003FFFFFE003FFFFFE0017D
:103AF000FFFFC0FFFF8003FFFFFE003FFFFFE0016D
:103B0000FFFFC0FFFF8003FFFFFE003FFFFFE0015C
:103B1000FFFFC0FFFF8003FFFFFE003FFFFFE0014C
:103B2000FFFFC0FFFF8003FFFFFE003FFFFFE0013C
:103B3000FFFFC0FFFF8003FFFFFE003FFFFFE0012C
:103B4000FFFFC0FFFF8003FFFFFE003FFFFFE0011C
:103B5000FFFFC0FFFF8003FFFFFE003FFFFFE0010C
:103B6000FFFFC0FFFF8003FFFFFE003FFFFFE001FC
:103B7000FFFFC0FFFF8003FFFFFE003FFFFFE001EC
:103B8000FFFFC0FFFF8007FFFFFE003FFFFFF001C8
:103B9000FFFFC0FFFF800C00000300600000180161
:103BA000FFFFC0FFFF801800000180C000000C0173
:103BB000FFFFC0FFFF8030000000C1800000060151
:103BC000FFFFC0FFFF8060000000630000000301F2
:103BD000FFFFC0FFFF80C000000036000000018131
:103BE000FFFFC0FFFF81800000001C00000000C13B
:103BF000FFFFC0FFFFC300000000080000000061DD
:103C0000FFFFC0FFFFE600000000080000000033D7
:103C1000FFFFC0FFFFFC0000000008000000001FC5
:103C2000FFFFC0FFFFF80000000018000000000FB9
:103C3000FFFFC0FFFFFC000000003C000000001F71
:103C4000FFFFC0FFFFFE000000007E000000003FFD
:103C5000FFFFC0FFFFFFFFFFFFFFFFFFFFFFFFFFB3
:103C6000FFFFC0FFFFFFFFFFFFFFFFFFFFFFFFFFA3
:103C7000FFFFC0FFFFFFFFFFFFFFFFFFFFFFFFFF93
:103C8000FFFFC0FFFFFFFFFFFFFFFFFFFFFFFFFF83
:103C9000FFFFC0FFFFFFFFFFFFFFFFFFFFFFFFFF73
:103CA000FFFFC0FFFFFFFFFFFFFFFFFFFFFFFFFF63
:103CB000FFFFC0FFFFFF000000007E000000007F4C
:103CC000FFFFC0FFFFFE000000003C000000003FBF
:103CD000FFFFC0FFFFFC0000000018000000001FF5
:103CE000FFFFC0FFFFFC0000000008000000001FF5
:103CF000FFFFC0FFFFE600000000080000000033E7
:103D0000FFFFC0FFFFC300000000080000000061CB
:103D1000FFFFC0FFFF81800000001C00000000C109
:103D2000FFFFC0FFFF80C0000000360000000181DF
:103D3000FFFFC0FFFF806000000063000000030180
:103D4000FFFFC0FFFF8030000000C18000000601BF
:103D5000FFFFC0FFFF801800000180C000000C01C1
:103D6000FFFFC0FFFF800C0000030060000018018F
:103D7000FFFFC0FFFF8007FFFFFE003FFFFFF001D6
:103D8000FFFFC0FFFF8003FFFFFE003FFFFFE001DA
:103D9000FFFFC0FFFF8003FFFFFE003FFFFFE001CA
:103DA000FFFFC0FFFF8003FFFFFE003FFFFFE001BA
:103DB000FFFFC0FFFF8003FFFFFE003FFFFFE001AA
:103DC000FFFFC0FFFF8003FFFFFE003FFFFFE0019A
:103DD000FFFFC0FFFF8003FFFFFE003FFFFFE0018A
:103DE000FFFFC0FFFF8003FFFFFE003FFFFFE0017A
:103DF000FFFFC0FFFF8003FFFFFE003FFFFFE0016A
:103E0000FFFFC0FFFF8003FFFFFE003FFFFFE00159
:103E1000FFFFC0FFFF8003FFFFFE003FFFFFE00149
:103E2000FFFFC0FFFF8003FFFFFE003FFFFFE00139
:103E3000FFFFC0FFFF8003FFFFFE003FFFFFE00129
:103E4000FFFFC0FFFF8003FFFFFE003FFFFFE00119
:103E5000FFFFC0FFFF8003FFFFFE003FFFFFE00109
:103E6000FFFFC0FFFF8003FFFFFE003FFFFFE001F9
:103E7000FFFFC0FFFF8003FFFFFE003FFFFFE001E9
:103E8000FFFFC0FFFF8003FFFFFE003FFFFFE001D9
:103E9000FFFFC0FFFF8003FFFFFE003FFFFFE001C9
:103EA000FFFFC0FFFF8007FFFFFE003FFFFFF001A5
:103EB000FFFFC0FFFF800C0000030060000018013E
:103EC000FFFFC0FFFF801800000180C000000C0150
:103ED000FFFFC0FFFF8030000000C180000006012E
:103EE000FFFFC0FFFF8060000000630000000301CF
:103EF000FFFFC0FFFF80C00000003600000001810E
:103F0000FFFFC0FFFF81800000001C00000000C117
:103F1000FFFFC0FFFFC300000000080000000061B9
:103F2000FFFFC0FFFFE600000000080000000033B4
:103F3000FFFFC0FFFFFC0000000008000000001FA2
:103F4000FFFFC0FFFFF80000000018000000000F96
:103F5000FFFFC0FFFFFC000000003C000000001F4E
:103F6000FFFFC0FFFFFE000000007E000000003FDA
:103F7000FFFFC0FFFFFFFFFFFFFFFFFFFFFFFFFF90
:103F8000FFFFC0FFFFFFFFFFFFFFFFFFFFFFFFFF80
:103F9000FFFFC0FFFFFFFFFFFFFFFFFFFFFFFFFF70
:103FA000FFFFC0FFFFFFFFFFFFFFFFFFFFFFFF005F
:103FB000FFFFC0FFFFFFFFFFFFFFFFFFFFFFFF004F
:103FC000FFFFC0FFFFFFFFFFFFFFFFFFFFFFFF003F
:103FD000FFFFC0FFFFFFFFFFFFFFFFFFFFFFFF002F
:103FE000FFFFC0FFFFFFFFFFFFFFFFFFFFFFFF001F
:103FF000FFFFC0FFFFFFFFFFFFFFFFFFFFFFFF000F
:10400000FFFFC0FFFFFFFFFFFFFFFFFFFFFFFF00FE
:10401000FFFFC0FFFFFFFFFFFFFFFFFFFFFFFF00EE
:10402000FFFFC0FFFFFFFFFFFFFFFFFFFFFFFFFFDF
:10403000FFFFC0FFFFFFFFFFFFFFFFFFFFFFFFFFCF
:10404000FFFFC0FFFFFFFFFFFFFFFFFFFFFFFFFFBF
:10405000FFFFC0FFFFFF000000007E000000007FA8
:10406000FFFFC0FFFFFE000000003C000000003F1B
:10407000FFFFC0FFFFFC0000000018000000001F51
:10408000FFFFC0FFFFFC0000000008000000001F51
:10409000FFFFC0FFFFE60000000008000000003343
:1040A000FFFFC0FFFFC30000000008000000006128
:1040B000FFFFC0FFFF81800000001C00000000C166
:1040C000FFFFC0FFFF80C00000003600000001813C
:1040D000FFFFC0FFFF8060000000630000000301DD
:1040E000FFFFC0FFFF8030000000C180000006011C
:1040F000FFFFC0FFFF801800000180C000000C011E
:10410000FFFFC0FFFF800C000003006000001801EB
:10411000FFFFC0FFFF8007FFFFFE003FFFFFF00132
:10412000FFFFC0FFFF8003FFFFFE003FFFFFE00136
:10413000FFFFC0FFFF8003FFFFFE003FFFFFE00126
:10414000FFFFC0FFFF8003FFFFFE003FFFFFE00116
:10415000FFFFC0FFFF8003FFFFFE003FFFFFE00106
:10416000FFFFC0FFFF8003FFFFFE003FFFFFE001F6
:10417000FFFFC0FFFF8003FFFFFE003FFFFFE001E6
:10418000FFFFC0FFFF8003FFFFFE003FFFFFE001D6
:10419000FFFFC0FFFF8003FFFFFE003FFFFFE001C6
:1041A000FFFFC0FFFF8003FFFFFE003FFFFFE001B6
:1041B000FFFFC0FFFF8003FFFFFE003FFFFFE001A6
:1041C000FFFFC0FFFF8003FFFFFE003FFFFFE00196
:1041D000FFFFC0FFFF8003FFFFFE003FFFFFE00186
:1041E000FFFFC0FFFF8003FFFFFE003FFFFFE00176
:1041F000FFFFC0FFFF8003FFFFFE003FFFFFE00166
:10420000FFFFC0FFFF8003FFFFFE003FFFFFE00155
:10421000FFFFC0FFFF8003FFFFFE003FFFFFE00145
:10422000FFFFC0FFFF8003FFFFFE003FFFFFE00135
:10423000FFFFC0FFFF8003FFFFFE003FFFFFE00125
:10424000FFFFC0FFFF8007FFFFFE003FFFFFF00101
:10425000FFFFC0FFFF800C0000030060000018019A
:10426000FFFFC0FFFF801800000180C000000C01AC
:10427000FFFFC0FFFF8030000000C180000006018A
:10428000FFFFC0FFFF80600000006300000003012B
:10429000FFFFC0FFFF80C00000003600000001816A
:1042A000FFFFC0FFFF81800000001C00000000C174
:1042B000FFFFC0FFFFC30000000008000000006116
:1042C000FFFFC0FFFFE60000000008000000003311
:1042D000FFFFC0FFFFFC0000000008000000001FFF
:1042E000FFFFC0FFFFF80000000018000000000FF3
:1042F000FFFFC0FFFFFC000000003C000000001FAB
:10430000FFFFC0FFFFFE000000007E000000003F36
:10431000FFFFC0FFFFFFFFFFFFFFFFFFFFFFFFFFEC
:10432000FFFFC0FFFFFFFFFFFFFFFFFFFFFFFFFFDC
:10433000FFFFC0FFFFFFFFFFFFFFFFFFFFFFFFFFCC
:10434000FFFFC0FFFFFFFFFFFFFFFFFFFFFFFFFFBC
:10435000FFFFC0FFFFFFFFFFFFFFFFFFFF03FFFFA8
:10436000FFFFC0FFFFFFFFFFFFFFFFFFFE01FFFF9B
:10437000FFFFC0FFFFFFFFFFFFFFFFFFFCF8FFFF96
:10438000FFFFC0FFFFFFFFFFFFFFFFFFF8FC7FFF06
:10439000FFFFC0FFFFFFFFFFFFFFFFFFF9FE7FFFF3
:1043A000FFFFC0FFFFFFFFFFFFFFFFFFF9FE7FFFE3
:1043B000FFFFC0FFFFFFFFFFFFFFFFFFF9FE7FFFD3
:1043C000FFFFC0FFFFFF81FFFFFFFFFFF9FE7FFF41
:1043D000FFFFC0FFFFFE007FFFFFFFFFFCFCFFFFB2
:1043E000FFFFC0FFFFFC003FFFFFFFFFFC78FFFF68
:1043F000FFFFC0FFFFF8FF1FFFFFFFFFFE01FFFFF2
:10440000FFFFC0FFFFFBFFDFFFFFFFFFFF87FFFF97
:10441000FFFFC0FFFFFBFFDFFCFFFFFFFFFFFFFF12
:10442000FFFFC0FFFFFBFFDFF8FFFFFFFFFFFFFF06
:10443000FFFFC0FFFFF8FF1FF3FFFFFFFFFC00FFC0
:10444000FFFFC0FFFFFC003FC7FFFFFFFFF0003F83
:10445000FFFFC0FFFFFE007F8FFFFFFFFFC0001FB9
:10446000FFFFC0FFFFFF81FF3FFFFFFFFF80000F47
:10447000FFFFC0FFFFFFFFFC7FFFFFFFFF01FC0707
:10448000FFFFC0FFFFFFFFF8FFFFFFFFFE1FFF83DF
:10449000FFFFC0FFFFFFFFF3FFFFFFFFFE7FFFE116
:1044A000FFFFC0FFFFFFFFC7FFFFFFFFFCFFFFF1A4
:1044B000FFFFC0FFFFFFFF8FFFFFFFFFFDFFFFF1CB
:1044C000FFFFC0FFFFFFFF3FFFFFFFFFF9FFFFF808
:1044D000FFFFC0FFFFFFFC7FFFFFFFFFFBFFFFF8B9
:1044E000FFFFC0FFFFFFF8FFFFFFFFFFFBFFFFFC29
:1044F000FFFFC0FFFFFFF3FFFFFFFFFFFBFFFFFC1E
:10450000FFFFC0FFFFFFC7FC0FFFFFFFFBFFFFFC2C
:10451000FFFFC0FFFFFF8FF003FFFFFFFBFFFFFC6C
:10452000FFFFC0FFFFFE3FE001FFFFFFFBFFFFFCBF
:10453000FFFFC0FFFFFC7FC7F8FFFFFFFBFFFFFD92
:10454000FFFFC0FFFFF8FFDFFEFFFFFFFDFFFFF9EA
:10455000FFFFC0FFFFFBFFDFFEFFFFFFFCFFFFF9D8
:10456000FFFFC0FFFFFFFFDFFEFFFFFFFEFFFFF3C8
:10457000FFFFC0FFFFFFFFC7F8FFFFFFFE3FFFF792
:10458000FFFFC0FFFFFFFFE001FFFFFFFC0FFFEF9A
:10459000FFFFC0FFFFFFFFF003FFFFFFFE03FFDF92
:1045A000FFFFC0FFFFFFFFFC0FFFFFFFFFFFFFBF8D
:1045B000FFFFC0FFFFFFFFFFFFFFFFFFFFFFFFFF4A
:1045C000FFFFC0FFFFFFFFFFFFFFFFFFFFFFFFFF3A
:1045D000FFFFC0FFFFFFFFFFFFFFFFFFFFFFFFFF2A
:1045E000FFFFC0FFFFFFFFFFFFFFFFFFFFFFFFFF1A
:1045F000FFFFC0FFFF80FFFFFFFFFFFFFFFFFFFF89
:10460000FFFFC0FFFF80FFFFFFFFFFFFFFFFFF0077
:10461000FFFFC0FFF8001FFFFFFFFFFFFFFFFF00CE
:10462000FFFFC0FFF8001FFFFFFFFFFFFFFFFF00BE
:10463000FFFFC0FFF9FF9FFFFFFFFFFFFFFFFF002E
:10464000FFFFC0FFF9009FFFFFFFFFFFFFFFFF001D
:10465000FFFFC0FFF9009FFFFFFFFFFFFFFFFFFF0E
:10466000FFFFC0FFF9009FFFFFFFFFFFFFFFFFFFFE
:10467000FFFFC0FFF9009FFFFFFFFFFFFFFF0000EC
:10468000FFFFC0FFF9FF9FFFFFFFFFFFFFFF0000DD
:10469000FFFFC0FFF9009FFFFFFFFFFFFFFF0000CC
:1046A000FFFFC0FFF9009FFFFFFFFFFFFFFF0000BC
:1046B000FFFFC0FFF9009FFFFFFFFFFFFFFF0000AC
:1046C000FFFFC0FFF9009FFFFFFFFFFFFFFFFFFF9E
:1046D000FFFFC0FFF9FF9FFFFFFFFFFFFFFFFFFF8F
:1046E000FFFFC0FFF9009FFFFFFFFFFFFF0000007B
:1046F000FFFFC0FFF9009FFFFFFFFFFFFF0000006B
:10470000FFFFC0FFF9009FFFFFFFFFFFFF0000005A
:10471000FFFFC0FFF9009FFFFFFFFFFFFF0000004A
:10472000FFFFC0FFF9FF9FFFFFFFFFFFFF0000003B
:10473000FFFFC0FFF9009FFFFFFFFFFFFFFFFFFF2D
:10474000FFFFC0FFF9009FFFFFFFFFFFFFFFFFFF1D
:10475000FFFFC0FFF9009FFFFFFFFFFF0000000009
:10476000FFFFC0FFF9009FFFFFFFFFFF00000000F9
:10477000FFFFC0FFF9FF9FFFFFFFFFFF00000000EA
:10478000FFFFC0FFF8001FFFFFFFFFFF000000005A
:10479000FFFFC0FFF8001FFFFFFFFFFF000000004A
:1047A000FFFFC0FFFFFFFFFFFFFFFFFFFFFFFFFF58
:1047B000FFFFC0FFFFFFFFFFFFFFFFFFFFFFFFFF48
:1047C000FFFFC0FFFFFFFFFFFFFFFFFFFFFFFFFF38
:1047D000FFFFC0FFFFFFFFFFFFFFFFFFFFFFFFFF28
:1047E000FFFFC0FFFFFFFFFFFFFFFFFFFFFFFFFF18
:1047F000FFFFC0FFFFFFFFFFFFFFFFFFFFFFFFFF08
:10480000FFFFC0FFFFFFFFFFFFFFFFFFFFFFFFFFF7
:10481000FFFFC0FFFFFFFFFFFFFFFFFFFFFFFFFFE7
:10482000FFFFC0FFFFFFFFFFFFFFFFFFFFFFFFFFD7
:10483000FFFFC0FFFFFFFFFFFFFFFFFFFFFFFFFFC7
:10484000FFFFC0FFFFFFFFFFFFFFFFFFFFFFFFFFB7
:10485000FFFFC0FFFFFFFFFFFFFFFFFFFFFFFFFFA7
:10486000FFFFC0FFFFFFFFFFFFFFFFFFFFFFFFFF97
:10487000FFFFC0000000000000000000000000007A
:104880000000000000000000A84800080000002010
:10489000180000006C010008C04800081800002043
:1048A0006006000088010008000000000102030407
:1048B00001020304060708090204060800000000BC
:0400000508000131BD
:00000001FF
