:020000040800F2
:1000000010040020D9000008B10D0008110D0008EF
:1000100000000000000000000000000000000000E0
:10002000000000000000000000000000B50D000806
:100030000000000000000000B30D0008B70D00082C
:10004000EB000008EB000008EB000008EB000008E4
:10005000EB000008EB000008EB000008EB000008D4
:1000600000000000EB000008EB000008EB000008B7
:10007000EB000008EB00000800000000EB000008A7
:1000800000000000EB00000800000000000000007D
:10009000EB00000800000000EB000008EB00000887
:1000A000EB000008EB000008EB000008EB00000884
:1000B000EB000008EB00000800000000000000005A
:1000C0000448854600F090F800480047E90E000813
:1000D000C046C0461004002004488047044800473A
:1000E000FEE7FEE7FEE7FEE7FEE7FEE7390E000863
:1000F000C100000830B50B46014600202022012433
:1001000009E00D46D5409D4205D31D469540491B4B
:100110002546954040191546521E002DF1DC30BD94
:10012000F0B51FB40646002082B005464024019178
:1001300000901BE0019922460F46304600F042F83D
:10014000049A059B801A994110D3104619462246FD
:1001500000F028F8361A8F4101972246012000212D
:10016000009F00F01FF838184D4100902046641E93
:100170000028DFDC019B00982946324607B0F0BD1D
:10018000D2B201E00270401C491EFBD2704700222F
:10019000F6E710B513460A4604461946FFF7F0FF86
:1001A000204610BD10B5202A04DB0146203A9140BC
:1001B000002010BD914020239C1A0346E3401943C0
:1001C000904010BD10B5202A04DB0846203AD040EC
:1001D000002110BD0B46D340D0402024A21A9140EC
:1001E0000843194610BD0000064C0125064E05E0E7
:1001F000E36807CC2B430C3C98471034B442F7D348
:10020000FFF762FF683600088836000810B5102036
:1002100000F0FEF8012000F019F9642000F057FE0C
:1002200010BD10B50524240700224021204600F00F
:10023000DCF9642000F04BFE01224021204600F052
:10024000D4F9642000F043FE00F0B0F8122000F072
:10025000DFF800F0ABF8012000F0DAF8C72000F07A
:10026000F5F8002000F0F2F8002000F0EFF811207F
:1002700000F0CEF8012000F0E9F8442000F0C8F8C2
:10028000002000F0E3F8182000F0E0F8452000F02E
:10029000BFF8C72000F0DAF8002000F0D7F80020FF
:1002A00000F0D4F8002000F0D1F83C2000F0B0F8C5
:1002B000052000F0CBF8182000F0AAF8802000F00C
:1002C000C5F84E2000F0A4F8002000F0BFF84F2041
:1002D00000F09EF8C72000F0B9F8002000F0B6F852
:1002E00000F064F810BD0000F8B50446054624206F
:1002F00000F08EF80B4F0026207800F0A7F8641C61
:10030000761CBE42F8D3262000F082F8002428781C
:1003100000F09CF8641C6D1CBC42F8D300F004F89B
:10032000F8BD00008813000010B5222000F070F81E
:10033000F72000F08BF8202000F06AF800F036F883
:1003400010BD000070B50546242000F061F8064E8F
:100350000024287800F07AF8641C6D1CB442F8D3AD
:10036000FFF7E2FF70BD00008813000070B5242085
:1003700000F04EF800250024FF2000F067F8641C10
:10038000192CF9D36D1CC82DF5D3262000F040F8A8
:1003900000250024FF2000F059F8641C192CF9D323
:1003A0006D1CC82DF5D3FFF7BFFF70BD10B5052438
:1003B00024072021204600F013F90028F9D110BDB0
:1003C000F8B5124E044600220221304600F00DF925
:1003D0000025FF270137200601D5012200E0002279
:1003E00005203946000700F000F9012202213046BD
:1003F00000F0FBF800220221304600F0F6F860061B
:100400006D1C040EEDB2082DE5D3F8BD00040050BC
:1004100070B50D4C054601221146204600F0E5F866
:1004200000220121204600F0E0F805200022802172
:10043000000700F0DAF82846FFF7C2FF0122114654
:10044000204600F0D2F870BD0004005070B50D4C8D
:10045000054601221146204600F0C7F8002201217E
:10046000204600F0C2F8052001228021000700F09C
:10047000BCF82846FFF7A4FF01221146204600F0F1
:10048000B4F870BD00040050F0B5002294E00126DD
:10049000964033407ED04C68012C05D0022C03D00E
:1004A000112C01D0122C10D1856854000327A740CD
:1004B000BD43CF68A7402F43876045680C79B5439B
:1004C000E406E40F94402C434460C66855000324BE
:1004D000AC408F68A643AF403743A646C7604C6820
:1004E000022C01D0122C0ED1D408A4002418276AA3
:1004F000A4465607F40E0F26A640B7430E69A64041
:100500003E436446266204687646B4430E79B607D5
:10051000B60FAE40264306604C68E4004BD5294C2C
:10052000656B0126354365639508274CAD002F198F
:10053000BD689407240F0F26A640B543052636074D
:10054000B04201D1002614E0204EB04201D1012674
:100550000FE01F4EB04201D102260AE01D4EB0420C
:1005600001D1032605E01C4EB04201D1052600E072
:100570000626A6402E43BE60184D2C684E689C434C
:10058000F60300D51C432C606C684E689C43B60390
:1005900002D500E00FE01C436C60AC684E689C43E1
:1005A000F60200D51C43AC60EC684E689C43B60272
:1005B00000D51C43EC60521C0B681C46D44000D094
:1005C00065E7F0BD0010024000000140000400504B
:1005D00000080050000C0050001C005000040140B6
:1005E0000069084000D001207047002A01D08161D5
:1005F00070478162704700000148806870470000C2
:1006000000000020024881680278891881607047E4
:100610000000002010B50848002401684022114362
:100620000160204600F00AF8002801D0012401E012
:1006300000F026F8204610BD0020024070B50446A8
:100640000D4D7D202978C000FFF754FD01460B4871
:100650000068FFF74FFD00F043FB002809D1042C90
:1006600007D200222146401E00F016F800206C60E0
:1006700070BD012070BD0000000000200C000020B3
:100680000448416B012211434163816B0204114311
:10069000816370470010024010B500F0E7FB10BD09
:1006A000F8B50E46040038D05E480068C007C00F99
:1006B000B04214D25B4F3868400840003043386085
:1006C000FFF79AFF054605E0FFF796FF411B5648E6
:1006D00081427AD83868C007C00FB042F4D1207880
:1006E000524F800705D5F868F0218843A168084378
:1006F000F8602078C00752D06068022806D003282E
:1007000007D0396801280AD0890504E039688903CF
:1007100001E039688901002903DB0120F8BD4907A0
:10072000F9E7F968890889000143F960FFF764FF78
:100730000546606802280AD0032814D001281ED07C
:1007400029E0FFF759FF411B374881423DD8F8683F
:100750000007800F0228F4D121E0FFF74DFF411B75
:100760003148814231D8F8680007800F0328F4D15E
:1007700015E0FFF741FF411B2B48814225D8F8685F
:100780000007800F0128F4D109E0FFF735FF411B76
:100790002548814219D8F8680007800FF5D1214813
:1007A0000168C907C90FB14217D901684908490052
:1007B00031430160FFF720FF054608E005E0FFF741
:1007C0001BFF411B1848814201D90320F8BD154881
:1007D0000068C007C00FB042F1D12078400706D5AD
:1007E000F868072109028843E1680843F860207827
:1007F000000707D5F8680721C90288432169C900A5
:100800000843F86000F01AF8F968094A0906090F68
:10081000515CC8400749086007480068FFF70EFFB1
:10082000F8BD0000002002408813000000100240C4
:100830004C3600080C0000200400002070B51B4E50
:10084000F2680C211046084019498B0004280CD08E
:100850004D00082810D00C2810D070680004410FFB
:100860000120C003491C884070BD3068C00601D516
:10087000084670BD184670BD284670BD90020D4CEC
:10088000000F205C1202940FF268641CD20301D5A1
:10089000294603E03268D20600D4194600F0CDFAAA
:1008A00022460023FFF73CFC70BD00000010024010
:1008B00000093D005C360008FEB504007ED0FE4D08
:1008C000EE680C20EF680640012000040740207805
:1008D000C00747D0082E05D00C2E0AD101200004F5
:1008E000874206D1286880033CD560680028E5D09F
:1008F00038E0012061680004814203D12968014386
:10090000296011E0052301221B0492049942296801
:1009100002D111432960F1E7814329602968014030
:100920000091286890432860606800280DD0FFF788
:1009300063FE009005E0FFF75FFE0099401A64280F
:100940007BD828688003F6D50CE0FFF755FE0090B1
:1009500005E0FFF751FE0099401A6428F0D8286896
:100960008003F6D42078800756D50921E068042E4C
:100970000DD00C2E01D1002F09D000283CD02A68C0
:100980008A4302432A60FFF737FE074628E02A68B9
:10099000520701D5002891D06A681F231B029A4391
:1009A00023691B021A436A602A688A4302432A6049
:1009B000FFF744FFE96809060A0F00E08CE1BF4930
:1009C000895CC840BE490860BE480068FFF736FE33
:1009D000002873D120E0FFF70FFEC01B0228AFD81C
:1009E00028684007F7D568681F21090288432169F4
:1009F0000902084368600FE028684008400028604A
:100A0000FFF7FAFD074604E0FFF7F6FDC01B0228DA
:100A100096D828684007F7D42078C00660D5002E05
:100A20000CD0A06900284AD02868FF210131084372
:100A30002860FFF7E1FD07462EE0C2E02868800548
:100A400002D5A0690028A6D0686807214903884319
:100A5000216A084368606868217F0002000A09066D
:100A600008436860206A410B0120C003491C88408C
:100A7000E96809060A0F9149895CC84090490860F5
:100A800090480068FFF7DAFD002817D128E0FFF74B
:100A9000B3FDC01B0228A2D828688005F7D5686876
:100AA000072149038843216A084368606868217FF9
:100AB0000002000A09060843686011E0E3E02968C3
:100AC000FF20013081432960FFF796FD074604E0CF
:100AD000FFF792FDC01B022873D828688005F7D461
:100AE0002078794F000724D560690028386910D034
:100AF000012108433861FFF77FFD009005E0FFF713
:100B00007BFD0099401A02285BD838698007F6D52A
:100B10000FE0400840003861FFF76EFD009005E0EF
:100B2000FFF76AFD0099401A02284AD83869800701
:100B3000F6D42078400767D500200190A86BC0004C
:100B400006D4A96B012000070143A963012001908D
:100B50005E480168C90512D4024611688015014338
:100B60001160FFF749FD009005E0FFF745FD009992
:100B7000401A642825D855480068C005F5D5FF20DF
:100B8000A2680130824203D139690143396111E021
:100B900001218902002A07D005231B029A4203D1B2
:100BA0003A690A433A61EFE73A6982433A61386940
:100BB00088433861A06800280FD0FFF71DFD009022
:100BC00007E05FE0FFF718FD0099411A40488142B5
:100BD00058D838698005F5D50EE0FFF70DFD009077
:100BE00007E0FFF709FD01460098091A38488142DD
:100BF00048D838698005F4D40198002804D0A86B3F
:100C0000012109078843A863606A002866D00C2E7A
:100C10003ED001273F060228286805D0B843286047
:100C2000FFF7EAFC04462FE0B8432860FFF7E4FC36
:100C3000064604E0FFF7E0FC801B022822D8286863
:100C40008001F7D4E16AA06AEA680843216BFD23BA
:100C50001B049A4311430843E8602868384328601E
:100C6000FFF7CAFC044604E0FFF7C6FC001B02289D
:100C700008D828688001F7D530E0FFF7BDFC001BDD
:100C8000022801D90320FEBD28688001F5D425E0A3
:100C90000128F8D0E86801210904A26A01409142C4
:100CA0001AD10F218904E26A0140914214D1032133
:100CB00089050840216B0DE0001002404C36000809
:100CC0000C00002004000020401002400070004092
:100CD00088130000884201D00120FEBD0020FEBD27
:100CE000094910B5401E884201D9012010BD074CAA
:100CF00060610321081F00F0B9F80020A0610720FF
:100D00002061002010BD0000FFFFFF0000E000E0B8
:100D1000FEE70000F0B587B014216846FFF737FA08
:100D20002148C16A01252943C162C16A2940059150
:100D3000C26A02210A43C262C06AFF240840052633
:100D4000C53436070590002221463046FFF74DFC9A
:100D5000164F002203213846FFF747FC0094002479
:100D600001950294694630460394FFF78DFB2820D5
:100D700000900194694602943046FFF785FB0326F4
:100D8000029469463846009601950394FFF77CFB70
:100D9000C0200090122001A961C16946384604951F
:100DA000FFF772FB07B0F0BD0010024000040050D6
:100DB000FEE77047704710B5FFF724FC10BD000038
:100DC00010B592B034216846FFF7E1F914210DA85F
:100DD000FFF7DDF9174801680322D2029143C214DC
:100DE00089180160012102200391102100900491D3
:100DF000099040040B90000100240C900A9468466E
:100E0000FFF75AFD002801D072B6FEE70F200D90C3
:100E100003200E900120800210900F940121119464
:100E20000DA8FFF73DFC002801D072B6FEE712B016
:100E300010BD0000007000407047F8B5040C8BB284
:100E4000264682B25E430D0C1046370C58433604DA
:100E500080190021794116466E43370C36048019FB
:100E6000794126466E438919F8BD00008307FF22A9
:100E7000DB0E9A408907090E9940002808DB830899
:100E800009489B001818036893430B43036070479D
:100E90000007000F0838830804489B001818C3692E
:100EA00093430B43C361704700E400E000ED00E0B2
:100EB00002E008C8121F08C1002AFAD17047704723
:100EC000002001E001C1121F002AFBD1704700225F
:100ED0000523DB0204E00021491C9942FCD3521C8B
:100EE0008242F8D370470000FFF794FBFFF768FFDA
:100EF000FFF710FFFF250E4CF535FFF792F90D486F
:100F0000FFF720FAFFF782F92046FFF7E0FFFFF72F
:100F100088F90948FFF7E8F9FFF778F92846FFF75D
:100F2000D6FFFFF77EF9FFF721FAFFF76FF9E4E745
:100F3000DC050000C42200083C0F0008FFFFFFFF93
:100F4000FFFFFFFFFFFFFFFFFFFFFFFFFFFFFFFFB1
:100F5000FFFFFFFFFFFFFFFFFFFFFFFFFFFFFFFFA1
:100F6000FFFFFFFFFFFFFFFFFFFFFFFFFFFFFFFF91
:100F7000FFFFFFFFFFFFFFFFFFFFFFFFFFFFFFFF81
:100F8000FFFFFFFFFFFFFFFFFFFFFFFFFFFFFFFF71
:100F9000FFFFFFFFFFFFFFFFFFFFFFFFFFFFFFFF61
:100FA000FFFFFFFFFFFFFFFFFFFFFFFFFFFFFFFF51
:100FB000FFFFFFFFFFFFFFFFFFFFFFFFFFFFFFFF41
:100FC000FFFFFFFFFFFFFFFFFFFFFFFFFFFFFFFF31
:100FD000FFFFFFFFFFFFFFFFFF00000000FFFFFF1D
:100FE000FFFFFFFFFFFFFFFFFFFFFFFFFFFFFFFF11
:100FF000FFFF7FFFFFFEFFFFFFFFFFFFFFFFFFFF82
:10100000FFFFFFFFFFFFFFFFFE7FFF6EF7FFFAFF0F
:10101000FFFFFFFFFFFFFFFFCFFFFFFFFFFFFFFF10
:10102000FFFE7FFF776FE006FFFFFFFFFFFFFFFF81
:10103000FFCFFFFFFFFFFFFFFFFFFE7FFF7FDBEB29
:10104000FEFFFFFFFFFFFFFFFFFFCFFFFFFFFFFFE1
:10105000FFFFFFFE7FFF7F03EBBAFFFFFFFFFFFFF6
:10106000FFFFFFCFFFFFFFFFFFFFFFFFFE7FFF41FF
:101070007BE09AFFFFFFFFFFFFFFFFFFCFFFFFFFB8
:10108000FFFFFFFFFFFE7FFF5503EAAAFFFFFFFF01
:10109000FFFFFFFFFFCFFFFFFFFFFFFFFFFFFE7F11
:1010A000FF557BCAB6FFFFFFFFFFFFFFFFFFCFFF2C
:1010B000FFFFFFFFFFFFFFFE7FFF5503EAB6FFFFC5
:1010C000FFFFFFFFFFFFFFCFFFFFFFFFFFFFFFFF60
:1010D000FE7FFF417BE0AAFFFFFFFFFFFFFFFFFF57
:1010E000CFFFFFFFFFFFFFFFFFFE7FFF7F03EB9AB6
:1010F000FFFFFFFFFFFFFFFFFFCFFF7FFFFFFFFFB0
:10110000FFFFFE7FFF7FFBEBFAFFFFFFFFFFFFFF0D
:10111000FFFFCFFF0FFFFFFFFFFFFFFE7FFF7FFF00
:10112000FFFEFFFFFFFFFFFFFFFFFFCFFF01FFFFFE
:10113000FFFFFFFFFE7FFF00000000FFFFFFFFFF3C
:10114000FFFFFFFFCFFF70FFFFFFFFFFFFFE7FFFEF
:10115000FFFFFFFFFFFFFFFFFFFFFFFFFFCFFF03CB
:10116000FFFFFFFFFFFFFE7FFFFFFFFFFFFFFFFF10
:10117000FFFFFFFFFFFFCFFF3FFFFFFFFFFFFFFE70
:101180007FFFFFFFFFFFFFFFFFFFFFFFFFFFFFCF1F
:10119000FF0FFFFFFFFFFFFFFE7FFFFFFFFFFFFFD0
:1011A000FFFFFFFFFFFFFFFFCFFF01FFFFFFFFFF7D
:1011B000FFFE7FFFFFFFFFFFFFFFFFFFFFFFFFFFC0
:1011C000FFCFFF70FFFFFFFFFFFFFE7FFFFFFFFF6F
:1011D000FFFFFFFFFFFFFFFFFFFFCFFF07FFFFFF47
:1011E000FFFFFFFE7FFFFFFFFFFFFFFFFFFFFFFF90
:1011F000FFFFFFCFFF3FFFFFFFFFFFFFFE7FFFFF70
:10120000FFFFFFFFFFFFFFFFFFFFFFFFCFFF7FFF9E
:10121000FFFFFFFFFFFE7FFFFFFFFFFFFFFFFFFF5F
:10122000FFFFFFFFFFCFFF7FFFFFFFFFFFFFFE7FFF
:10123000FFFFFFFFFFFFFFFFFFFFFFFFFFFFCFFFEE
:101240000FFFFFFFFFFFFFFE7FFFFFFFFFFFFFFF1F
:10125000FFFFFFFFFFFFFFCFFF01FFFFFFFFFFFFCC
:10126000FE7FFFFF000000007E000000007FFFFF08
:10127000CFFF70FFFFFFFFFFFFFE7FFFFE000000BC
:10128000003C000000003FFFFFCFFF03FFFFFFFF18
:10129000FFFFFE7FFFFC0000000018000000001FA1
:1012A000FFFFCFFF3FFFFFFFFFFFFFFE7FFFFC00C1
:1012B00000000008000000001FFFFFCFFF0FFFFF2E
:1012C000FFFFFFFFFE7FFFE60000000008000000B8
:1012D0000033FFFFCFFF01FFFFFFFFFFFFFE7FFF98
:1012E000C300000000080000000061FFFFCFFF7096
:1012F000FFFFFFFFFFFFFE7FFF81800000001C005B
:10130000000000C1FFFFCFFF07FFFFFFFFFFFBFE55
:101310007FFF80C0000000360000000181FFFFCF8A
:10132000FF3FFFFFFFFFFFFBFE7FFF80600000002D
:10133000630000000301FFFFCFFF7FFFFFFFFFFC03
:10134000F3FE7FFF8030000000C18000000601FF37
:10135000FFCFFF7FFFFFFFFFFCF7FE7FFF8018003E
:10136000000180C000000C01FFFFCFFF0FFFFFFF57
:10137000FFF8CFFE7FFF800C000003006000001824
:1013800001FFFFCFFF01FFFFFFFFF81FFE7FFF8080
:1013900007FFFFFE003FFFFFF001FFFFCFFF70FFE1
:1013A000FFFFFC003FFE7FFF8003FFFFFE003FFFCB
:1013B000FFE001FFFFCFFF03FFFFFFFC003FFE7FC9
:1013C000FF8003FFFFFE003FFFFFE001FFFFCFFFB5
:1013D0003FFFFFFFFFF11FFE7FFF8003FFFFFE00C7
:1013E0003FFFFFE001FFFFCFFF0FFFFFFFFFF39F76
:1013F000FE7FFF8003FFFFFE003FFFFFE001FFFFD6
:10140000CFFF01FFFFFFFFE7CFFE7FFF8003FFFF5E
:10141000FE003FFFFFE001FFFFCFFF70FFFFFFFF78
:10142000FFE3FE7FFF8003FFFFFE003FFFFFE001C1
:10143000FFFFCFFF07FFFFFFFFFFF3FE7FFF8003EC
:10144000FFFFFE003FFFFFE001FFFFCFFF3FFFFF79
:10145000FFFFFFF1FE7FFF8003FFFFFE003FFFFF66
:10146000E001FFFFCFFF7FFFFFFFFFFFF1FE7FFFE8
:101470008003FFFFFE003FFFFFE001FFFFCFFFFF04
:10148000FFFFFFFFFFF9FE7FFF8003FFFFFE003F2E
:10149000FFFFE001FFFFCFFFFCFFFFFFFFFFF9FEB3
:1014A0007FFF8003FFFFFE003FFFFFE001FFFFCF54
:1014B000FFFCFFFFFFFFFFFFFE7FFF8003FFFFFE3C
:1014C000003FFFFFE001FFFFCFFFFFFFFFFFFFFF38
:1014D000FFFE7FFF8003FFFFFE003FFFFFE001FFF5
:1014E000FFCFFFFFFFFFFFFFFFFFFE7FFF8003FF38
:1014F000FFFE003FFFFFE001FFFFCFFFC3FFFFFF45
:10150000FFFFFFFE7FFF8003FFFFFE003FFFFFE0C6
:1015100001FFFFCFFF81FFFFFFFFFFFFFE7FFF8087
:1015200003FFFFFE003FFFFFE001FFFFCFFF3CFF97
:10153000FFFFFFFFF3FE7FFF8003FFFFFE003FFF83
:10154000FFE001FFFFCFFF7EFFFFFFFFCE07FE7F23
:10155000FF8003FFFFFE003FFFFFE001FFFFCFFF23
:101560007EFFFFFFFFE6C7FE7FFF8007FFFFFE0055
:101570003FFFFFF001FFFFCFFFBDEFFFFFFFFFE7E2
:10158000FE7FFF800C000003006000001801FFFFD9
:10159000CFFF800FFFFFFFFFA7FE7FFF8018000037
:1015A0000180C000000C01FFFFCFFE000FFFFFFF16
:1015B0008D37FE7FFF8030000000C18000000601F3
:1015C000FFFFCFFFFFEFFFFFFF9137FE7FFF806040
:1015D000000000630000000301FFFFCFFFFFFFFFDB
:1015E000FFFF8177FE7FFF80C00000003600000013
:1015F0000181FFFFCFFFBEFFFFFFFC1973FE7FFFDE
:1016000081800000001C00000000C1FFFFCFE70048
:10161000FFFFFFFD8003FE7FFFC300000000080006
:1016200000000061FFFFCFE700FFFFFFFFB27BFE7E
:101630007FFFE600000000080000000033FFFFCF3E
:10164000FFFEFFFFFFFF3678FE7FFFFC000000007B
:1016500008000000001FFFFFCFFFFFFFFFFFFFFE9E
:101660007CFE7FFFF80000000018000000000FFF64
:10167000FFCFFF7FFFFFFFFFFFFCFE7FFFFC0000AF
:1016800000003C000000001FFFFFCFFF1FEFFFFF27
:10169000FFFFFCFE7FFFFE000000007E0000000058
:1016A0003FFFFFCFFF07EFFFFFFFFFFCFE7FFFFFC6
:1016B000FFFFFFFFFFFFFFFFFFFFFFFFCFFF619F68
:1016C000FFFFFFFFFFFE7FFFFFFFFFFFFFFFFFFFAB
:1016D000FFFFFFFFFFCFFFF87FFFFFFFFFFFFE7F52
:1016E000FFFFFFFFFFFFFFFFFFFFFFFFFFFFCFFF3A
:1016F000F9FFFFFFFFFFFFFE7FFFFFFFFFFFFFFF81
:10170000FFFFFFFFFFFFFFCFFF67FFFFFFFFFEFFB2
:10171000FE7FFFFFFFFFFFFFFFFFFFFFFFFFFFFF5A
:10172000CFFF1FFFFFFFFFFEFFFE7FFFFF00000058
:10173000007E000000007FFFFFCFFF7FFFFFFFFF65
:10174000FEFFFE7FFFFE000000003C000000003FA7
:10175000FFFFCFFF01FFFFFFFFFEFFFE7FFFFC004B
:1017600000000018000000001FFFFFCFFF00FFFF78
:10177000FFFFFC9FFE7FFFFC000000000800000050
:10178000001FFFFFCFFFFEFFFFFFFF9D8FFE7FFFCC
:10179000E600000000080000000033FFFFCFFFFE5E
:1017A000FFFFFFFFB54DFE7FFFC3000000000800F4
:1017B00000000061FFFFCFFFFEFFFFFFFF851DFE62
:1017C0007FFF81800000001C00000000C1FFFFCFF0
:1017D000FF7DFFFFFFFE191DFE7FFF80C0000000A0
:1017E000360000000181FFFFCFFF00FFFFFFF81967
:1017F0007CFE7FFF8060000000630000000301FFAB
:10180000FFCFFF00FFFFFFFE29FCFE7FFF803000BF
:101810000000C18000000601FFFFCFFFFEFFFFFFB9
:10182000FE6000FE7FFF801800000180C000000CF9
:1018300001FFFFCFFFBEFFFFFFFF79FFFE7FFF80AD
:101840000C000003006000001801FFFFCFFF00FF45
:10185000FFFFFFF9FFFE7FFF8007FFFFFE003FFF56
:10186000FFF001FFFFCFFF00FFFFFFFFF9FFFE7F4B
:10187000FF8003FFFFFE003FFFFFE001FFFFCFFF00
:10188000BEFFFFFFFFF9FFFE7FFF8003FFFFFE00AB
:101890003FFFFFE001FFFFCFFFBFFFFFFFFFF9FFAB
:1018A000FE7FFF8003FFFFFE003FFFFFE001FFFF21
:1018B000CFFF7FFFFFFFFFFDFFFE7FFF8003FFFFE6
:1018C000FE003FFFFFE001FFFFCFFF7EFFFFFFFFB6
:1018D000FFFFFE7FFF8003FFFFFE003FFFFFE001F1
:1018E000FFFFCFFF00FFFFFFFFFFFFFE7FFF800333
:1018F000FFFFFE003FFFFFE001FFFFCFFF80FFFF84
:10190000FFFFFFFFFE7FFF8003FFFFFE003FFFFFA3
:10191000E001FFFFCFFFFEFFFFFFFFFF77FE7FFF2E
:101920008003FFFFFE003FFFFFE001FFFFCFFFEF5F
:10193000FFFFFFFFFF67FE7FFF8003FFFFFE003F0B
:10194000FFFFE001FFFFCFFFEFFFFFFFFFE14FFED3
:101950007FFF8003FFFFFE003FFFFFE001FFFFCF9F
:10196000FFEFFFFFFFFFE01FFE7FFF8003FFFFFE93
:10197000003FFFFFE001FFFFCFFFEFFFFFFFFFC0D2
:1019800001FE7FFF8003FFFFFE003FFFFFE001FF3E
:10199000FFCFFFFFFFFFFFFE0001FE7FFF8003FF81
:1019A000FFFE003FFFFFE001FFFFCFFFFFFFFFFF54
:1019B000FFD0BFFE7FFF8003FFFFFE003FFFFFE081
:1019C00001FFFFCFFFC3FFFFFFFFDCEFFE7FFF80C4
:1019D00003FFFFFE003FFFFFE001FFFFCFFF81FF9E
:1019E000FFFFFFFE67FE7FFF8003FFFFFE003FFF5C
:1019F000FFE001FFFFCFFF3CFFFFFFFFF20FFE7F85
:101A0000FF8003FFFFFE003FFFFFE001FFFFCFFF6E
:101A10007EFFFFFFFFF20FFE7FFF8003FFFFFE0050
:101A20003FFFFFE001FFFFCFF77EFFFFFFFFE04F2B
:101A3000FE7FFF8007FFFFFE003FFFFFF001FFFF7B
:101A4000CFF7BDFFFFFFFFE48FFE7FFF800C00009C
:101A500003006000001801FFFFCFE000FFFFFFFF61
:101A6000E4AFFE7FFF801800000180C000000C0181
:101A7000FFFFCFE000FFFFFFFFF8AFFE7FFF8030EA
:101A8000000000C18000000601FFFFCFFFFEFFFF46
:101A9000FFFFFCC7FE7FFF806000000063000000C6
:101AA0000301FFFFCFFFBEFFFFFFFFFFFFFE7FFF32
:101AB00080C0000000360000000181FFFFCFE7007A
:101AC000FFFFFFFFFFFFFE7FFF81800000001C0083
:101AD000000000C1FFFFCFE700FFFFFFFFFFFFFE99
:101AE0007FFFC300000000080000000061FFFFCF7F
:101AF000FFFEFFFFFFFFFFFFFE7FFFE6000000008D
:101B0000080000000033FFFFCFFFFFFFFFFFFFFFD4
:101B1000FFFE7FFFFC0000000008000000001FFF28
:101B2000FFCFFFFFFFFFFFFFFFFFFE7FFFF800007B
:101B3000000018000000000FFFFFCFFF8CFFFFFF29
:101B4000FFFFFFFE7FFFFC000000003C00000000E4
:101B50001FFFFFCFFF6EFFFFFFFFFFFFFE7FFFFEB8
:101B6000000000007E000000003FFFFFCFFF66FF87
:101B7000FFFFFFE1FFFE7FFFFFFFFFFFFFFFFFFF14
:101B8000FFFFFFFFFFCFFF30FFFFFFFFE07FFE7F84
:101B9000FFFFFFFFFFFFFFFFFFFFFFFFFFFFCFFF85
:101BA000F1FFFFFFFFE73FFE7FFFFFFFFFFFFFFFAC
:101BB000FFFFFFFFFFFFFFCFFFFFFFFFFFFFCCBFD8
:101BC000FE7FFFFFFFFFFFFFFFFFFFFFFFFFFFFFA6
:101BD000CFFF7FEFFFFFFE001FFE7FFFFFFFFFFF36
:101BE000FFFFFFFFFFFFFFFFFFCFFE000FFFFFFE26
:101BF000000FFE7FFFFFFFFFFFFFFFFFFFFFFFC3A1
:101C0000FFFFCFFE000FFFFFFFC973FE7FFFFFFF47
:101C1000FFFFFFFFFFFFFFFF81FFFFCFFFBDEFFFD4
:101C2000FFFFCB73FE7FFFFFFFFFFFFFFFFFFFFF05
:101C3000FF81FFFFCFFF7EFFFFFFFFCF33FE7FFF60
:101C4000FFFFFFFFFFFFFFFFFFFF81FFFFCFFF7ED3
:101C5000FFFFFFFFC0F3FE7FFFFFFFFFFFFFFFFF60
:101C6000FFFFFF81FFFFCFFF3CFFFFFFFFC7F3FE3A
:101C70007FFFFFFFFFFFFFFFFFFFFFFFC3FFFFCF60
:101C8000FF81FFFFFFFFFFF3FE7FFFFFFFFFFFFF6F
:101C9000FFFFFFFFFFFFFFFFCFFFC3FFFFFFFFFFC0
:101CA000E3FE7FFFFFFFFFFFFFFFFFFFFFFFFFFFE1
:101CB000FFCFFFFFFFFFFFFFFF07FE7FFFFFFFFFDD
:101CC000FFFFFFFFFFFFFFFFFFFFCFF7FEFFFFFF5D
:101CD000FFFFE7FE7FFFFFFFFFFFFFFFFFFFFFFFAD
:101CE000FFFFFFCFE000FFFFFFFFFFFFFE7FFFFFD3
:101CF000FFFFFFFFFFFFFFFFFFFFFFFFCFE000FF42
:101D0000FFFFFFFFFFFE7FFFFFFFFFFFF800001C4C
:101D100000001FFFFFCFFFFEFFFFFFFFFFFFFE7F63
:101D2000FFFFFFFFFFF000000800000FFFFFCFFFE5
:101D3000FFFFFFFFFFFFFFFE7FFFE1FFFFFFD80078
:101D4000000800001BFFFFCFFFB9FFFFFFFFFEFFF2
:101D5000FE7FFF80FFFFFF8C00001C000031FFFFB3
:101D6000CFFF70FFFFFFFFFCFFFE7FFF1EFFFFFFA7
:101D700086000036000061FFFFCFFF76FFFFFFFF08
:101D8000FDFFFE7FFF3CFFFFFF830000630000C1FB
:101D9000FFFFCFFF76FFFFFFFF9DFFFE7FFF71FF7D
:101DA000FFFF818000C1800181FFFFCFFF6DFFFF3A
:101DB000FFFF3DFFFE7FFF03FFFFFF80FFFF80FF70
:101DC000FF01FFFFCFFF01FFFFFFFF79FBFE7FFF5A
:101DD0000FFFFFFF80FFFF80FFFF01FFFFCFFF80AE
:101DE000FFFFFFFE79FBFE7FFFFFF87FFF80FFFF15
:101DF00080FFFF01FFFFCFFFFEFFFFFFFEE3F9FEC5
:101E00007FFFFF800FFF80FFFF80FFFF01FFFFCFFD
:101E1000FF7FFFFFFFFE8001FE7FFFFE0007FF80C8
:101E2000FFFF80FFFF01FFFFCFFF1FEFFFFFFE332C
:101E3000FFFE7FFFF80003FF80FFFF80FFFF01FF31
:101E4000FFCFFF07EFFFFFFE73FFFE7FFFF00301F1
:101E5000FF80FFFF80FFFF01FFFFCFFF619FFFFFBC
:101E6000FFF3FFFE7FFFE03FC1FF80FFFF80FFFF2A
:101E700001FFFFCFFFF87FFFFFFFF3FFFE7FFFC1F2
:101E8000FFE1FF80FFFF80FFFF01FFFFCFFFF9FFB2
:101E9000FFFFFFF3FFFE7FFF87FFF1FF80FFFF8063
:101EA000FFFF01FFFFCFFF67FFFFFFFFFDFFFE7F8B
:101EB000FF9FFFF3FF80FFFF80FFFF01FFFFCFFFCA
:101EC0001FFFFFFFFFFFFFFE7FFF3FFFF3FF80FFCE
:101ED000FF80FFFF01FFFFCFFF7FFFFFFFFFFFFF3F
:101EE000FE7FFF3FFFF7FF80FFFF80FFFF01FFFF47
:101EF000CFFFFCFFFFFFFFFFFFFE7FFF1FFFE7FF9E
:101F0000818000C1800181FFFFCFFFFCFFFFFFFF49
:101F1000FFFFFE7FFF1FFFEFFF830000630000C194
:101F2000FFFFCFFFFFFFFFFFFFFFFFFE7FFF0FFF62
:101F3000DFFF86000036000061FFFFCFFFFFFFFFDD
:101F4000FFFFFFFFFE7FFF87FFFFFF8C00001C00ED
:101F50000031FFFFCFFFC3FFFFFFFFFFFFFE7FFF4B
:101F600087FFFFFFD800000800001BFFFFCFFF81A5
:101F7000FFFFFFFFFFFFFE7FFFCFFFFFFFF000002F
:101F80000800000FFFFFCFFF3CFFFFFFFFFFFFFE3A
:101F90007FFFFFFFFFFFF800001C00001FFFFFCFC7
:101FA000FF7EFFFFFFFFFFFFFE7FFFFFFFFFFFFF43
:101FB000FFFFFFFFFFFFFFFFCFFF7EFFFFFFFFFFE2
:101FC000FFFE7FFFFFFFFFFFFFFFFFFFFFFFFFFFA2
:101FD000FFCFFF3EFFFFFFFFFFFFFE7FFFFFFFFF83
:101FE000FFFFFFFFFFFFFFFFFFFFCFFFBDFFFFFF73
:101FF000FFFFFFFE7FFFFFFFFFFFFFFFFFFFFFFF72
:10200000FFFFFFCFFFFFFFFFFFFFFFFFFE7FFFFF91
:10201000FFFFFFFFFFFFFFFFFFFFFFFFCFFFBEFF41
:10202000FFFFFFFFFFFE7FFFFFFFFFFFFFFFFFFF41
:10203000FFFFFFFFFFCFFF00FFFFFFFFFFFFFE7F60
:10204000FFFFFFFFFFFFFFFFFFFFFFFFFFFFCFFFD0
:1020500000FFFFFFFFFFFFFE7FFFFFFFFFFFFFFF10
:10206000FFFFFFFFFFFFFFCFFFBEFFFFFFFFFFFFF1
:10207000FE7FFFFFFFFFFFFFFFFFFFFFFFFFFFFFF1
:10208000CFFFBFFFFFFFFFFFFFFE7FFFFFFFFFFF51
:10209000FFFFFFFFFFFFFFFFFFCFFF7FFFFFFFFF00
:1020A000FFFFFE7FFFFFFFFFFFFFFFFFFFFFFFFFC1
:1020B000FFFFCFFF7EFFFFFFFFFFFFFE7FFF000060
:1020C0000000FFFFFFFFFFFFFFFFFFCFFF00FFFF4D
:1020D000FFFFFFFFFE7FFF7FFFFFFEFFFFFFFFFF12
:1020E000FFFFFFFFCFFF80FFFFFFFFFFFFFE7FFF30
:1020F0005DF7FFFAFFFFFFFFFFFFFFFFFFCFFFFED0
:10210000FFFFFFFFFFFFFE7FFF6EEFE006FFFFFF19
:10211000FFFFFFFFFFFFCFFFFFFFFFFFFFFFFFFE00
:102120007FFF7FBBEBFEFFFFFFFFFFFFFFFFFFCF48
:10213000FFFFFFFFFFFFFFFFFE7FFF60DBEBBAFF4C
:10214000FFFFFFFFFFFFFFFFCFFFFFFFFFFFFFFFCF
:10215000FFFE7FFF6AFBE09AFFFFFFFFFFFFFFFF2D
:10216000FFCFFFFFFFFFFFFFFFFFFE7FFF6A03EAD6
:10217000AAFFFFFFFFFFFFFFFFFFCFFFFFFFFFFFF4
:10218000FFFFFFFE7FFF6AFBCAB6FFFFFFFFFFFFF7
:10219000FFFFFFCFFFFFFFFFFFFFFFFFFE7FFF6A95
:1021A00003EAB6FFFFFFFFFFFFFFFFFFCFFFFFFFC9
:1021B000FFFFFFFFFFFE7FFF6AFBE0AAFFFFFFFFBD
:1021C000FFFFFFFFFFCFFFFFFFFFFFFFFFFFFE7FD0
:1021D000FF60DBEB9AFFFFFFFFFFFFFFFFFFCFFF7B
:1021E000FFFFFFFFFFFFFFFE7FFF7FBBEBFAFFFF5D
:1021F000FFFFFFFFFFFFFFCFFFFFFFFFFFFFFFFF1F
:10220000FFFFFF7FFFFFFEFFFFFFFFFFFFFFFFFF5F
:10221000FFFFFFFFFFFFFFFFFFFFFFFF00000000CA
:10222000FFFFFFFFFFFFFFFFFFFFFFFFFFFFFFFFBE
:10223000FFFFFFFFFFFFFFFFFFFFFFFFFFFFFFFFAE
:10224000FFFFFFFFFFFFFFFFFFFFFFFFFFFFFFFF9E
:10225000FFFFFFFFFFFFFFFFFFFFFFFFFFFFFFFF8E
:10226000FFFFFFFFFFFFFFFFFFFFFFFFFFFFFFFF7E
:10227000FFFFFFFFFFFFFFFFFFFFFFFFFFFFFFFF6E
:10228000FFFFFFFFFFFFFFFFFFFFFFFFFFFFFFFF5E
:10229000FFFFFFFFFFFFFFFFFFFFFFFFFFFFFFFF4E
:1022A000FFFFFFFFFFFFFFFFFFFFFFFFFFFFFFFF3E
:1022B000FFFFFFFFFFFFFFFFFFFFFFFFFFFFFFFF2E
:1022C000FFFFFFFFFFFFFFFFFFFFFFFFFFFFFFFF1E
:1022D000FFFFFFFFFFFFFFFFFF8000007FFFFFFF0B
:1022E000FFFFFFFFFFFFFFFFFFFFFFFFFFFFFFFFFE
:1022F000FFFF8000007FFFFFFFFFFFFFFFFFFFFFEB
:10230000FFFFFFFFFFFFFFFFFFFFFF8000007FFFDA
:10231000FFFFFFFFFFFFFFFFFFFFFFFFFFFFFFFFCD
:10232000FFFFFFFF8000007FFFFFFFFFFFFFFFFFBA
:10233000FFFFFFFFFFFFFFFFFFFFFFFFFF8000002A
:102340007FFFFFFFFFFFFFFFFFFFFFFFFFFFFFFF1D
:10235000FFFFFFFFFFFF8000007FFFFFFFFFFFFF8A
:10236000FFFFFFFFFFFFFFFFFFFFFFFFFFFFFF80FC
:1023700000007FFFFFFFFFFFFFFFFFFFFFFFFFFFEB
:10238000FFFFFFFFFFFFFFFF8000007FFFFFFFFF5A
:10239000FFFFFFFFFFFFFFFFFFFFFFFFFFFFFFFF4D
:1023A000FF8000007FFFFFFFFFFFFFFFFFFFFFFF3A
:1023B000FFFFFFFFFFFFFFFFFFFF8000007FFFFF2A
:1023C000FFFFFFFFFFFFFFFFFFF7FFF7DF7FFFFFCD
:1023D000FFFFFF8000007FFFFFFFFFFFFFFFFFFF0A
:1023E000FFFFEFFFF7BF7FFFFFFFFFFF8000007FD2
:1023F000FFFFFFFFFFFFFFFFFFFFFE000780007FE3
:10240000F3B7FFFFFF8000007FFFFFFFFFFFFFFF2D
:10241000FFFFFFF9FFFFF7BFFFFCB7FFFFFF8000E3
:10242000007FFFFFFFFFFFFFFFFFFFFFFFBDAFFFCD
:10243000DF7FFF01FFFFFF8000007FFFFFFFFFFF47
:10244000FFFFFFFFFFFE0D6FEEDF7FFE37FFFFFF99
:102450008000007FFFFFFE3FFFFFFFFFFFFFFDABA0
:102460004FE6C2FFF9B7FFFFFF8000007FFFFFFECE
:102470003FFFFFFFFFFFFFF9A6B7E81AFFE7B7FF2F
:10248000FFFF8000007FFFFFFE7FFFFFFFFFFFFFDA
:10249000FD8977AEDDFFFFFFFFFFFF8000007FFFBC
:1024A000FFFC000FFFFFFFFFFFFD2C0FCED9FFFF4A
:1024B000FFFFFFFF8000007FFFFFFC000FFFFFFF1B
:1024C000FFFFFCACFFECD6FFFFFFFFFFFF8000002B
:1024D0007FFFFFFC000FFFFFFFFFFFFFAB3FE2CEE0
:1024E000FFFFFFFFFFFF8000007FFFFFFFFFFFFFF9
:1024F000FFFFFFFFFF87DFEEDF7FFFFFFF83FF8030
:1025000000007FFFFFFFFFFFFFFFFFFFFFFFFFFF59
:10251000FEDFFFFF87FF83FF8000007FFFFFFFFFDD
:10252000FFFFFFFFFFFFFFFFEFFFFFFFFF07FFC101
:10253000FF8000007FFFFFFFFFFFFFFFFFFFFFFFA8
:10254000EFEFFFFFFFFE079FE1FF8000007FFFFF2F
:10255000FFFF8FFFFFFFFFFFFEAB5FE000FFFE7F8F
:102560009FF1FF8078007FFFFFFFFF8FFFFFFFFFDE
:10257000FFFEAA5FEFFDFFFE7F1FF1FF807F807FE0
:10258000FFFFFFFF8FFFFFFFFFFFFEA277EFFDFFC3
:10259000FE7E0FF3FF8003807FFFFFFFFFFFFFFF43
:1025A000FFFFFFFEA177EFFDFFFE3C0FE3FF801E64
:1025B000007FFFFFFFFFFFFFFFFFFFFFFEA977EF99
:1025C000FDFFFE000383FF8078007FFFFFFFFFFF1A
:1025D000FFFFFFFFFFFC0B0FEFFDFFFE00C007FF3B
:1025E000807F807FFFFFFC031FFFFFFFFFFFFEAB2D
:1025F0007FEFFDFFFF01C00FFF8003807FFFFFFC27
:10260000038FFFFFFFFFFFFEA93FEFFDFFFFFFF07E
:102610003FFF800F007FFFFFFC038FFFFFFFFFFFE7
:10262000FEA65FEFFDFFFFFFFFFFFF803C007FFF87
:10263000FFFC638FFFFFFFFFFFFEAF5FE000FFFFC8
:10264000FFFFFFFF8070007FFFFFFC630FFFFFFFB6
:10265000FFFFFFEFAFFFFFFFFE03FFFFFF80400024
:102660007FFFFFFC601FFFFFFFFFFFFFFFFFFFFF7C
:10267000FFFE03FFFFFF8078007FFFFFFC701FFF5E
:10268000FFFFFFFFFFFFFFFFFFFFFE1FFFF1FF80C8
:102690007F807FFFFFFFF87FFFFFFFFFFFFFDFDF90
:1026A000FDFDFFFE1FFF81FF8003807FFFFFFFFF17
:1026B000FFFFFFFFFFFFFFFFFFFFFFFFFE3FFE01EA
:1026C000FF801E007FFFFFFFFC7FFFFFFFFFFFFF7C
:1026D000FFFFFFFFFFFE3FF007FF8078007FFFFF57
:1026E000FFF87FFFFFFFFFFFFFFFFFFFFFFFFE3F42
:1026F000C03FFF807F807FFFFFFFF07FFFFFFFFF76
:10270000FFFFFFFFFFFFFFFE3F01FFFF8003807F12
:10271000FFFFFFC27FFFFFFFFFFFFFFFFFFFFFFF86
:10272000FE380FFFFF800F007FFFFFFF8E7FFFFF50
:10273000FFFFFFFFFFFFFFFFFFFE207FFFFF803C4B
:10274000007FFFFFFE1E7FFFFFFFFFFFFFFFFFFF7A
:10275000FFFFFE01FFFFFF8070007FFFFFFC000F07
:10276000FFFFFFFFFFFEFF1FE1FDFFFE0FFFFFFF6B
:102770008040007FFFFFFC000FFFFFFFFFFFFDFC1D
:10278000DFDEFDFFFE3FFFFFFF8078007FFFFFFCE5
:10279000000FFFFFFFFFFFFDFDDFDF7DFFFFFFFFFE
:1027A000FFFF807F807FFFFFFFFE7FFFFFFFFFFFB8
:1027B000FDFBDFDFBDFFFFFFFFFFFF8003807FFF2B
:1027C000FFFFFE7FFFFFFFFFFFFCE7DFDF99FFFF5B
:1027D000FFE1FFFF801E007FFFFFFFFFFFFFFFFF06
:1027E000FFFFFF1FDFFFE7FFFFFFE1FFFF80780034
:1027F0007FFFFFFFFFFFFFFFFF3FFFFFFFFFFFFF29
:10280000FFFFFFE1FFFF807F807FFFFFFFFFFFFFF4
:10281000FFE03FFFFF003FC001FFFFFFF3FFFF802E
:1028200003807FFFFFFFFFFFFFFE003FFFFCFFDF96
:10283000DFBFFFFFFFFFFFFF800F007FFFFFFFFFF6
:10284000FFFFC0003FFFFDFFDFDFBFFFFFFFFFFF18
:10285000FF803C007FFFFFFFFFFFFC00003FFFFD0C
:10286000FFDFDFBFFFFFF01FFFFF8070007FFFFF74
:10287000FFFFFFF0000C3FFFFCFF9FDF7FFFFFC06B
:1028800007FFFF8040007FFFFFFC000FF000FC3FD0
:10289000FFFF007FE0FFFFFF0003FFFF8001807F5D
:1028A000FFFFFC000FF010FC3FFFFFFFFFFFFFFFEB
:1028B000FE0701FFFF8001807FFFFFFC000FF0F0AB
:1028C000FC3FFFFFFFFFFFFFFFFE3FE1FFFF800038
:1028D000007FFFFFFFFFFFF0F0FC3FFFFF003FC066
:1028E00001FFFE7FF0FFFF8000007FFFFFFFFFFF83
:1028F000F0F0FC3FFFFCFFDFFFFFFFFE7FF8FFFF74
:10290000801F007FFFFFFFFFFFF0F0FC3FFFFDFF98
:10291000DFFFFFFFFE7FF8FFFF803F807FFFFFFCB0
:10292000000FF0F0FC3FFFFDFFDFFFFFFFFE3FF178
:10293000FFFF8071807FFFFFFC000FF0F0FC3FFF86
:10294000FCFF9FFFFFFFFE0FE1FFFF8061807FFF25
:10295000FFFC000FF0F0FC3FFFFF007FFFFFFFFEDA
:102960000003FFFF8061707FFFFFFE0FFFF0F0FCB0
:102970003FFFFFFFFFFFFFFFFF0007FFFF803FF06C
:102980007FFFFFFF87FFF0F0FC3FFFFFFFFFFFFF30
:10299000FFFFC01FFFFF807F807FFFFFFFE1FFF091
:1029A000F0FCFFFFFFFFFFFFFFFFFFFFFFFFFF80C8
:1029B00070007FFFFFFFF07FF0F3FFFFFFFFDF7F7F
:1029C000FFFFFFFFFFFFFFFF8000007FFFFFFFFC17
:1029D0001FF0FFFFFFFFFFE6FFFFFFFFFFFFFFFF0F
:1029E000FF8003807FFFFFFFFF0FF3FFCFFFFFFF9D
:1029F000F9FFFFFFFFFFF01FFFFF807F807FFFFFDA
:102A0000FC000FFFFF0FFFFFFFF5FFFFFFFFFFC001
:102A100007FFFF817C007FFFFFFC000FFFFF0FFF20
:102A2000FFFFEEFFFFFFFFFF0003FFFF8100307F8E
:102A3000FFFFFFFFFFFFFF0FFFFFFFDF7FFFFFFF36
:102A4000FE0701FFFF8078307FFFFFFFFFFFFFFFE2
:102A50000FFFFFFFFFFFFFFFFFFE3FE1FFFF807F54
:102A6000F07FFFFFFFFFFFFFFF0FFFFFFFFFFFFFF5
:102A7000FFFFFE7FF0FFFF8001E07FFFFFFFC0FF51
:102A8000FFFF0FFFFFFFFFFFFFFFFFFE7FF8FFFFCE
:102A90008007807FFFFFFF803FFFFF0FFFFFFEFFEC
:102AA0001FFFFFFFFE7FF8FFFF801E007FFFFFFF7D
:102AB000001FFFFF3FFFFFFDFCDFFFFFFFFE3FF1B9
:102AC000FFFF8078007FFFFFFE1E1FFFFFFFFFFF5D
:102AD000FDFDDFFFFFFFFE0FE1FFFF8060007FFFD6
:102AE000FFFE3F0FFFFFFF3FFFFDFBDFFFFFFFFE8E
:102AF0000003FFFF8007007FFFFFFC7F8FFFFFE0E9
:102B00003FFFFCE7DFFFFFFFFF0007FFFF807F8045
:102B10007FFFFFFC7F8FFFFE003FFFFF1FDFFFFFF8
:102B2000FFFFC01FFFFF8079807FFFFFFC7F8FFFCB
:102B3000C0003FFFFFFFFFFFFFFFFFFFFFFFFF8022
:102B400001807FFFFFFC7F8FFC0000FFFFFF003F45
:102B5000FFFFFFFFFFFFFFFF8001007FFFFFFC7F04
:102B60008FF0000FFFFFFCFFDFFFFFFFFFFFFFFF06
:102B7000FF8007807FFFFFFC3F1FF0003FFFFFFD4E
:102B8000FFDFFFFFFFFFFFFFFFFF807F807FFFFF73
:102B9000FFFFFFF01C3FFFFFFDFFDFFFFFFFFFFF19
:102BA000FFFFFF8078007FFFFFFFFFFFF0FC3FFF8C
:102BB000FFFCFF9FFFFFFFFFFFFFFFFF8000007F85
:102BC000FFFFFC000FF0FC3FFFFFFF007FFFFFFF58
:102BD000FFFFFFFFFF8003807FFFFFFC000FF0FC83
:102BE0003FFFFFFFFFFFFFFFFFFFFFFFFFFF807FB4
:102BF000807FFFFFFC000FF0FC3FFFFFFFFFFFFFA8
:102C0000FFF9FFFFFFFFFF807C007FFFFFFFE3FF77
:102C1000F0FC3FFFFFFF003FFFFFFCFFFFFFFFFF58
:102C20008030007FFFFFFFE3FFF0F83FFFFFFCFF76
:102C3000DFFFFFFE3FFFFFFFFF8060007FFFFFFF22
:102C4000E3FFF0F83FFFFFFDFFDFFFFFFF0FFFFF98
:102C5000FFFF8063807FFFFFFFE3FFF0707FFFFFD8
:102C6000FDFFDFFFFFFF83FFFFFFFF807F807FFF10
:102C7000FFFFE3FFF0007FFFFFFCFF9FFFFFFFC1AF
:102C8000FFFFFFFF803C007FFFFFFFE3FFF800FF37
:102C9000FFFFFF007FFFFFFFC0FFFFFFFF8000007F
:102CA0007FFFFFFC000FFC01FFFFFFFFFFFFFFFFA7
:102CB000FFE07FFFFFFF800C007FFFFFFC000FFEA7
:102CC00007FF3FFFFFFFFFFFFFFFE03FFFFFFF802A
:102CD0000C007FFFFFFC000FFFFFFE3FFFFFFFFF29
:102CE000FFFFFFF01FFFFFFF800C007FFFFFFFFFD4
:102CF000FFFFFFF83FFFFFFFFFFFFFFFF00FFFFFAA
:102D0000FF800C007FFFFFFFFFFFFFFFE03FFFFFA3
:102D1000FFFFFFFFFFF80FFFFFFF8000007FFFFFB7
:102D2000FFFFFFFFFF807FFFFFFFFFFFFFFFF807B1
:102D3000FFFFFF801F007FFFFFFFFFFFFFFE01FF80
:102D4000FFFFFFFFFFFFFFF807FFFFFF803F807FD0
:102D5000FFFFFFFFFFFFFC03FFFFFFFFFFF3FFFF8E
:102D6000F807FFFFFF8071807FFFFFFFFFFFFFF08D
:102D700007FFFFFFFFFFF8007FF807FFFFFF8061FD
:102D8000807FFFFFFFFFFFFFC007FFFFFFFFFFFE8A
:102D9000000FF807FFFFFF8073807FFFFFFFFFFF3B
:102DA000FF0087FFFFFFFFFFFF0003F80FFFFFFF9C
:102DB000803F807FFFFFFFFFFFFC0387FFFFFFFFD8
:102DC000FFFF8000F00FFFFFFF81FE007FFFFFFF8E
:102DD000FFFFF80787FFFFFFFFFFFFC000701FFF27
:102DE000FFFF81C0007FFFFFFFFFFFF01F87FFFF96
:102DF000FFFFFFFFE000701FFFFFFF8003807FFFEA
:102E0000FFFFFFFFF07F87FFFFFFFFFFFFF00030B6
:102E10003FFFFFFF807F807FFFFFFFFFFFF0008706
:102E2000FFFFFFFFFFFFF800107FFFFFFF817C0027
:102E30007FFFFFFFFFFFF00001FFFFFFFFFFFFFE2F
:102E40000001FC03FFFF8101007FFFFFFFFFFFF098
:102E500000003FFFFFFFFFFFFF0003F0000FFF80B8
:102E600039807FFFFFFFFFFFFF80003FFFFE0FFF66
:102E7000FFFFC007C00003FF8079807FFFFFFFFFD7
:102E8000FFFFFF003FFFFC00FFFFFFF8070000000F
:102E9000FF806D807FFFFFFFFFFFFFFFFC3FFFFC18
:102EA000003FFE3FFF8600003E7F806D807FFFFF7A
:102EB000FFFFFFFFFFFFFFFFF800000E0FFFE380A3
:102EC00001FFFF806F807FFFFFFFFFFFFFFFFFFF1E
:102ED000FFF800000383FFF1F01FFFFF8027007F52
:102EE000FFFFFFFFFFFFFFFFFFFFF0000001C0FF3C
:102EF000F9FFFFFFFF8000707FFFFFFFFFFFFFFF75
:102F0000FF3FFFE0000000E07F98FFFFFFFF800F22
:102F1000F07FFFFFFFFFFFFFFFE03FFFC000001F4C
:102F2000F01F80FFFFFFFF807F807FFFFFFFFFFF1D
:102F3000FFFE003FFE000007FFF807F07FFFFFFFE6
:102F40008071007FFFFFFFFFFFFFC0003FF8000020
:102F50003FC03803FC3EFFFFFF8061807FFFFFFF23
:102F6000FFFFFC0000FFE00000FC001C00FF3CFF36
:102F7000FFFF8063807FFFFFFFFFFFF0000FFFE098
:102F80000001E0001C007F99FFFF3F807F007FFF72
:102F9000FFFFFFFFF0003FFFF0000780000E001F63
:102FA00083FFF07F803E007FFFFFFFFFFFF01C3FAD
:102FB000FFF8000F80000E000FC3FF80FF800000AD
:102FC0007FFFFFFFFFFFF0FC3FFFF8001F01C00E77
:102FD0000003C7FC01FF8003807FFFFFFFFFFFF0BE
:102FE000FC3FFFFC003E0FE0078003E7F003FF809B
:102FF0007F807FFFFFFFFFFFF0FC3FFFFC00E73E0D
:103000007807C003E7E003FF81FC007FFFFFFFFFBD
:10301000FFF0FC3FFFFE01C3F81C06E003E7C0071A
:10302000FF8180007FFFFFFFFFFFF0FC3FFFFE03FB
:10303000C3E01E0E7007F7800FFF8007007FFFFFC1
:10304000FFFFFFF0F83FFFFF0787803F0C300FF7CF
:10305000800FFF802F807FFFFFFFFFFFF0F83FFF13
:10306000FF070780E39C380FF3001FFF8069807F14
:10307000FFFFFFFFFFF0707FFFFF0C07C1C0FC18D0
:103080001FF3007FFF8069007FFFFFFFFFFFF0005D
:103090007FFFFF1807E3C0F81C1FF300FFFF806FDE
:1030A000807FFFFFFFFFFFF800FFFFFFB0067F00FC
:1030B000700C3FFB03FFFF807F807FFFFFFFFFFF60
:1030C000FC01FFFFFFE0063F00C00C3FFB0FFFFFCE
:1030D0008038007FFFFFFFFFFFFE07FFFFFFC007F5
:1030E0000381C00C7FF83FFFFF8000307FFFFFFFB0
:1030F000FFFFFFFFFF3FFF800701E7C00CFEF87FE7
:10310000FFFF8078307FFFFFFFFFFFFFFFE03FFF03
:10311000000700FFC006FE19FFFFFF807FF07FFF62
:10312000FFFFFFFFFFFE003FFE000300018007FFDF
:1031300001FFFFFF8001E07FFFFFFFFFFFFFC000F7
:103140003FFE000380038007FFC1FFFFFF80078071
:103150007FFFFFFFFFFFFC00003FFC0001800780B6
:1031600003FFE1FFFFFF801E007FFFFFFFFFFFF077
:10317000000C3FFE0001C00F00039FF0FFFFFF8027
:1031800078007FFFFFFFFFFFF000FC3FFF0000E043
:103190007E000187F8FFFFFF8060007FFFFFFFFFD9
:1031A000FFF010FC3FFF80007FF00001E3F8FFFF1D
:1031B000FF8001807FFFFFFFFFFFF0F0FC3FFFC0BB
:1031C000003E000000F9FCFBFFFF8001807FFFFF55
:1031D000FFFFFFF0F0FC3FFFE00018000001F8EEF9
:1031E00073FFFF8000007FFFFFFFFFFFF0F0FC3F59
:1031F000FFF0000C000003E00E77FFFF8000007F6F
:10320000FFFFFFFFFFF0F0FC3FFFF80003000003AB
:10321000800F27FFFF801F007FFFFFFFFFFFF0F001
:10322000FC3FFFF80003E00007BF8F07FFFF803F70
:10323000807FFFFFFFFFFFF0F0FC3FFFFC00FFFC83
:10324000000FFF8F8FFFFF8071807FFFFFFFFFFF69
:10325000F0F0FC3FFFFC038C0FC00FFFC78FFFFF98
:103260008061807FFFFFFFFFFFF0F0FC3FFFFE1E4D
:103270000001F81FFBE78FFFFF8063807FFFFFFFE8
:10328000FFFFF0F0FC3FFFFFFE00003FFFE3F3CF46
:10329000FFFF8073007FFFFFFFFFFFF0F0FCFFFFE9
:1032A000FFFF80003FFE07F9E7FFFF8030007FFF50
:1032B000FFFFFFFFF0F3FFFFFFFFFFF0007FE00FD6
:1032C000F8E7FFFF8000007FFFFFFFFFFFF0FFFF39
:1032D000FFFFFFFFF800FF003FFE33FFFF8003808A
:1032E0007FFFFFFFFFFFF3FFFF3FFFFFFFFE01FE3A
:1032F000007FFC01FFFF807F807FFFFFFFFFFFFF5C
:10330000FFE03FFFFFFFFF81FC00FFE0007FFF8049
:103310007C007FFFFFFFFFFFFFFE003FFFFFFFFF7F
:10332000C3FC007383F83FFF8030007FFFFFFFFF87
:10333000FFFFC0003FFFFFFFFFE7FC007807FF7FB4
:10334000FF8060007FFFFFFFFFFFFC0000FFFFFF2B
:10335000FFFFFFFC007C0FFFFFFF8063807FFFFF0C
:10336000FFFFFFF0000FFFFFFFFFFFFFFE0071CF29
:10337000FFFFFF807F807FFFFFFFFFFFF0007FFFE9
:10338000FFFFFFFFFFFF0063CFFFFFFF803C007FD9
:10339000FFFFFFFFFFF0187FFFFFFFF81FFFFF8019
:1033A0000FCFFFFFFF8000007FFFFFFFFFFFF0F860
:1033B0007FFFFFFFFE07FFFFE01FEFFFFFFF800023
:1033C000007FFFFFFFFFFFF0F87FFFFFFFFF81FFA0
:1033D000FFF01FFFFFFFFF8000007FFFFFFFFFFFE9
:1033E000F0F87FFFFFFFFFE03FFFE003FFFFFFFF7D
:1033F0008000007FFFFFFFFFFFF0F83FFFFFFFFFB0
:10340000F803FF0080FFFFFFFF8000007FFFFFFF4A
:10341000FFFFF0F80FFFFFFFFFFC000000C01FFFE1
:10342000FFFF8000007FFFFFFFFFFFF0F803FFFFBB
:10343000FFFFFE0000018007FFFFFF8000007FFF0D
:10344000FFFFFFFFF0F8007FFFFFFFFF000001809C
:1034500003FFFFFF8000007FFFFFFFFFFFF0F8008A
:103460003FFFFFFFFF8000038001FFFFFF800000A0
:103470007FFFFFFFFFFFF0F0C03FFFFFFFFFC00037
:10348000038000FFFFFF8000007FFFFFFFFFFFF0D2
:1034900060F03FFFFFFFFFF00007C0007FFFFF80ED
:1034A00000007FFFFFFFFFFFF000FC3FFFFFFFFF7B
:1034B000FC000FC0007FFFFF8000007FFFFFFFFFC9
:1034C000FFF801FFBFFFFFFFFFFF003FC0003FFF0E
:1034D000FF8000007FFFFFFFFFFFFC03FFFFFFFFF8
:1034E000FFFFFFFFFFE0003FFFFF8000007FFFFFC7
:1034F000FFFFFFFE0FFFFFFFFFFFFFFFFFFFF000DB
:103500001FFFFF8000007FFFFFFFFFFFFFFFFFFFA8
:10351000FFFFFFFFFFFFFFFE001FFFFF8000007F98
:10352000FFFFFFFFFFFFFFFFFFFFFFFFFFFFFFFFAB
:10353000FFF00FFFFF8000007FFFFFFFFFFFFFFF97
:10354000FFFFFFFFFFFFFFFFFFFFFF0FFFFF8000F9
:10355000007FFFFFFFFFFFFFFFFFFFFFFFFFFFFFFA
:10356000FFFFFFFFC7FFFF8000007FFFFFFFFFFFA0
:10357000FFFFFFFFFFFFFFFFFFFFFFFFFFF3FFFF67
:103580008000007FFFFFFFFFFFFFFFFFFFFFFFFF48
:10359000FFFFFFFFFFFFF9FFFF8000007FFFFFFF3E
:1035A000FFFFFFFFFFFFFFFFFFFFFFFFFFFFFFFF2B
:1035B000FFFF8000007FFFFFFFFFFFFFFFFFFFFF18
:1035C000FFFFFFFFFFFFFFFFFFFFFF8000007FFF08
:1035D000FFFFFFFFFFFFFFFFFFFFFFFFFFFFFFFFFB
:1035E000FFFFFFFF8000007FFFFFFFFFFFFFFFFFE8
:1035F000FFFFFFFFFFFFFFFFFFFFFFFFFF80000058
:103600007FFFFFFFFFFFFFFFFFFFFFFFFFFFFFFF4A
:10361000FFFFFFFFFFFF8000007FFFFFFFFFFFFFB7
:10362000FFFFFFFFFFFFFFFFFFFFFFFFFFFFFF8029
:1036300000007FFFFFFFFFFFFFFFFFFFFFFFFFFF18
:10364000FFFFFFFFFFFFFFFF8000007F0000000083
:10365000000000000102030406070809030406082D
:103660000C101820300000008836000800000020F0
:1036700010000000B00E000898360008100000206E
:1036800000040000C00E000801000000040000005B
:08369000000000000000200012
:04000005080000C12E
:00000001FF
