:020000040800F2
:1000000000040020DF0D0008ED0D0008EF0D0008D2
:10001000F10D0008F30D0008F50D000800000000C8
:10002000000000000000000000000000F70D0008C4
:10003000F90D000800000000FB0D0008FD0D000890
:10004000410E0008430E0008450E0008470E000848
:10005000490E00084B0E00084D0E00084F0E000818
:10006000510E0008530E0008550E0008570E0008E8
:10007000590E00085B0E00085D0E00085F0E0008B8
:10008000610E0008630E0008650E0008FF0D0008F1
:10009000FF0D0008FF0D0008FF0D00086F0E00089F
:1000A000710E0008730E0008750E0008770E000828
:1000B000790E00087B0E00087D0E00087F0E0008F8
:1000C000810E0008830E0008850E0008870E0008C8
:1000D000890E00088B0E00088D0E00088F0E000898
:1000E000910E0008930E0008950E0008970E000868
:1000F000990E00089B0E00089D0E00089F0E000838
:10010000A10E0008A30E0008A50E0008A70E000807
:10011000A90E0008AB0E0008AD0E0008AF0E0008D7
:10012000B10E0008B30E0008B50E0008B70E0008A7
:1001300000F002F800F03AF80AA090E8000C8244BF
:100140008344AAF10107DA4501D100F02FF8AFF29C
:10015000090EBAE80F0013F0010F18BFFB1A43F0A5
:1001600001031847BC360000DC360000103A24BFFB
:1001700078C878C1FAD8520724BF30C830C144BF0C
:1001800004680C607047000000230024002500264E
:10019000103A28BF78C1FBD8520728BF30C148BFEA
:1001A0000B6070471FB51FBD10B510BD01F081F881
:1001B0001146FFF7F7FF00F06DFF01F09FF803B461
:1001C000FFF7F2FF03BC01F0A3F8000010B50446EE
:1001D000C248844208D10121042000F017FB00210D
:1001E000042000F013FB46E0BD48844208D1012101
:1001F000082000F00BFB0021082000F007FB3AE08C
:10020000B848844208D10121102000F0FFFA0021F3
:10021000102000F0FBFA2EE0B348844208D10121FF
:10022000202000F0F3FA0021202000F0EFFA22E075
:10023000AE48844208D10121402000F0E7FA0021B5
:10024000402000F0E3FA16E0A948844208D10121D9
:10025000802000F0DBFA0021802000F0D7FA0AE0CD
:10026000A448844207D10121801500F0CFFA002173
:10027000A01500F0CBFA10BD10B50121084600F022
:10028000C5FA0021012000F0C1FA10BD2DE9F041AE
:10029000024600250026002000230024002791F8B4
:1002A00003C00CF00F0591F803C01CF0100F03D031
:1002B00091F802C04CEA050591F800C0BCF1000FAE
:1002C00031D0146800202BE04FF0010C0CFA00F341
:1002D000B1F800C00CEA03069E4220D183004FF023
:1002E0000F0C0CFA03F7BC4305FA03FC4CEA0404B8
:1002F00091F803C0BCF1280F06D14FF0010C0CFAA5
:1003000000FCC2F814C00AE091F803C0BCF1480F29
:1003100005D14FF0010C0CFA00FCC2F810C0401CD3
:100320000828D1D31460B1F800C0BCF1FF0F34DD50
:10033000546800202EE000F1080C4FF0010808FA84
:100340000CF3B1F800C00CEA03069E4221D18300F1
:100350004FF00F0C0CFA03F7BC4305FA03FC4CEA10
:10036000040491F803C0BCF1280F05D100F1080C7A
:1003700008FA0CF8C2F8148091F803C0BCF1480FD9
:1003800007D100F1080C4FF0010808FA0CF8C2F888
:100390001080401C0828CED35460BDE8F0814FF691
:1003A000FF710180022181700421C17070470246F3
:1003B000002093680B4201D0012000E0002070472C
:1003C0000146886880B2704702460020D3680B421D
:1003D00001D0012000E0002070470146C86880B2CB
:1003E000704701617047416170470AB1016100E0E7
:1003F00041617047C16070474FF480320A438261A7
:1004000081618261826982697047024600203A4BAD
:1004100018684FF68073184040EA02100843364BC4
:10042000186070473549C8617047F0B50A46002327
:10043000002400210025304E7168C0F3034583B2CB
:1004400000F44016B6F5401F08D121F070612A4E25
:10045000766826F07066284F7E6012E000F4801601
:10046000B6F5801F06D1032606FA05F4A14341F034
:10047000706106E0460D360103FA06F6B14341F01D
:10048000706122B1460D360103FA06F631431A4E69
:100490007160F0BD30B500228B071C0F0F2303FAEB
:1004A00004F2154B08338C1053F824309343124C4C
:1004B00008348D1044F8253023468C1053F824302E
:1004C0008C07240F00FA04F423430B4C08348D10DE
:1004D00044F8253030BD0A490860704700080140E3
:1004E000000C0140001001400014014000180140C0
:1004F000001C01400020014000000140000020429B
:10050000DC002042DD48006840F00100DB49086063
:1005100008464068DA490840D849486008460068FB
:10052000D8490840D54908600846006820F4802072
:1005300008600846406820F4FE0048604FF41F0041
:1005400088607047CD49096821F48031CB4A116039
:100550001146096821F480211160B0F5803F03D075
:10056000B0F5802F0ED106E0C449096841F480310E
:10057000C24A116007E0C149096841F4A021BF4A9D
:10058000116000E000BF00BF704710B501460022B7
:10059000002300204A11012A02D1B84C236806E04A
:1005A000022A02D1B54C236A01E0B44C636A01F01F
:1005B0001F02012494401C4201D0012000E00020D1
:1005C00010BD38B5002000900024002500BF312068
:1005D000FFF7DBFF05460098401C00900098B0F53F
:1005E000A06F01D0002DF2D03120FFF7CEFF08B16F
:1005F000012400E00024204638BD014600209F4A27
:10060000106820F0F80040EAC100106070479E4971
:100610000860704702460020984B586820F47C1010
:1006200042EA01031843954B5860704796490866A3
:10063000704701460020914A506820F003000843AB
:10064000506070478D48406800F00C0070470146CC
:1006500000208A4A506820F0F0000843506070473C
:1006600001460020854A506820F4E060084350604D
:10067000704701460020814A506820F4605040EAEB
:10068000C1005060704729B17C4A527A02437B4BCB
:100690005A7204E0794A527A8243784B5A72704710
:1006A0007A490860704701460020744A506820F477
:1006B00040400843506070470021754A11706F4AEE
:1006C00082F82010012802D0042808D103E001217B
:1006D0006F4A117004E005216D4A117000E000BFFF
:1006E00000BF70476B49086070476449096A01435D
:1006F000624A11627047674944390860704730B5F3
:1007000000210022002400235C4D6D6805F00C01DF
:1007100021B1042905D0082923D105E05E4D0560EB
:1007200022E05D4D05601FE0544D6D6805F47012C8
:10073000524D6D6805F48034022505EB92421CB9D8
:10074000564D554305600BE04C4D6D6815F4003F68
:1007500003D0524D5543056002E04F4D55430560AF
:1007600002E04D4D056000BF00BF444D6D6805F0CF
:10077000F00109094A4D6B5C0568DD4045603F4D5D
:100780006D6805F4E061090A454D6B5C4568DD4024
:1007900085603A4D6D6805F46051C90A404D6B5C47
:1007A0004568DD40C560354D6D6805F44041890BF5
:1007B0003C4D6B5CC568B5FBF3F5056130BD29B1F7
:1007C0002E4A526902432D4B5A6104E02B4A52696A
:1007D00082432A4B5A61704729B1284A92690243E1
:1007E000264B9A6104E0254A92698243234B9A6121
:1007F000704729B1214AD2690243204BDA6104E0F3
:100800001E4AD26982431D4BDA61704729B11B4AE7
:10081000D2680243194BDA6004E0184AD268824376
:10082000164BDA60704729B1144A12690243134B20
:100830001A6104E0114A12698243104B1A61704731
:1008400014494039086070470F49C86470470B4924
:10085000C87170470948406A40F080700749486293
:10086000704701460020054A92680A4201D00120E3
:1008700000E0002070470149887270470010024074
:100880000000FFF8FFFFF6FE00004242D80042429F
:10089000201002408004424200127A0000093D000C
:1008A000000000201000002001460020FD4A1068D2
:1008B00000F03800084310607047FA49096821F0D9
:1008C0000801F84A11601146096801431160704738
:1008D000F449096821F01001F24A116011460968D3
:1008E000014311607047F048EE494860EF484860A6
:1008F0007047EC48006940F08000EA4908617047A1
:100900000420E849C96811F0010F01D001200EE070
:10091000E449C96811F0040F01D0022007E0E14961
:10092000C96811F0100F01D0032000E004207047C7
:1009300008B500200090FF20009002E00098401EC3
:10094000009000980028F9D108BD70B50446042530
:10095000FFF7D6FF054605E0FFF7EAFFFFF7D0FFF8
:100960000546641E012D01D1002CF5D104B90525E1
:10097000284670BD70B50546042440F6FF70FFF7A9
:10098000E4FF0446042C19D1C648006940F0020077
:10099000C449086108464561006940F040000861AB
:1009A00040F6FF70FFF7D1FF0446052C06D0BD4886
:1009B000006941F6FD710840BA490861204670BDE2
:1009C00010B5042440F6FF70FFF7BFFF0446042C67
:1009D00018D1B448006940F00400B24908610846E3
:1009E000006940F04000086140F6FF70FFF7ADFF7E
:1009F0000446052C06D0AB48006941F6FB7108405F
:100A0000A8490861204610BD10B5042440F6FF70C7
:100A1000FFF79BFF0446042C3BD1A348A149886003
:100A2000A24888600846006940F020000861084636
:100A3000006940F04000086140F6FF70FFF785FF55
:100A40000446042C1CD19748006941F6DF71084028
:100A5000944908610846006940F010000861A5202B
:100A6000934908800F20FFF770FF0446052C10D033
:100A70008C48006941F6EF7108408A49086108E036
:100A8000052C06D08748006941F6EF71084085497A
:100A90000861204610BDF8B506460D460424002026
:100AA00000900F20FFF751FF0446042C28D17D4809
:100AB000006940F001007B49086135800F20FFF795
:100AC00044FF0446042C12D1B01C0090280C00995D
:100AD00008800F20FFF739FF0446052C10D071481D
:100AE000006941F6FE7108406E49086108E0052C76
:100AF00006D06C48006941F6FE71084069490861FA
:100B00002046F8BD70B505460E4604240F20FFF7B9
:100B10001CFF0446042C13D16248006940F0010018
:100B2000604908612E800F20FFF70FFF0446052C57
:100B300006D05C48006941F6FE71084059490861D9
:100B4000204670BD70B505460E4604240F20FFF701
:100B5000FCFE0446042C17D1534852498860534880
:100B600088600846006940F0100008612E800F2060
:100B7000FFF7EBFE0446052C06D04A48006941F613
:100B8000EF71084047490861204670BD2DE9F047E4
:100B900004464FF6FF763746B046B1460425E44397
:100BA000E6B2C4F30727C4F307484FEA14690F20DD
:100BB000FFF7CBFE0546042D40D13B4839498860FC
:100BC0003A4888600846006940F010000861FF2E2E
:100BD00006D03748083006800F20FFF7B6FE0546DE
:100BE000042D08D1FF2F06D031480A3007800F208E
:100BF000FFF7ABFE0546042D0AD1B8F1FF0F07D071
:100C00002B480C30A0F800800F20FFF79EFE054611
:100C1000042D0AD1B9F1FF0F07D025480E30A0F8F6
:100C200000900F20FFF791FE0546052D06D01D48C8
:100C3000006941F6EF7108401A4908612846BDE88D
:100C4000F08770B50546042440F6FF70FFF77DFE7F
:100C50000446042C49D1144812498860134888601E
:100C60000846006940F0200008610846006940F02D
:100C70004000086140F6FF70FFF767FE0446042C51
:100C80002AD10848006941F6DF710840054908612A
:100C90000846006940F0100008615DB10020044979
:100CA00008800AE00020024023016745AB89EFCDB0
:100CB00000F8FF1FA5204549088040F6FF70FFF7A8
:100CC00044FE0446052C10D04148006941F6EF71FE
:100CD00008403F49086108E0052C06D03C480069FF
:100CE00041F6DF7108403A490861204670BD2DE9A0
:100CF000F04105460E4617460424364834498860BC
:100D0000354888600F20FFF720FE0446042C19D1D7
:100D10002F48006940F010002D49086147F0F800A5
:100D2000304328432949891C08800F20FFF70DFE16
:100D30000446052C06D02648006941F6EF710840AC
:100D4000234908612046BDE8F0812148C069800838
:100D500070471F48006A704700201D49C96911F09B
:100D6000020F01D0012000E0002070470020184948
:100D7000096811F0200F01D0012000E00020704729
:100D800029B1134A12690243114B1A6104E0104A57
:100D9000126982430E4B1A617047014600200129F7
:100DA00008D10B4AD26912F0010F01D0012008E0EE
:100DB000002006E0064AD2680A4201D0012000E085
:100DC000002070470249C8607047000000F8FF1F0C
:100DD0000020024023016745AB89EFCD70470B48E7
:100DE00080470B4981F308880A480047FEE7FEE781
:100DF000FEE7FEE7FEE7FEE7FEE7FEE7FEE7FEE7CB
:100E000005480649064A074B70470000DD0D0008FB
:100E100080060020310100088000002080060020AC
:100E200080020020800200207047704700BFFEE76C
:100E300000BFFEE700BFFEE770477047704770478E
:100E400070477047704770477047704770477047EA
:100E500070477047704770477047704770477047DA
:100E600070477047704770477047704770477047CA
:100E700070477047704770477047704770477047BA
:100E800070477047704770477047704770477047AA
:100E9000704770477047704770477047704770479A
:100EA000704770477047704770477047704770478A
:100EB000704770477047704700E0401E0128FCD81B
:100EC00070470022002100BF05E0002200E0521C14
:100ED000FF2AFCD9491C8142F7D3704710B500BFE7
:100EE000712000F093F94FF400519F48FFF75FFA2B
:100EF000044604F0010080F00104002CF0D1C82069
:100F0000FFF7DFFF10BD10B5002404E09749085D2E
:100F100000F094F9641CB4F5945FF7D30220FFF756
:100F2000D0FF10BD10B5002403E0FF2000F086F9CB
:100F3000641CB4F5945FF8D30220FFF7C2FF10BD24
:100F400010B5002404E08A49085D00F077F9641CBC
:100F5000B4F5945FF7D30220FFF7B3FF10BD10B5CF
:100F60008448007848B9102000F050F9FFF7DAFF04
:100F7000132000F04BF9FFF7E3FF7E4800780128CB
:100F800009D1102000F042F9FFF7CCFF132000F048
:100F90003DF9FFF7B8FF10BD08B501212020FFF78C
:100FA0001BFC4FF4E060ADF8000002208DF8020059
:100FB00010208DF8030069466F48FFF767F901219B
:100FC0004020FFF709FC4FF44840ADF80000022034
:100FD0008DF8020010208DF8030069466248FFF783
:100FE00055F94FF40050ADF8000002208DF80200D2
:100FF00004208DF8030069465B48FFF747F908BDF8
:1010000010B5FFF77FFA4FF48030FFF79BFAFFF738
:10101000D8FA5A49087008460078012805D14FF4DB
:10102000E0110004FFF7F6FA0DE00120FFF7EFFAF8
:1010300000BF2120FFF7A9FA0028FAD04FF4601171
:101040000020FFF7E7FA1020FFF742FC0220FFF72D
:101050002BFC0020FFF7FBFA0020FFF70AFB4FF400
:101060008060FFF7FDFA0120FFF7E0FA00BF3920AA
:10107000FFF78BFA0028FAD00220FFF7DAFA00BF58
:10108000FFF7E0FA0828FBD1012144F20500FFF741
:10109000A3FB10BDFFF7B4FFFFF77EFF00F0EAF8F7
:1010A00080203749087001203649087028203649C9
:1010B000087000202F49087053E000F0DBF864202E
:1010C000FFF7FFFE062000F0A1F8172000F0B6F8A9
:1010D000172000F0B3F8172000F0B0F8042000F05B
:1010E00095F8FFF7FBFE002000F090F89F2000F03D
:1010F000A5F8612000F08AF82148007800F09EF8F9
:101100002048007800F09AF81F48007800F096F820
:10111000502000F07BF8972000F090F8FFF71FFFB9
:10112000122000F073F86420FFF7CBFEFFF7D6FE25
:10113000022000F06BF8FFF7D1FE072000F066F800
:10114000A52000F07BF80B480078012801D100BFF2
:10115000FEE708480078401C064908700B48FFF776
:10116000B0FEAAE770470000001801409E25000865
:101170001E13000814000020001401401500002078
:101180001C0000201D0000201E000020A086010081
:1011900007E0002101E04A1CD1B20229FBDB421E1C
:1011A000D0B20028F5D1704770B504460120FFF792
:1011B000EFFF002527E04FF400712C48FFF713F9EB
:1011C0000120FFF7E5FF14F0800F05D04FF4806198
:1011D0002648FFF706F904E04FF480612348FFF743
:1011E00002F96006040E0120FFF7D2FF0120FFF78D
:1011F00063FE4FF400711D48FFF7F3F80120FFF77D
:10120000C7FF681CC5B2082DD5DB70BD10B50446FC
:101210000120FFF7BDFF4FF480711448FFF7E3F89A
:101220004FF400411248FFF7DEF82046FFF7BCFFFD
:101230004FF480710D48FFF7D4F810BD10B5044687
:101240000120FFF7A5FF4FF480710848FFF7CBF8A6
:101250004FF400410648FFF7C4F82046FFF7A4FF0B
:101260004FF480710148FFF7BCF810BD0014014035
:101270000018014010B54FF400610B48FFF7B3F8B8
:101280004FF480410848FFF7AEF84FF47A70FFF74B
:1012900018FE4FF480410448FFF7A3F84FF47A702A
:1012A000FFF70FFE10BD00000018014070477047A7
:1012B0007047754600F028F8AE460500694653466B
:1012C00020F00700854618B020B5FFF799FDBDE86E
:1012D00020404FF000064FF000074FF000084FF09D
:1012E000000B21F00701AC46ACE8C009ACE8C0092E
:1012F000ACE8C009ACE8C0098D4670470446AFF3BE
:1013000000802046FEF75BFF004870472000002069
:1013100001491820ABBEFEE7260002007047FFFF20
:10132000FFFFFFFFFFFFFFFFFFFFFFFFFFFFFFFFCD
:10133000FFFFFFFFFFFFFFFFFFFFFFFFFFFFFFFFBD
:10134000FFFFFFFFFFFFFFFFFFFFFFFFFFFFFFFFAD
:10135000FFFFFFFFFFFFFFFFFFFFF9FFFFFFFFFFA3
:10136000FFFFFFFFFFFFFFFFF3FFFCFFFFFFFFFF9C
:10137000FFFFFFFFFFFFFFFFC0FFFCFFFFFFFFFFBF
:10138000FFFFFFFFFFFFFFFE006FFE7FFFFFFFFF7E
:10139000FFFFFFFFFFFFFFFC2E07FE7FFFFFFFFFAA
:1013A000FFFFFFFFFFFFFFFCFF03FE7FFFFFFFFFCD
:1013B000FFFFFFFFFFFFFFFCFF81FE3FFFFFFFFF7F
:1013C000FFFFFFFFFFFFFFFEFFE0FE3FFFFFFFFF0E
:1013D000FFFFFFFFFFFFFFFFFFF07F3FFFFFFFFF6C
:1013E000FFFFFFFFFFFFFFFFFFF83F9FFFFFFFFF34
:1013F000FFFFFFFFFFFFFF3FCFFC1F9FFFFFFFFF30
:10140000FFFFFFFFFFFFFF0FE7FF07DFFFFFFFFF0C
:10141000FFFFFFFFFFFFFE07F1FFC3FFFFFFFFFF1F
:10142000FFFFFFFFFFFFFE00F87FFFFFFFFFFFFF53
:10143000FFFFFFFFFFFFFC003E3FFFFFFFFFFFFF3F
:10144000FFFFFFFFFFFFFC000F8FFFFFFFFFFFFF0E
:10145000FFFFFFFFFFFFFC0007E7FFFFFFFFFFFFAE
:10146000FFFFFFFFFFFFFC0003F1FFFFFFFFFFFF98
:10147000FFFFFFFFFFFBFC0001F8FFFFFFFFFFFF87
:10148000FFFFFFFFFFE03EE0003C7FFFFFFFFFFFAD
:10149000FFFFFFFFFFC0FFFC001F3FFFFFFFFFFF3D
:1014A000FFFFFFFFFF81FFFFE00F9FFFFFFFFFFF39
:1014B000FFFFFFFFFF03FFF8F003CFFFFFFFFFFF7A
:1014C000FFFFFFFFFC0FFFFC3C01FBFFFFFFFFFFE7
:1014D000FFFFFFFFFC1F001F0F00FFFFFFFFFFFFCD
:1014E000FFFFFFFFF87E000787807FFFFFFFFFFF02
:1014F000FFFFFFFFF8FC0001C3E03FFFFFFFFFFF1E
:10150000FFFFFFFFF9FFFC00E1F01FFFFFFFFFFF00
:10151000FFFFFFFFF9FFFF0078FC0FFFFFFFFFFF5A
:10152000FFFFFFFFF3FFFFE03C1E07FFFFFFFFFF92
:10153000FFFFFFFFF3FE00F81E1F07EFFFFFFFFF97
:10154000FFFFFFFFF3FF00FC070F83EFFFFFFFFF2D
:10155000FFFFFFFFF7FFC07F0387C3EFFFFFFFFF22
:10156000FFFFFFFFF7FFF00780E3E1EFFFFFFFFF63
:10157000FFFFFFFFFFFFF807F031F1EFFFFFFFFF75
:10158000FFFFFFFFFFFFF807FF1C7CCFFFFFFFFF00
:10159000FFFFFFFFFFFFFF03FFF80FCFFFFFFFFF7E
:1015A000FFFFFFFFBFFFFFE1FFFF07EFFFFFFFFFB1
:1015B000FFFFFFFE00C3FFF83FFFFFEFFFFFFFFF4E
:1015C000FFFFFFF800007FFC07FFFFEFFFFFFFFFBB
:1015D000FFFFFFFC00001FFE03BFFFEFFFFFFFFF49
:1015E000FFFFFFF7FFC001FF0007FFE7FFFFFFFF5F
:1015F000FFFFFFE003F000FF8003FFE7FFFFFFFFB7
:10160000FFFFFFE0000F003FC000FFF7FFFFFFFFFD
:10161000FFFFFFC00003C01FE0007FF7FFFFFFFFD9
:10162000FFFFFFFF0000780FF0001FFFFFFFFFFF2D
:10163000FFFFFFBFFF803C07FC0007FFFFFFFFFF2E
:10164000FFFFFE0FFFC00F03FE0000FFFFFFFFFFC5
:10165000FFFFF8000FF80780FF00007FFFFFFFFF8C
:10166000FFFFF00003FF81E0FF001E7FFFFFFFFF91
:10167000FFFFE00000FFE0307F00BFFFFFFFFFFF44
:10168000FFFFC3FFE03FF0003FFF879FFFFFFFFF2B
:10169000FFFFDFFFFC0FFE001FFF038FFFFFFFFFB9
:1016A000FFFFFFFFFF07BF8007FF81C7FFFFFFFFAF
:1016B000FFFFFFFCFF83CFFC01FFC1C7FFFFFFFF60
:1016C000FFFFFE2000E0E3FF007FE1E3FFFFFFFFFD
:1016D000FFFFE0000FFC70FF801FF1F3FFFFFFFF33
:1016E000FFFFC001FFFF387FC007F9F9FFFFFFFFD1
:1016F000FFFF800FF9FFDE0BE003FDF9FFFFFFFFA7
:10170000FFFF803E00FFFE187F00FEF9FFFFFFFF96
:10171000FFFF03EC003FFFFE1F807EFFFFFFFFFF88
:10172000FFFF1F8F830FFFFF8FEE7FFFFFFFFFFF86
:10173000FFFE3E1FE3C3FFFFC3FF3FFFFFFFFFFFAF
:10174000FFFFF01FF8E1F9FFE1FF7FFFFFFFFFFF61
:10175000FFFFE07FFE78F8FFF0FF7F3FFFFFFFFF16
:10176000FFFFC0FFFFFC7C7FF87F7F8FFFFFFFFF45
:10177000FFFF81CFFFFFFF3FFC3F7F9FFFFFFFFF8A
:10178000FFFF879FFFFFFF9FFF1FFFFFFFFFFFFF81
:10179000FFFF1E3FFFEFFFC7FF9FFFFFFFFFFFFFA2
:1017A000FFFC703FFFE7FFF3FFCFFFFFFFFFFFFFEF
:1017B000FFF8E07FFFF1FFF8FFCFFFFFFFFFFFFF24
:1017C000FFF9C07FFFFC3FFC7FCFFFFFFFFFFFFF64
:1017D000FFF3807FFFFF0FFE1FCFFFFEFFFFFFFF26
:1017E000FFE7807FFFFFC7FF0FEFFFFEFFFFFFFF59
:1017F000FFE700FFFFFFE3FF83EFFFFE3FFFFFFF79
:10180000FF0E00FF3FFFF3FF81FFFFFE1FFFFFFF03
:10181000FF1E03FF9FFFF9FFC0FFFFFE1FFFFFFF3B
:10182000FE3C0BFF87FFF8FFE07FFFFF1FFFFFFF7E
:10183000E6FC9FFFC1FFFC7FE03FFFFF1FFFFFFFB4
:1018400065FD9FFFE03FFE3FF30FFFFF1FFFFFFF20
:1018500037FBBFFFF007FF03F98FFFFF1FFFFFFC00
:101860001FFFFDFBF000FFC0FCCFFFFF1FFFFFF8D5
:101870000FFFF9F8FE007FE03E3FFFFF9FFFFFFCF8
:1018800027FFB3FC3F003FF09F0FFFFFDFFFFFFF8D
:101890003FFF3FFE1FC01FFC4787FFFFDFFFFFFF2B
:1018A000FFFE3FFF07E007FF31C3FFFFFFFFFFFF22
:1018B000FFFC7FFF03F003FFCFE3FFFFBFFFFFFF4E
:1018C000FFE41FEF81F800FFFFF3FFFF3FFFFFFF83
:1018D000FFE43F0FC0FE003FFFFFFFFF3FFFFFFFA2
:1018E000FF867F1FF07F000FFFFFFFFF1FFFFFFF3F
:1018F0009F0E7FFFFC3E8000FC03FFFF9FFFFFFF6A
:10190000BF2E03FFFF024000000FFFFF9FFFFFFFFE
:101910009FBC7FFFFFC030000079FFFF9FFFFFFFEC
:10192000DFC4FFFFCFF81FFE3FF1FFFF9FFFFFFF68
:10193000CFE02FFEC1FFFFFFFFC0FFFF0FFFFFFC47
:10194000EFE003FF3807FFFFFF01FFFFFFFFFFFC92
:1019500067FC01FF9E00803FF003FFFFFFFFFFFCDD
:1019600003FE0C03FFF0001FF007FFFFF7FFFFF07F
:1019700003FE002F1FF8003FF01F7FFFE7FFFFF07F
:1019800001FB0FF8C7FC003FF83E3FFF8FFFFFE071
:1019900001F8BCF803FF007FF87E3FFFFFFFFFE187
:1019A000FBF1F80FA07F80FFF8FC3FFFFFFFFFE196
:1019B000FFF1C7FFF83FE1FFF0F8FFFFFFFFFFF186
:1019C000FFE1CFFFFF9FF8FFE1F1DFDFFFFFFFF94E
:1019D000FCE09FFFFCFF07FF03E39C3FFFFFFFFFCF
:1019E000F1E0FFFFFE7F81FE03C70C7FEFFFFFFFEB
:1019F000F9E2FFFF03FFC2FE07861FFFC7FFFFFCE0
:101A000039C3FFFFE0FFFFFC1F0E1FFF87FFFFFC36
:101A100007EFFFFFFC7FF03C7E3C3FFF87FFFFFCB2
:101A20000FFFFFFFFF1FCFE0FC3CFFFFEFFFFFFEBC
:101A3000FFBFFFFF83FFCFC1FC7DFFFFFFFFFFFF65
:101A4000F77FFFFFE07FE7C3F8FFFFFFFFFFFFFB2C
:101A5000007FFFFEE08FFF87F1DFFFFFFFFFFFF852
:101A6000038F8FFB1F07FE0FE3BFF3BFFFFFFFF8DE
:101A70003F3F00FD8FE1FC0FDFBFF377FFFFFFFF6C
:101A8000FE7F006784F8187FFF7FE17FFFFFFFF88C
:101A9000383F8073C07FDFFFFFFF01FFFFFFFFF8CC
:101AA0001F584019EFFDFFFFFFFF1FDF8FFFFFF8FB
:101AB0000E00300FFFC1FFFFFF3FFFFE6FFFFFFC77
:101AC0001E883807FFFFFFFFFE3FFBFF07FFFFFEFB
:101AD0000F883DE3FFFE7FFFFE1FC3FFE7FFFFFF11
:101AE000EF081FF00FFE7FFFFF0FFDFFFFFFFFFE60
:101AF0007F181FF803FC3FFFFF0FF9FFFFFFFFF800
:101B00000F1C061800F81FFFFF0FFE7FFFFFFFF8F6
:101B1000073C000C00F07FFFFF9FE67FFFFFFFF810
:101B20000F7C000300F07FFFFFFFECFFFFFFFFF8DB
:101B30001F0E00F303F07FFFFFFFEFFCFFFFFFFF2F
:101B4000FE07F03BFFFC7FFFFFF9FFFE37FFFFFFC3
:101B5000E283F03DFFFFFFFFFFF9FFFFC7FFFFFD3F
:101B6000A4B773FCC07FFFFFFFF0FFFF87FFFFFEFE
:101B700024BFE67FC01FFFFFFFC1FFFFFFFFFFFE87
:101B80006CB3E6E30007FFFFFFC7FF0DFFFFFFFE9B
:101B90005FB3CFC00001FFFFFFFC7C07FFFFFFFF2B
:101BA0007319C7C00000FFFFFFF0F8FF3FFFFFFF02
:101BB000F90CC38000003FFFFFF3FBF91FFFFFFF9D
:101BC000CF0C610000003FFFFFFFFFDF9FFFFFFF23
:101BD000D78E700000001FFFFFFFFC3F9FFFFFFF3D
:101BE000F39FC00300001FFFFFFF7EFFCFFFFFFF3B
:101BF000CF8F1C0780001FFFFFFDFFFF9FFFFFFF30
:101C0000FF8F7800FF003FFFFFFBFFFF1FFFFFFF7D
:101C1000FF887033FC803FFFFFFFFFFF1FFFFFFFC8
:101C2000FFFFB007FE887FFFFFFEE7FF1FFFFFFFFC
:101C3000FFFFFC07FFF07FFFFFFECFFFFFFFFFFF6F
:101C4000FFFFFE07FFE0FFFFFFFFCFFFFFFFFFFFEC
:101C5000FFFFA207FFE1FFFFFFFFFFFFBFFFFFFF47
:101C6000FFFFB20FFFFFFFFFFFFFFFFF3FFFFFFF81
:101C7000FFFBF119FFFFFFFFFFFFFDFE3FFFFFFF2F
:101C8000FFFB1172FFFFFFFFFFFFF9F43FFFFFFFB4
:101C9000FFFB591FFFFFFFFFFFFFF9F83FFFFFFFAB
:101CA000FFFDD9DFFFFFFFFFFFFFF9FF3FFFFFFF52
:101CB000FFFFC3FFFFFFFFFFFFFFF3FF3FFFFFFF3C
:101CC000FFFF3BFFFFFFFFFFFFFFF7FF3FFFFFFFB0
:101CD000FFFF9BFFFFFFFFFFFFFFFFFFFFFFFFFF78
:101CE000FFFF0FFFFFFFFFFFFFFFFFFFFFFFFFFFF4
:101CF000FFFF47FFFFFFFFFFFFFFFFFF9FFFFFFF0C
:101D0000FFFFC7FFFFFFFFFFFFFF9FEE1FFFFFFF6C
:101D1000FFFFDFFFFFFFFFFFFFFF9D7C1FFFFFFFB8
:101D2000FFFFFFFFFFFFFFFFFFFFBC781FFFFFFF6D
:101D3000FFFFFFFFFFFFFFFFFFFFAC3F9FFFFFFF26
:101D4000FFFFFFFFFFFFFFFFFFFFEC3FFFFFFFFF76
:101D5000FFFFFFFFFFFFFFFFFFFFCC3FFFFFFFFF86
:101D6000FFFFFFFFFFFFFFFFFFFFDC3FFFFFFFFF66
:101D7000FFFFFFFFFFFFFFFFFFFFF83FFFFFFFFF3A
:101D8000FFFFFFFFFFFFFFFFFFFFF03FFFFFFFFF32
:101D9000FFFFFFFFFFFFFFFFFFFFFE7FFFFFFFFFD4
:101DA000FFFFFFFFFFFFFFFFFFFFFFFFFFFFFFFF43
:101DB000FFFFFFFFFFFFFFFFFFFFFFFFFFFFFFFF33
:101DC000FFFFFFFFFFFFFFFFFFFFFFFFFFFFFFFF23
:101DD000FFFFFFFFFFFFFFFFFFFFFFFFFFFFFFFF13
:101DE000FFFFFFFFFFFFFFFFFFFFFFFFFFFFFFFF03
:101DF000FFFFFFFFFFFFFFFFFFFFFFFFFFFFFFFFF3
:101E0000FFFFFFFFFFFFFFFFFFFFF6FFFFFFFFFFEB
:101E1000FFFFFFFFFFFFFFFFFFFFF0FFFFFFFFFFE1
:101E2000FFFFFFFFFFFFFFFFFFFFF0FFFFFFFFFFD1
:101E3000FFFFFFFFFFFFFFFFFFFFF0FFFFFFFFFFC1
:101E4000FFFFFFFFFFFFFFFFFFFFFFFFFFFFFFFFA2
:101E5000FFFFFFFFFFFFFFFFFFFFF7FFFFFFFFFF9A
:101E6000FFFFFFFFFFFFFFFFFFFFF0FFFFFFFFFF91
:101E7000FFFFFFFFFFFFFFFFFFFFF0FFFFFFFFFF81
:101E8000FFFFFFFFFFFFFFFFFFFFF0FFFFFFFFFF71
:101E9000FFFFFFFFFFFFFFFFFFFFF8FFFFFFFFFF59
:101EA000FFFFFFFFFFFFFFFFFFFFFCFFFFFFFFFF45
:101EB000FFFFFFFFFFFFFFFFFFFFFFFFFFFFFFFF32
:101EC000FFFFFFFFFFFFFFFFFFFFFFFFFFFFFFFF22
:101ED000FFFFFFFFFFFFFFFFFFFFF7FFFFFFFFFF1A
:101EE000FFFFFFFFFFFFFFFFFFFFF3FFFFFFFFFF0E
:101EF000FFFFFFFFFFFFFFFFFFFFF1FFFFFFFFFF00
:101F0000FFFFFFFFFFFFFFFFFFFFF1FFFFFFFFFFEF
:101F1000FFFFFFFFFFFFFFFFFFFFF1FFFFFFFFFFDF
:101F2000FFFFFFFFFFFFFFFFFFFFF1FFFFFFFFFFCF
:101F3000FFFFFFFFFFFFFFFFFFFFF9FFFFFFFFFFB7
:101F4000FFFFFFFFFFFFFFFFFFFFFDC00003FFFFDD
:101F5000FFFFFFFFFFFFFFFFFFFFFFC00003FFFFCB
:101F6000FFFFFFFFFFFFFFFFFFFFFFC00003FFFFBB
:101F7000FFFFFFFFFFFFFFFFFFFFFFC00003FFFFAB
:101F8000FFFFFFFFFFFFFFFFFFFFFFC00003FFFF9B
:101F9000FFFFFFFFFFFFFFFFFFFFFFC00003FFFF8B
:101FA000FFFFFFFFFFFFFFFFFFFFFFC03003FFFC4E
:101FB0000001F0001C0300E0060E7FC03003FFF8B4
:101FC0000001F0000C0300E0060E7FC13003FFF8B3
:101FD0000001F0001C0300E0070E7FC1A003FFF822
:101FE000FFF9CF8FFC7C1FE7C7CFFFC17C03FFF851
:101FF000FFF9CF8FFC7C1FE7C7CFFFC17303FFF84A
:10200000E039C07E7F83E7FF3E3FFFC17083FFF86A
:10201000C039C07C7F83E7FE3E3FFFC1B083FFF83D
:10202000C039C03C7F83E7FF3E3FFFC09003FFF80D
:10203000C039C0007C60E707C6007FC09803FFF886
:10204000C039C0007C60E707C6007FC01803FFF8F6
:10205000C039CE3FFFE0FF0000067FC00003FFF85D
:10206000C039CE7FFFE0FF00000E7FC00003FFF805
:10207000E039CE3FFFE0FF00000E7FC00003FFF815
:10208000FFF9C0007C7F0707F83FFFC00003FFF89F
:10209000FFF9C0007C7F0707F83FFFC00383FFF80C
:1020A0000001F020701C00C738F87FC18183FFF861
:1020B0000001F070601C00E639F07FC1F183FFFC85
:1020C0000001F070701C00E739F07FC1A903FFFF29
:1020D000FFFFC1F1FF9CF8E7F831FFC1A903FFFF43
:1020E000FFFFC1F3FF9CF8E7F831FFC3B903FFFD21
:1020F000E70001F003FF3F0000C07FC3FF03FFF8CC
:10210000C70001F003FF1F0001C07FC1B403FFF847
:10211000E60001F003FF1F0001C07FC1F403FFFFD1
:10212000F83E30700C0000FFC1FFFFC1FC03FFFF51
:10213000F83E30701C0000FFC1FFFFC08003FFFDB0
:10214000F8BC38781C4040FF80FB7FC00003FFF8DC
:10215000F8C03FFFF060E0FF00307FC00003FFF8F1
:10216000F8C03FFFF060E0FF00307FC00003FFFFDA
:10217000E0C7F1807FFFFFFF39CE7FC00303FFFF81
:10218000C0C7F1807FFFFFFF39CE7FC18303FFFF10
:10219000C0C7F1C07FFFFFFF39847FC16F03FFFF1E
:1021A000C7380FFF8FE3E0FFC6007FC16603FFFF64
:1021B000C7380FFF8FE3E0FFC6007FC17E03FFFF3C
:1021C00000FE01C00CE00307C007FFC16203FFFF70
:1021D00000FE01800C600707C00FFFC17E03FFFFF8
:1021E00001FE01801C600707C00FFFC1F203FFF86A
:1021F000FFC1FE7C7F9CFFF83831FFC1F603FFF87A
:10220000FFC1FE7E7F9CFFF83831FFC10503FFFF51
:1022100007C7FE701C1C00063E01FFC00103FFFF44
:1022200007C7FE700C1C00073E01FFC00003FFFF44
:1022300007C7FE701C1C00073E01FFC00003FFFF24
:1022400038C1C1807C7FF807C1CFFFC00003FFFF0A
:1022500038C1C1807C7FF807C1CFFFC00003FFFFFA
:102260003F07C1FFFC7CE7C7F1CE7FC00203FFFF41
:102270003F07C1FFFC7CE7E7F9CE7FC15303FFFFB7
:102280003F07C1FFFC7CE7E7F9CE7FC15303FFF8AE
:102290003F39CFF3F3E307E1F9FE7FC15303FFF8C2
:1022A0003F39CFF1F3E307E0F9FE7FC1FE03FFFD05
:1022B000BF148E0BE0F50810E1FF7FC1A503FFFFFF
:1022C000FF060E0F807C1819C1FFFFC0B503FFFF8A
:1022D000FF060E0F807C1818C1FFFFC10103FFFF2E
:1022E000E0C1F1F00F831F183FF1FFC1FF83FFFF33
:1022F000C0C1F1F01F831F183FF1FFC1C003FFFDF4
:10230000C30671C007830716C3CE7FC08003FFF8E2
:10231000C706318003830707C1CE7FC00003FFF8E3
:10232000C706318003830707C1CE7FC00003FFFFCC
:10233000FF39CE70001CE7FFF9FFFFC00003FFFF6D
:10234000FF39CE70001CE7FFF9FFFFC00183FFFFDC
:10235000FE39CE70001C67FFF8FFFFC12983FFF82C
:10236000C03E3E7073FC18F8F8007FC12983FFF867
:10237000C03E3E7073FC18F8F8007FC1E903FFFF10
:102380000001C1FFF0E31FE007C7FFC13F03FFFFEC
:102390000001C1FFE0631FE007CFFFC1EA03FFFFB9
:1023A0000001C1FFF0631FE00FCFFFC1AA03FFFFD1
:1023B000FFFFC1F38F9C18FFFFFFFFC00203FFFF69
:1023C000FFFFC1F38F9C18FFFFFFFFC14203FFFC1B
:1023D0000001CE738C6318E700007FC1F603FFF89D
:1023E0000001CE739C6318E600007FC1A203FFF8D2
:1023F0000001CE318C6318E700007FC00003FFF8B6
:10240000FFF9CE00007F071F3FFE7FC00003FFF8EB
:10241000FFF9CE00007F071F3FFE7FC00003FFF8DB
:10242000E039FFFC6077C7E7380E7FC00003FFF894
:10243000C039FFFC7063E7E7380E7FC00103FFF887
:10244000C039FFFC7063E7C7380E7FC06383FFF8B5
:10245000C039F0738F9F1F07380E7FC06303FFF8EA
:10246000C039F0738F9F1F07380E7FC06603FFF8D7
:10247000C039E023DFBF1F8F380E7FC06803FFF82D
:10248000C039CE03FC7F07FF380E7FC1F003FFF891
:10249000E039CE03FC7F07FF380E7FC06C03FFF8E6
:1024A000FFF9FF8C73E0F8E73FFE7FC06203FFF89F
:1024B000FFF9FF8C63E0F8E73FFE7FC06303FFF89E
:1024C0007FF1FFDEF3E0F8E71FFC7FC07103FFF848
:1024D0000001FFFFF3E0F8E700007FC00103FFF811
:1024E0000001FFFFF3E0F8E700007FC00003FFFFFB
:1024F000FFFFFFFFFFFFFFFFFFFFFFC00003FFFF26
:10250000FFFFFFFFFFFFFFFFFFFFFFC00003FFFF15
:10251000FFFFFFFFFFFFFFFFFFFFFFC00003FFFF05
:10252000FFFFFFFFFFFFFFFFFFFFFFC00003FFFFF5
:10253000FFFFFFFFFFFFFFFFFFFFFFC00003FFFFE5
:10254000FFFFFFFFFFFFFFFFFFFFFFFFFFFFFFFF9B
:10255000FFFFFFFFFFFFFFFFFFFFFFFFFFFFFFFF8B
:10256000FFFFFFFFFFFFFFFFFFFFFFFFFFFFFFFF7B
:10257000FFFFFFFFFFFFFFFFFFFFFFFFFFFFFFFF6B
:10258000FFFFFFFFFFFFFFFFFFFFFFFFFFFFFFFF5B
:10259000FFFFFFFFFFFFFFFFFFFFFFFFFFFFFFFF4B
:1025A000FFFFFFFF80000000FFFFFFFFFFFFFFFFB7
:1025B000FFFFCFFC0000001F3FFFFFFFFFFFFFFFFB
:1025C000FFFF87F00000007F9FFFFFFFFFFFFFFF7F
:1025D000FFFF3800000000FF81FFFFFFFFFFFFFF4C
:1025E000FFFE7800000003FF21FFFFFFFFFFFFFF5A
:1025F000FFFE3C0000000FFE71FFFFFFFFFFFFFF2B
:10260000FFFC040000003FFF7BFFFFFFFFFFFFFF19
:10261000FFFC04000000FFFFCFFFFFFFFFFFFFFFF5
:10262000FFFC02080003FFFF87FFFFFFFFFFFFFF24
:10263000FFFC03FFE1FFFFFE67FFFFFFFFFFFFFF60
:10264000FFFC03FFFFFFFFF9EFFFFFFFFFFFFFFFAF
:10265000FFFC78FFFFFFFFF7FFFFFFFFFFFFFFFF1C
:10266000FFFCF33FFFFFFFC7FFFFFFFFC0FFFFFFC0
:10267000FFFDF70FFFFFFF1FFFFFFFFFBFFFFFFF84
:10268000FFFDF733FFFFFC7FF7FFFFFFBFFFFFFFFB
:10269000FFFDF77C7FFFF3F003FFFFFFDFFFFFFF8E
:1026A000FFFDF77F07FE000007FFFFFFC0FFFFFFF2
:1026B000FFFDFF7F380000000FFFFFFFBFFFFFFFA0
:1026C000FFFFFFFF7FF800001FFFFFFFBFFFFFFFBF
:1026D000FFFFFFFF7FE000001FFFFFFFDFFFFFFFA7
:1026E000FFFFFFFF7F000000E7FFFFFF80FFFFFF0E
:1026F000FFFFFFFFF8000001FBFFFFFFFFFFFFFFF1
:10270000FFFFFFFFF0000007FDFFFFFFFFFFFFFFE0
:10271000FFFFFFFFC000000FFC0FFFFFFFFFFFFFE9
:10272000FFFFFFFC0000007FFC07FFFFC1FFFFFF72
:10273000FFFFFF80000003FFFC07FFFF9CFFFFFF80
:10274000FFFFFC0000001FFFF3C7FFFFBEFFFFFFFE
:10275000FFFFF0001FFFFFFFC3FFFFFFBEFFFFFFF4
:10276000FFFFEC00FFFFFFFFFDFFFFFF9CFFFFFFF0
:10277000FFFFEC01FFFFFFFFFC1FFFFFC1FFFFFF9B
:10278000FFFFC403FFFFFFFFFC1FFFFFFFFFFFFF73
:10279000FFFFC207FFFFFFFFF91FFFFFFFFFFFFF64
:1027A000FFFFC30FFFFFFFFFF39FFFFFFFFFFFFFD1
:1027B000FFFFC0FFFFFFFFFF8FDFFFFFBEFFFFFF39
:1027C000FFFFD03FFFFFFFFE3FDFFFFFBEFFFFFF2A
:1027D000FFFFF7CFFFFFFFF0FFFFFFFFBEFFFFFF91
:1027E000FFFFF7C0FFFFFE07FFFFFFFFDCFFFFFF5C
:1027F000FFFFEFC70FFFF0F0FFFFFFFFE1FFFFFF5D
:10280000FFFFEFC3F0000FC0FFFFFFFFFFFFFFFF61
:10281000FFFFEFBCFFFE7F1EFFFFFFFFFFFFFFFF7D
:10282000FFFFEFBE7FFFFCFFFFFFFFFFFCFFFFFF8F
:10283000FFFFFFFE9FFFF1FFFFFFFFFFFCFFFFFF1A
:10284000FFFFFFFFE3FFCFFFFFFFFFFFFFFFFFFFE4
:10285000FFFFFFFFFC080FFFFFFFFFFFFFFFFFFF72
:10286000FFFFFFFFFFE007FFFFFFFFFFBFFFFFFFCF
:10287000FFFFFFFFFFFC03FFFFFFFFFFC7FFFFFF9F
:10288000FFFFFFFFFFFFC1FFFFFFFFFFF8FFFFFF9D
:10289000FFFFFFFFFFFFFFFFFFFFFFFFF83FFFFF0F
:1028A000FFFFFFFFFFFFFFFFFFFFFFFFC7DFFFFF90
:1028B000FFFFFFFFFFFFFFFFFFFFFFFFBFDFFFFF88
:1028C000FFFFFFFFFFFFFFFFFFFFFFFFFFFFFFFF18
:1028D000FFFFFFFFFFFFFFE01FFFFFFFFFFFFFFF07
:1028E000FFFFFFFFFFFFE0003FFFFFFFFFFFFFFFD6
:1028F000FFFFFFFFFFFC00007FFFFFFFC0FFFFFFA8
:10290000FFFFFFFFFFC00000FFFFFFFFB5FFFFFF5E
:10291000FFFFFFFFFC000001FFFFFFFFB6FFFFFF0F
:10292000FFFFFFFFF0000003FFFFFFFFD6FFFFFFE9
:10293000FFFFFFFFC000000FFFFFFFFFF9FFFFFFDA
:10294000FFFFFFFF00FFFFE3FFFFFFFFFFFFFFFFB2
:10295000FFFFFFFC0FFFFFFC7FFFFFFFFFFFFFFFFD
:10296000FFFF8F007FFFFFFF8FFFFFFFFFFFFFFFD6
:10297000FFFF7001FFFFFFFFF1F7FFFC00FFFFFF0C
:10298000FFFF3003FFFFFFFFFE47FFFFFFFFFFFFDB
:10299000FFFF800FFFFFFFFFFE07FFFFFFFFFFFFAF
:1029A000FFFE301FFFFFFFFFFE07FFFFFFFFFFFFE0
:1029B000FFFC183FFFFFFFFFFCC7FFFFFFFFFFFF0C
:1029C000FFF80C7FFFFFFFFFFDE7FFFFC1FFFFFFE9
:1029D000FFF806FFFFFFFFFFFFFFFFFF9CFFFFFF6A
:1029E000FFF803FFFFFFFFFFFDFFFFFFBEFFFFFF3D
:1029F000FFF803FFFFFFFFFFFDFFFFFFBEFFFFFF2D
:102A0000FFF801FFFFFFFFFFFC0FFFFFDDFFFFFFF0
:102A1000FFF23E7FFFFFFFFFFC0FFFFF801FFFFF66
:102A2000FFF6BFBFFFFFFFFFFC0FFFFFFFFFFFFF32
:102A3000FFF5FFDFFFFFFFFFFD8FFFFFFFFFFFFF42
:102A4000FFF5FFE7FFFFFFFFE3CFFFFFFFFFFFFF04
:102A5000FFF3FFFBFFFFFFFE1FEFFFFFB9FFFFFFCD
:102A6000FFF7FFFDFFFFFFF8FFFFFFFFB6FFFFFFD0
:102A7000FFF7FFFE7FFFFF81FFFFFFFFB6FFFFFFB6
:102A8000FFF7F0FE07FFE799FFFFFFFFCEFFFFFF15
:102A9000FFFFE600300003DFFFFFFFFFFFFFFFFF48
:102AA000FFFFC303FE00003FFFFFFFFFFFFFFFFF2D
:102AB000FFFFB107FFC00007FFFFFFFFFFFFFFFFA2
:102AC000FFFFA10FFFF800001FFFFFFFFFFFFFFF49
:102AD000FFFF809FFFFFC0000FFFFFFC80FFFFFF95
:102AE000FFFF3E7FFFFFFF8FFFFFFFFFFFFFFFFFA7
:102AF000FFFF7FBFFFFFFF81FFFFFFFFFFFFFFFF24
:102B0000FFFFFFCFFFFFFF81FFFFFFFFFFFFFFFF83
:102B1000FFFFFFF7FFFFFE79FFFFFFFC00FFFFFF56
:102B2000FFFFFFF9FFFFFCFFFFFFFFFF9DFFFFFF20
:102B3000FFFFFFFE7FFFE3FFFFFFFFFFBEFFFFFF83
:102B4000FFFFFFFF9FFF1FFFFFFFFFFFBEFFFFFF16
:102B5000FFFFFFFFE1FCFFFFFFFFFFFF9CFFFFFF09
:102B6000FFFFFFFFFF00FFFFFFFFFFFFC1FFFFFFB2
:102B7000FFFFFFF7FFC07FFFFFFFFFFFFFFFFFFF2C
:102B8000FFFFFFE7FFE01FFFFFFFFFFFFFFFFFFF6C
:102B9000FFFFFFE7FFFC0FFFFFFFFFFFFFFFFFFF50
:102BA000FFFFFFE7FFFFFFFFFFFFFFFFF7FFFFFF55
:102BB000FFFFFFE7FFFFFFFFFFFFFFFFF7FFFFFF45
:102BC000FFFFFFE43E07FFFFFFFFFFFFF7FFFFFFF1
:102BD000FFFFFFE0600FFFFFFFFFFFFFFFFFFFFFB3
:102BE000FFFFF001E003DFFFFFFFFFFFFFFFFFFF3D
:102BF000FFFFC403803C1FFFFFFFFFFFFFFFFFFF3E
:102C0000FFFFC62000FF0FFFFFFFFFFFFFFFFFFFDB
:102C1000FFFFC3E001FFEC00003FFFFC00FFFFFFF0
:102C2000FFFFF9C007F800000007FFFF9DFFFFFF4F
:102C3000FFFFFC001C0000000003FFFFBEFFFFFFC2
:102C4000FFFFD000000000000001FFFFBEFFFFFFFC
:102C5000FFFFD800000000000001FFFF9CFFFFFF06
:102C6000FFFF9C00000000000007FFFFC1FFFFFF07
:102C7000FFFF820000000000001FFFFFFFFFFFFFBB
:102C8000FFFF83E00000000000FFFFFFFFFFFFFFEA
:102C9000FFFF9FE00000000001FFFFFFFFFFFFFFBD
:102CA000FFFFBFC0000000007E1FFFFFC1FFFFFF4E
:102CB000FFFFBF800000000FFFE0F8FF9CFFFFFF59
:102CC000FFFFBF00000001FFFFFE003FBEFFFFFF50
:102CD000FFFFFE0000007FFFFFFF00FFBEFFFFFFC2
:102CE000FFFFFC00003FFFFFFFFF00FF9CFFFFFF17
:102CF000FFF7F8003FFFFFFFFFFF001FC1FFFFFFCF
:102D0000FFFBF000FFFFFFFFFFFF007FFFFFFFFF64
:102D1000FFF9E001FFFFFFFFFFFF703FFFFFFFFF35
:102D2000FFFC0001FFFFFFFFFFFE785FFFFFFFFFDB
:102D3000FFFC0007FFFFFFFFFFF9FE7FFFFFFFFF24
:102D4000FF80001FFFFFFFFFFFFDFF3FC1FFFFFFF1
:102D5000F800007FFFFFFFFFFFFDFFBF9CFFFFFFAD
:102D6000F3C000FFFFFFFFFFFFFDFFFFBEFFFFFF00
:102D7000E7C001FFFFFFFFFFFFFE3FFFBEFFFFFFBA
:102D8000E7E00FFFFFFFFFFFFFFFC0FF9CFFFFFF1C
:102D9000E0103FFFFFFFFFFFFFFFC0FFC1FFFFFF8E
:102DA000E00FFFFFFFFFFFFFFFFFC0FFFFFFFFFF81
:102DB000E00FFFFFFFFFFFFFFFFFC0FFFFFFFFFF71
:102DC000E000FFFFFFFFFFFFFFFFB8FFFFFFFFFF78
:102DD000E01F07FFFFFFFFFFFFFF7CFF807FFFFF7C
:102DE000E03FF8FFFFFFFFFFFFFCFFFFDDBFFFFF3E
:102DF000E07FFF1FFFFFFFFFFFF3FFFFBEDFFFFFCF
:102E0000F2FFFFE7FFFFFFFFFFE7FFFFBEDFFFFF70
:102E1000F3FFFFF3FFFFFFFFFF9FFFFF9CDFFFFFBD
:102E2000F3FFFFE03FFFFFFFFC7FFFFFC1BFFFFF9E
:102E3000F7FFFFC1CFFFFFFFE3FFFFFFFFFFFFFF34
:102E4000F7FFFF83F0FFFFFF01FFFFFFFFFFFFFF23
:102E5000F7FFFF03FF01FC0000FFFFFFFFFFFFFF85
:102E6000F7FFFE03FFFE03F0007FFFFFFCFFFFFF05
:102E7000F7F80007FFFFFFF600FFFFFFFCFFFFFF73
:102E8000F7F00007FFFFFFCFFFFFFFFFFFFFFFFF90
:102E9000F3F0080FFFFFFF3FFFFFFFFFFFFFFFFF04
:102EA000F3F1041FFFFFFCFFFFFFFFFF9FFFFFFF8A
:102EB000F3F003FFFFFFE3FFFFFFFFFFE3FFFFFF71
:102EC000FBF803FFFFFF1FFFFFFFFFFFFCFFFFFFFC
:102ED000FBFC1CFFFFF8FFFFFFFFFFFFE1FFFFFF11
:102EE000FBFFFF3FFFC7FFFFFFFFFFFF9FFFFFFF4E
:102EF000FFFFFFC7F03FFFFFFFFFFFFFC3FFFFFF25
:102F0000FFFFFFF807FFFFFFFFFFFFFFF8FFFFFFD7
:102F1000FFFFFFFFFFFFFFFFFFFFFFFFC3FFFFFFFD
:102F2000FFFFFFFFFFFFFFFFFFFFFFFF9FFFFFFF11
:102F3000FFFFFFFFFFFFFFFFFFFFFFFFFFFFFFFFA1
:102F4000FFFFFFFFFFFFFFFFFFFFFFFFFFFFFFFF91
:102F5000FFFFFFFFFFFFFFFFFFFFFFFF9FFFFFFFE1
:102F6000FFFFFFFFFFFFCFFFFFFFFFFFE3FFFFFFBD
:102F7000FFFFFFFFFFF00FFFFFFFFFFFFCFFFFFF63
:102F8000FFFFFFFFFE001FFFFFFFFFFFE1FFFFFF4F
:102F9000FFFFFFFFF807E1FFFFFFFFFF9FFFFFFFBE
:102FA000FFFFFFFFF07FFC3FFFFFFFFFC3FFFFFFBF
:102FB000FFFFFFFFE7FFFE3FFFFFFFFFF8FFFFFF01
:102FC000FFFFFFFFCFFFFDFFFFFFFFFFC3FFFFFF7F
:102FD000FFFFFFFF9FFFFBFFFFFFFFFF9FFFFFFFC5
:102FE000FFFFFFF03FFFF9FFFFFFFFFFFFFFFFFFC6
:102FF000FFFFFFE43FFC007FFFFFFFFF9FFFFFFF9E
:10300000FFFFFFCE7FC00000FFFFFFFFE3FFFFFFDA
:10301000FFFFFFEDFE000001FFFFFFFFFCFFFFFFD2
:10302000FFFFFFE3F8000007FFFFFFFFE1FFFFFFE7
:10303000FFFFFFF3F00000F9FFFFFFFF9FFFFFFF1F
:10304000FFFFFFF7E0003FFE003FFFFFC3FFFFFF72
:10305000FFFFFFFF800FFFF0000FFFFFF8FFFFFFF4
:10306000FFFFFFFE001FFF00000FFFFFC3FFFFFF7A
:10307000FFFFFEC0007FF0000007FFFF9FFFFFFF84
:10308000FFFFFDE001FE00000003FFFFFFFFFFFF69
:10309000FFFFFBE007E000000003FFFFFFFFFFFF73
:1030A000FFFFF030078000000007FFFFFFFFFFFF7A
:1030B000FFFFF0180E000000001FFFFFFFFFFFFFE3
:1030C000FFFFF0181800000001FFFFFFFFFFFFFFE8
:1030D000FFFFF01E6000000003FFFFFFFFFFFFFF88
:1030E000FFFFF00FC00FFFFFFC1FFFFFFFFFFFFF01
:1030F000FFFFF07F80FFFFFFFFC3FFFFFFFFFFFF2A
:10310000FFFFF1FF07FFFFFFFFFCFFFFFFFFFFFFD8
:10311000FFFFF7FE0FFFFFFFFFFF1FFFFFFFFFFF98
:10312000FFFFF3F83FFFFFFFFFFFE7FFFFFFFFFF9A
:10313000FFFFF7F0FFFFFFFFFFFFF9FE7FFFFFFF3D
:10314000FFFFF7C1FFFFFFFFFFFFFE007FFFFFFF55
:10315000FFFFE703FFFFFFFFFFFFFF003FFFFFFF52
:10316000FFFBC007FFFFFFFFFFFFFF003FFFFFFF69
:10317000FFE1E00FFFFFFFFFFFFFFE003FFFFFFF4C
:10318000FFC0301FFFFFFFFFFFFFFC3CFFFFFFFF03
:10319000FF80101FFFFFFFFFFFFFF9FEFFFFFFFF94
:1031A000FF80003FFFFFFFFFFFFFFBFFFFFFFFFF71
:1031B000FF000C3FFFFFFFFFFFFFFBFFFFFFFFFFD5
:1031C000FF000FFFFFFFFFFFFFFFFBFFFFFFFFFF02
:1031D000FF000FFFFFFFFFFFFFFFF3FFFFFFFFFFFA
:1031E000FF0000FFFFFFFFFFFFFFF7FFFFFFFFFFF5
:1031F000FF003F1FFFFFFFFFFFFFF3FFFFFFFFFF8A
:10320000FF00FFE3FFFFFFFFFFFFF8FFFFFFFFFFF0
:10321000FF43FFFCFFFFFFFFFFFFFE31FFFFFFFF4C
:10322000FE67FFFF3FFFFFFFFFFFFF81FFFFFFFF85
:10323000FECFFFFF87FFFFFFFFFFFF81FFFFFFFFC5
:10324000FEDFFFFFB9FFFFFFFFFFFF81FFFFFFFF73
:10325000FFBFFFFF7E3FFFFFFFFFFE21FFFFFFFFDE
:10326000FD7FFFFF7F8FFFFFFFFFF0F0FFFFFFFFFE
:10327000FC7FFFFFFFF1FFFFFFFF07F9FFFFFFFFED
:10328000FCFFFFFFFFFE3FFFFFF87FFDFFFFFFFF9B
:10329000FDFFFFFFFFFF07FFFF83FFFFFFFFFFFFB4
:1032A000FDFFFFFFFFFE003FFC3FFFFFFFFFFFFFB3
:1032B000FDFFFFFFFFF0000001FFFFFFFFFFFFFF2B
:1032C000FFFFFFFFFFC0000001FFFFFFFFFFFFFF49
:1032D000FFFFFFFFFF80000000FFFFFFFFFFFFFF7A
:1032E000FFFFFFFFFE00000000FFF7FFFFFFFFFFF3
:1032F000FFFFFFFFFC00000001FFE7FFFFFFFFFFF4
:10330000FFFFFFFFF00000000007E7FFFFFFFFFFE8
:10331000FFFFFFFFE0000001FFF9EFFFFFFFFFFFEE
:10332000FFFFFE0000001FFFFFFE0FFFFFFFFFFF7C
:10333000FFFFFCF0003FFFFFFFFF07FFFFFFFDFF68
:10334000FFFFF8F0007FFFFFFFFF0FFFFFFFFDFF14
:10335000FFFFF0F800FFFFFFFFFF7FFFFFFFFDFF14
:10336000FFFFE00801FFFFFFFFFE7FFFFFFFFDFF04
:10337000FFFFC00803FFFFFFFFFCFFFFFFFFFDFF94
:10338000FFFFC0040FFFFFFFFFF3FFFFFFFFFCFF86
:10339000FFFFC0067FFFFFFFFFF7FFFFFFFFFCFF00
:1033A000FFFFC003FFFFFFFFFFF0FFFFFFFFFCFF7A
:1033B000FFFFC0FDFFFFFFFFFFFE3FFFFFFFFC7FA2
:1033C000FFFFC4FEFFFFFFFFFFFE1FFFFFFFFC7FAD
:1033D000FFFFC5FF7FFFFFFFFFFC1FFFFFFFFDBFDC
:1033E000FFFFEDFFBFFFFFFFFFFB9FFFFFFFFDBFE5
:1033F000FFFFEBFFCFFFF00000078FFFFFFFFD9FF8
:10340000FFFFEBFFF78000000003CFFFFFFFFCCFC3
:10341000FFFFE7FF800000000001CFFFFFFFFCC7B8
:10342000FFFFE7FE000000000007DFFFFFFFFCE7F3
:10343000FFFFE7F000000000003FDFFFFFFFFCE3BD
:10344000FFFFE7C00000000003FFFFFFFFFFFCE3FA
:10345000FFFFF7000000000000001FFFFFFFFCE17E
:10346000FFFFF60000000000000001FFFFFFFC600E
:10347000FFFFFE003FFFFFFFFFFFFE3FFFFFFC607F
:103480007FFFFC07FFFFFFFFFFFFFFCFFFFFF800FD
:103490007FFFF87FFFFFFFFFFFFFFFF1FFFFF80057
:1034A0003FFFF0FFFFFFFFFFFFFFFFFE1FFFF800E2
:1034B0001FFFE0FFFFFFFFFFFFFFFFFFCFFFF80051
:1034C0000FFFC1FFFFFFFFFFFFFFFFFFE7FFF80058
:1034D00003FF01FFFFFFFFFFFFFFFFFFC1FFFC0036
:1034E000000003FFFFFFFFFFFFFFFFFF00FFFC00E7
:1034F000000007FFFFFFFFFFFFFFFFFF007FFC0053
:10350000000007FFFFFFFFFFFFFFFFFE003FFE0081
:1035100000000FFFFFFFFFFFFFFFFFFE001FFE0089
:1035200000101FFFFFFFFFFFFFFFFFF0003FFF0046
:1035300000183FFFFFFFFFFFFFFFFFCE001FFF80D0
:10354000000FFFFFFFFFFFFFFFFFFFBF001FFFC0D8
:10355000000FFFFFFFFFFFFFFFFFFF7F801FFFE068
:10356000000FFFFFFFFFFFFFFFFFFEFFC07FFFF623
:10357000001FFFFFFFFFFFFFFFFFFEFFE47FFFF9DC
:10358000801FFFFFFFFFFFFFFFFFFDFFF23FFFFE7A
:103590007C7FFFFFFFFFFFFFFFFFFDFFF9FFFFFF46
:1035A000803FFFFFFFFFFFFFFFFFFDFFFCFFFFFF6F
:1035B000E01FFFFFFFFFFFFFFFFFFBFFFFFFFFFF1E
:1035C000F80FFFFFFFFFFFFFFFFFFBFFFFFFFFFF06
:1035D000FC0FFFFFFFFFFFFFFFFFFBFFFFFFFFFFF2
:1035E000FE07FFFFFFFFFFFFFFFFFBFFFFFFFFFFE8
:1035F000FF03FFFFFFFFFFFFFFFFFBFFFFFFFFFFDB
:10360000FF83FFFFFFFFFFFFFFFFFBFFFFFFFFFF4A
:10361000FFC1FFFFFFFFFFFFFFFFFDFFFFFFFFFFFA
:10362000FFE0FFFFFFFFFFFFFFFFFDFFFFFFFFFFCB
:10363000FFF0FFFFFFFFFFFFFFFFFEFFFFFFFFFFAA
:10364000FFF87FFFFFFFFFFFFFFFFF1FFFFFFFFFF1
:10365000FFFC3FFFFFFFFFFFFFFFFFE003FFFFFF58
:10366000FFFE1FFFFFFFFFFFFFFFFFFFC1FFFFFF89
:10367000FFFF0FFFFFFFFFFFFFFFFFFFC07FFFFF09
:10368000FFFF87FFFFFFFFFFFFFFFFFFC0BFFFFF41
:10369000FFFFC3FFFFFFFFFFFFFFFFFF80FFFFFFF5
:1036A000FFFFE0FFFFFFFFFFFFFFFFFF807FFFFF48
:1036B000FFFFF83FFFFFFFFFFFFFFFFF001FFFFFC0
:1036C000FFFFFC07FFFFFFFFFFFFFFFC00FFFFFF07
:1036D000FFFFFF007FFFFFFFFFFFFFC3E03FFFFF94
:1036E000FFFFFFC007FFFFFFFFFFFC3FE0FFFFFF03
:1036F000FFFFFFF0000FFFFFFFFF03FFF87FFFFF5B
:10370000FFFFFFFC000000000000FFFFFDBFFFFF08
:10371000FFFFFFFF80000000003FFFFFFEFFFFFFF5
:10372000FFFFFFFFF0000001FFFFFFFFFFFFFFFFB4
:10373000FFFFFFFFFE0000003FFFFFFFFFFFFFFF57
:10374000FFFFFFFFFFE000000FFFFFFFFFFFFFFF96
:10375000FFFFFFFFFFFF000000FFFFFFFFFFFFFF76
:10376000FFFFFFFFFFFFFE0000FFFFFFFFFFFFFF68
:10377000FFFFFFFFFFFFFFFFFFFFFFFFFFFFFFFF59
:10378000FFFFFFFFFFFFFFFFFFFFFFFFFFFFFFFF49
:10379000FFFFFFFFFFFFFFFFFFFFFFFFFFFFFFFF39
:1037A000FFFFFFFFFFFFFFFFFFFFFFFFFFFFFFFF29
:1037B000FFFFFFFFFFFFFFFFFFFFFFFFFFFFFFFF19
:1037C000FFFFFFFFFFFFFFFFFFFFFFFFFFFFFFFF09
:1037D000FFFFFFFFFFFFFFFFFFFFFFFFFFFFFFFFF9
:1037E000FFFFFFFFFFFFFFFFFFFFFFFFFFFFFFFFE9
:1037F000FFFFFFFFFFFFFFFFFFFFFFFFFFFFFFFFD9
:10380000FFFFFFFFFFFFFFFFFFFFFFFFFFFFFFFFC8
:10381000FFFFFFFFFFFFFFFFFFFFFFFFFFFF0000B6
:103820004038000800000020200000006C01000863
:1038300060380008200000206006000088010008B1
:103840000000000001020304010203040607080946
:103850000204060800000000000000000000000054
:0400000508000131BD
:00000001FF
